
DrumTabberCollector.elf:     file format elf32-littlearm

Sections:
Idx Name          Size      VMA       LMA       File off  Algn
  0 .text         00003168  00400000  00400000  00008000  2**2
                  CONTENTS, ALLOC, LOAD, READONLY, CODE
  1 .relocate     00000578  20000000  00403168  00010000  2**3
                  CONTENTS, ALLOC, LOAD, DATA
  2 .bss          00000fbc  20000578  004036e0  00010578  2**2
                  ALLOC
  3 .stack        00003004  20001534  0040469c  00010578  2**0
                  ALLOC
  4 .ARM.attributes 0000002a  00000000  00000000  00010578  2**0
                  CONTENTS, READONLY
  5 .comment      0000005b  00000000  00000000  000105a2  2**0
                  CONTENTS, READONLY
  6 .debug_frame  0000013c  00000000  00000000  00010600  2**2
                  CONTENTS, READONLY, DEBUGGING

Disassembly of section .text:

00400000 <_sfixed>:
  400000:	20004538 	.word	0x20004538
  400004:	00402b29 	.word	0x00402b29
  400008:	00402b25 	.word	0x00402b25
  40000c:	00402b25 	.word	0x00402b25
  400010:	00402b25 	.word	0x00402b25
  400014:	00402b25 	.word	0x00402b25
  400018:	00402b25 	.word	0x00402b25
	...
  40002c:	00402b25 	.word	0x00402b25
  400030:	00402b25 	.word	0x00402b25
  400034:	00000000 	.word	0x00000000
  400038:	00402b25 	.word	0x00402b25
  40003c:	00402cd9 	.word	0x00402cd9
  400040:	00402b25 	.word	0x00402b25
  400044:	00402b25 	.word	0x00402b25
  400048:	00402b25 	.word	0x00402b25
  40004c:	00402b25 	.word	0x00402b25
  400050:	00402b25 	.word	0x00402b25
  400054:	00402b25 	.word	0x00402b25
  400058:	00402b25 	.word	0x00402b25
  40005c:	00000000 	.word	0x00000000
  400060:	00402b25 	.word	0x00402b25
  400064:	00402b25 	.word	0x00402b25
  400068:	00000000 	.word	0x00000000
  40006c:	004028f5 	.word	0x004028f5
  400070:	00402901 	.word	0x00402901
  400074:	0040290d 	.word	0x0040290d
  400078:	00402b25 	.word	0x00402b25
  40007c:	00402b25 	.word	0x00402b25
	...
  400088:	00402b25 	.word	0x00402b25
  40008c:	00402b25 	.word	0x00402b25
  400090:	00402b25 	.word	0x00402b25
  400094:	00402b25 	.word	0x00402b25
  400098:	00402b25 	.word	0x00402b25
  40009c:	00402b25 	.word	0x00402b25
  4000a0:	00402b25 	.word	0x00402b25
  4000a4:	00402b25 	.word	0x00402b25
  4000a8:	00402b25 	.word	0x00402b25
  4000ac:	00402b25 	.word	0x00402b25
  4000b0:	00402b25 	.word	0x00402b25
  4000b4:	004020c5 	.word	0x004020c5
  4000b8:	00402b25 	.word	0x00402b25
  4000bc:	00402b25 	.word	0x00402b25
  4000c0:	00402b25 	.word	0x00402b25
  4000c4:	00402b25 	.word	0x00402b25
  4000c8:	0040122d 	.word	0x0040122d

004000cc <__do_global_dtors_aux>:
  4000cc:	b510      	push	{r4, lr}
  4000ce:	4c05      	ldr	r4, [pc, #20]	; (4000e4 <__do_global_dtors_aux+0x18>)
  4000d0:	7823      	ldrb	r3, [r4, #0]
  4000d2:	b933      	cbnz	r3, 4000e2 <__do_global_dtors_aux+0x16>
  4000d4:	4b04      	ldr	r3, [pc, #16]	; (4000e8 <__do_global_dtors_aux+0x1c>)
  4000d6:	b113      	cbz	r3, 4000de <__do_global_dtors_aux+0x12>
  4000d8:	4804      	ldr	r0, [pc, #16]	; (4000ec <__do_global_dtors_aux+0x20>)
  4000da:	f3af 8000 	nop.w
  4000de:	2301      	movs	r3, #1
  4000e0:	7023      	strb	r3, [r4, #0]
  4000e2:	bd10      	pop	{r4, pc}
  4000e4:	20000578 	.word	0x20000578
  4000e8:	00000000 	.word	0x00000000
  4000ec:	00403168 	.word	0x00403168

004000f0 <frame_dummy>:
  4000f0:	b508      	push	{r3, lr}
  4000f2:	4b06      	ldr	r3, [pc, #24]	; (40010c <frame_dummy+0x1c>)
  4000f4:	b11b      	cbz	r3, 4000fe <frame_dummy+0xe>
  4000f6:	4806      	ldr	r0, [pc, #24]	; (400110 <frame_dummy+0x20>)
  4000f8:	4906      	ldr	r1, [pc, #24]	; (400114 <frame_dummy+0x24>)
  4000fa:	f3af 8000 	nop.w
  4000fe:	4806      	ldr	r0, [pc, #24]	; (400118 <frame_dummy+0x28>)
  400100:	6803      	ldr	r3, [r0, #0]
  400102:	b113      	cbz	r3, 40010a <frame_dummy+0x1a>
  400104:	4b05      	ldr	r3, [pc, #20]	; (40011c <frame_dummy+0x2c>)
  400106:	b103      	cbz	r3, 40010a <frame_dummy+0x1a>
  400108:	4798      	blx	r3
  40010a:	bd08      	pop	{r3, pc}
  40010c:	00000000 	.word	0x00000000
  400110:	00403168 	.word	0x00403168
  400114:	2000057c 	.word	0x2000057c
  400118:	00403168 	.word	0x00403168
  40011c:	00000000 	.word	0x00000000

00400120 <cpu_irq_save>:
  400120:	f3ef 8010 	mrs	r0, PRIMASK
  400124:	b672      	cpsid	i
  400126:	f3bf 8f5f 	dmb	sy
  40012a:	4b03      	ldr	r3, [pc, #12]	; (400138 <cpu_irq_save+0x18>)
  40012c:	2200      	movs	r2, #0
  40012e:	701a      	strb	r2, [r3, #0]
  400130:	1a83      	subs	r3, r0, r2
  400132:	4258      	negs	r0, r3
  400134:	4158      	adcs	r0, r3
  400136:	4770      	bx	lr
  400138:	20000144 	.word	0x20000144

0040013c <udi_cdc_comm_disable>:
  40013c:	4b02      	ldr	r3, [pc, #8]	; (400148 <udi_cdc_comm_disable+0xc>)
  40013e:	781a      	ldrb	r2, [r3, #0]
  400140:	3a01      	subs	r2, #1
  400142:	b2d2      	uxtb	r2, r2
  400144:	701a      	strb	r2, [r3, #0]
  400146:	4770      	bx	lr
  400148:	20000828 	.word	0x20000828

0040014c <udi_cdc_data_setup>:
  40014c:	2000      	movs	r0, #0
  40014e:	4770      	bx	lr

00400150 <udi_cdc_getsetting>:
  400150:	2000      	movs	r0, #0
  400152:	4770      	bx	lr

00400154 <udi_cdc_line_coding_received>:
  400154:	4770      	bx	lr
	...

00400158 <udi_cdc_data_disable>:
  400158:	b508      	push	{r3, lr}
  40015a:	4b06      	ldr	r3, [pc, #24]	; (400174 <udi_cdc_data_disable+0x1c>)
  40015c:	781a      	ldrb	r2, [r3, #0]
  40015e:	3a01      	subs	r2, #1
  400160:	b2d2      	uxtb	r2, r2
  400162:	701a      	strb	r2, [r3, #0]
  400164:	7818      	ldrb	r0, [r3, #0]
  400166:	f002 fe19 	bl	402d9c <main_cdc_disable>
  40016a:	4b03      	ldr	r3, [pc, #12]	; (400178 <udi_cdc_data_disable+0x20>)
  40016c:	2200      	movs	r2, #0
  40016e:	701a      	strb	r2, [r3, #0]
  400170:	bd08      	pop	{r3, pc}
  400172:	bf00      	nop
  400174:	2000059e 	.word	0x2000059e
  400178:	2000082e 	.word	0x2000082e

0040017c <cpu_irq_restore>:
  40017c:	b128      	cbz	r0, 40018a <cpu_irq_restore+0xe>
  40017e:	4b03      	ldr	r3, [pc, #12]	; (40018c <cpu_irq_restore+0x10>)
  400180:	2201      	movs	r2, #1
  400182:	701a      	strb	r2, [r3, #0]
  400184:	f3bf 8f5f 	dmb	sy
  400188:	b662      	cpsie	i
  40018a:	4770      	bx	lr
  40018c:	20000144 	.word	0x20000144

00400190 <udi_cdc_comm_enable>:
  400190:	b510      	push	{r4, lr}
  400192:	4b10      	ldr	r3, [pc, #64]	; (4001d4 <udi_cdc_comm_enable+0x44>)
  400194:	4c10      	ldr	r4, [pc, #64]	; (4001d8 <udi_cdc_comm_enable+0x48>)
  400196:	2000      	movs	r0, #0
  400198:	7020      	strb	r0, [r4, #0]
  40019a:	8018      	strh	r0, [r3, #0]
  40019c:	4b0f      	ldr	r3, [pc, #60]	; (4001dc <udi_cdc_comm_enable+0x4c>)
  40019e:	22a1      	movs	r2, #161	; 0xa1
  4001a0:	701a      	strb	r2, [r3, #0]
  4001a2:	2220      	movs	r2, #32
  4001a4:	705a      	strb	r2, [r3, #1]
  4001a6:	2202      	movs	r2, #2
  4001a8:	8098      	strh	r0, [r3, #4]
  4001aa:	80da      	strh	r2, [r3, #6]
  4001ac:	8058      	strh	r0, [r3, #2]
  4001ae:	8118      	strh	r0, [r3, #8]
  4001b0:	4b0b      	ldr	r3, [pc, #44]	; (4001e0 <udi_cdc_comm_enable+0x50>)
  4001b2:	f44f 32e1 	mov.w	r2, #115200	; 0x1c200
  4001b6:	601a      	str	r2, [r3, #0]
  4001b8:	2208      	movs	r2, #8
  4001ba:	7118      	strb	r0, [r3, #4]
  4001bc:	7158      	strb	r0, [r3, #5]
  4001be:	719a      	strb	r2, [r3, #6]
  4001c0:	f002 fde6 	bl	402d90 <main_cdc_enable>
  4001c4:	b120      	cbz	r0, 4001d0 <udi_cdc_comm_enable+0x40>
  4001c6:	7823      	ldrb	r3, [r4, #0]
  4001c8:	3301      	adds	r3, #1
  4001ca:	b2db      	uxtb	r3, r3
  4001cc:	7023      	strb	r3, [r4, #0]
  4001ce:	2001      	movs	r0, #1
  4001d0:	bd10      	pop	{r4, pc}
  4001d2:	bf00      	nop
  4001d4:	20000ac2 	.word	0x20000ac2
  4001d8:	20000828 	.word	0x20000828
  4001dc:	20000834 	.word	0x20000834
  4001e0:	20000594 	.word	0x20000594

004001e4 <udi_cdc_tx_send.isra.2>:
  4001e4:	e92d 47f3 	stmdb	sp!, {r0, r1, r4, r5, r6, r7, r8, r9, sl, lr}
  4001e8:	4b35      	ldr	r3, [pc, #212]	; (4002c0 <udi_cdc_tx_send.isra.2+0xdc>)
  4001ea:	781a      	ldrb	r2, [r3, #0]
  4001ec:	4699      	mov	r9, r3
  4001ee:	2a00      	cmp	r2, #0
  4001f0:	d163      	bne.n	4002ba <udi_cdc_tx_send.isra.2+0xd6>
  4001f2:	f001 fc9d 	bl	401b30 <udd_is_high_speed>
  4001f6:	4d33      	ldr	r5, [pc, #204]	; (4002c4 <udi_cdc_tx_send.isra.2+0xe0>)
  4001f8:	882c      	ldrh	r4, [r5, #0]
  4001fa:	b180      	cbz	r0, 40021e <udi_cdc_tx_send.isra.2+0x3a>
  4001fc:	f001 fcca 	bl	401b94 <udd_get_micro_frame_number>
  400200:	4284      	cmp	r4, r0
  400202:	d05a      	beq.n	4002ba <udi_cdc_tx_send.isra.2+0xd6>
  400204:	f7ff ff8c 	bl	400120 <cpu_irq_save>
  400208:	4a2f      	ldr	r2, [pc, #188]	; (4002c8 <udi_cdc_tx_send.isra.2+0xe4>)
  40020a:	4f30      	ldr	r7, [pc, #192]	; (4002cc <udi_cdc_tx_send.isra.2+0xe8>)
  40020c:	7814      	ldrb	r4, [r2, #0]
  40020e:	4e30      	ldr	r6, [pc, #192]	; (4002d0 <udi_cdc_tx_send.isra.2+0xec>)
  400210:	b2e4      	uxtb	r4, r4
  400212:	4680      	mov	r8, r0
  400214:	f837 3014 	ldrh.w	r3, [r7, r4, lsl #1]
  400218:	4692      	mov	sl, r2
  40021a:	b9cb      	cbnz	r3, 400250 <udi_cdc_tx_send.isra.2+0x6c>
  40021c:	e002      	b.n	400224 <udi_cdc_tx_send.isra.2+0x40>
  40021e:	f001 fcb1 	bl	401b84 <udd_get_frame_number>
  400222:	e7ed      	b.n	400200 <udi_cdc_tx_send.isra.2+0x1c>
  400224:	8833      	ldrh	r3, [r6, #0]
  400226:	3301      	adds	r3, #1
  400228:	8033      	strh	r3, [r6, #0]
  40022a:	f001 fc81 	bl	401b30 <udd_is_high_speed>
  40022e:	b940      	cbnz	r0, 400242 <udi_cdc_tx_send.isra.2+0x5e>
  400230:	8833      	ldrh	r3, [r6, #0]
  400232:	2b63      	cmp	r3, #99	; 0x63
  400234:	d805      	bhi.n	400242 <udi_cdc_tx_send.isra.2+0x5e>
  400236:	4640      	mov	r0, r8
  400238:	b002      	add	sp, #8
  40023a:	e8bd 47f0 	ldmia.w	sp!, {r4, r5, r6, r7, r8, r9, sl, lr}
  40023e:	f7ff bf9d 	b.w	40017c <cpu_irq_restore>
  400242:	f001 fc75 	bl	401b30 <udd_is_high_speed>
  400246:	b118      	cbz	r0, 400250 <udi_cdc_tx_send.isra.2+0x6c>
  400248:	8833      	ldrh	r3, [r6, #0]
  40024a:	f5b3 7f48 	cmp.w	r3, #800	; 0x320
  40024e:	d3f2      	bcc.n	400236 <udi_cdc_tx_send.isra.2+0x52>
  400250:	2300      	movs	r3, #0
  400252:	8033      	strh	r3, [r6, #0]
  400254:	4b1f      	ldr	r3, [pc, #124]	; (4002d4 <udi_cdc_tx_send.isra.2+0xf0>)
  400256:	781b      	ldrb	r3, [r3, #0]
  400258:	b933      	cbnz	r3, 400268 <udi_cdc_tx_send.isra.2+0x84>
  40025a:	f1d4 0301 	rsbs	r3, r4, #1
  40025e:	bf38      	it	cc
  400260:	2300      	movcc	r3, #0
  400262:	f88a 3000 	strb.w	r3, [sl]
  400266:	e003      	b.n	400270 <udi_cdc_tx_send.isra.2+0x8c>
  400268:	f1d4 0401 	rsbs	r4, r4, #1
  40026c:	bf38      	it	cc
  40026e:	2400      	movcc	r4, #0
  400270:	2301      	movs	r3, #1
  400272:	4640      	mov	r0, r8
  400274:	f889 3000 	strb.w	r3, [r9]
  400278:	f7ff ff80 	bl	40017c <cpu_irq_restore>
  40027c:	f837 6014 	ldrh.w	r6, [r7, r4, lsl #1]
  400280:	f5b6 76a0 	subs.w	r6, r6, #320	; 0x140
  400284:	bf18      	it	ne
  400286:	2601      	movne	r6, #1
  400288:	b14e      	cbz	r6, 40029e <udi_cdc_tx_send.isra.2+0xba>
  40028a:	f001 fc51 	bl	401b30 <udd_is_high_speed>
  40028e:	b110      	cbz	r0, 400296 <udi_cdc_tx_send.isra.2+0xb2>
  400290:	f001 fc80 	bl	401b94 <udd_get_micro_frame_number>
  400294:	e001      	b.n	40029a <udi_cdc_tx_send.isra.2+0xb6>
  400296:	f001 fc75 	bl	401b84 <udd_get_frame_number>
  40029a:	8028      	strh	r0, [r5, #0]
  40029c:	e000      	b.n	4002a0 <udi_cdc_tx_send.isra.2+0xbc>
  40029e:	802e      	strh	r6, [r5, #0]
  4002a0:	4a0d      	ldr	r2, [pc, #52]	; (4002d8 <udi_cdc_tx_send.isra.2+0xf4>)
  4002a2:	f837 3014 	ldrh.w	r3, [r7, r4, lsl #1]
  4002a6:	9200      	str	r2, [sp, #0]
  4002a8:	4a0c      	ldr	r2, [pc, #48]	; (4002dc <udi_cdc_tx_send.isra.2+0xf8>)
  4002aa:	f44f 75a0 	mov.w	r5, #320	; 0x140
  4002ae:	2081      	movs	r0, #129	; 0x81
  4002b0:	4631      	mov	r1, r6
  4002b2:	fb05 2204 	mla	r2, r5, r4, r2
  4002b6:	f001 fdcd 	bl	401e54 <udd_ep_run>
  4002ba:	b002      	add	sp, #8
  4002bc:	e8bd 87f0 	ldmia.w	sp!, {r4, r5, r6, r7, r8, r9, sl, pc}
  4002c0:	20000830 	.word	0x20000830
  4002c4:	2000082c 	.word	0x2000082c
  4002c8:	2000059f 	.word	0x2000059f
  4002cc:	200005a0 	.word	0x200005a0
  4002d0:	2000059c 	.word	0x2000059c
  4002d4:	20000ac1 	.word	0x20000ac1
  4002d8:	004002e5 	.word	0x004002e5
  4002dc:	200005a4 	.word	0x200005a4

004002e0 <udi_cdc_data_sof_notify>:
  4002e0:	f7ff bf80 	b.w	4001e4 <udi_cdc_tx_send.isra.2>

004002e4 <udi_cdc_data_sent>:
  4002e4:	b970      	cbnz	r0, 400304 <udi_cdc_data_sent+0x20>
  4002e6:	4b08      	ldr	r3, [pc, #32]	; (400308 <udi_cdc_data_sent+0x24>)
  4002e8:	781a      	ldrb	r2, [r3, #0]
  4002ea:	4b08      	ldr	r3, [pc, #32]	; (40030c <udi_cdc_data_sent+0x28>)
  4002ec:	f1d2 0201 	rsbs	r2, r2, #1
  4002f0:	bf38      	it	cc
  4002f2:	2200      	movcc	r2, #0
  4002f4:	f823 0012 	strh.w	r0, [r3, r2, lsl #1]
  4002f8:	4b05      	ldr	r3, [pc, #20]	; (400310 <udi_cdc_data_sent+0x2c>)
  4002fa:	7018      	strb	r0, [r3, #0]
  4002fc:	4b05      	ldr	r3, [pc, #20]	; (400314 <udi_cdc_data_sent+0x30>)
  4002fe:	7018      	strb	r0, [r3, #0]
  400300:	f7ff bf70 	b.w	4001e4 <udi_cdc_tx_send.isra.2>
  400304:	4770      	bx	lr
  400306:	bf00      	nop
  400308:	2000059f 	.word	0x2000059f
  40030c:	200005a0 	.word	0x200005a0
  400310:	20000ac1 	.word	0x20000ac1
  400314:	20000830 	.word	0x20000830

00400318 <udi_cdc_comm_setup>:
  400318:	b508      	push	{r3, lr}
  40031a:	4b15      	ldr	r3, [pc, #84]	; (400370 <udi_cdc_comm_setup+0x58>)
  40031c:	781a      	ldrb	r2, [r3, #0]
  40031e:	f012 0f80 	tst.w	r2, #128	; 0x80
  400322:	f002 0260 	and.w	r2, r2, #96	; 0x60
  400326:	d008      	beq.n	40033a <udi_cdc_comm_setup+0x22>
  400328:	2a20      	cmp	r2, #32
  40032a:	d11e      	bne.n	40036a <udi_cdc_comm_setup+0x52>
  40032c:	785a      	ldrb	r2, [r3, #1]
  40032e:	2a21      	cmp	r2, #33	; 0x21
  400330:	d11b      	bne.n	40036a <udi_cdc_comm_setup+0x52>
  400332:	88da      	ldrh	r2, [r3, #6]
  400334:	2a07      	cmp	r2, #7
  400336:	d118      	bne.n	40036a <udi_cdc_comm_setup+0x52>
  400338:	e012      	b.n	400360 <udi_cdc_comm_setup+0x48>
  40033a:	2a20      	cmp	r2, #32
  40033c:	d115      	bne.n	40036a <udi_cdc_comm_setup+0x52>
  40033e:	785a      	ldrb	r2, [r3, #1]
  400340:	2a20      	cmp	r2, #32
  400342:	d008      	beq.n	400356 <udi_cdc_comm_setup+0x3e>
  400344:	2a22      	cmp	r2, #34	; 0x22
  400346:	d110      	bne.n	40036a <udi_cdc_comm_setup+0x52>
  400348:	8859      	ldrh	r1, [r3, #2]
  40034a:	2000      	movs	r0, #0
  40034c:	f001 0101 	and.w	r1, r1, #1
  400350:	f002 fd2a 	bl	402da8 <main_cdc_set_dtr>
  400354:	e007      	b.n	400366 <udi_cdc_comm_setup+0x4e>
  400356:	88da      	ldrh	r2, [r3, #6]
  400358:	2a07      	cmp	r2, #7
  40035a:	d106      	bne.n	40036a <udi_cdc_comm_setup+0x52>
  40035c:	4905      	ldr	r1, [pc, #20]	; (400374 <udi_cdc_comm_setup+0x5c>)
  40035e:	6119      	str	r1, [r3, #16]
  400360:	4905      	ldr	r1, [pc, #20]	; (400378 <udi_cdc_comm_setup+0x60>)
  400362:	6099      	str	r1, [r3, #8]
  400364:	819a      	strh	r2, [r3, #12]
  400366:	2001      	movs	r0, #1
  400368:	bd08      	pop	{r3, pc}
  40036a:	2000      	movs	r0, #0
  40036c:	bd08      	pop	{r3, pc}
  40036e:	bf00      	nop
  400370:	20001490 	.word	0x20001490
  400374:	00400155 	.word	0x00400155
  400378:	20000594 	.word	0x20000594

0040037c <udi_cdc_multi_get_nb_received_data>:
  40037c:	b510      	push	{r4, lr}
  40037e:	f7ff fecf 	bl	400120 <cpu_irq_save>
  400382:	4b06      	ldr	r3, [pc, #24]	; (40039c <udi_cdc_multi_get_nb_received_data+0x20>)
  400384:	881c      	ldrh	r4, [r3, #0]
  400386:	4b06      	ldr	r3, [pc, #24]	; (4003a0 <udi_cdc_multi_get_nb_received_data+0x24>)
  400388:	781a      	ldrb	r2, [r3, #0]
  40038a:	4b06      	ldr	r3, [pc, #24]	; (4003a4 <udi_cdc_multi_get_nb_received_data+0x28>)
  40038c:	f833 3012 	ldrh.w	r3, [r3, r2, lsl #1]
  400390:	b2a4      	uxth	r4, r4
  400392:	1b1c      	subs	r4, r3, r4
  400394:	f7ff fef2 	bl	40017c <cpu_irq_restore>
  400398:	4620      	mov	r0, r4
  40039a:	bd10      	pop	{r4, pc}
  40039c:	2000082a 	.word	0x2000082a
  4003a0:	2000082f 	.word	0x2000082f
  4003a4:	20000824 	.word	0x20000824

004003a8 <udi_cdc_multi_is_rx_ready>:
  4003a8:	b508      	push	{r3, lr}
  4003aa:	f7ff ffe7 	bl	40037c <udi_cdc_multi_get_nb_received_data>
  4003ae:	3000      	adds	r0, #0
  4003b0:	bf18      	it	ne
  4003b2:	2001      	movne	r0, #1
  4003b4:	bd08      	pop	{r3, pc}
	...

004003b8 <udi_cdc_rx_start.isra.9>:
  4003b8:	b5f7      	push	{r0, r1, r2, r4, r5, r6, r7, lr}
  4003ba:	f7ff feb1 	bl	400120 <cpu_irq_save>
  4003be:	4a1a      	ldr	r2, [pc, #104]	; (400428 <udi_cdc_rx_start.isra.9+0x70>)
  4003c0:	4b1a      	ldr	r3, [pc, #104]	; (40042c <udi_cdc_rx_start.isra.9+0x74>)
  4003c2:	7814      	ldrb	r4, [r2, #0]
  4003c4:	7819      	ldrb	r1, [r3, #0]
  4003c6:	4606      	mov	r6, r0
  4003c8:	b2e4      	uxtb	r4, r4
  4003ca:	f001 05ff 	and.w	r5, r1, #255	; 0xff
  4003ce:	b941      	cbnz	r1, 4003e2 <udi_cdc_rx_start.isra.9+0x2a>
  4003d0:	4917      	ldr	r1, [pc, #92]	; (400430 <udi_cdc_rx_start.isra.9+0x78>)
  4003d2:	f8df e068 	ldr.w	lr, [pc, #104]	; 40043c <udi_cdc_rx_start.isra.9+0x84>
  4003d6:	880f      	ldrh	r7, [r1, #0]
  4003d8:	f83e e014 	ldrh.w	lr, [lr, r4, lsl #1]
  4003dc:	b2bf      	uxth	r7, r7
  4003de:	45be      	cmp	lr, r7
  4003e0:	d904      	bls.n	4003ec <udi_cdc_rx_start.isra.9+0x34>
  4003e2:	4630      	mov	r0, r6
  4003e4:	f7ff feca 	bl	40017c <cpu_irq_restore>
  4003e8:	2000      	movs	r0, #0
  4003ea:	e01b      	b.n	400424 <udi_cdc_rx_start.isra.9+0x6c>
  4003ec:	800d      	strh	r5, [r1, #0]
  4003ee:	f1d4 0101 	rsbs	r1, r4, #1
  4003f2:	bf38      	it	cc
  4003f4:	2100      	movcc	r1, #0
  4003f6:	7011      	strb	r1, [r2, #0]
  4003f8:	2201      	movs	r2, #1
  4003fa:	701a      	strb	r2, [r3, #0]
  4003fc:	f7ff febe 	bl	40017c <cpu_irq_restore>
  400400:	4628      	mov	r0, r5
  400402:	f7ff ffd1 	bl	4003a8 <udi_cdc_multi_is_rx_ready>
  400406:	b110      	cbz	r0, 40040e <udi_cdc_rx_start.isra.9+0x56>
  400408:	4628      	mov	r0, r5
  40040a:	f001 fe39 	bl	402080 <usb_data_recieved>
  40040e:	4a09      	ldr	r2, [pc, #36]	; (400434 <udi_cdc_rx_start.isra.9+0x7c>)
  400410:	9200      	str	r2, [sp, #0]
  400412:	4a09      	ldr	r2, [pc, #36]	; (400438 <udi_cdc_rx_start.isra.9+0x80>)
  400414:	f44f 73a0 	mov.w	r3, #320	; 0x140
  400418:	2002      	movs	r0, #2
  40041a:	2101      	movs	r1, #1
  40041c:	fb03 2204 	mla	r2, r3, r4, r2
  400420:	f001 fd18 	bl	401e54 <udd_ep_run>
  400424:	b003      	add	sp, #12
  400426:	bdf0      	pop	{r4, r5, r6, r7, pc}
  400428:	2000082f 	.word	0x2000082f
  40042c:	20000ac0 	.word	0x20000ac0
  400430:	2000082a 	.word	0x2000082a
  400434:	004004bd 	.word	0x004004bd
  400438:	20000840 	.word	0x20000840
  40043c:	20000824 	.word	0x20000824

00400440 <udi_cdc_data_enable>:
  400440:	b538      	push	{r3, r4, r5, lr}
  400442:	4b13      	ldr	r3, [pc, #76]	; (400490 <udi_cdc_data_enable+0x50>)
  400444:	4d13      	ldr	r5, [pc, #76]	; (400494 <udi_cdc_data_enable+0x54>)
  400446:	2400      	movs	r4, #0
  400448:	702c      	strb	r4, [r5, #0]
  40044a:	701c      	strb	r4, [r3, #0]
  40044c:	4b12      	ldr	r3, [pc, #72]	; (400498 <udi_cdc_data_enable+0x58>)
  40044e:	701c      	strb	r4, [r3, #0]
  400450:	4b12      	ldr	r3, [pc, #72]	; (40049c <udi_cdc_data_enable+0x5c>)
  400452:	701c      	strb	r4, [r3, #0]
  400454:	4b12      	ldr	r3, [pc, #72]	; (4004a0 <udi_cdc_data_enable+0x60>)
  400456:	801c      	strh	r4, [r3, #0]
  400458:	805c      	strh	r4, [r3, #2]
  40045a:	4b12      	ldr	r3, [pc, #72]	; (4004a4 <udi_cdc_data_enable+0x64>)
  40045c:	801c      	strh	r4, [r3, #0]
  40045e:	f7ff fec1 	bl	4001e4 <udi_cdc_tx_send.isra.2>
  400462:	4b11      	ldr	r3, [pc, #68]	; (4004a8 <udi_cdc_data_enable+0x68>)
  400464:	701c      	strb	r4, [r3, #0]
  400466:	4b11      	ldr	r3, [pc, #68]	; (4004ac <udi_cdc_data_enable+0x6c>)
  400468:	701c      	strb	r4, [r3, #0]
  40046a:	4b11      	ldr	r3, [pc, #68]	; (4004b0 <udi_cdc_data_enable+0x70>)
  40046c:	801c      	strh	r4, [r3, #0]
  40046e:	4b11      	ldr	r3, [pc, #68]	; (4004b4 <udi_cdc_data_enable+0x74>)
  400470:	801c      	strh	r4, [r3, #0]
  400472:	f7ff ffa1 	bl	4003b8 <udi_cdc_rx_start.isra.9>
  400476:	b148      	cbz	r0, 40048c <udi_cdc_data_enable+0x4c>
  400478:	782b      	ldrb	r3, [r5, #0]
  40047a:	3301      	adds	r3, #1
  40047c:	b2db      	uxtb	r3, r3
  40047e:	702b      	strb	r3, [r5, #0]
  400480:	782b      	ldrb	r3, [r5, #0]
  400482:	b2db      	uxtb	r3, r3
  400484:	2b01      	cmp	r3, #1
  400486:	bf04      	itt	eq
  400488:	4a0b      	ldreq	r2, [pc, #44]	; (4004b8 <udi_cdc_data_enable+0x78>)
  40048a:	7013      	strbeq	r3, [r2, #0]
  40048c:	bd38      	pop	{r3, r4, r5, pc}
  40048e:	bf00      	nop
  400490:	20000830 	.word	0x20000830
  400494:	2000059e 	.word	0x2000059e
  400498:	20000ac1 	.word	0x20000ac1
  40049c:	2000059f 	.word	0x2000059f
  4004a0:	200005a0 	.word	0x200005a0
  4004a4:	2000082c 	.word	0x2000082c
  4004a8:	20000ac0 	.word	0x20000ac0
  4004ac:	2000082f 	.word	0x2000082f
  4004b0:	20000824 	.word	0x20000824
  4004b4:	2000082a 	.word	0x2000082a
  4004b8:	2000082e 	.word	0x2000082e

004004bc <udi_cdc_data_received>:
  4004bc:	b513      	push	{r0, r1, r4, lr}
  4004be:	4603      	mov	r3, r0
  4004c0:	b9e0      	cbnz	r0, 4004fc <udi_cdc_data_received+0x40>
  4004c2:	480f      	ldr	r0, [pc, #60]	; (400500 <udi_cdc_data_received+0x44>)
  4004c4:	7804      	ldrb	r4, [r0, #0]
  4004c6:	f1d4 0401 	rsbs	r4, r4, #1
  4004ca:	bf38      	it	cc
  4004cc:	2400      	movcc	r4, #0
  4004ce:	b959      	cbnz	r1, 4004e8 <udi_cdc_data_received+0x2c>
  4004d0:	4610      	mov	r0, r2
  4004d2:	4a0c      	ldr	r2, [pc, #48]	; (400504 <udi_cdc_data_received+0x48>)
  4004d4:	490c      	ldr	r1, [pc, #48]	; (400508 <udi_cdc_data_received+0x4c>)
  4004d6:	9100      	str	r1, [sp, #0]
  4004d8:	f44f 73a0 	mov.w	r3, #320	; 0x140
  4004dc:	2101      	movs	r1, #1
  4004de:	fb03 2204 	mla	r2, r3, r4, r2
  4004e2:	f001 fcb7 	bl	401e54 <udd_ep_run>
  4004e6:	e009      	b.n	4004fc <udi_cdc_data_received+0x40>
  4004e8:	4a08      	ldr	r2, [pc, #32]	; (40050c <udi_cdc_data_received+0x50>)
  4004ea:	f822 1014 	strh.w	r1, [r2, r4, lsl #1]
  4004ee:	4a08      	ldr	r2, [pc, #32]	; (400510 <udi_cdc_data_received+0x54>)
  4004f0:	7013      	strb	r3, [r2, #0]
  4004f2:	b002      	add	sp, #8
  4004f4:	e8bd 4010 	ldmia.w	sp!, {r4, lr}
  4004f8:	f7ff bf5e 	b.w	4003b8 <udi_cdc_rx_start.isra.9>
  4004fc:	b002      	add	sp, #8
  4004fe:	bd10      	pop	{r4, pc}
  400500:	2000082f 	.word	0x2000082f
  400504:	20000840 	.word	0x20000840
  400508:	004004bd 	.word	0x004004bd
  40050c:	20000824 	.word	0x20000824
  400510:	20000ac0 	.word	0x20000ac0

00400514 <udi_cdc_is_rx_ready>:
  400514:	2000      	movs	r0, #0
  400516:	f7ff bf47 	b.w	4003a8 <udi_cdc_multi_is_rx_ready>
	...

0040051c <udi_cdc_multi_getc>:
  40051c:	e92d 41f0 	stmdb	sp!, {r4, r5, r6, r7, r8, lr}
  400520:	4b19      	ldr	r3, [pc, #100]	; (400588 <udi_cdc_multi_getc+0x6c>)
  400522:	799d      	ldrb	r5, [r3, #6]
  400524:	f1b5 0309 	subs.w	r3, r5, #9
  400528:	425d      	negs	r5, r3
  40052a:	415d      	adcs	r5, r3
  40052c:	2700      	movs	r7, #0
  40052e:	f7ff fdf7 	bl	400120 <cpu_irq_save>
  400532:	f8df 8068 	ldr.w	r8, [pc, #104]	; 40059c <udi_cdc_multi_getc+0x80>
  400536:	4b15      	ldr	r3, [pc, #84]	; (40058c <udi_cdc_multi_getc+0x70>)
  400538:	f8b8 4000 	ldrh.w	r4, [r8]
  40053c:	781e      	ldrb	r6, [r3, #0]
  40053e:	f7ff fe1d 	bl	40017c <cpu_irq_restore>
  400542:	b2f6      	uxtb	r6, r6
  400544:	4b12      	ldr	r3, [pc, #72]	; (400590 <udi_cdc_multi_getc+0x74>)
  400546:	f833 3016 	ldrh.w	r3, [r3, r6, lsl #1]
  40054a:	b2a4      	uxth	r4, r4
  40054c:	42a3      	cmp	r3, r4
  40054e:	d807      	bhi.n	400560 <udi_cdc_multi_getc+0x44>
  400550:	4b10      	ldr	r3, [pc, #64]	; (400594 <udi_cdc_multi_getc+0x78>)
  400552:	781b      	ldrb	r3, [r3, #0]
  400554:	f003 00ff 	and.w	r0, r3, #255	; 0xff
  400558:	2b00      	cmp	r3, #0
  40055a:	d1e8      	bne.n	40052e <udi_cdc_multi_getc+0x12>
  40055c:	e8bd 81f0 	ldmia.w	sp!, {r4, r5, r6, r7, r8, pc}
  400560:	f44f 73a0 	mov.w	r3, #320	; 0x140
  400564:	fb03 4606 	mla	r6, r3, r6, r4
  400568:	4b0b      	ldr	r3, [pc, #44]	; (400598 <udi_cdc_multi_getc+0x7c>)
  40056a:	3401      	adds	r4, #1
  40056c:	5d9e      	ldrb	r6, [r3, r6]
  40056e:	b2a4      	uxth	r4, r4
  400570:	433e      	orrs	r6, r7
  400572:	f8a8 4000 	strh.w	r4, [r8]
  400576:	f7ff ff1f 	bl	4003b8 <udi_cdc_rx_start.isra.9>
  40057a:	b115      	cbz	r5, 400582 <udi_cdc_multi_getc+0x66>
  40057c:	0237      	lsls	r7, r6, #8
  40057e:	2500      	movs	r5, #0
  400580:	e7d5      	b.n	40052e <udi_cdc_multi_getc+0x12>
  400582:	4630      	mov	r0, r6
  400584:	e8bd 81f0 	ldmia.w	sp!, {r4, r5, r6, r7, r8, pc}
  400588:	20000594 	.word	0x20000594
  40058c:	2000082f 	.word	0x2000082f
  400590:	20000824 	.word	0x20000824
  400594:	2000082e 	.word	0x2000082e
  400598:	20000840 	.word	0x20000840
  40059c:	2000082a 	.word	0x2000082a

004005a0 <udi_cdc_getc>:
  4005a0:	2000      	movs	r0, #0
  4005a2:	f7ff bfbb 	b.w	40051c <udi_cdc_multi_getc>
	...

004005a8 <udi_cdc_multi_get_free_tx_buffer>:
  4005a8:	b570      	push	{r4, r5, r6, lr}
  4005aa:	f7ff fdb9 	bl	400120 <cpu_irq_save>
  4005ae:	4b0f      	ldr	r3, [pc, #60]	; (4005ec <udi_cdc_multi_get_free_tx_buffer+0x44>)
  4005b0:	490f      	ldr	r1, [pc, #60]	; (4005f0 <udi_cdc_multi_get_free_tx_buffer+0x48>)
  4005b2:	781a      	ldrb	r2, [r3, #0]
  4005b4:	b2d2      	uxtb	r2, r2
  4005b6:	f831 4012 	ldrh.w	r4, [r1, r2, lsl #1]
  4005ba:	f5b4 7fa0 	cmp.w	r4, #320	; 0x140
  4005be:	d110      	bne.n	4005e2 <udi_cdc_multi_get_free_tx_buffer+0x3a>
  4005c0:	490c      	ldr	r1, [pc, #48]	; (4005f4 <udi_cdc_multi_get_free_tx_buffer+0x4c>)
  4005c2:	7809      	ldrb	r1, [r1, #0]
  4005c4:	b969      	cbnz	r1, 4005e2 <udi_cdc_multi_get_free_tx_buffer+0x3a>
  4005c6:	490c      	ldr	r1, [pc, #48]	; (4005f8 <udi_cdc_multi_get_free_tx_buffer+0x50>)
  4005c8:	780d      	ldrb	r5, [r1, #0]
  4005ca:	f005 06ff 	and.w	r6, r5, #255	; 0xff
  4005ce:	b945      	cbnz	r5, 4005e2 <udi_cdc_multi_get_free_tx_buffer+0x3a>
  4005d0:	f1d2 0201 	rsbs	r2, r2, #1
  4005d4:	f04f 0401 	mov.w	r4, #1
  4005d8:	bf38      	it	cc
  4005da:	2200      	movcc	r2, #0
  4005dc:	700c      	strb	r4, [r1, #0]
  4005de:	701a      	strb	r2, [r3, #0]
  4005e0:	4634      	mov	r4, r6
  4005e2:	f7ff fdcb 	bl	40017c <cpu_irq_restore>
  4005e6:	f5c4 70a0 	rsb	r0, r4, #320	; 0x140
  4005ea:	bd70      	pop	{r4, r5, r6, pc}
  4005ec:	2000059f 	.word	0x2000059f
  4005f0:	200005a0 	.word	0x200005a0
  4005f4:	20000830 	.word	0x20000830
  4005f8:	20000ac1 	.word	0x20000ac1

004005fc <udi_cdc_multi_is_tx_ready>:
  4005fc:	b508      	push	{r3, lr}
  4005fe:	f7ff ffd3 	bl	4005a8 <udi_cdc_multi_get_free_tx_buffer>
  400602:	3000      	adds	r0, #0
  400604:	bf18      	it	ne
  400606:	2001      	movne	r0, #1
  400608:	bd08      	pop	{r3, pc}

0040060a <udi_cdc_is_tx_ready>:
  40060a:	2000      	movs	r0, #0
  40060c:	f7ff bff6 	b.w	4005fc <udi_cdc_multi_is_tx_ready>

00400610 <udi_cdc_multi_putc>:
  400610:	b570      	push	{r4, r5, r6, lr}
  400612:	4b15      	ldr	r3, [pc, #84]	; (400668 <udi_cdc_multi_putc+0x58>)
  400614:	799d      	ldrb	r5, [r3, #6]
  400616:	f1b5 0309 	subs.w	r3, r5, #9
  40061a:	425d      	negs	r5, r3
  40061c:	460c      	mov	r4, r1
  40061e:	415d      	adcs	r5, r3
  400620:	2000      	movs	r0, #0
  400622:	f7ff ffeb 	bl	4005fc <udi_cdc_multi_is_tx_ready>
  400626:	b930      	cbnz	r0, 400636 <udi_cdc_multi_putc+0x26>
  400628:	4b10      	ldr	r3, [pc, #64]	; (40066c <udi_cdc_multi_putc+0x5c>)
  40062a:	781b      	ldrb	r3, [r3, #0]
  40062c:	f003 00ff 	and.w	r0, r3, #255	; 0xff
  400630:	2b00      	cmp	r3, #0
  400632:	d1f5      	bne.n	400620 <udi_cdc_multi_putc+0x10>
  400634:	bd70      	pop	{r4, r5, r6, pc}
  400636:	f7ff fd73 	bl	400120 <cpu_irq_save>
  40063a:	4b0d      	ldr	r3, [pc, #52]	; (400670 <udi_cdc_multi_putc+0x60>)
  40063c:	490d      	ldr	r1, [pc, #52]	; (400674 <udi_cdc_multi_putc+0x64>)
  40063e:	781b      	ldrb	r3, [r3, #0]
  400640:	b2db      	uxtb	r3, r3
  400642:	f831 2013 	ldrh.w	r2, [r1, r3, lsl #1]
  400646:	1c56      	adds	r6, r2, #1
  400648:	f821 6013 	strh.w	r6, [r1, r3, lsl #1]
  40064c:	f44f 71a0 	mov.w	r1, #320	; 0x140
  400650:	fb01 2303 	mla	r3, r1, r3, r2
  400654:	4a08      	ldr	r2, [pc, #32]	; (400678 <udi_cdc_multi_putc+0x68>)
  400656:	54d4      	strb	r4, [r2, r3]
  400658:	f7ff fd90 	bl	40017c <cpu_irq_restore>
  40065c:	b115      	cbz	r5, 400664 <udi_cdc_multi_putc+0x54>
  40065e:	1224      	asrs	r4, r4, #8
  400660:	2500      	movs	r5, #0
  400662:	e7dd      	b.n	400620 <udi_cdc_multi_putc+0x10>
  400664:	2001      	movs	r0, #1
  400666:	bd70      	pop	{r4, r5, r6, pc}
  400668:	20000594 	.word	0x20000594
  40066c:	2000082e 	.word	0x2000082e
  400670:	2000059f 	.word	0x2000059f
  400674:	200005a0 	.word	0x200005a0
  400678:	200005a4 	.word	0x200005a4

0040067c <udi_cdc_putc>:
  40067c:	4601      	mov	r1, r0
  40067e:	2000      	movs	r0, #0
  400680:	f7ff bfc6 	b.w	400610 <udi_cdc_multi_putc>

00400684 <udi_cdc_multi_write_buf>:
  400684:	e92d 47f0 	stmdb	sp!, {r4, r5, r6, r7, r8, r9, sl, lr}
  400688:	4b1a      	ldr	r3, [pc, #104]	; (4006f4 <udi_cdc_multi_write_buf+0x70>)
  40068a:	799b      	ldrb	r3, [r3, #6]
  40068c:	2b09      	cmp	r3, #9
  40068e:	4614      	mov	r4, r2
  400690:	460e      	mov	r6, r1
  400692:	bf08      	it	eq
  400694:	0054      	lsleq	r4, r2, #1
  400696:	2000      	movs	r0, #0
  400698:	f7ff ffb0 	bl	4005fc <udi_cdc_multi_is_tx_ready>
  40069c:	b920      	cbnz	r0, 4006a8 <udi_cdc_multi_write_buf+0x24>
  40069e:	4b16      	ldr	r3, [pc, #88]	; (4006f8 <udi_cdc_multi_write_buf+0x74>)
  4006a0:	781b      	ldrb	r3, [r3, #0]
  4006a2:	2b00      	cmp	r3, #0
  4006a4:	d1f7      	bne.n	400696 <udi_cdc_multi_write_buf+0x12>
  4006a6:	e021      	b.n	4006ec <udi_cdc_multi_write_buf+0x68>
  4006a8:	f7ff fd3a 	bl	400120 <cpu_irq_save>
  4006ac:	4b13      	ldr	r3, [pc, #76]	; (4006fc <udi_cdc_multi_write_buf+0x78>)
  4006ae:	f8df 9054 	ldr.w	r9, [pc, #84]	; 400704 <udi_cdc_multi_write_buf+0x80>
  4006b2:	781f      	ldrb	r7, [r3, #0]
  4006b4:	b2ff      	uxtb	r7, r7
  4006b6:	4682      	mov	sl, r0
  4006b8:	f839 8017 	ldrh.w	r8, [r9, r7, lsl #1]
  4006bc:	4810      	ldr	r0, [pc, #64]	; (400700 <udi_cdc_multi_write_buf+0x7c>)
  4006be:	f5c8 75a0 	rsb	r5, r8, #320	; 0x140
  4006c2:	f44f 73a0 	mov.w	r3, #320	; 0x140
  4006c6:	42ac      	cmp	r4, r5
  4006c8:	bf38      	it	cc
  4006ca:	4625      	movcc	r5, r4
  4006cc:	fb03 8307 	mla	r3, r3, r7, r8
  4006d0:	4631      	mov	r1, r6
  4006d2:	4418      	add	r0, r3
  4006d4:	462a      	mov	r2, r5
  4006d6:	f002 fb95 	bl	402e04 <memcpy>
  4006da:	44a8      	add	r8, r5
  4006dc:	4650      	mov	r0, sl
  4006de:	f829 8017 	strh.w	r8, [r9, r7, lsl #1]
  4006e2:	f7ff fd4b 	bl	40017c <cpu_irq_restore>
  4006e6:	1b64      	subs	r4, r4, r5
  4006e8:	442e      	add	r6, r5
  4006ea:	d1d4      	bne.n	400696 <udi_cdc_multi_write_buf+0x12>
  4006ec:	4620      	mov	r0, r4
  4006ee:	e8bd 87f0 	ldmia.w	sp!, {r4, r5, r6, r7, r8, r9, sl, pc}
  4006f2:	bf00      	nop
  4006f4:	20000594 	.word	0x20000594
  4006f8:	2000082e 	.word	0x2000082e
  4006fc:	2000059f 	.word	0x2000059f
  400700:	200005a4 	.word	0x200005a4
  400704:	200005a0 	.word	0x200005a0

00400708 <udi_cdc_write_buf>:
  400708:	4603      	mov	r3, r0
  40070a:	460a      	mov	r2, r1
  40070c:	2000      	movs	r0, #0
  40070e:	4619      	mov	r1, r3
  400710:	f7ff bfb8 	b.w	400684 <udi_cdc_multi_write_buf>

00400714 <udc_valid_address>:
  400714:	4b02      	ldr	r3, [pc, #8]	; (400720 <udc_valid_address+0xc>)
  400716:	7898      	ldrb	r0, [r3, #2]
  400718:	f000 007f 	and.w	r0, r0, #127	; 0x7f
  40071c:	f001 ba0a 	b.w	401b34 <udd_set_address>
  400720:	20001490 	.word	0x20001490

00400724 <udc_update_iface_desc>:
  400724:	b530      	push	{r4, r5, lr}
  400726:	4b11      	ldr	r3, [pc, #68]	; (40076c <udc_update_iface_desc+0x48>)
  400728:	781b      	ldrb	r3, [r3, #0]
  40072a:	b12b      	cbz	r3, 400738 <udc_update_iface_desc+0x14>
  40072c:	4b10      	ldr	r3, [pc, #64]	; (400770 <udc_update_iface_desc+0x4c>)
  40072e:	681b      	ldr	r3, [r3, #0]
  400730:	681b      	ldr	r3, [r3, #0]
  400732:	791a      	ldrb	r2, [r3, #4]
  400734:	4282      	cmp	r2, r0
  400736:	d801      	bhi.n	40073c <udc_update_iface_desc+0x18>
  400738:	2000      	movs	r0, #0
  40073a:	bd30      	pop	{r4, r5, pc}
  40073c:	4a0d      	ldr	r2, [pc, #52]	; (400774 <udc_update_iface_desc+0x50>)
  40073e:	6013      	str	r3, [r2, #0]
  400740:	885c      	ldrh	r4, [r3, #2]
  400742:	441c      	add	r4, r3
  400744:	429c      	cmp	r4, r3
  400746:	d90e      	bls.n	400766 <udc_update_iface_desc+0x42>
  400748:	785d      	ldrb	r5, [r3, #1]
  40074a:	2d04      	cmp	r5, #4
  40074c:	d108      	bne.n	400760 <udc_update_iface_desc+0x3c>
  40074e:	789d      	ldrb	r5, [r3, #2]
  400750:	4285      	cmp	r5, r0
  400752:	d105      	bne.n	400760 <udc_update_iface_desc+0x3c>
  400754:	78dd      	ldrb	r5, [r3, #3]
  400756:	428d      	cmp	r5, r1
  400758:	d102      	bne.n	400760 <udc_update_iface_desc+0x3c>
  40075a:	6013      	str	r3, [r2, #0]
  40075c:	2001      	movs	r0, #1
  40075e:	bd30      	pop	{r4, r5, pc}
  400760:	781d      	ldrb	r5, [r3, #0]
  400762:	442b      	add	r3, r5
  400764:	e7ee      	b.n	400744 <udc_update_iface_desc+0x20>
  400766:	6013      	str	r3, [r2, #0]
  400768:	e7e6      	b.n	400738 <udc_update_iface_desc+0x14>
  40076a:	bf00      	nop
  40076c:	20000ad4 	.word	0x20000ad4
  400770:	20000ac8 	.word	0x20000ac8
  400774:	20000ad8 	.word	0x20000ad8

00400778 <udc_next_desc_in_iface.constprop.3>:
  400778:	4b08      	ldr	r3, [pc, #32]	; (40079c <udc_next_desc_in_iface.constprop.3+0x24>)
  40077a:	681b      	ldr	r3, [r3, #0]
  40077c:	681b      	ldr	r3, [r3, #0]
  40077e:	885a      	ldrh	r2, [r3, #2]
  400780:	4413      	add	r3, r2
  400782:	7802      	ldrb	r2, [r0, #0]
  400784:	4410      	add	r0, r2
  400786:	4283      	cmp	r3, r0
  400788:	d905      	bls.n	400796 <udc_next_desc_in_iface.constprop.3+0x1e>
  40078a:	7842      	ldrb	r2, [r0, #1]
  40078c:	2a04      	cmp	r2, #4
  40078e:	d002      	beq.n	400796 <udc_next_desc_in_iface.constprop.3+0x1e>
  400790:	2a05      	cmp	r2, #5
  400792:	d1f6      	bne.n	400782 <udc_next_desc_in_iface.constprop.3+0xa>
  400794:	e000      	b.n	400798 <udc_next_desc_in_iface.constprop.3+0x20>
  400796:	2000      	movs	r0, #0
  400798:	4770      	bx	lr
  40079a:	bf00      	nop
  40079c:	20000ac8 	.word	0x20000ac8

004007a0 <udc_iface_enable>:
  4007a0:	b538      	push	{r3, r4, r5, lr}
  4007a2:	4605      	mov	r5, r0
  4007a4:	f7ff ffbe 	bl	400724 <udc_update_iface_desc>
  4007a8:	b908      	cbnz	r0, 4007ae <udc_iface_enable+0xe>
  4007aa:	2000      	movs	r0, #0
  4007ac:	bd38      	pop	{r3, r4, r5, pc}
  4007ae:	4b0b      	ldr	r3, [pc, #44]	; (4007dc <udc_iface_enable+0x3c>)
  4007b0:	681c      	ldr	r4, [r3, #0]
  4007b2:	4620      	mov	r0, r4
  4007b4:	f7ff ffe0 	bl	400778 <udc_next_desc_in_iface.constprop.3>
  4007b8:	4604      	mov	r4, r0
  4007ba:	b138      	cbz	r0, 4007cc <udc_iface_enable+0x2c>
  4007bc:	7880      	ldrb	r0, [r0, #2]
  4007be:	78e1      	ldrb	r1, [r4, #3]
  4007c0:	88a2      	ldrh	r2, [r4, #4]
  4007c2:	f001 f9ef 	bl	401ba4 <udd_ep_alloc>
  4007c6:	2800      	cmp	r0, #0
  4007c8:	d1f3      	bne.n	4007b2 <udc_iface_enable+0x12>
  4007ca:	e7ee      	b.n	4007aa <udc_iface_enable+0xa>
  4007cc:	4b04      	ldr	r3, [pc, #16]	; (4007e0 <udc_iface_enable+0x40>)
  4007ce:	681b      	ldr	r3, [r3, #0]
  4007d0:	685b      	ldr	r3, [r3, #4]
  4007d2:	f853 3025 	ldr.w	r3, [r3, r5, lsl #2]
  4007d6:	681b      	ldr	r3, [r3, #0]
  4007d8:	4798      	blx	r3
  4007da:	bd38      	pop	{r3, r4, r5, pc}
  4007dc:	20000ad8 	.word	0x20000ad8
  4007e0:	20000ac8 	.word	0x20000ac8

004007e4 <udc_iface_disable>:
  4007e4:	b570      	push	{r4, r5, r6, lr}
  4007e6:	2100      	movs	r1, #0
  4007e8:	4605      	mov	r5, r0
  4007ea:	f7ff ff9b 	bl	400724 <udc_update_iface_desc>
  4007ee:	4604      	mov	r4, r0
  4007f0:	b1c8      	cbz	r0, 400826 <udc_iface_disable+0x42>
  4007f2:	4b0e      	ldr	r3, [pc, #56]	; (40082c <udc_iface_disable+0x48>)
  4007f4:	681b      	ldr	r3, [r3, #0]
  4007f6:	685b      	ldr	r3, [r3, #4]
  4007f8:	f853 6025 	ldr.w	r6, [r3, r5, lsl #2]
  4007fc:	68f3      	ldr	r3, [r6, #12]
  4007fe:	4798      	blx	r3
  400800:	4601      	mov	r1, r0
  400802:	4628      	mov	r0, r5
  400804:	f7ff ff8e 	bl	400724 <udc_update_iface_desc>
  400808:	4604      	mov	r4, r0
  40080a:	b160      	cbz	r0, 400826 <udc_iface_disable+0x42>
  40080c:	4b08      	ldr	r3, [pc, #32]	; (400830 <udc_iface_disable+0x4c>)
  40080e:	681d      	ldr	r5, [r3, #0]
  400810:	4628      	mov	r0, r5
  400812:	f7ff ffb1 	bl	400778 <udc_next_desc_in_iface.constprop.3>
  400816:	4605      	mov	r5, r0
  400818:	b118      	cbz	r0, 400822 <udc_iface_disable+0x3e>
  40081a:	7880      	ldrb	r0, [r0, #2]
  40081c:	f001 fa26 	bl	401c6c <udd_ep_free>
  400820:	e7f6      	b.n	400810 <udc_iface_disable+0x2c>
  400822:	6873      	ldr	r3, [r6, #4]
  400824:	4798      	blx	r3
  400826:	4620      	mov	r0, r4
  400828:	bd70      	pop	{r4, r5, r6, pc}
  40082a:	bf00      	nop
  40082c:	20000ac8 	.word	0x20000ac8
  400830:	20000ad8 	.word	0x20000ad8

00400834 <udc_start>:
  400834:	f001 b948 	b.w	401ac8 <udd_enable>

00400838 <udc_reset>:
  400838:	b538      	push	{r3, r4, r5, lr}
  40083a:	4b0b      	ldr	r3, [pc, #44]	; (400868 <udc_reset+0x30>)
  40083c:	781a      	ldrb	r2, [r3, #0]
  40083e:	461d      	mov	r5, r3
  400840:	b922      	cbnz	r2, 40084c <udc_reset+0x14>
  400842:	4a0a      	ldr	r2, [pc, #40]	; (40086c <udc_reset+0x34>)
  400844:	2300      	movs	r3, #0
  400846:	702b      	strb	r3, [r5, #0]
  400848:	8013      	strh	r3, [r2, #0]
  40084a:	bd38      	pop	{r3, r4, r5, pc}
  40084c:	2400      	movs	r4, #0
  40084e:	4b08      	ldr	r3, [pc, #32]	; (400870 <udc_reset+0x38>)
  400850:	681b      	ldr	r3, [r3, #0]
  400852:	681b      	ldr	r3, [r3, #0]
  400854:	791b      	ldrb	r3, [r3, #4]
  400856:	b2e0      	uxtb	r0, r4
  400858:	4283      	cmp	r3, r0
  40085a:	f104 0401 	add.w	r4, r4, #1
  40085e:	d9f0      	bls.n	400842 <udc_reset+0xa>
  400860:	f7ff ffc0 	bl	4007e4 <udc_iface_disable>
  400864:	e7f3      	b.n	40084e <udc_reset+0x16>
  400866:	bf00      	nop
  400868:	20000ad4 	.word	0x20000ad4
  40086c:	20000ad0 	.word	0x20000ad0
  400870:	20000ac8 	.word	0x20000ac8

00400874 <udc_sof_notify>:
  400874:	b510      	push	{r4, lr}
  400876:	4b0a      	ldr	r3, [pc, #40]	; (4008a0 <udc_sof_notify+0x2c>)
  400878:	781b      	ldrb	r3, [r3, #0]
  40087a:	b17b      	cbz	r3, 40089c <udc_sof_notify+0x28>
  40087c:	2400      	movs	r4, #0
  40087e:	4b09      	ldr	r3, [pc, #36]	; (4008a4 <udc_sof_notify+0x30>)
  400880:	681a      	ldr	r2, [r3, #0]
  400882:	6813      	ldr	r3, [r2, #0]
  400884:	7919      	ldrb	r1, [r3, #4]
  400886:	b2e3      	uxtb	r3, r4
  400888:	4299      	cmp	r1, r3
  40088a:	d907      	bls.n	40089c <udc_sof_notify+0x28>
  40088c:	6852      	ldr	r2, [r2, #4]
  40088e:	f852 3023 	ldr.w	r3, [r2, r3, lsl #2]
  400892:	691b      	ldr	r3, [r3, #16]
  400894:	b103      	cbz	r3, 400898 <udc_sof_notify+0x24>
  400896:	4798      	blx	r3
  400898:	3401      	adds	r4, #1
  40089a:	e7f0      	b.n	40087e <udc_sof_notify+0xa>
  40089c:	bd10      	pop	{r4, pc}
  40089e:	bf00      	nop
  4008a0:	20000ad4 	.word	0x20000ad4
  4008a4:	20000ac8 	.word	0x20000ac8

004008a8 <udc_process_setup>:
  4008a8:	b5f8      	push	{r3, r4, r5, r6, r7, lr}
  4008aa:	4c9a      	ldr	r4, [pc, #616]	; (400b14 <udc_process_setup+0x26c>)
  4008ac:	2300      	movs	r3, #0
  4008ae:	81a3      	strh	r3, [r4, #12]
  4008b0:	6123      	str	r3, [r4, #16]
  4008b2:	6163      	str	r3, [r4, #20]
  4008b4:	7823      	ldrb	r3, [r4, #0]
  4008b6:	b25a      	sxtb	r2, r3
  4008b8:	2a00      	cmp	r2, #0
  4008ba:	da03      	bge.n	4008c4 <udc_process_setup+0x1c>
  4008bc:	88e1      	ldrh	r1, [r4, #6]
  4008be:	2900      	cmp	r1, #0
  4008c0:	f000 8191 	beq.w	400be6 <udc_process_setup+0x33e>
  4008c4:	f013 0160 	ands.w	r1, r3, #96	; 0x60
  4008c8:	f040 814a 	bne.w	400b60 <udc_process_setup+0x2b8>
  4008cc:	2a00      	cmp	r2, #0
  4008ce:	f280 80a5 	bge.w	400a1c <udc_process_setup+0x174>
  4008d2:	88e5      	ldrh	r5, [r4, #6]
  4008d4:	4e8f      	ldr	r6, [pc, #572]	; (400b14 <udc_process_setup+0x26c>)
  4008d6:	2d00      	cmp	r5, #0
  4008d8:	f000 8142 	beq.w	400b60 <udc_process_setup+0x2b8>
  4008dc:	f013 031f 	ands.w	r3, r3, #31
  4008e0:	d15f      	bne.n	4009a2 <udc_process_setup+0xfa>
  4008e2:	7873      	ldrb	r3, [r6, #1]
  4008e4:	2b06      	cmp	r3, #6
  4008e6:	d009      	beq.n	4008fc <udc_process_setup+0x54>
  4008e8:	2b08      	cmp	r3, #8
  4008ea:	d055      	beq.n	400998 <udc_process_setup+0xf0>
  4008ec:	2b00      	cmp	r3, #0
  4008ee:	f040 8137 	bne.w	400b60 <udc_process_setup+0x2b8>
  4008f2:	2d02      	cmp	r5, #2
  4008f4:	f040 8134 	bne.w	400b60 <udc_process_setup+0x2b8>
  4008f8:	4887      	ldr	r0, [pc, #540]	; (400b18 <udc_process_setup+0x270>)
  4008fa:	e08b      	b.n	400a14 <udc_process_setup+0x16c>
  4008fc:	8873      	ldrh	r3, [r6, #2]
  4008fe:	0a1d      	lsrs	r5, r3, #8
  400900:	2d02      	cmp	r5, #2
  400902:	d00c      	beq.n	40091e <udc_process_setup+0x76>
  400904:	d806      	bhi.n	400914 <udc_process_setup+0x6c>
  400906:	2d01      	cmp	r5, #1
  400908:	f040 812a 	bne.w	400b60 <udc_process_setup+0x2b8>
  40090c:	4b83      	ldr	r3, [pc, #524]	; (400b1c <udc_process_setup+0x274>)
  40090e:	6818      	ldr	r0, [r3, #0]
  400910:	7801      	ldrb	r1, [r0, #0]
  400912:	e037      	b.n	400984 <udc_process_setup+0xdc>
  400914:	2d03      	cmp	r5, #3
  400916:	d019      	beq.n	40094c <udc_process_setup+0xa4>
  400918:	2d0f      	cmp	r5, #15
  40091a:	d010      	beq.n	40093e <udc_process_setup+0x96>
  40091c:	e120      	b.n	400b60 <udc_process_setup+0x2b8>
  40091e:	4a7f      	ldr	r2, [pc, #508]	; (400b1c <udc_process_setup+0x274>)
  400920:	6811      	ldr	r1, [r2, #0]
  400922:	7c49      	ldrb	r1, [r1, #17]
  400924:	b2db      	uxtb	r3, r3
  400926:	4299      	cmp	r1, r3
  400928:	f240 811a 	bls.w	400b60 <udc_process_setup+0x2b8>
  40092c:	6852      	ldr	r2, [r2, #4]
  40092e:	f852 0033 	ldr.w	r0, [r2, r3, lsl #3]
  400932:	8841      	ldrh	r1, [r0, #2]
  400934:	f001 f930 	bl	401b98 <udd_set_setup_payload>
  400938:	68b3      	ldr	r3, [r6, #8]
  40093a:	705d      	strb	r5, [r3, #1]
  40093c:	e024      	b.n	400988 <udc_process_setup+0xe0>
  40093e:	4b77      	ldr	r3, [pc, #476]	; (400b1c <udc_process_setup+0x274>)
  400940:	6898      	ldr	r0, [r3, #8]
  400942:	2800      	cmp	r0, #0
  400944:	f000 810c 	beq.w	400b60 <udc_process_setup+0x2b8>
  400948:	8841      	ldrh	r1, [r0, #2]
  40094a:	e01b      	b.n	400984 <udc_process_setup+0xdc>
  40094c:	b2db      	uxtb	r3, r3
  40094e:	2b01      	cmp	r3, #1
  400950:	d003      	beq.n	40095a <udc_process_setup+0xb2>
  400952:	d305      	bcc.n	400960 <udc_process_setup+0xb8>
  400954:	2b02      	cmp	r3, #2
  400956:	d006      	beq.n	400966 <udc_process_setup+0xbe>
  400958:	e102      	b.n	400b60 <udc_process_setup+0x2b8>
  40095a:	2109      	movs	r1, #9
  40095c:	4a70      	ldr	r2, [pc, #448]	; (400b20 <udc_process_setup+0x278>)
  40095e:	e004      	b.n	40096a <udc_process_setup+0xc2>
  400960:	4870      	ldr	r0, [pc, #448]	; (400b24 <udc_process_setup+0x27c>)
  400962:	2104      	movs	r1, #4
  400964:	e00e      	b.n	400984 <udc_process_setup+0xdc>
  400966:	4a70      	ldr	r2, [pc, #448]	; (400b28 <udc_process_setup+0x280>)
  400968:	210f      	movs	r1, #15
  40096a:	2300      	movs	r3, #0
  40096c:	486f      	ldr	r0, [pc, #444]	; (400b2c <udc_process_setup+0x284>)
  40096e:	5cd6      	ldrb	r6, [r2, r3]
  400970:	eb00 0543 	add.w	r5, r0, r3, lsl #1
  400974:	3301      	adds	r3, #1
  400976:	806e      	strh	r6, [r5, #2]
  400978:	b2dd      	uxtb	r5, r3
  40097a:	428d      	cmp	r5, r1
  40097c:	d3f6      	bcc.n	40096c <udc_process_setup+0xc4>
  40097e:	0049      	lsls	r1, r1, #1
  400980:	3102      	adds	r1, #2
  400982:	7001      	strb	r1, [r0, #0]
  400984:	f001 f908 	bl	401b98 <udd_set_setup_payload>
  400988:	88e3      	ldrh	r3, [r4, #6]
  40098a:	89a2      	ldrh	r2, [r4, #12]
  40098c:	429a      	cmp	r2, r3
  40098e:	f240 80e5 	bls.w	400b5c <udc_process_setup+0x2b4>
  400992:	4a60      	ldr	r2, [pc, #384]	; (400b14 <udc_process_setup+0x26c>)
  400994:	8193      	strh	r3, [r2, #12]
  400996:	e0e1      	b.n	400b5c <udc_process_setup+0x2b4>
  400998:	2d01      	cmp	r5, #1
  40099a:	f040 80e1 	bne.w	400b60 <udc_process_setup+0x2b8>
  40099e:	4864      	ldr	r0, [pc, #400]	; (400b30 <udc_process_setup+0x288>)
  4009a0:	e038      	b.n	400a14 <udc_process_setup+0x16c>
  4009a2:	2b01      	cmp	r3, #1
  4009a4:	d126      	bne.n	4009f4 <udc_process_setup+0x14c>
  4009a6:	7873      	ldrb	r3, [r6, #1]
  4009a8:	2b0a      	cmp	r3, #10
  4009aa:	f040 80d9 	bne.w	400b60 <udc_process_setup+0x2b8>
  4009ae:	2d01      	cmp	r5, #1
  4009b0:	f040 80d6 	bne.w	400b60 <udc_process_setup+0x2b8>
  4009b4:	4b5e      	ldr	r3, [pc, #376]	; (400b30 <udc_process_setup+0x288>)
  4009b6:	781b      	ldrb	r3, [r3, #0]
  4009b8:	2b00      	cmp	r3, #0
  4009ba:	f000 80d1 	beq.w	400b60 <udc_process_setup+0x2b8>
  4009be:	4b5d      	ldr	r3, [pc, #372]	; (400b34 <udc_process_setup+0x28c>)
  4009c0:	7936      	ldrb	r6, [r6, #4]
  4009c2:	681f      	ldr	r7, [r3, #0]
  4009c4:	683b      	ldr	r3, [r7, #0]
  4009c6:	791b      	ldrb	r3, [r3, #4]
  4009c8:	42b3      	cmp	r3, r6
  4009ca:	f240 80c9 	bls.w	400b60 <udc_process_setup+0x2b8>
  4009ce:	4630      	mov	r0, r6
  4009d0:	f7ff fea8 	bl	400724 <udc_update_iface_desc>
  4009d4:	4605      	mov	r5, r0
  4009d6:	2800      	cmp	r0, #0
  4009d8:	f000 80c2 	beq.w	400b60 <udc_process_setup+0x2b8>
  4009dc:	687b      	ldr	r3, [r7, #4]
  4009de:	f853 3026 	ldr.w	r3, [r3, r6, lsl #2]
  4009e2:	68db      	ldr	r3, [r3, #12]
  4009e4:	4798      	blx	r3
  4009e6:	4b54      	ldr	r3, [pc, #336]	; (400b38 <udc_process_setup+0x290>)
  4009e8:	2101      	movs	r1, #1
  4009ea:	7018      	strb	r0, [r3, #0]
  4009ec:	4618      	mov	r0, r3
  4009ee:	f001 f8d3 	bl	401b98 <udd_set_setup_payload>
  4009f2:	e0b2      	b.n	400b5a <udc_process_setup+0x2b2>
  4009f4:	2b02      	cmp	r3, #2
  4009f6:	f040 80b3 	bne.w	400b60 <udc_process_setup+0x2b8>
  4009fa:	7873      	ldrb	r3, [r6, #1]
  4009fc:	2b00      	cmp	r3, #0
  4009fe:	f040 80af 	bne.w	400b60 <udc_process_setup+0x2b8>
  400a02:	2d02      	cmp	r5, #2
  400a04:	f040 80ac 	bne.w	400b60 <udc_process_setup+0x2b8>
  400a08:	7930      	ldrb	r0, [r6, #4]
  400a0a:	f001 f95b 	bl	401cc4 <udd_ep_is_halted>
  400a0e:	4b4b      	ldr	r3, [pc, #300]	; (400b3c <udc_process_setup+0x294>)
  400a10:	8018      	strh	r0, [r3, #0]
  400a12:	4618      	mov	r0, r3
  400a14:	4629      	mov	r1, r5
  400a16:	f001 f8bf 	bl	401b98 <udd_set_setup_payload>
  400a1a:	e09f      	b.n	400b5c <udc_process_setup+0x2b4>
  400a1c:	f013 031f 	ands.w	r3, r3, #31
  400a20:	d14d      	bne.n	400abe <udc_process_setup+0x216>
  400a22:	7863      	ldrb	r3, [r4, #1]
  400a24:	3b01      	subs	r3, #1
  400a26:	2b08      	cmp	r3, #8
  400a28:	f200 809a 	bhi.w	400b60 <udc_process_setup+0x2b8>
  400a2c:	e8df f003 	tbb	[pc, r3]
  400a30:	9898980d 	.word	0x9898980d
  400a34:	98989805 	.word	0x98989805
  400a38:	1c          	.byte	0x1c
  400a39:	00          	.byte	0x00
  400a3a:	88e3      	ldrh	r3, [r4, #6]
  400a3c:	2b00      	cmp	r3, #0
  400a3e:	f040 808f 	bne.w	400b60 <udc_process_setup+0x2b8>
  400a42:	4b34      	ldr	r3, [pc, #208]	; (400b14 <udc_process_setup+0x26c>)
  400a44:	4a3e      	ldr	r2, [pc, #248]	; (400b40 <udc_process_setup+0x298>)
  400a46:	611a      	str	r2, [r3, #16]
  400a48:	e088      	b.n	400b5c <udc_process_setup+0x2b4>
  400a4a:	88e3      	ldrh	r3, [r4, #6]
  400a4c:	2b00      	cmp	r3, #0
  400a4e:	f040 8087 	bne.w	400b60 <udc_process_setup+0x2b8>
  400a52:	4b30      	ldr	r3, [pc, #192]	; (400b14 <udc_process_setup+0x26c>)
  400a54:	885b      	ldrh	r3, [r3, #2]
  400a56:	2b01      	cmp	r3, #1
  400a58:	f040 8082 	bne.w	400b60 <udc_process_setup+0x2b8>
  400a5c:	4b2e      	ldr	r3, [pc, #184]	; (400b18 <udc_process_setup+0x270>)
  400a5e:	881a      	ldrh	r2, [r3, #0]
  400a60:	f022 0202 	bic.w	r2, r2, #2
  400a64:	801a      	strh	r2, [r3, #0]
  400a66:	e079      	b.n	400b5c <udc_process_setup+0x2b4>
  400a68:	88e5      	ldrh	r5, [r4, #6]
  400a6a:	4e2a      	ldr	r6, [pc, #168]	; (400b14 <udc_process_setup+0x26c>)
  400a6c:	2d00      	cmp	r5, #0
  400a6e:	d177      	bne.n	400b60 <udc_process_setup+0x2b8>
  400a70:	f001 f87c 	bl	401b6c <udd_getaddress>
  400a74:	2800      	cmp	r0, #0
  400a76:	d073      	beq.n	400b60 <udc_process_setup+0x2b8>
  400a78:	4f28      	ldr	r7, [pc, #160]	; (400b1c <udc_process_setup+0x274>)
  400a7a:	78b2      	ldrb	r2, [r6, #2]
  400a7c:	683b      	ldr	r3, [r7, #0]
  400a7e:	7c5b      	ldrb	r3, [r3, #17]
  400a80:	429a      	cmp	r2, r3
  400a82:	dc6d      	bgt.n	400b60 <udc_process_setup+0x2b8>
  400a84:	f7ff fed8 	bl	400838 <udc_reset>
  400a88:	78b3      	ldrb	r3, [r6, #2]
  400a8a:	4a29      	ldr	r2, [pc, #164]	; (400b30 <udc_process_setup+0x288>)
  400a8c:	7013      	strb	r3, [r2, #0]
  400a8e:	2b00      	cmp	r3, #0
  400a90:	d064      	beq.n	400b5c <udc_process_setup+0x2b4>
  400a92:	f103 5300 	add.w	r3, r3, #536870912	; 0x20000000
  400a96:	6879      	ldr	r1, [r7, #4]
  400a98:	4a26      	ldr	r2, [pc, #152]	; (400b34 <udc_process_setup+0x28c>)
  400a9a:	3b01      	subs	r3, #1
  400a9c:	eb01 03c3 	add.w	r3, r1, r3, lsl #3
  400aa0:	6013      	str	r3, [r2, #0]
  400aa2:	4616      	mov	r6, r2
  400aa4:	6833      	ldr	r3, [r6, #0]
  400aa6:	681b      	ldr	r3, [r3, #0]
  400aa8:	791b      	ldrb	r3, [r3, #4]
  400aaa:	b2e8      	uxtb	r0, r5
  400aac:	4283      	cmp	r3, r0
  400aae:	d955      	bls.n	400b5c <udc_process_setup+0x2b4>
  400ab0:	2100      	movs	r1, #0
  400ab2:	f7ff fe75 	bl	4007a0 <udc_iface_enable>
  400ab6:	3501      	adds	r5, #1
  400ab8:	2800      	cmp	r0, #0
  400aba:	d1f3      	bne.n	400aa4 <udc_process_setup+0x1fc>
  400abc:	e050      	b.n	400b60 <udc_process_setup+0x2b8>
  400abe:	2b01      	cmp	r3, #1
  400ac0:	d116      	bne.n	400af0 <udc_process_setup+0x248>
  400ac2:	7862      	ldrb	r2, [r4, #1]
  400ac4:	4b13      	ldr	r3, [pc, #76]	; (400b14 <udc_process_setup+0x26c>)
  400ac6:	2a0b      	cmp	r2, #11
  400ac8:	d14a      	bne.n	400b60 <udc_process_setup+0x2b8>
  400aca:	88da      	ldrh	r2, [r3, #6]
  400acc:	2a00      	cmp	r2, #0
  400ace:	d147      	bne.n	400b60 <udc_process_setup+0x2b8>
  400ad0:	4a17      	ldr	r2, [pc, #92]	; (400b30 <udc_process_setup+0x288>)
  400ad2:	7812      	ldrb	r2, [r2, #0]
  400ad4:	2a00      	cmp	r2, #0
  400ad6:	d043      	beq.n	400b60 <udc_process_setup+0x2b8>
  400ad8:	791d      	ldrb	r5, [r3, #4]
  400ada:	885e      	ldrh	r6, [r3, #2]
  400adc:	4628      	mov	r0, r5
  400ade:	f7ff fe81 	bl	4007e4 <udc_iface_disable>
  400ae2:	2800      	cmp	r0, #0
  400ae4:	d03c      	beq.n	400b60 <udc_process_setup+0x2b8>
  400ae6:	4628      	mov	r0, r5
  400ae8:	b2f1      	uxtb	r1, r6
  400aea:	f7ff fe59 	bl	4007a0 <udc_iface_enable>
  400aee:	e033      	b.n	400b58 <udc_process_setup+0x2b0>
  400af0:	2b02      	cmp	r3, #2
  400af2:	d135      	bne.n	400b60 <udc_process_setup+0x2b8>
  400af4:	7863      	ldrb	r3, [r4, #1]
  400af6:	4d07      	ldr	r5, [pc, #28]	; (400b14 <udc_process_setup+0x26c>)
  400af8:	2b01      	cmp	r3, #1
  400afa:	d002      	beq.n	400b02 <udc_process_setup+0x25a>
  400afc:	2b03      	cmp	r3, #3
  400afe:	d021      	beq.n	400b44 <udc_process_setup+0x29c>
  400b00:	e02e      	b.n	400b60 <udc_process_setup+0x2b8>
  400b02:	88eb      	ldrh	r3, [r5, #6]
  400b04:	bb63      	cbnz	r3, 400b60 <udc_process_setup+0x2b8>
  400b06:	886b      	ldrh	r3, [r5, #2]
  400b08:	bb53      	cbnz	r3, 400b60 <udc_process_setup+0x2b8>
  400b0a:	7928      	ldrb	r0, [r5, #4]
  400b0c:	f001 f942 	bl	401d94 <udd_ep_clear_halt>
  400b10:	e022      	b.n	400b58 <udc_process_setup+0x2b0>
  400b12:	bf00      	nop
  400b14:	20001490 	.word	0x20001490
  400b18:	20000ad0 	.word	0x20000ad0
  400b1c:	200000d0 	.word	0x200000d0
  400b20:	20000038 	.word	0x20000038
  400b24:	20000064 	.word	0x20000064
  400b28:	20000028 	.word	0x20000028
  400b2c:	20000044 	.word	0x20000044
  400b30:	20000ad4 	.word	0x20000ad4
  400b34:	20000ac8 	.word	0x20000ac8
  400b38:	20000acc 	.word	0x20000acc
  400b3c:	20000ac4 	.word	0x20000ac4
  400b40:	00400715 	.word	0x00400715
  400b44:	88eb      	ldrh	r3, [r5, #6]
  400b46:	b95b      	cbnz	r3, 400b60 <udc_process_setup+0x2b8>
  400b48:	886b      	ldrh	r3, [r5, #2]
  400b4a:	b94b      	cbnz	r3, 400b60 <udc_process_setup+0x2b8>
  400b4c:	7928      	ldrb	r0, [r5, #4]
  400b4e:	f001 f9ef 	bl	401f30 <udd_ep_abort>
  400b52:	7928      	ldrb	r0, [r5, #4]
  400b54:	f001 f8d4 	bl	401d00 <udd_ep_set_halt>
  400b58:	4605      	mov	r5, r0
  400b5a:	b10d      	cbz	r5, 400b60 <udc_process_setup+0x2b8>
  400b5c:	2001      	movs	r0, #1
  400b5e:	bdf8      	pop	{r3, r4, r5, r6, r7, pc}
  400b60:	7823      	ldrb	r3, [r4, #0]
  400b62:	f003 031f 	and.w	r3, r3, #31
  400b66:	2b01      	cmp	r3, #1
  400b68:	d11d      	bne.n	400ba6 <udc_process_setup+0x2fe>
  400b6a:	4b20      	ldr	r3, [pc, #128]	; (400bec <udc_process_setup+0x344>)
  400b6c:	781b      	ldrb	r3, [r3, #0]
  400b6e:	b1d3      	cbz	r3, 400ba6 <udc_process_setup+0x2fe>
  400b70:	4b1f      	ldr	r3, [pc, #124]	; (400bf0 <udc_process_setup+0x348>)
  400b72:	791d      	ldrb	r5, [r3, #4]
  400b74:	4b1f      	ldr	r3, [pc, #124]	; (400bf4 <udc_process_setup+0x34c>)
  400b76:	681e      	ldr	r6, [r3, #0]
  400b78:	6833      	ldr	r3, [r6, #0]
  400b7a:	791b      	ldrb	r3, [r3, #4]
  400b7c:	42ab      	cmp	r3, r5
  400b7e:	d912      	bls.n	400ba6 <udc_process_setup+0x2fe>
  400b80:	4628      	mov	r0, r5
  400b82:	2100      	movs	r1, #0
  400b84:	f7ff fdce 	bl	400724 <udc_update_iface_desc>
  400b88:	b168      	cbz	r0, 400ba6 <udc_process_setup+0x2fe>
  400b8a:	6873      	ldr	r3, [r6, #4]
  400b8c:	f853 6025 	ldr.w	r6, [r3, r5, lsl #2]
  400b90:	68f3      	ldr	r3, [r6, #12]
  400b92:	4798      	blx	r3
  400b94:	4601      	mov	r1, r0
  400b96:	4628      	mov	r0, r5
  400b98:	f7ff fdc4 	bl	400724 <udc_update_iface_desc>
  400b9c:	b118      	cbz	r0, 400ba6 <udc_process_setup+0x2fe>
  400b9e:	68b3      	ldr	r3, [r6, #8]
  400ba0:	4798      	blx	r3
  400ba2:	2800      	cmp	r0, #0
  400ba4:	d1da      	bne.n	400b5c <udc_process_setup+0x2b4>
  400ba6:	7823      	ldrb	r3, [r4, #0]
  400ba8:	f003 031f 	and.w	r3, r3, #31
  400bac:	2b02      	cmp	r3, #2
  400bae:	d11a      	bne.n	400be6 <udc_process_setup+0x33e>
  400bb0:	4b0e      	ldr	r3, [pc, #56]	; (400bec <udc_process_setup+0x344>)
  400bb2:	781b      	ldrb	r3, [r3, #0]
  400bb4:	b1bb      	cbz	r3, 400be6 <udc_process_setup+0x33e>
  400bb6:	2400      	movs	r4, #0
  400bb8:	4b0e      	ldr	r3, [pc, #56]	; (400bf4 <udc_process_setup+0x34c>)
  400bba:	681b      	ldr	r3, [r3, #0]
  400bbc:	681a      	ldr	r2, [r3, #0]
  400bbe:	7912      	ldrb	r2, [r2, #4]
  400bc0:	b2e5      	uxtb	r5, r4
  400bc2:	42aa      	cmp	r2, r5
  400bc4:	d90f      	bls.n	400be6 <udc_process_setup+0x33e>
  400bc6:	685b      	ldr	r3, [r3, #4]
  400bc8:	f853 6025 	ldr.w	r6, [r3, r5, lsl #2]
  400bcc:	68f3      	ldr	r3, [r6, #12]
  400bce:	4798      	blx	r3
  400bd0:	4601      	mov	r1, r0
  400bd2:	4628      	mov	r0, r5
  400bd4:	f7ff fda6 	bl	400724 <udc_update_iface_desc>
  400bd8:	b128      	cbz	r0, 400be6 <udc_process_setup+0x33e>
  400bda:	68b3      	ldr	r3, [r6, #8]
  400bdc:	4798      	blx	r3
  400bde:	3401      	adds	r4, #1
  400be0:	2800      	cmp	r0, #0
  400be2:	d0e9      	beq.n	400bb8 <udc_process_setup+0x310>
  400be4:	e7ba      	b.n	400b5c <udc_process_setup+0x2b4>
  400be6:	2000      	movs	r0, #0
  400be8:	bdf8      	pop	{r3, r4, r5, r6, r7, pc}
  400bea:	bf00      	nop
  400bec:	20000ad4 	.word	0x20000ad4
  400bf0:	20001490 	.word	0x20001490
  400bf4:	20000ac8 	.word	0x20000ac8

00400bf8 <membag_init>:
  400bf8:	4b08      	ldr	r3, [pc, #32]	; (400c1c <membag_init+0x24>)
  400bfa:	4a09      	ldr	r2, [pc, #36]	; (400c20 <membag_init+0x28>)
  400bfc:	b510      	push	{r4, lr}
  400bfe:	f103 0460 	add.w	r4, r3, #96	; 0x60
  400c02:	e913 0003 	ldmdb	r3, {r0, r1}
  400c06:	601a      	str	r2, [r3, #0]
  400c08:	7319      	strb	r1, [r3, #12]
  400c0a:	fb00 2201 	mla	r2, r0, r1, r2
  400c0e:	2100      	movs	r1, #0
  400c10:	605a      	str	r2, [r3, #4]
  400c12:	6099      	str	r1, [r3, #8]
  400c14:	3318      	adds	r3, #24
  400c16:	42a3      	cmp	r3, r4
  400c18:	d1f3      	bne.n	400c02 <membag_init+0xa>
  400c1a:	bd10      	pop	{r4, pc}
  400c1c:	20000070 	.word	0x20000070
  400c20:	20000adc 	.word	0x20000adc

00400c24 <wdt_disable>:
  400c24:	f44f 4300 	mov.w	r3, #32768	; 0x8000
  400c28:	6043      	str	r3, [r0, #4]
  400c2a:	4770      	bx	lr

00400c2c <adc_init>:
  400c2c:	b530      	push	{r4, r5, lr}
  400c2e:	2401      	movs	r4, #1
  400c30:	6004      	str	r4, [r0, #0]
  400c32:	f240 2502 	movw	r5, #514	; 0x202
  400c36:	2400      	movs	r4, #0
  400c38:	6044      	str	r4, [r0, #4]
  400c3a:	f8c0 5120 	str.w	r5, [r0, #288]	; 0x120
  400c3e:	f8c0 4104 	str.w	r4, [r0, #260]	; 0x104
  400c42:	f8c0 4114 	str.w	r4, [r0, #276]	; 0x114
  400c46:	6845      	ldr	r5, [r0, #4]
  400c48:	0052      	lsls	r2, r2, #1
  400c4a:	fbb1 f1f2 	udiv	r1, r1, r2
  400c4e:	432b      	orrs	r3, r5
  400c50:	1e4d      	subs	r5, r1, #1
  400c52:	022d      	lsls	r5, r5, #8
  400c54:	b2ad      	uxth	r5, r5
  400c56:	432b      	orrs	r3, r5
  400c58:	6043      	str	r3, [r0, #4]
  400c5a:	4620      	mov	r0, r4
  400c5c:	bd30      	pop	{r4, r5, pc}

00400c5e <adc_configure_trigger>:
  400c5e:	6843      	ldr	r3, [r0, #4]
  400c60:	01d2      	lsls	r2, r2, #7
  400c62:	4319      	orrs	r1, r3
  400c64:	b2d3      	uxtb	r3, r2
  400c66:	4319      	orrs	r1, r3
  400c68:	6041      	str	r1, [r0, #4]
  400c6a:	4770      	bx	lr

00400c6c <adc_configure_power_save>:
  400c6c:	6843      	ldr	r3, [r0, #4]
  400c6e:	0192      	lsls	r2, r2, #6
  400c70:	f002 0240 	and.w	r2, r2, #64	; 0x40
  400c74:	0149      	lsls	r1, r1, #5
  400c76:	4313      	orrs	r3, r2
  400c78:	f001 0120 	and.w	r1, r1, #32
  400c7c:	430b      	orrs	r3, r1
  400c7e:	6043      	str	r3, [r0, #4]
  400c80:	4770      	bx	lr

00400c82 <adc_configure_timing>:
  400c82:	b510      	push	{r4, lr}
  400c84:	6844      	ldr	r4, [r0, #4]
  400c86:	0609      	lsls	r1, r1, #24
  400c88:	4322      	orrs	r2, r4
  400c8a:	071b      	lsls	r3, r3, #28
  400c8c:	f001 6470 	and.w	r4, r1, #251658240	; 0xf000000
  400c90:	4322      	orrs	r2, r4
  400c92:	f003 5340 	and.w	r3, r3, #805306368	; 0x30000000
  400c96:	431a      	orrs	r2, r3
  400c98:	6042      	str	r2, [r0, #4]
  400c9a:	bd10      	pop	{r4, pc}

00400c9c <adc_disable_anch>:
  400c9c:	6843      	ldr	r3, [r0, #4]
  400c9e:	f423 0300 	bic.w	r3, r3, #8388608	; 0x800000
  400ca2:	6043      	str	r3, [r0, #4]
  400ca4:	4770      	bx	lr

00400ca6 <adc_enable_channel>:
  400ca6:	2301      	movs	r3, #1
  400ca8:	fa03 f101 	lsl.w	r1, r3, r1
  400cac:	6101      	str	r1, [r0, #16]
  400cae:	4770      	bx	lr

00400cb0 <adc_get_latest_value>:
  400cb0:	6a00      	ldr	r0, [r0, #32]
  400cb2:	4770      	bx	lr

00400cb4 <adc_enable_tag>:
  400cb4:	6c03      	ldr	r3, [r0, #64]	; 0x40
  400cb6:	f043 7380 	orr.w	r3, r3, #16777216	; 0x1000000
  400cba:	6403      	str	r3, [r0, #64]	; 0x40
  400cbc:	4770      	bx	lr

00400cbe <adc_stop_sequencer>:
  400cbe:	6843      	ldr	r3, [r0, #4]
  400cc0:	f023 4300 	bic.w	r3, r3, #2147483648	; 0x80000000
  400cc4:	6043      	str	r3, [r0, #4]
  400cc6:	4770      	bx	lr

00400cc8 <adc_disable_channel_input_offset>:
  400cc8:	6cc3      	ldr	r3, [r0, #76]	; 0x4c
  400cca:	6cc2      	ldr	r2, [r0, #76]	; 0x4c
  400ccc:	b510      	push	{r4, lr}
  400cce:	f06f 0401 	mvn.w	r4, #1
  400cd2:	fa04 f101 	lsl.w	r1, r4, r1
  400cd6:	400a      	ands	r2, r1
  400cd8:	64c2      	str	r2, [r0, #76]	; 0x4c
  400cda:	6cc2      	ldr	r2, [r0, #76]	; 0x4c
  400cdc:	4313      	orrs	r3, r2
  400cde:	64c3      	str	r3, [r0, #76]	; 0x4c
  400ce0:	bd10      	pop	{r4, pc}

00400ce2 <adc_set_channel_input_gain>:
  400ce2:	6c83      	ldr	r3, [r0, #72]	; 0x48
  400ce4:	0049      	lsls	r1, r1, #1
  400ce6:	f002 0203 	and.w	r2, r2, #3
  400cea:	fa02 f101 	lsl.w	r1, r2, r1
  400cee:	430b      	orrs	r3, r1
  400cf0:	6483      	str	r3, [r0, #72]	; 0x48
  400cf2:	4770      	bx	lr

00400cf4 <adc_set_calibmode>:
  400cf4:	6803      	ldr	r3, [r0, #0]
  400cf6:	f043 0308 	orr.w	r3, r3, #8
  400cfa:	6003      	str	r3, [r0, #0]
  400cfc:	4770      	bx	lr

00400cfe <adc_enable_interrupt>:
  400cfe:	6241      	str	r1, [r0, #36]	; 0x24
  400d00:	4770      	bx	lr

00400d02 <adc_get_status>:
  400d02:	6b00      	ldr	r0, [r0, #48]	; 0x30
  400d04:	4770      	bx	lr

00400d06 <adc_enable_ts>:
  400d06:	f8d0 3094 	ldr.w	r3, [r0, #148]	; 0x94
  400d0a:	f043 0310 	orr.w	r3, r3, #16
  400d0e:	f8c0 3094 	str.w	r3, [r0, #148]	; 0x94
  400d12:	4770      	bx	lr

00400d14 <cpu_irq_save>:
  400d14:	f3ef 8010 	mrs	r0, PRIMASK
  400d18:	b672      	cpsid	i
  400d1a:	f3bf 8f5f 	dmb	sy
  400d1e:	4b03      	ldr	r3, [pc, #12]	; (400d2c <cpu_irq_save+0x18>)
  400d20:	2200      	movs	r2, #0
  400d22:	701a      	strb	r2, [r3, #0]
  400d24:	1a83      	subs	r3, r0, r2
  400d26:	4258      	negs	r0, r3
  400d28:	4158      	adcs	r0, r3
  400d2a:	4770      	bx	lr
  400d2c:	20000144 	.word	0x20000144

00400d30 <udd_ctrl_init>:
  400d30:	4a03      	ldr	r2, [pc, #12]	; (400d40 <udd_ctrl_init+0x10>)
  400d32:	2300      	movs	r3, #0
  400d34:	6113      	str	r3, [r2, #16]
  400d36:	6153      	str	r3, [r2, #20]
  400d38:	8193      	strh	r3, [r2, #12]
  400d3a:	4a02      	ldr	r2, [pc, #8]	; (400d44 <udd_ctrl_init+0x14>)
  400d3c:	7013      	strb	r3, [r2, #0]
  400d3e:	4770      	bx	lr
  400d40:	20001490 	.word	0x20001490
  400d44:	20001400 	.word	0x20001400

00400d48 <udd_ctrl_stall_data>:
  400d48:	4b0d      	ldr	r3, [pc, #52]	; (400d80 <udd_ctrl_stall_data+0x38>)
  400d4a:	2205      	movs	r2, #5
  400d4c:	701a      	strb	r2, [r3, #0]
  400d4e:	4b0d      	ldr	r3, [pc, #52]	; (400d84 <udd_ctrl_stall_data+0x3c>)
  400d50:	b082      	sub	sp, #8
  400d52:	6b1a      	ldr	r2, [r3, #48]	; 0x30
  400d54:	9200      	str	r2, [sp, #0]
  400d56:	9a00      	ldr	r2, [sp, #0]
  400d58:	f042 024f 	orr.w	r2, r2, #79	; 0x4f
  400d5c:	9200      	str	r2, [sp, #0]
  400d5e:	9a00      	ldr	r2, [sp, #0]
  400d60:	f042 0220 	orr.w	r2, r2, #32
  400d64:	9200      	str	r2, [sp, #0]
  400d66:	9a00      	ldr	r2, [sp, #0]
  400d68:	631a      	str	r2, [r3, #48]	; 0x30
  400d6a:	2300      	movs	r3, #0
  400d6c:	9301      	str	r3, [sp, #4]
  400d6e:	9b01      	ldr	r3, [sp, #4]
  400d70:	2b13      	cmp	r3, #19
  400d72:	d803      	bhi.n	400d7c <udd_ctrl_stall_data+0x34>
  400d74:	bf00      	nop
  400d76:	9b01      	ldr	r3, [sp, #4]
  400d78:	3301      	adds	r3, #1
  400d7a:	e7f7      	b.n	400d6c <udd_ctrl_stall_data+0x24>
  400d7c:	b002      	add	sp, #8
  400d7e:	4770      	bx	lr
  400d80:	20001400 	.word	0x20001400
  400d84:	40034000 	.word	0x40034000

00400d88 <udd_ctrl_send_zlp_in>:
  400d88:	4b0d      	ldr	r3, [pc, #52]	; (400dc0 <udd_ctrl_send_zlp_in+0x38>)
  400d8a:	2203      	movs	r2, #3
  400d8c:	701a      	strb	r2, [r3, #0]
  400d8e:	4b0d      	ldr	r3, [pc, #52]	; (400dc4 <udd_ctrl_send_zlp_in+0x3c>)
  400d90:	b082      	sub	sp, #8
  400d92:	6b1a      	ldr	r2, [r3, #48]	; 0x30
  400d94:	9200      	str	r2, [sp, #0]
  400d96:	9a00      	ldr	r2, [sp, #0]
  400d98:	f042 024f 	orr.w	r2, r2, #79	; 0x4f
  400d9c:	9200      	str	r2, [sp, #0]
  400d9e:	9a00      	ldr	r2, [sp, #0]
  400da0:	f042 0210 	orr.w	r2, r2, #16
  400da4:	9200      	str	r2, [sp, #0]
  400da6:	9a00      	ldr	r2, [sp, #0]
  400da8:	631a      	str	r2, [r3, #48]	; 0x30
  400daa:	2300      	movs	r3, #0
  400dac:	9301      	str	r3, [sp, #4]
  400dae:	9b01      	ldr	r3, [sp, #4]
  400db0:	2b13      	cmp	r3, #19
  400db2:	d803      	bhi.n	400dbc <udd_ctrl_send_zlp_in+0x34>
  400db4:	bf00      	nop
  400db6:	9b01      	ldr	r3, [sp, #4]
  400db8:	3301      	adds	r3, #1
  400dba:	e7f7      	b.n	400dac <udd_ctrl_send_zlp_in+0x24>
  400dbc:	b002      	add	sp, #8
  400dbe:	4770      	bx	lr
  400dc0:	20001400 	.word	0x20001400
  400dc4:	40034000 	.word	0x40034000

00400dc8 <udd_ctrl_endofrequest>:
  400dc8:	b508      	push	{r3, lr}
  400dca:	4b02      	ldr	r3, [pc, #8]	; (400dd4 <udd_ctrl_endofrequest+0xc>)
  400dcc:	691b      	ldr	r3, [r3, #16]
  400dce:	b103      	cbz	r3, 400dd2 <udd_ctrl_endofrequest+0xa>
  400dd0:	4798      	blx	r3
  400dd2:	bd08      	pop	{r3, pc}
  400dd4:	20001490 	.word	0x20001490

00400dd8 <udd_ep_ack_out_received>:
  400dd8:	b51f      	push	{r0, r1, r2, r3, r4, lr}
  400dda:	4a2b      	ldr	r2, [pc, #172]	; (400e88 <udd_ep_ack_out_received+0xb0>)
  400ddc:	2114      	movs	r1, #20
  400dde:	1e43      	subs	r3, r0, #1
  400de0:	fb01 2303 	mla	r3, r1, r3, r2
  400de4:	0082      	lsls	r2, r0, #2
  400de6:	f102 2240 	add.w	r2, r2, #1073758208	; 0x40004000
  400dea:	f502 3240 	add.w	r2, r2, #196608	; 0x30000
  400dee:	6b11      	ldr	r1, [r2, #48]	; 0x30
  400df0:	f001 0142 	and.w	r1, r1, #66	; 0x42
  400df4:	2942      	cmp	r1, #66	; 0x42
  400df6:	d00a      	beq.n	400e0e <udd_ep_ack_out_received+0x36>
  400df8:	6b11      	ldr	r1, [r2, #48]	; 0x30
  400dfa:	f011 0f02 	tst.w	r1, #2
  400dfe:	7c59      	ldrb	r1, [r3, #17]
  400e00:	bf0a      	itet	eq
  400e02:	2401      	moveq	r4, #1
  400e04:	f36f 0183 	bfcne	r1, #2, #2
  400e08:	f364 0183 	bfieq	r1, r4, #2, #2
  400e0c:	7459      	strb	r1, [r3, #17]
  400e0e:	7c59      	ldrb	r1, [r3, #17]
  400e10:	f3c1 0181 	ubfx	r1, r1, #2, #2
  400e14:	b9e1      	cbnz	r1, 400e50 <udd_ep_ack_out_received+0x78>
  400e16:	6b14      	ldr	r4, [r2, #48]	; 0x30
  400e18:	9400      	str	r4, [sp, #0]
  400e1a:	9c00      	ldr	r4, [sp, #0]
  400e1c:	f044 044f 	orr.w	r4, r4, #79	; 0x4f
  400e20:	9400      	str	r4, [sp, #0]
  400e22:	9c00      	ldr	r4, [sp, #0]
  400e24:	f024 0402 	bic.w	r4, r4, #2
  400e28:	9400      	str	r4, [sp, #0]
  400e2a:	9c00      	ldr	r4, [sp, #0]
  400e2c:	6314      	str	r4, [r2, #48]	; 0x30
  400e2e:	9101      	str	r1, [sp, #4]
  400e30:	9a01      	ldr	r2, [sp, #4]
  400e32:	2a13      	cmp	r2, #19
  400e34:	d804      	bhi.n	400e40 <udd_ep_ack_out_received+0x68>
  400e36:	bf00      	nop
  400e38:	9a01      	ldr	r2, [sp, #4]
  400e3a:	3201      	adds	r2, #1
  400e3c:	9201      	str	r2, [sp, #4]
  400e3e:	e7f7      	b.n	400e30 <udd_ep_ack_out_received+0x58>
  400e40:	b1f8      	cbz	r0, 400e82 <udd_ep_ack_out_received+0xaa>
  400e42:	2803      	cmp	r0, #3
  400e44:	d01d      	beq.n	400e82 <udd_ep_ack_out_received+0xaa>
  400e46:	7c5a      	ldrb	r2, [r3, #17]
  400e48:	2101      	movs	r1, #1
  400e4a:	f361 0283 	bfi	r2, r1, #2, #2
  400e4e:	e017      	b.n	400e80 <udd_ep_ack_out_received+0xa8>
  400e50:	6b11      	ldr	r1, [r2, #48]	; 0x30
  400e52:	9102      	str	r1, [sp, #8]
  400e54:	9902      	ldr	r1, [sp, #8]
  400e56:	f041 014f 	orr.w	r1, r1, #79	; 0x4f
  400e5a:	9102      	str	r1, [sp, #8]
  400e5c:	9902      	ldr	r1, [sp, #8]
  400e5e:	f021 0140 	bic.w	r1, r1, #64	; 0x40
  400e62:	9102      	str	r1, [sp, #8]
  400e64:	9902      	ldr	r1, [sp, #8]
  400e66:	6311      	str	r1, [r2, #48]	; 0x30
  400e68:	2200      	movs	r2, #0
  400e6a:	9203      	str	r2, [sp, #12]
  400e6c:	9a03      	ldr	r2, [sp, #12]
  400e6e:	2a13      	cmp	r2, #19
  400e70:	d803      	bhi.n	400e7a <udd_ep_ack_out_received+0xa2>
  400e72:	bf00      	nop
  400e74:	9a03      	ldr	r2, [sp, #12]
  400e76:	3201      	adds	r2, #1
  400e78:	e7f7      	b.n	400e6a <udd_ep_ack_out_received+0x92>
  400e7a:	7c5a      	ldrb	r2, [r3, #17]
  400e7c:	f36f 0283 	bfc	r2, #2, #2
  400e80:	745a      	strb	r2, [r3, #17]
  400e82:	b004      	add	sp, #16
  400e84:	bd10      	pop	{r4, pc}
  400e86:	bf00      	nop
  400e88:	200013c0 	.word	0x200013c0

00400e8c <udd_ep_in_sent>:
  400e8c:	b5f7      	push	{r0, r1, r2, r4, r5, r6, r7, lr}
  400e8e:	4a50      	ldr	r2, [pc, #320]	; (400fd0 <udd_ep_in_sent+0x144>)
  400e90:	1e43      	subs	r3, r0, #1
  400e92:	2414      	movs	r4, #20
  400e94:	fb04 2303 	mla	r3, r4, r3, r2
  400e98:	7c5a      	ldrb	r2, [r3, #17]
  400e9a:	f3c2 0581 	ubfx	r5, r2, #2, #2
  400e9e:	b120      	cbz	r0, 400eaa <udd_ep_in_sent+0x1e>
  400ea0:	2803      	cmp	r0, #3
  400ea2:	bf14      	ite	ne
  400ea4:	2402      	movne	r4, #2
  400ea6:	2401      	moveq	r4, #1
  400ea8:	e000      	b.n	400eac <udd_ep_in_sent+0x20>
  400eaa:	2401      	movs	r4, #1
  400eac:	42a5      	cmp	r5, r4
  400eae:	db01      	blt.n	400eb4 <udd_ep_in_sent+0x28>
  400eb0:	2001      	movs	r0, #1
  400eb2:	e08a      	b.n	400fca <udd_ep_in_sent+0x13e>
  400eb4:	68dc      	ldr	r4, [r3, #12]
  400eb6:	689d      	ldr	r5, [r3, #8]
  400eb8:	42ac      	cmp	r4, r5
  400eba:	d304      	bcc.n	400ec6 <udd_ep_in_sent+0x3a>
  400ebc:	f3c2 1280 	ubfx	r2, r2, #6, #1
  400ec0:	2a00      	cmp	r2, #0
  400ec2:	f000 8081 	beq.w	400fc8 <udd_ep_in_sent+0x13c>
  400ec6:	8a1a      	ldrh	r2, [r3, #16]
  400ec8:	685e      	ldr	r6, [r3, #4]
  400eca:	1b2d      	subs	r5, r5, r4
  400ecc:	f3c2 0209 	ubfx	r2, r2, #0, #10
  400ed0:	4295      	cmp	r5, r2
  400ed2:	bf28      	it	cs
  400ed4:	4615      	movcs	r5, r2
  400ed6:	4426      	add	r6, r4
  400ed8:	442c      	add	r4, r5
  400eda:	bf2c      	ite	cs
  400edc:	2700      	movcs	r7, #0
  400ede:	2701      	movcc	r7, #1
  400ee0:	60dc      	str	r4, [r3, #12]
  400ee2:	4632      	mov	r2, r6
  400ee4:	1974      	adds	r4, r6, r5
  400ee6:	1aa4      	subs	r4, r4, r2
  400ee8:	2c07      	cmp	r4, #7
  400eea:	d926      	bls.n	400f3a <udd_ep_in_sent+0xae>
  400eec:	0084      	lsls	r4, r0, #2
  400eee:	f104 2440 	add.w	r4, r4, #1073758208	; 0x40004000
  400ef2:	f504 3440 	add.w	r4, r4, #196608	; 0x30000
  400ef6:	f892 c000 	ldrb.w	ip, [r2]
  400efa:	f8c4 c050 	str.w	ip, [r4, #80]	; 0x50
  400efe:	f892 c001 	ldrb.w	ip, [r2, #1]
  400f02:	f8c4 c050 	str.w	ip, [r4, #80]	; 0x50
  400f06:	f892 c002 	ldrb.w	ip, [r2, #2]
  400f0a:	f8c4 c050 	str.w	ip, [r4, #80]	; 0x50
  400f0e:	f892 c003 	ldrb.w	ip, [r2, #3]
  400f12:	f8c4 c050 	str.w	ip, [r4, #80]	; 0x50
  400f16:	f892 c004 	ldrb.w	ip, [r2, #4]
  400f1a:	f8c4 c050 	str.w	ip, [r4, #80]	; 0x50
  400f1e:	f892 c005 	ldrb.w	ip, [r2, #5]
  400f22:	f8c4 c050 	str.w	ip, [r4, #80]	; 0x50
  400f26:	f892 c006 	ldrb.w	ip, [r2, #6]
  400f2a:	f8c4 c050 	str.w	ip, [r4, #80]	; 0x50
  400f2e:	f892 c007 	ldrb.w	ip, [r2, #7]
  400f32:	f8c4 c050 	str.w	ip, [r4, #80]	; 0x50
  400f36:	3208      	adds	r2, #8
  400f38:	e7d4      	b.n	400ee4 <udd_ep_in_sent+0x58>
  400f3a:	f025 0207 	bic.w	r2, r5, #7
  400f3e:	4432      	add	r2, r6
  400f40:	f005 0507 	and.w	r5, r5, #7
  400f44:	4415      	add	r5, r2
  400f46:	42aa      	cmp	r2, r5
  400f48:	d007      	beq.n	400f5a <udd_ep_in_sent+0xce>
  400f4a:	f100 0614 	add.w	r6, r0, #20
  400f4e:	4c21      	ldr	r4, [pc, #132]	; (400fd4 <udd_ep_in_sent+0x148>)
  400f50:	f812 cb01 	ldrb.w	ip, [r2], #1
  400f54:	f844 c026 	str.w	ip, [r4, r6, lsl #2]
  400f58:	e7f5      	b.n	400f46 <udd_ep_in_sent+0xba>
  400f5a:	7c5a      	ldrb	r2, [r3, #17]
  400f5c:	f3c2 0481 	ubfx	r4, r2, #2, #2
  400f60:	3401      	adds	r4, #1
  400f62:	f364 0283 	bfi	r2, r4, #2, #2
  400f66:	745a      	strb	r2, [r3, #17]
  400f68:	b929      	cbnz	r1, 400f76 <udd_ep_in_sent+0xea>
  400f6a:	b1f7      	cbz	r7, 400faa <udd_ep_in_sent+0x11e>
  400f6c:	7c5a      	ldrb	r2, [r3, #17]
  400f6e:	f36f 1286 	bfc	r2, #6, #1
  400f72:	745a      	strb	r2, [r3, #17]
  400f74:	e019      	b.n	400faa <udd_ep_in_sent+0x11e>
  400f76:	0080      	lsls	r0, r0, #2
  400f78:	f100 2040 	add.w	r0, r0, #1073758208	; 0x40004000
  400f7c:	f500 3040 	add.w	r0, r0, #196608	; 0x30000
  400f80:	6b02      	ldr	r2, [r0, #48]	; 0x30
  400f82:	9200      	str	r2, [sp, #0]
  400f84:	9a00      	ldr	r2, [sp, #0]
  400f86:	f042 024f 	orr.w	r2, r2, #79	; 0x4f
  400f8a:	9200      	str	r2, [sp, #0]
  400f8c:	9a00      	ldr	r2, [sp, #0]
  400f8e:	f042 0210 	orr.w	r2, r2, #16
  400f92:	9200      	str	r2, [sp, #0]
  400f94:	9a00      	ldr	r2, [sp, #0]
  400f96:	6302      	str	r2, [r0, #48]	; 0x30
  400f98:	2200      	movs	r2, #0
  400f9a:	9201      	str	r2, [sp, #4]
  400f9c:	9a01      	ldr	r2, [sp, #4]
  400f9e:	2a13      	cmp	r2, #19
  400fa0:	d8e3      	bhi.n	400f6a <udd_ep_in_sent+0xde>
  400fa2:	bf00      	nop
  400fa4:	9a01      	ldr	r2, [sp, #4]
  400fa6:	3201      	adds	r2, #1
  400fa8:	e7f7      	b.n	400f9a <udd_ep_in_sent+0x10e>
  400faa:	68d9      	ldr	r1, [r3, #12]
  400fac:	689a      	ldr	r2, [r3, #8]
  400fae:	4291      	cmp	r1, r2
  400fb0:	f4ff af7e 	bcc.w	400eb0 <udd_ep_in_sent+0x24>
  400fb4:	7c5a      	ldrb	r2, [r3, #17]
  400fb6:	f3c2 1080 	ubfx	r0, r2, #6, #1
  400fba:	2800      	cmp	r0, #0
  400fbc:	f47f af78 	bne.w	400eb0 <udd_ep_in_sent+0x24>
  400fc0:	f042 0280 	orr.w	r2, r2, #128	; 0x80
  400fc4:	745a      	strb	r2, [r3, #17]
  400fc6:	e000      	b.n	400fca <udd_ep_in_sent+0x13e>
  400fc8:	4610      	mov	r0, r2
  400fca:	b003      	add	sp, #12
  400fcc:	bdf0      	pop	{r4, r5, r6, r7, pc}
  400fce:	bf00      	nop
  400fd0:	200013c0 	.word	0x200013c0
  400fd4:	40034000 	.word	0x40034000

00400fd8 <cpu_irq_restore>:
  400fd8:	b128      	cbz	r0, 400fe6 <cpu_irq_restore+0xe>
  400fda:	4b03      	ldr	r3, [pc, #12]	; (400fe8 <cpu_irq_restore+0x10>)
  400fdc:	2201      	movs	r2, #1
  400fde:	701a      	strb	r2, [r3, #0]
  400fe0:	f3bf 8f5f 	dmb	sy
  400fe4:	b662      	cpsie	i
  400fe6:	4770      	bx	lr
  400fe8:	20000144 	.word	0x20000144

00400fec <sleepmgr_lock_mode>:
  400fec:	b538      	push	{r3, r4, r5, lr}
  400fee:	4d07      	ldr	r5, [pc, #28]	; (40100c <sleepmgr_lock_mode+0x20>)
  400ff0:	5c2b      	ldrb	r3, [r5, r0]
  400ff2:	2bff      	cmp	r3, #255	; 0xff
  400ff4:	4604      	mov	r4, r0
  400ff6:	d100      	bne.n	400ffa <sleepmgr_lock_mode+0xe>
  400ff8:	e7fe      	b.n	400ff8 <sleepmgr_lock_mode+0xc>
  400ffa:	f7ff fe8b 	bl	400d14 <cpu_irq_save>
  400ffe:	5d2b      	ldrb	r3, [r5, r4]
  401000:	3301      	adds	r3, #1
  401002:	552b      	strb	r3, [r5, r4]
  401004:	e8bd 4038 	ldmia.w	sp!, {r3, r4, r5, lr}
  401008:	f7ff bfe6 	b.w	400fd8 <cpu_irq_restore>
  40100c:	20001488 	.word	0x20001488

00401010 <sleepmgr_unlock_mode>:
  401010:	b538      	push	{r3, r4, r5, lr}
  401012:	4d07      	ldr	r5, [pc, #28]	; (401030 <sleepmgr_unlock_mode+0x20>)
  401014:	5c2b      	ldrb	r3, [r5, r0]
  401016:	4604      	mov	r4, r0
  401018:	b903      	cbnz	r3, 40101c <sleepmgr_unlock_mode+0xc>
  40101a:	e7fe      	b.n	40101a <sleepmgr_unlock_mode+0xa>
  40101c:	f7ff fe7a 	bl	400d14 <cpu_irq_save>
  401020:	5d2b      	ldrb	r3, [r5, r4]
  401022:	3b01      	subs	r3, #1
  401024:	552b      	strb	r3, [r5, r4]
  401026:	e8bd 4038 	ldmia.w	sp!, {r3, r4, r5, lr}
  40102a:	f7ff bfd5 	b.w	400fd8 <cpu_irq_restore>
  40102e:	bf00      	nop
  401030:	20001488 	.word	0x20001488

00401034 <udd_sleep_mode>:
  401034:	b538      	push	{r3, r4, r5, lr}
  401036:	4c07      	ldr	r4, [pc, #28]	; (401054 <udd_sleep_mode+0x20>)
  401038:	4605      	mov	r5, r0
  40103a:	7823      	ldrb	r3, [r4, #0]
  40103c:	b920      	cbnz	r0, 401048 <udd_sleep_mode+0x14>
  40103e:	b13b      	cbz	r3, 401050 <udd_sleep_mode+0x1c>
  401040:	2002      	movs	r0, #2
  401042:	f7ff ffe5 	bl	401010 <sleepmgr_unlock_mode>
  401046:	e003      	b.n	401050 <udd_sleep_mode+0x1c>
  401048:	b913      	cbnz	r3, 401050 <udd_sleep_mode+0x1c>
  40104a:	2002      	movs	r0, #2
  40104c:	f7ff ffce 	bl	400fec <sleepmgr_lock_mode>
  401050:	7025      	strb	r5, [r4, #0]
  401052:	bd38      	pop	{r3, r4, r5, pc}
  401054:	200013fc 	.word	0x200013fc

00401058 <udd_ctrl_in_sent>:
  401058:	e92d 43f0 	stmdb	sp!, {r4, r5, r6, r7, r8, r9, lr}
  40105c:	4f5f      	ldr	r7, [pc, #380]	; (4011dc <udd_ctrl_in_sent+0x184>)
  40105e:	783b      	ldrb	r3, [r7, #0]
  401060:	2b03      	cmp	r3, #3
  401062:	b08b      	sub	sp, #44	; 0x2c
  401064:	d11a      	bne.n	40109c <udd_ctrl_in_sent+0x44>
  401066:	4b5e      	ldr	r3, [pc, #376]	; (4011e0 <udd_ctrl_in_sent+0x188>)
  401068:	6b1a      	ldr	r2, [r3, #48]	; 0x30
  40106a:	9200      	str	r2, [sp, #0]
  40106c:	9a00      	ldr	r2, [sp, #0]
  40106e:	f042 024f 	orr.w	r2, r2, #79	; 0x4f
  401072:	9200      	str	r2, [sp, #0]
  401074:	9a00      	ldr	r2, [sp, #0]
  401076:	f022 0201 	bic.w	r2, r2, #1
  40107a:	9200      	str	r2, [sp, #0]
  40107c:	9a00      	ldr	r2, [sp, #0]
  40107e:	631a      	str	r2, [r3, #48]	; 0x30
  401080:	2300      	movs	r3, #0
  401082:	9301      	str	r3, [sp, #4]
  401084:	9b01      	ldr	r3, [sp, #4]
  401086:	2b13      	cmp	r3, #19
  401088:	d803      	bhi.n	401092 <udd_ctrl_in_sent+0x3a>
  40108a:	bf00      	nop
  40108c:	9b01      	ldr	r3, [sp, #4]
  40108e:	3301      	adds	r3, #1
  401090:	e7f7      	b.n	401082 <udd_ctrl_in_sent+0x2a>
  401092:	f7ff fe99 	bl	400dc8 <udd_ctrl_endofrequest>
  401096:	f7ff fe4b 	bl	400d30 <udd_ctrl_init>
  40109a:	e09b      	b.n	4011d4 <udd_ctrl_in_sent+0x17c>
  40109c:	4e51      	ldr	r6, [pc, #324]	; (4011e4 <udd_ctrl_in_sent+0x18c>)
  40109e:	4d52      	ldr	r5, [pc, #328]	; (4011e8 <udd_ctrl_in_sent+0x190>)
  4010a0:	8833      	ldrh	r3, [r6, #0]
  4010a2:	89ac      	ldrh	r4, [r5, #12]
  4010a4:	1ae4      	subs	r4, r4, r3
  4010a6:	b2a4      	uxth	r4, r4
  4010a8:	2c00      	cmp	r4, #0
  4010aa:	d128      	bne.n	4010fe <udd_ctrl_in_sent+0xa6>
  4010ac:	4a4f      	ldr	r2, [pc, #316]	; (4011ec <udd_ctrl_in_sent+0x194>)
  4010ae:	8811      	ldrh	r1, [r2, #0]
  4010b0:	440b      	add	r3, r1
  4010b2:	b29b      	uxth	r3, r3
  4010b4:	8013      	strh	r3, [r2, #0]
  4010b6:	88ea      	ldrh	r2, [r5, #6]
  4010b8:	429a      	cmp	r2, r3
  4010ba:	d002      	beq.n	4010c2 <udd_ctrl_in_sent+0x6a>
  4010bc:	4b4c      	ldr	r3, [pc, #304]	; (4011f0 <udd_ctrl_in_sent+0x198>)
  4010be:	781b      	ldrb	r3, [r3, #0]
  4010c0:	b1bb      	cbz	r3, 4010f2 <udd_ctrl_in_sent+0x9a>
  4010c2:	2304      	movs	r3, #4
  4010c4:	703b      	strb	r3, [r7, #0]
  4010c6:	4b46      	ldr	r3, [pc, #280]	; (4011e0 <udd_ctrl_in_sent+0x188>)
  4010c8:	6b1a      	ldr	r2, [r3, #48]	; 0x30
  4010ca:	9202      	str	r2, [sp, #8]
  4010cc:	9a02      	ldr	r2, [sp, #8]
  4010ce:	f042 024f 	orr.w	r2, r2, #79	; 0x4f
  4010d2:	9202      	str	r2, [sp, #8]
  4010d4:	9a02      	ldr	r2, [sp, #8]
  4010d6:	f022 0201 	bic.w	r2, r2, #1
  4010da:	9202      	str	r2, [sp, #8]
  4010dc:	9a02      	ldr	r2, [sp, #8]
  4010de:	631a      	str	r2, [r3, #48]	; 0x30
  4010e0:	2300      	movs	r3, #0
  4010e2:	9303      	str	r3, [sp, #12]
  4010e4:	9b03      	ldr	r3, [sp, #12]
  4010e6:	2b13      	cmp	r3, #19
  4010e8:	d874      	bhi.n	4011d4 <udd_ctrl_in_sent+0x17c>
  4010ea:	bf00      	nop
  4010ec:	9b03      	ldr	r3, [sp, #12]
  4010ee:	3301      	adds	r3, #1
  4010f0:	e7f7      	b.n	4010e2 <udd_ctrl_in_sent+0x8a>
  4010f2:	696b      	ldr	r3, [r5, #20]
  4010f4:	b153      	cbz	r3, 40110c <udd_ctrl_in_sent+0xb4>
  4010f6:	4798      	blx	r3
  4010f8:	b140      	cbz	r0, 40110c <udd_ctrl_in_sent+0xb4>
  4010fa:	8034      	strh	r4, [r6, #0]
  4010fc:	89ac      	ldrh	r4, [r5, #12]
  4010fe:	2c3f      	cmp	r4, #63	; 0x3f
  401100:	d904      	bls.n	40110c <udd_ctrl_in_sent+0xb4>
  401102:	4b3b      	ldr	r3, [pc, #236]	; (4011f0 <udd_ctrl_in_sent+0x198>)
  401104:	2200      	movs	r2, #0
  401106:	701a      	strb	r2, [r3, #0]
  401108:	2440      	movs	r4, #64	; 0x40
  40110a:	e002      	b.n	401112 <udd_ctrl_in_sent+0xba>
  40110c:	4b38      	ldr	r3, [pc, #224]	; (4011f0 <udd_ctrl_in_sent+0x198>)
  40110e:	2201      	movs	r2, #1
  401110:	701a      	strb	r2, [r3, #0]
  401112:	f8d5 9008 	ldr.w	r9, [r5, #8]
  401116:	4d32      	ldr	r5, [pc, #200]	; (4011e0 <udd_ctrl_in_sent+0x188>)
  401118:	f8b6 8000 	ldrh.w	r8, [r6]
  40111c:	f7ff fdfa 	bl	400d14 <cpu_irq_save>
  401120:	6b2b      	ldr	r3, [r5, #48]	; 0x30
  401122:	079b      	lsls	r3, r3, #30
  401124:	4686      	mov	lr, r0
  401126:	d403      	bmi.n	401130 <udd_ctrl_in_sent+0xd8>
  401128:	eb09 0108 	add.w	r1, r9, r8
  40112c:	460a      	mov	r2, r1
  40112e:	e018      	b.n	401162 <udd_ctrl_in_sent+0x10a>
  401130:	f7ff ff52 	bl	400fd8 <cpu_irq_restore>
  401134:	2304      	movs	r3, #4
  401136:	703b      	strb	r3, [r7, #0]
  401138:	6b2b      	ldr	r3, [r5, #48]	; 0x30
  40113a:	9304      	str	r3, [sp, #16]
  40113c:	9b04      	ldr	r3, [sp, #16]
  40113e:	f043 034f 	orr.w	r3, r3, #79	; 0x4f
  401142:	9304      	str	r3, [sp, #16]
  401144:	9b04      	ldr	r3, [sp, #16]
  401146:	f023 0301 	bic.w	r3, r3, #1
  40114a:	9304      	str	r3, [sp, #16]
  40114c:	9b04      	ldr	r3, [sp, #16]
  40114e:	632b      	str	r3, [r5, #48]	; 0x30
  401150:	2300      	movs	r3, #0
  401152:	9305      	str	r3, [sp, #20]
  401154:	9b05      	ldr	r3, [sp, #20]
  401156:	2b13      	cmp	r3, #19
  401158:	d83c      	bhi.n	4011d4 <udd_ctrl_in_sent+0x17c>
  40115a:	bf00      	nop
  40115c:	9b05      	ldr	r3, [sp, #20]
  40115e:	3301      	adds	r3, #1
  401160:	e7f7      	b.n	401152 <udd_ctrl_in_sent+0xfa>
  401162:	1a53      	subs	r3, r2, r1
  401164:	b2db      	uxtb	r3, r3
  401166:	42a3      	cmp	r3, r4
  401168:	4b1d      	ldr	r3, [pc, #116]	; (4011e0 <udd_ctrl_in_sent+0x188>)
  40116a:	d203      	bcs.n	401174 <udd_ctrl_in_sent+0x11c>
  40116c:	f812 0b01 	ldrb.w	r0, [r2], #1
  401170:	6518      	str	r0, [r3, #80]	; 0x50
  401172:	e7f6      	b.n	401162 <udd_ctrl_in_sent+0x10a>
  401174:	4444      	add	r4, r8
  401176:	8034      	strh	r4, [r6, #0]
  401178:	6b1a      	ldr	r2, [r3, #48]	; 0x30
  40117a:	9206      	str	r2, [sp, #24]
  40117c:	9a06      	ldr	r2, [sp, #24]
  40117e:	f042 024f 	orr.w	r2, r2, #79	; 0x4f
  401182:	9206      	str	r2, [sp, #24]
  401184:	9a06      	ldr	r2, [sp, #24]
  401186:	f042 0210 	orr.w	r2, r2, #16
  40118a:	9206      	str	r2, [sp, #24]
  40118c:	9a06      	ldr	r2, [sp, #24]
  40118e:	631a      	str	r2, [r3, #48]	; 0x30
  401190:	2300      	movs	r3, #0
  401192:	9307      	str	r3, [sp, #28]
  401194:	9b07      	ldr	r3, [sp, #28]
  401196:	2b13      	cmp	r3, #19
  401198:	d803      	bhi.n	4011a2 <udd_ctrl_in_sent+0x14a>
  40119a:	bf00      	nop
  40119c:	9b07      	ldr	r3, [sp, #28]
  40119e:	3301      	adds	r3, #1
  4011a0:	e7f7      	b.n	401192 <udd_ctrl_in_sent+0x13a>
  4011a2:	4b0f      	ldr	r3, [pc, #60]	; (4011e0 <udd_ctrl_in_sent+0x188>)
  4011a4:	6b1a      	ldr	r2, [r3, #48]	; 0x30
  4011a6:	9208      	str	r2, [sp, #32]
  4011a8:	9a08      	ldr	r2, [sp, #32]
  4011aa:	f042 024f 	orr.w	r2, r2, #79	; 0x4f
  4011ae:	9208      	str	r2, [sp, #32]
  4011b0:	9a08      	ldr	r2, [sp, #32]
  4011b2:	f022 0201 	bic.w	r2, r2, #1
  4011b6:	9208      	str	r2, [sp, #32]
  4011b8:	9a08      	ldr	r2, [sp, #32]
  4011ba:	631a      	str	r2, [r3, #48]	; 0x30
  4011bc:	2300      	movs	r3, #0
  4011be:	9309      	str	r3, [sp, #36]	; 0x24
  4011c0:	9b09      	ldr	r3, [sp, #36]	; 0x24
  4011c2:	2b13      	cmp	r3, #19
  4011c4:	d803      	bhi.n	4011ce <udd_ctrl_in_sent+0x176>
  4011c6:	bf00      	nop
  4011c8:	9b09      	ldr	r3, [sp, #36]	; 0x24
  4011ca:	3301      	adds	r3, #1
  4011cc:	e7f7      	b.n	4011be <udd_ctrl_in_sent+0x166>
  4011ce:	4670      	mov	r0, lr
  4011d0:	f7ff ff02 	bl	400fd8 <cpu_irq_restore>
  4011d4:	b00b      	add	sp, #44	; 0x2c
  4011d6:	e8bd 83f0 	ldmia.w	sp!, {r4, r5, r6, r7, r8, r9, pc}
  4011da:	bf00      	nop
  4011dc:	20001400 	.word	0x20001400
  4011e0:	40034000 	.word	0x40034000
  4011e4:	200013fe 	.word	0x200013fe
  4011e8:	20001490 	.word	0x20001490
  4011ec:	200013bc 	.word	0x200013bc
  4011f0:	20001401 	.word	0x20001401

004011f4 <udd_ep_finish_job>:
  4011f4:	b538      	push	{r3, r4, r5, lr}
  4011f6:	7c44      	ldrb	r4, [r0, #17]
  4011f8:	4603      	mov	r3, r0
  4011fa:	06e0      	lsls	r0, r4, #27
  4011fc:	d512      	bpl.n	401224 <udd_ep_finish_job+0x30>
  4011fe:	f36f 1404 	bfc	r4, #4, #1
  401202:	745c      	strb	r4, [r3, #17]
  401204:	681c      	ldr	r4, [r3, #0]
  401206:	b16c      	cbz	r4, 401224 <udd_ep_finish_job+0x30>
  401208:	f102 050c 	add.w	r5, r2, #12
  40120c:	4806      	ldr	r0, [pc, #24]	; (401228 <udd_ep_finish_job+0x34>)
  40120e:	f850 0025 	ldr.w	r0, [r0, r5, lsl #2]
  401212:	0545      	lsls	r5, r0, #21
  401214:	bf48      	it	mi
  401216:	f042 0280 	orrmi.w	r2, r2, #128	; 0x80
  40121a:	3901      	subs	r1, #1
  40121c:	4248      	negs	r0, r1
  40121e:	4148      	adcs	r0, r1
  401220:	6899      	ldr	r1, [r3, #8]
  401222:	47a0      	blx	r4
  401224:	bd38      	pop	{r3, r4, r5, pc}
  401226:	bf00      	nop
  401228:	40034000 	.word	0x40034000

0040122c <UDP_Handler>:
  40122c:	e92d 47f0 	stmdb	sp!, {r4, r5, r6, r7, r8, r9, sl, lr}
  401230:	b0b0      	sub	sp, #192	; 0xc0
  401232:	f001 fc6f 	bl	402b14 <pmc_is_wakeup_clocks_restored>
  401236:	4c88      	ldr	r4, [pc, #544]	; (401458 <UDP_Handler+0x22c>)
  401238:	b950      	cbnz	r0, 401250 <UDP_Handler+0x24>
  40123a:	69e3      	ldr	r3, [r4, #28]
  40123c:	f413 7380 	ands.w	r3, r3, #256	; 0x100
  401240:	d106      	bne.n	401250 <UDP_Handler+0x24>
  401242:	b672      	cpsid	i
  401244:	f3bf 8f5f 	dmb	sy
  401248:	4a84      	ldr	r2, [pc, #528]	; (40145c <UDP_Handler+0x230>)
  40124a:	7013      	strb	r3, [r2, #0]
  40124c:	f000 bc0c 	b.w	401a68 <UDP_Handler+0x83c>
  401250:	2022      	movs	r0, #34	; 0x22
  401252:	f001 fc03 	bl	402a5c <pmc_enable_periph_clk>
  401256:	69a2      	ldr	r2, [r4, #24]
  401258:	4b7f      	ldr	r3, [pc, #508]	; (401458 <UDP_Handler+0x22c>)
  40125a:	0512      	lsls	r2, r2, #20
  40125c:	d50a      	bpl.n	401274 <UDP_Handler+0x48>
  40125e:	69da      	ldr	r2, [r3, #28]
  401260:	0517      	lsls	r7, r2, #20
  401262:	d507      	bpl.n	401274 <UDP_Handler+0x48>
  401264:	f44f 6200 	mov.w	r2, #2048	; 0x800
  401268:	621a      	str	r2, [r3, #32]
  40126a:	f7ff fb03 	bl	400874 <udc_sof_notify>
  40126e:	f001 fd81 	bl	402d74 <main_sof_action>
  401272:	e3f9      	b.n	401a68 <UDP_Handler+0x83c>
  401274:	4b78      	ldr	r3, [pc, #480]	; (401458 <UDP_Handler+0x22c>)
  401276:	69da      	ldr	r2, [r3, #28]
  401278:	07d6      	lsls	r6, r2, #31
  40127a:	f140 81aa 	bpl.w	4015d2 <UDP_Handler+0x3a6>
  40127e:	6b1a      	ldr	r2, [r3, #48]	; 0x30
  401280:	0755      	lsls	r5, r2, #29
  401282:	f140 809e 	bpl.w	4013c2 <UDP_Handler+0x196>
  401286:	4e76      	ldr	r6, [pc, #472]	; (401460 <UDP_Handler+0x234>)
  401288:	7833      	ldrb	r3, [r6, #0]
  40128a:	b11b      	cbz	r3, 401294 <UDP_Handler+0x68>
  40128c:	f7ff fd9c 	bl	400dc8 <udd_ctrl_endofrequest>
  401290:	f7ff fd4e 	bl	400d30 <udd_ctrl_init>
  401294:	4b70      	ldr	r3, [pc, #448]	; (401458 <UDP_Handler+0x22c>)
  401296:	6b1a      	ldr	r2, [r3, #48]	; 0x30
  401298:	f3c2 420a 	ubfx	r2, r2, #16, #11
  40129c:	2a08      	cmp	r2, #8
  40129e:	d017      	beq.n	4012d0 <UDP_Handler+0xa4>
  4012a0:	6b1a      	ldr	r2, [r3, #48]	; 0x30
  4012a2:	9202      	str	r2, [sp, #8]
  4012a4:	9a02      	ldr	r2, [sp, #8]
  4012a6:	f042 024f 	orr.w	r2, r2, #79	; 0x4f
  4012aa:	9202      	str	r2, [sp, #8]
  4012ac:	9a02      	ldr	r2, [sp, #8]
  4012ae:	f022 0204 	bic.w	r2, r2, #4
  4012b2:	9202      	str	r2, [sp, #8]
  4012b4:	9a02      	ldr	r2, [sp, #8]
  4012b6:	631a      	str	r2, [r3, #48]	; 0x30
  4012b8:	2300      	movs	r3, #0
  4012ba:	9303      	str	r3, [sp, #12]
  4012bc:	9b03      	ldr	r3, [sp, #12]
  4012be:	2b13      	cmp	r3, #19
  4012c0:	d803      	bhi.n	4012ca <UDP_Handler+0x9e>
  4012c2:	bf00      	nop
  4012c4:	9b03      	ldr	r3, [sp, #12]
  4012c6:	3301      	adds	r3, #1
  4012c8:	e7f7      	b.n	4012ba <UDP_Handler+0x8e>
  4012ca:	f7ff fd3d 	bl	400d48 <udd_ctrl_stall_data>
  4012ce:	e3cb      	b.n	401a68 <UDP_Handler+0x83c>
  4012d0:	2300      	movs	r3, #0
  4012d2:	4c61      	ldr	r4, [pc, #388]	; (401458 <UDP_Handler+0x22c>)
  4012d4:	4d63      	ldr	r5, [pc, #396]	; (401464 <UDP_Handler+0x238>)
  4012d6:	6d22      	ldr	r2, [r4, #80]	; 0x50
  4012d8:	555a      	strb	r2, [r3, r5]
  4012da:	3301      	adds	r3, #1
  4012dc:	2b08      	cmp	r3, #8
  4012de:	462f      	mov	r7, r5
  4012e0:	d1f7      	bne.n	4012d2 <UDP_Handler+0xa6>
  4012e2:	f7ff fae1 	bl	4008a8 <udc_process_setup>
  4012e6:	b9a0      	cbnz	r0, 401312 <UDP_Handler+0xe6>
  4012e8:	6b23      	ldr	r3, [r4, #48]	; 0x30
  4012ea:	9304      	str	r3, [sp, #16]
  4012ec:	9b04      	ldr	r3, [sp, #16]
  4012ee:	f043 034f 	orr.w	r3, r3, #79	; 0x4f
  4012f2:	9304      	str	r3, [sp, #16]
  4012f4:	9b04      	ldr	r3, [sp, #16]
  4012f6:	f023 0304 	bic.w	r3, r3, #4
  4012fa:	9304      	str	r3, [sp, #16]
  4012fc:	9b04      	ldr	r3, [sp, #16]
  4012fe:	6323      	str	r3, [r4, #48]	; 0x30
  401300:	9005      	str	r0, [sp, #20]
  401302:	9b05      	ldr	r3, [sp, #20]
  401304:	2b13      	cmp	r3, #19
  401306:	d8e0      	bhi.n	4012ca <UDP_Handler+0x9e>
  401308:	bf00      	nop
  40130a:	9b05      	ldr	r3, [sp, #20]
  40130c:	3301      	adds	r3, #1
  40130e:	9305      	str	r3, [sp, #20]
  401310:	e7f7      	b.n	401302 <UDP_Handler+0xd6>
  401312:	f995 3000 	ldrsb.w	r3, [r5]
  401316:	2b00      	cmp	r3, #0
  401318:	6b23      	ldr	r3, [r4, #48]	; 0x30
  40131a:	da31      	bge.n	401380 <UDP_Handler+0x154>
  40131c:	9306      	str	r3, [sp, #24]
  40131e:	9b06      	ldr	r3, [sp, #24]
  401320:	f043 034f 	orr.w	r3, r3, #79	; 0x4f
  401324:	9306      	str	r3, [sp, #24]
  401326:	9b06      	ldr	r3, [sp, #24]
  401328:	f043 0380 	orr.w	r3, r3, #128	; 0x80
  40132c:	9306      	str	r3, [sp, #24]
  40132e:	9b06      	ldr	r3, [sp, #24]
  401330:	6323      	str	r3, [r4, #48]	; 0x30
  401332:	2300      	movs	r3, #0
  401334:	9307      	str	r3, [sp, #28]
  401336:	9b07      	ldr	r3, [sp, #28]
  401338:	2b13      	cmp	r3, #19
  40133a:	d803      	bhi.n	401344 <UDP_Handler+0x118>
  40133c:	bf00      	nop
  40133e:	9b07      	ldr	r3, [sp, #28]
  401340:	3301      	adds	r3, #1
  401342:	e7f7      	b.n	401334 <UDP_Handler+0x108>
  401344:	4b44      	ldr	r3, [pc, #272]	; (401458 <UDP_Handler+0x22c>)
  401346:	6b1a      	ldr	r2, [r3, #48]	; 0x30
  401348:	9208      	str	r2, [sp, #32]
  40134a:	9a08      	ldr	r2, [sp, #32]
  40134c:	f042 024f 	orr.w	r2, r2, #79	; 0x4f
  401350:	9208      	str	r2, [sp, #32]
  401352:	9a08      	ldr	r2, [sp, #32]
  401354:	f022 0204 	bic.w	r2, r2, #4
  401358:	9208      	str	r2, [sp, #32]
  40135a:	9a08      	ldr	r2, [sp, #32]
  40135c:	631a      	str	r2, [r3, #48]	; 0x30
  40135e:	2300      	movs	r3, #0
  401360:	9309      	str	r3, [sp, #36]	; 0x24
  401362:	9b09      	ldr	r3, [sp, #36]	; 0x24
  401364:	2b13      	cmp	r3, #19
  401366:	d803      	bhi.n	401370 <UDP_Handler+0x144>
  401368:	bf00      	nop
  40136a:	9b09      	ldr	r3, [sp, #36]	; 0x24
  40136c:	3301      	adds	r3, #1
  40136e:	e7f7      	b.n	401360 <UDP_Handler+0x134>
  401370:	4a3d      	ldr	r2, [pc, #244]	; (401468 <UDP_Handler+0x23c>)
  401372:	2300      	movs	r3, #0
  401374:	8013      	strh	r3, [r2, #0]
  401376:	4a3d      	ldr	r2, [pc, #244]	; (40146c <UDP_Handler+0x240>)
  401378:	8013      	strh	r3, [r2, #0]
  40137a:	2302      	movs	r3, #2
  40137c:	7033      	strb	r3, [r6, #0]
  40137e:	e023      	b.n	4013c8 <UDP_Handler+0x19c>
  401380:	930a      	str	r3, [sp, #40]	; 0x28
  401382:	9b0a      	ldr	r3, [sp, #40]	; 0x28
  401384:	f043 034f 	orr.w	r3, r3, #79	; 0x4f
  401388:	930a      	str	r3, [sp, #40]	; 0x28
  40138a:	9b0a      	ldr	r3, [sp, #40]	; 0x28
  40138c:	f023 0304 	bic.w	r3, r3, #4
  401390:	930a      	str	r3, [sp, #40]	; 0x28
  401392:	9b0a      	ldr	r3, [sp, #40]	; 0x28
  401394:	6323      	str	r3, [r4, #48]	; 0x30
  401396:	2300      	movs	r3, #0
  401398:	930b      	str	r3, [sp, #44]	; 0x2c
  40139a:	9b0b      	ldr	r3, [sp, #44]	; 0x2c
  40139c:	2b13      	cmp	r3, #19
  40139e:	d803      	bhi.n	4013a8 <UDP_Handler+0x17c>
  4013a0:	bf00      	nop
  4013a2:	9b0b      	ldr	r3, [sp, #44]	; 0x2c
  4013a4:	3301      	adds	r3, #1
  4013a6:	e7f7      	b.n	401398 <UDP_Handler+0x16c>
  4013a8:	88fb      	ldrh	r3, [r7, #6]
  4013aa:	b913      	cbnz	r3, 4013b2 <UDP_Handler+0x186>
  4013ac:	f7ff fcec 	bl	400d88 <udd_ctrl_send_zlp_in>
  4013b0:	e35a      	b.n	401a68 <UDP_Handler+0x83c>
  4013b2:	4a2d      	ldr	r2, [pc, #180]	; (401468 <UDP_Handler+0x23c>)
  4013b4:	2300      	movs	r3, #0
  4013b6:	8013      	strh	r3, [r2, #0]
  4013b8:	4a2c      	ldr	r2, [pc, #176]	; (40146c <UDP_Handler+0x240>)
  4013ba:	8013      	strh	r3, [r2, #0]
  4013bc:	2301      	movs	r3, #1
  4013be:	7033      	strb	r3, [r6, #0]
  4013c0:	e352      	b.n	401a68 <UDP_Handler+0x83c>
  4013c2:	6b1a      	ldr	r2, [r3, #48]	; 0x30
  4013c4:	07d4      	lsls	r4, r2, #31
  4013c6:	d502      	bpl.n	4013ce <UDP_Handler+0x1a2>
  4013c8:	f7ff fe46 	bl	401058 <udd_ctrl_in_sent>
  4013cc:	e34c      	b.n	401a68 <UDP_Handler+0x83c>
  4013ce:	6b1a      	ldr	r2, [r3, #48]	; 0x30
  4013d0:	f012 0202 	ands.w	r2, r2, #2
  4013d4:	f000 80e4 	beq.w	4015a0 <UDP_Handler+0x374>
  4013d8:	4a21      	ldr	r2, [pc, #132]	; (401460 <UDP_Handler+0x234>)
  4013da:	7812      	ldrb	r2, [r2, #0]
  4013dc:	2a01      	cmp	r2, #1
  4013de:	d021      	beq.n	401424 <UDP_Handler+0x1f8>
  4013e0:	2a02      	cmp	r2, #2
  4013e2:	d001      	beq.n	4013e8 <UDP_Handler+0x1bc>
  4013e4:	2a04      	cmp	r2, #4
  4013e6:	d102      	bne.n	4013ee <UDP_Handler+0x1c2>
  4013e8:	f7ff fcee 	bl	400dc8 <udd_ctrl_endofrequest>
  4013ec:	e001      	b.n	4013f2 <UDP_Handler+0x1c6>
  4013ee:	f7ff fcab 	bl	400d48 <udd_ctrl_stall_data>
  4013f2:	4b19      	ldr	r3, [pc, #100]	; (401458 <UDP_Handler+0x22c>)
  4013f4:	6b1a      	ldr	r2, [r3, #48]	; 0x30
  4013f6:	920c      	str	r2, [sp, #48]	; 0x30
  4013f8:	9a0c      	ldr	r2, [sp, #48]	; 0x30
  4013fa:	f042 024f 	orr.w	r2, r2, #79	; 0x4f
  4013fe:	920c      	str	r2, [sp, #48]	; 0x30
  401400:	9a0c      	ldr	r2, [sp, #48]	; 0x30
  401402:	f022 0202 	bic.w	r2, r2, #2
  401406:	920c      	str	r2, [sp, #48]	; 0x30
  401408:	9a0c      	ldr	r2, [sp, #48]	; 0x30
  40140a:	631a      	str	r2, [r3, #48]	; 0x30
  40140c:	2300      	movs	r3, #0
  40140e:	930d      	str	r3, [sp, #52]	; 0x34
  401410:	9b0d      	ldr	r3, [sp, #52]	; 0x34
  401412:	2b13      	cmp	r3, #19
  401414:	d803      	bhi.n	40141e <UDP_Handler+0x1f2>
  401416:	bf00      	nop
  401418:	9b0d      	ldr	r3, [sp, #52]	; 0x34
  40141a:	3301      	adds	r3, #1
  40141c:	e7f7      	b.n	40140e <UDP_Handler+0x1e2>
  40141e:	f7ff fc87 	bl	400d30 <udd_ctrl_init>
  401422:	e321      	b.n	401a68 <UDP_Handler+0x83c>
  401424:	4c11      	ldr	r4, [pc, #68]	; (40146c <UDP_Handler+0x240>)
  401426:	6b19      	ldr	r1, [r3, #48]	; 0x30
  401428:	4a0e      	ldr	r2, [pc, #56]	; (401464 <UDP_Handler+0x238>)
  40142a:	8823      	ldrh	r3, [r4, #0]
  40142c:	8990      	ldrh	r0, [r2, #12]
  40142e:	f3c1 410a 	ubfx	r1, r1, #16, #11
  401432:	185d      	adds	r5, r3, r1
  401434:	42a8      	cmp	r0, r5
  401436:	bfb8      	it	lt
  401438:	ebc3 0100 	rsblt	r1, r3, r0
  40143c:	6890      	ldr	r0, [r2, #8]
  40143e:	4625      	mov	r5, r4
  401440:	18c4      	adds	r4, r0, r3
  401442:	b289      	uxth	r1, r1
  401444:	4620      	mov	r0, r4
  401446:	1b06      	subs	r6, r0, r4
  401448:	b2f6      	uxtb	r6, r6
  40144a:	428e      	cmp	r6, r1
  40144c:	d210      	bcs.n	401470 <UDP_Handler+0x244>
  40144e:	4e02      	ldr	r6, [pc, #8]	; (401458 <UDP_Handler+0x22c>)
  401450:	6d36      	ldr	r6, [r6, #80]	; 0x50
  401452:	f800 6b01 	strb.w	r6, [r0], #1
  401456:	e7f6      	b.n	401446 <UDP_Handler+0x21a>
  401458:	40034000 	.word	0x40034000
  40145c:	20000144 	.word	0x20000144
  401460:	20001400 	.word	0x20001400
  401464:	20001490 	.word	0x20001490
  401468:	200013bc 	.word	0x200013bc
  40146c:	200013fe 	.word	0x200013fe
  401470:	440b      	add	r3, r1
  401472:	b29b      	uxth	r3, r3
  401474:	2940      	cmp	r1, #64	; 0x40
  401476:	4f9e      	ldr	r7, [pc, #632]	; (4016f0 <UDP_Handler+0x4c4>)
  401478:	802b      	strh	r3, [r5, #0]
  40147a:	d106      	bne.n	40148a <UDP_Handler+0x25e>
  40147c:	4d9d      	ldr	r5, [pc, #628]	; (4016f4 <UDP_Handler+0x4c8>)
  40147e:	88d4      	ldrh	r4, [r2, #6]
  401480:	8828      	ldrh	r0, [r5, #0]
  401482:	499d      	ldr	r1, [pc, #628]	; (4016f8 <UDP_Handler+0x4cc>)
  401484:	4418      	add	r0, r3
  401486:	4284      	cmp	r4, r0
  401488:	dc34      	bgt.n	4014f4 <UDP_Handler+0x2c8>
  40148a:	8193      	strh	r3, [r2, #12]
  40148c:	6953      	ldr	r3, [r2, #20]
  40148e:	4c9b      	ldr	r4, [pc, #620]	; (4016fc <UDP_Handler+0x4d0>)
  401490:	b1d3      	cbz	r3, 4014c8 <UDP_Handler+0x29c>
  401492:	4798      	blx	r3
  401494:	4605      	mov	r5, r0
  401496:	b9b8      	cbnz	r0, 4014c8 <UDP_Handler+0x29c>
  401498:	f7ff fc56 	bl	400d48 <udd_ctrl_stall_data>
  40149c:	6b23      	ldr	r3, [r4, #48]	; 0x30
  40149e:	930e      	str	r3, [sp, #56]	; 0x38
  4014a0:	9b0e      	ldr	r3, [sp, #56]	; 0x38
  4014a2:	f043 034f 	orr.w	r3, r3, #79	; 0x4f
  4014a6:	930e      	str	r3, [sp, #56]	; 0x38
  4014a8:	9b0e      	ldr	r3, [sp, #56]	; 0x38
  4014aa:	f023 0302 	bic.w	r3, r3, #2
  4014ae:	930e      	str	r3, [sp, #56]	; 0x38
  4014b0:	9b0e      	ldr	r3, [sp, #56]	; 0x38
  4014b2:	6323      	str	r3, [r4, #48]	; 0x30
  4014b4:	950f      	str	r5, [sp, #60]	; 0x3c
  4014b6:	9b0f      	ldr	r3, [sp, #60]	; 0x3c
  4014b8:	2b13      	cmp	r3, #19
  4014ba:	f200 82d5 	bhi.w	401a68 <UDP_Handler+0x83c>
  4014be:	bf00      	nop
  4014c0:	9b0f      	ldr	r3, [sp, #60]	; 0x3c
  4014c2:	3301      	adds	r3, #1
  4014c4:	930f      	str	r3, [sp, #60]	; 0x3c
  4014c6:	e7f6      	b.n	4014b6 <UDP_Handler+0x28a>
  4014c8:	6b23      	ldr	r3, [r4, #48]	; 0x30
  4014ca:	9310      	str	r3, [sp, #64]	; 0x40
  4014cc:	9b10      	ldr	r3, [sp, #64]	; 0x40
  4014ce:	f043 034f 	orr.w	r3, r3, #79	; 0x4f
  4014d2:	9310      	str	r3, [sp, #64]	; 0x40
  4014d4:	9b10      	ldr	r3, [sp, #64]	; 0x40
  4014d6:	f023 0302 	bic.w	r3, r3, #2
  4014da:	9310      	str	r3, [sp, #64]	; 0x40
  4014dc:	9b10      	ldr	r3, [sp, #64]	; 0x40
  4014de:	6323      	str	r3, [r4, #48]	; 0x30
  4014e0:	2300      	movs	r3, #0
  4014e2:	9311      	str	r3, [sp, #68]	; 0x44
  4014e4:	9b11      	ldr	r3, [sp, #68]	; 0x44
  4014e6:	2b13      	cmp	r3, #19
  4014e8:	f63f af60 	bhi.w	4013ac <UDP_Handler+0x180>
  4014ec:	bf00      	nop
  4014ee:	9b11      	ldr	r3, [sp, #68]	; 0x44
  4014f0:	3301      	adds	r3, #1
  4014f2:	e7f6      	b.n	4014e2 <UDP_Handler+0x2b6>
  4014f4:	898a      	ldrh	r2, [r1, #12]
  4014f6:	429a      	cmp	r2, r3
  4014f8:	d13b      	bne.n	401572 <UDP_Handler+0x346>
  4014fa:	694e      	ldr	r6, [r1, #20]
  4014fc:	4c7f      	ldr	r4, [pc, #508]	; (4016fc <UDP_Handler+0x4d0>)
  4014fe:	b9be      	cbnz	r6, 401530 <UDP_Handler+0x304>
  401500:	f7ff fc22 	bl	400d48 <udd_ctrl_stall_data>
  401504:	6b23      	ldr	r3, [r4, #48]	; 0x30
  401506:	9312      	str	r3, [sp, #72]	; 0x48
  401508:	9b12      	ldr	r3, [sp, #72]	; 0x48
  40150a:	f043 034f 	orr.w	r3, r3, #79	; 0x4f
  40150e:	9312      	str	r3, [sp, #72]	; 0x48
  401510:	9b12      	ldr	r3, [sp, #72]	; 0x48
  401512:	f023 0302 	bic.w	r3, r3, #2
  401516:	9312      	str	r3, [sp, #72]	; 0x48
  401518:	9b12      	ldr	r3, [sp, #72]	; 0x48
  40151a:	6323      	str	r3, [r4, #48]	; 0x30
  40151c:	9613      	str	r6, [sp, #76]	; 0x4c
  40151e:	9b13      	ldr	r3, [sp, #76]	; 0x4c
  401520:	2b13      	cmp	r3, #19
  401522:	f200 82a1 	bhi.w	401a68 <UDP_Handler+0x83c>
  401526:	bf00      	nop
  401528:	9b13      	ldr	r3, [sp, #76]	; 0x4c
  40152a:	3301      	adds	r3, #1
  40152c:	9313      	str	r3, [sp, #76]	; 0x4c
  40152e:	e7f6      	b.n	40151e <UDP_Handler+0x2f2>
  401530:	47b0      	blx	r6
  401532:	4606      	mov	r6, r0
  401534:	b9b8      	cbnz	r0, 401566 <UDP_Handler+0x33a>
  401536:	f7ff fc07 	bl	400d48 <udd_ctrl_stall_data>
  40153a:	6b23      	ldr	r3, [r4, #48]	; 0x30
  40153c:	9314      	str	r3, [sp, #80]	; 0x50
  40153e:	9b14      	ldr	r3, [sp, #80]	; 0x50
  401540:	f043 034f 	orr.w	r3, r3, #79	; 0x4f
  401544:	9314      	str	r3, [sp, #80]	; 0x50
  401546:	9b14      	ldr	r3, [sp, #80]	; 0x50
  401548:	f023 0302 	bic.w	r3, r3, #2
  40154c:	9314      	str	r3, [sp, #80]	; 0x50
  40154e:	9b14      	ldr	r3, [sp, #80]	; 0x50
  401550:	6323      	str	r3, [r4, #48]	; 0x30
  401552:	9615      	str	r6, [sp, #84]	; 0x54
  401554:	9b15      	ldr	r3, [sp, #84]	; 0x54
  401556:	2b13      	cmp	r3, #19
  401558:	f200 8286 	bhi.w	401a68 <UDP_Handler+0x83c>
  40155c:	bf00      	nop
  40155e:	9b15      	ldr	r3, [sp, #84]	; 0x54
  401560:	3301      	adds	r3, #1
  401562:	9315      	str	r3, [sp, #84]	; 0x54
  401564:	e7f6      	b.n	401554 <UDP_Handler+0x328>
  401566:	883a      	ldrh	r2, [r7, #0]
  401568:	882b      	ldrh	r3, [r5, #0]
  40156a:	4413      	add	r3, r2
  40156c:	802b      	strh	r3, [r5, #0]
  40156e:	2300      	movs	r3, #0
  401570:	803b      	strh	r3, [r7, #0]
  401572:	4b62      	ldr	r3, [pc, #392]	; (4016fc <UDP_Handler+0x4d0>)
  401574:	6b1a      	ldr	r2, [r3, #48]	; 0x30
  401576:	9216      	str	r2, [sp, #88]	; 0x58
  401578:	9a16      	ldr	r2, [sp, #88]	; 0x58
  40157a:	f042 024f 	orr.w	r2, r2, #79	; 0x4f
  40157e:	9216      	str	r2, [sp, #88]	; 0x58
  401580:	9a16      	ldr	r2, [sp, #88]	; 0x58
  401582:	f022 0202 	bic.w	r2, r2, #2
  401586:	9216      	str	r2, [sp, #88]	; 0x58
  401588:	9a16      	ldr	r2, [sp, #88]	; 0x58
  40158a:	631a      	str	r2, [r3, #48]	; 0x30
  40158c:	2300      	movs	r3, #0
  40158e:	9317      	str	r3, [sp, #92]	; 0x5c
  401590:	9b17      	ldr	r3, [sp, #92]	; 0x5c
  401592:	2b13      	cmp	r3, #19
  401594:	f200 8268 	bhi.w	401a68 <UDP_Handler+0x83c>
  401598:	bf00      	nop
  40159a:	9b17      	ldr	r3, [sp, #92]	; 0x5c
  40159c:	3301      	adds	r3, #1
  40159e:	e7f6      	b.n	40158e <UDP_Handler+0x362>
  4015a0:	6b19      	ldr	r1, [r3, #48]	; 0x30
  4015a2:	0708      	lsls	r0, r1, #28
  4015a4:	d515      	bpl.n	4015d2 <UDP_Handler+0x3a6>
  4015a6:	6b19      	ldr	r1, [r3, #48]	; 0x30
  4015a8:	9100      	str	r1, [sp, #0]
  4015aa:	9900      	ldr	r1, [sp, #0]
  4015ac:	f041 014f 	orr.w	r1, r1, #79	; 0x4f
  4015b0:	9100      	str	r1, [sp, #0]
  4015b2:	9900      	ldr	r1, [sp, #0]
  4015b4:	f021 0108 	bic.w	r1, r1, #8
  4015b8:	9100      	str	r1, [sp, #0]
  4015ba:	9900      	ldr	r1, [sp, #0]
  4015bc:	6319      	str	r1, [r3, #48]	; 0x30
  4015be:	9201      	str	r2, [sp, #4]
  4015c0:	9b01      	ldr	r3, [sp, #4]
  4015c2:	2b13      	cmp	r3, #19
  4015c4:	f200 8250 	bhi.w	401a68 <UDP_Handler+0x83c>
  4015c8:	bf00      	nop
  4015ca:	9b01      	ldr	r3, [sp, #4]
  4015cc:	3301      	adds	r3, #1
  4015ce:	9301      	str	r3, [sp, #4]
  4015d0:	e7f6      	b.n	4015c0 <UDP_Handler+0x394>
  4015d2:	2301      	movs	r3, #1
  4015d4:	4a49      	ldr	r2, [pc, #292]	; (4016fc <UDP_Handler+0x4d0>)
  4015d6:	f04f 0901 	mov.w	r9, #1
  4015da:	6992      	ldr	r2, [r2, #24]
  4015dc:	fa09 f803 	lsl.w	r8, r9, r3
  4015e0:	ea18 0f02 	tst.w	r8, r2
  4015e4:	b2de      	uxtb	r6, r3
  4015e6:	f000 8190 	beq.w	40190a <UDP_Handler+0x6de>
  4015ea:	009f      	lsls	r7, r3, #2
  4015ec:	f107 2540 	add.w	r5, r7, #1073758208	; 0x40004000
  4015f0:	f505 3540 	add.w	r5, r5, #196608	; 0x30000
  4015f4:	4a42      	ldr	r2, [pc, #264]	; (401700 <UDP_Handler+0x4d4>)
  4015f6:	6b28      	ldr	r0, [r5, #48]	; 0x30
  4015f8:	2414      	movs	r4, #20
  4015fa:	f010 0042 	ands.w	r0, r0, #66	; 0x42
  4015fe:	fb04 2403 	mla	r4, r4, r3, r2
  401602:	d034      	beq.n	40166e <UDP_Handler+0x442>
  401604:	6b2f      	ldr	r7, [r5, #48]	; 0x30
  401606:	f8b4 a010 	ldrh.w	sl, [r4, #16]
  40160a:	68a3      	ldr	r3, [r4, #8]
  40160c:	68e2      	ldr	r2, [r4, #12]
  40160e:	6861      	ldr	r1, [r4, #4]
  401610:	f3c7 470a 	ubfx	r7, r7, #16, #11
  401614:	f3ca 0a09 	ubfx	sl, sl, #0, #10
  401618:	b187      	cbz	r7, 40163c <UDP_Handler+0x410>
  40161a:	1a9b      	subs	r3, r3, r2
  40161c:	429f      	cmp	r7, r3
  40161e:	bf38      	it	cc
  401620:	463b      	movcc	r3, r7
  401622:	4411      	add	r1, r2
  401624:	441a      	add	r2, r3
  401626:	60e2      	str	r2, [r4, #12]
  401628:	bf38      	it	cc
  40162a:	f04f 0900 	movcc.w	r9, #0
  40162e:	2200      	movs	r2, #0
  401630:	429a      	cmp	r2, r3
  401632:	d004      	beq.n	40163e <UDP_Handler+0x412>
  401634:	6d28      	ldr	r0, [r5, #80]	; 0x50
  401636:	5488      	strb	r0, [r1, r2]
  401638:	3201      	adds	r2, #1
  40163a:	e7f9      	b.n	401630 <UDP_Handler+0x404>
  40163c:	46b9      	mov	r9, r7
  40163e:	4630      	mov	r0, r6
  401640:	f7ff fbca 	bl	400dd8 <udd_ep_ack_out_received>
  401644:	f1b9 0f00 	cmp.w	r9, #0
  401648:	d102      	bne.n	401650 <UDP_Handler+0x424>
  40164a:	4557      	cmp	r7, sl
  40164c:	f080 820c 	bcs.w	401a68 <UDP_Handler+0x83c>
  401650:	6b29      	ldr	r1, [r5, #48]	; 0x30
  401652:	f011 0120 	ands.w	r1, r1, #32
  401656:	f040 8207 	bne.w	401a68 <UDP_Handler+0x83c>
  40165a:	4b28      	ldr	r3, [pc, #160]	; (4016fc <UDP_Handler+0x4d0>)
  40165c:	f8c3 8014 	str.w	r8, [r3, #20]
  401660:	68e3      	ldr	r3, [r4, #12]
  401662:	60a3      	str	r3, [r4, #8]
  401664:	4620      	mov	r0, r4
  401666:	4632      	mov	r2, r6
  401668:	f7ff fdc4 	bl	4011f4 <udd_ep_finish_job>
  40166c:	e1fc      	b.n	401a68 <UDP_Handler+0x83c>
  40166e:	6b2a      	ldr	r2, [r5, #48]	; 0x30
  401670:	f012 0201 	ands.w	r2, r2, #1
  401674:	f000 8128 	beq.w	4018c8 <UDP_Handler+0x69c>
  401678:	7c63      	ldrb	r3, [r4, #17]
  40167a:	f3c3 0281 	ubfx	r2, r3, #2, #2
  40167e:	3203      	adds	r2, #3
  401680:	f002 0203 	and.w	r2, r2, #3
  401684:	f362 0383 	bfi	r3, r2, #2, #2
  401688:	7463      	strb	r3, [r4, #17]
  40168a:	b2db      	uxtb	r3, r3
  40168c:	f3c3 1140 	ubfx	r1, r3, #5, #1
  401690:	2900      	cmp	r1, #0
  401692:	d065      	beq.n	401760 <UDP_Handler+0x534>
  401694:	6b2b      	ldr	r3, [r5, #48]	; 0x30
  401696:	2a00      	cmp	r2, #0
  401698:	d034      	beq.n	401704 <UDP_Handler+0x4d8>
  40169a:	9318      	str	r3, [sp, #96]	; 0x60
  40169c:	9b18      	ldr	r3, [sp, #96]	; 0x60
  40169e:	f043 034f 	orr.w	r3, r3, #79	; 0x4f
  4016a2:	9318      	str	r3, [sp, #96]	; 0x60
  4016a4:	9b18      	ldr	r3, [sp, #96]	; 0x60
  4016a6:	f043 0310 	orr.w	r3, r3, #16
  4016aa:	9318      	str	r3, [sp, #96]	; 0x60
  4016ac:	9b18      	ldr	r3, [sp, #96]	; 0x60
  4016ae:	632b      	str	r3, [r5, #48]	; 0x30
  4016b0:	9019      	str	r0, [sp, #100]	; 0x64
  4016b2:	9b19      	ldr	r3, [sp, #100]	; 0x64
  4016b4:	2b13      	cmp	r3, #19
  4016b6:	d804      	bhi.n	4016c2 <UDP_Handler+0x496>
  4016b8:	bf00      	nop
  4016ba:	9b19      	ldr	r3, [sp, #100]	; 0x64
  4016bc:	3301      	adds	r3, #1
  4016be:	9319      	str	r3, [sp, #100]	; 0x64
  4016c0:	e7f7      	b.n	4016b2 <UDP_Handler+0x486>
  4016c2:	6b2b      	ldr	r3, [r5, #48]	; 0x30
  4016c4:	931a      	str	r3, [sp, #104]	; 0x68
  4016c6:	9b1a      	ldr	r3, [sp, #104]	; 0x68
  4016c8:	f043 034f 	orr.w	r3, r3, #79	; 0x4f
  4016cc:	931a      	str	r3, [sp, #104]	; 0x68
  4016ce:	9b1a      	ldr	r3, [sp, #104]	; 0x68
  4016d0:	f023 0301 	bic.w	r3, r3, #1
  4016d4:	931a      	str	r3, [sp, #104]	; 0x68
  4016d6:	9b1a      	ldr	r3, [sp, #104]	; 0x68
  4016d8:	632b      	str	r3, [r5, #48]	; 0x30
  4016da:	2300      	movs	r3, #0
  4016dc:	931b      	str	r3, [sp, #108]	; 0x6c
  4016de:	9b1b      	ldr	r3, [sp, #108]	; 0x6c
  4016e0:	2b13      	cmp	r3, #19
  4016e2:	f200 81c1 	bhi.w	401a68 <UDP_Handler+0x83c>
  4016e6:	bf00      	nop
  4016e8:	9b1b      	ldr	r3, [sp, #108]	; 0x6c
  4016ea:	3301      	adds	r3, #1
  4016ec:	e7f6      	b.n	4016dc <UDP_Handler+0x4b0>
  4016ee:	bf00      	nop
  4016f0:	200013fe 	.word	0x200013fe
  4016f4:	200013bc 	.word	0x200013bc
  4016f8:	20001490 	.word	0x20001490
  4016fc:	40034000 	.word	0x40034000
  401700:	200013ac 	.word	0x200013ac
  401704:	931c      	str	r3, [sp, #112]	; 0x70
  401706:	9b1c      	ldr	r3, [sp, #112]	; 0x70
  401708:	f043 034f 	orr.w	r3, r3, #79	; 0x4f
  40170c:	931c      	str	r3, [sp, #112]	; 0x70
  40170e:	9b1c      	ldr	r3, [sp, #112]	; 0x70
  401710:	f023 0301 	bic.w	r3, r3, #1
  401714:	931c      	str	r3, [sp, #112]	; 0x70
  401716:	9b1c      	ldr	r3, [sp, #112]	; 0x70
  401718:	632b      	str	r3, [r5, #48]	; 0x30
  40171a:	921d      	str	r2, [sp, #116]	; 0x74
  40171c:	9b1d      	ldr	r3, [sp, #116]	; 0x74
  40171e:	2b13      	cmp	r3, #19
  401720:	d804      	bhi.n	40172c <UDP_Handler+0x500>
  401722:	bf00      	nop
  401724:	9b1d      	ldr	r3, [sp, #116]	; 0x74
  401726:	3301      	adds	r3, #1
  401728:	931d      	str	r3, [sp, #116]	; 0x74
  40172a:	e7f7      	b.n	40171c <UDP_Handler+0x4f0>
  40172c:	6b2b      	ldr	r3, [r5, #48]	; 0x30
  40172e:	931e      	str	r3, [sp, #120]	; 0x78
  401730:	9b1e      	ldr	r3, [sp, #120]	; 0x78
  401732:	f043 034f 	orr.w	r3, r3, #79	; 0x4f
  401736:	931e      	str	r3, [sp, #120]	; 0x78
  401738:	9b1e      	ldr	r3, [sp, #120]	; 0x78
  40173a:	f043 0320 	orr.w	r3, r3, #32
  40173e:	931e      	str	r3, [sp, #120]	; 0x78
  401740:	9b1e      	ldr	r3, [sp, #120]	; 0x78
  401742:	632b      	str	r3, [r5, #48]	; 0x30
  401744:	2300      	movs	r3, #0
  401746:	931f      	str	r3, [sp, #124]	; 0x7c
  401748:	9b1f      	ldr	r3, [sp, #124]	; 0x7c
  40174a:	2b13      	cmp	r3, #19
  40174c:	d803      	bhi.n	401756 <UDP_Handler+0x52a>
  40174e:	bf00      	nop
  401750:	9b1f      	ldr	r3, [sp, #124]	; 0x7c
  401752:	3301      	adds	r3, #1
  401754:	e7f7      	b.n	401746 <UDP_Handler+0x51a>
  401756:	7c63      	ldrb	r3, [r4, #17]
  401758:	f36f 1345 	bfc	r3, #5, #1
  40175c:	7463      	strb	r3, [r4, #17]
  40175e:	e183      	b.n	401a68 <UDP_Handler+0x83c>
  401760:	09da      	lsrs	r2, r3, #7
  401762:	d008      	beq.n	401776 <UDP_Handler+0x54a>
  401764:	f361 13c7 	bfi	r3, r1, #7, #1
  401768:	7463      	strb	r3, [r4, #17]
  40176a:	68e3      	ldr	r3, [r4, #12]
  40176c:	60a3      	str	r3, [r4, #8]
  40176e:	4620      	mov	r0, r4
  401770:	4632      	mov	r2, r6
  401772:	f7ff fd3f 	bl	4011f4 <udd_ep_finish_job>
  401776:	68e2      	ldr	r2, [r4, #12]
  401778:	68a3      	ldr	r3, [r4, #8]
  40177a:	429a      	cmp	r2, r3
  40177c:	d324      	bcc.n	4017c8 <UDP_Handler+0x59c>
  40177e:	7c63      	ldrb	r3, [r4, #17]
  401780:	f013 054c 	ands.w	r5, r3, #76	; 0x4c
  401784:	d120      	bne.n	4017c8 <UDP_Handler+0x59c>
  401786:	f7ff fac5 	bl	400d14 <cpu_irq_save>
  40178a:	f107 2740 	add.w	r7, r7, #1073758208	; 0x40004000
  40178e:	4ba2      	ldr	r3, [pc, #648]	; (401a18 <UDP_Handler+0x7ec>)
  401790:	f507 3740 	add.w	r7, r7, #196608	; 0x30000
  401794:	f8c3 8014 	str.w	r8, [r3, #20]
  401798:	f7ff fc1e 	bl	400fd8 <cpu_irq_restore>
  40179c:	6b3b      	ldr	r3, [r7, #48]	; 0x30
  40179e:	9320      	str	r3, [sp, #128]	; 0x80
  4017a0:	9b20      	ldr	r3, [sp, #128]	; 0x80
  4017a2:	f043 034f 	orr.w	r3, r3, #79	; 0x4f
  4017a6:	9320      	str	r3, [sp, #128]	; 0x80
  4017a8:	9b20      	ldr	r3, [sp, #128]	; 0x80
  4017aa:	f023 0301 	bic.w	r3, r3, #1
  4017ae:	9320      	str	r3, [sp, #128]	; 0x80
  4017b0:	9b20      	ldr	r3, [sp, #128]	; 0x80
  4017b2:	633b      	str	r3, [r7, #48]	; 0x30
  4017b4:	9521      	str	r5, [sp, #132]	; 0x84
  4017b6:	9b21      	ldr	r3, [sp, #132]	; 0x84
  4017b8:	2b13      	cmp	r3, #19
  4017ba:	f200 8155 	bhi.w	401a68 <UDP_Handler+0x83c>
  4017be:	bf00      	nop
  4017c0:	9b21      	ldr	r3, [sp, #132]	; 0x84
  4017c2:	3301      	adds	r3, #1
  4017c4:	9321      	str	r3, [sp, #132]	; 0x84
  4017c6:	e7f6      	b.n	4017b6 <UDP_Handler+0x58a>
  4017c8:	2e03      	cmp	r6, #3
  4017ca:	d05f      	beq.n	40188c <UDP_Handler+0x660>
  4017cc:	7c63      	ldrb	r3, [r4, #17]
  4017ce:	f013 0f0c 	tst.w	r3, #12
  4017d2:	d02d      	beq.n	401830 <UDP_Handler+0x604>
  4017d4:	f107 2340 	add.w	r3, r7, #1073758208	; 0x40004000
  4017d8:	f503 3340 	add.w	r3, r3, #196608	; 0x30000
  4017dc:	6b1a      	ldr	r2, [r3, #48]	; 0x30
  4017de:	9222      	str	r2, [sp, #136]	; 0x88
  4017e0:	9a22      	ldr	r2, [sp, #136]	; 0x88
  4017e2:	f042 024f 	orr.w	r2, r2, #79	; 0x4f
  4017e6:	9222      	str	r2, [sp, #136]	; 0x88
  4017e8:	9a22      	ldr	r2, [sp, #136]	; 0x88
  4017ea:	f042 0210 	orr.w	r2, r2, #16
  4017ee:	9222      	str	r2, [sp, #136]	; 0x88
  4017f0:	9a22      	ldr	r2, [sp, #136]	; 0x88
  4017f2:	631a      	str	r2, [r3, #48]	; 0x30
  4017f4:	2200      	movs	r2, #0
  4017f6:	9223      	str	r2, [sp, #140]	; 0x8c
  4017f8:	9a23      	ldr	r2, [sp, #140]	; 0x8c
  4017fa:	2a13      	cmp	r2, #19
  4017fc:	d803      	bhi.n	401806 <UDP_Handler+0x5da>
  4017fe:	bf00      	nop
  401800:	9a23      	ldr	r2, [sp, #140]	; 0x8c
  401802:	3201      	adds	r2, #1
  401804:	e7f7      	b.n	4017f6 <UDP_Handler+0x5ca>
  401806:	6b1a      	ldr	r2, [r3, #48]	; 0x30
  401808:	9224      	str	r2, [sp, #144]	; 0x90
  40180a:	9a24      	ldr	r2, [sp, #144]	; 0x90
  40180c:	f042 024f 	orr.w	r2, r2, #79	; 0x4f
  401810:	9224      	str	r2, [sp, #144]	; 0x90
  401812:	9a24      	ldr	r2, [sp, #144]	; 0x90
  401814:	f022 0201 	bic.w	r2, r2, #1
  401818:	9224      	str	r2, [sp, #144]	; 0x90
  40181a:	9a24      	ldr	r2, [sp, #144]	; 0x90
  40181c:	631a      	str	r2, [r3, #48]	; 0x30
  40181e:	2300      	movs	r3, #0
  401820:	9325      	str	r3, [sp, #148]	; 0x94
  401822:	9b25      	ldr	r3, [sp, #148]	; 0x94
  401824:	2b13      	cmp	r3, #19
  401826:	d82c      	bhi.n	401882 <UDP_Handler+0x656>
  401828:	bf00      	nop
  40182a:	9b25      	ldr	r3, [sp, #148]	; 0x94
  40182c:	3301      	adds	r3, #1
  40182e:	e7f7      	b.n	401820 <UDP_Handler+0x5f4>
  401830:	2101      	movs	r1, #1
  401832:	4630      	mov	r0, r6
  401834:	f7ff fb2a 	bl	400e8c <udd_ep_in_sent>
  401838:	4601      	mov	r1, r0
  40183a:	b948      	cbnz	r0, 401850 <UDP_Handler+0x624>
  40183c:	7c63      	ldrb	r3, [r4, #17]
  40183e:	f360 13c7 	bfi	r3, r0, #7, #1
  401842:	7463      	strb	r3, [r4, #17]
  401844:	68e3      	ldr	r3, [r4, #12]
  401846:	60a3      	str	r3, [r4, #8]
  401848:	4620      	mov	r0, r4
  40184a:	4632      	mov	r2, r6
  40184c:	f7ff fcd2 	bl	4011f4 <udd_ep_finish_job>
  401850:	f107 2740 	add.w	r7, r7, #1073758208	; 0x40004000
  401854:	f507 3740 	add.w	r7, r7, #196608	; 0x30000
  401858:	6b3b      	ldr	r3, [r7, #48]	; 0x30
  40185a:	9326      	str	r3, [sp, #152]	; 0x98
  40185c:	9b26      	ldr	r3, [sp, #152]	; 0x98
  40185e:	f043 034f 	orr.w	r3, r3, #79	; 0x4f
  401862:	9326      	str	r3, [sp, #152]	; 0x98
  401864:	9b26      	ldr	r3, [sp, #152]	; 0x98
  401866:	f023 0301 	bic.w	r3, r3, #1
  40186a:	9326      	str	r3, [sp, #152]	; 0x98
  40186c:	9b26      	ldr	r3, [sp, #152]	; 0x98
  40186e:	633b      	str	r3, [r7, #48]	; 0x30
  401870:	2300      	movs	r3, #0
  401872:	9327      	str	r3, [sp, #156]	; 0x9c
  401874:	9b27      	ldr	r3, [sp, #156]	; 0x9c
  401876:	2b13      	cmp	r3, #19
  401878:	d803      	bhi.n	401882 <UDP_Handler+0x656>
  40187a:	bf00      	nop
  40187c:	9b27      	ldr	r3, [sp, #156]	; 0x9c
  40187e:	3301      	adds	r3, #1
  401880:	e7f7      	b.n	401872 <UDP_Handler+0x646>
  401882:	4630      	mov	r0, r6
  401884:	2100      	movs	r1, #0
  401886:	f7ff fb01 	bl	400e8c <udd_ep_in_sent>
  40188a:	e0ed      	b.n	401a68 <UDP_Handler+0x83c>
  40188c:	f107 2740 	add.w	r7, r7, #1073758208	; 0x40004000
  401890:	f507 3740 	add.w	r7, r7, #196608	; 0x30000
  401894:	4630      	mov	r0, r6
  401896:	2101      	movs	r1, #1
  401898:	f7ff faf8 	bl	400e8c <udd_ep_in_sent>
  40189c:	6b3b      	ldr	r3, [r7, #48]	; 0x30
  40189e:	9328      	str	r3, [sp, #160]	; 0xa0
  4018a0:	9b28      	ldr	r3, [sp, #160]	; 0xa0
  4018a2:	f043 034f 	orr.w	r3, r3, #79	; 0x4f
  4018a6:	9328      	str	r3, [sp, #160]	; 0xa0
  4018a8:	9b28      	ldr	r3, [sp, #160]	; 0xa0
  4018aa:	f023 0301 	bic.w	r3, r3, #1
  4018ae:	9328      	str	r3, [sp, #160]	; 0xa0
  4018b0:	9b28      	ldr	r3, [sp, #160]	; 0xa0
  4018b2:	633b      	str	r3, [r7, #48]	; 0x30
  4018b4:	2300      	movs	r3, #0
  4018b6:	9329      	str	r3, [sp, #164]	; 0xa4
  4018b8:	9b29      	ldr	r3, [sp, #164]	; 0xa4
  4018ba:	2b13      	cmp	r3, #19
  4018bc:	f200 80d4 	bhi.w	401a68 <UDP_Handler+0x83c>
  4018c0:	bf00      	nop
  4018c2:	9b29      	ldr	r3, [sp, #164]	; 0xa4
  4018c4:	3301      	adds	r3, #1
  4018c6:	e7f6      	b.n	4018b6 <UDP_Handler+0x68a>
  4018c8:	6b29      	ldr	r1, [r5, #48]	; 0x30
  4018ca:	0709      	lsls	r1, r1, #28
  4018cc:	d51d      	bpl.n	40190a <UDP_Handler+0x6de>
  4018ce:	6b2b      	ldr	r3, [r5, #48]	; 0x30
  4018d0:	932a      	str	r3, [sp, #168]	; 0xa8
  4018d2:	9b2a      	ldr	r3, [sp, #168]	; 0xa8
  4018d4:	f043 034f 	orr.w	r3, r3, #79	; 0x4f
  4018d8:	932a      	str	r3, [sp, #168]	; 0xa8
  4018da:	9b2a      	ldr	r3, [sp, #168]	; 0xa8
  4018dc:	f023 0308 	bic.w	r3, r3, #8
  4018e0:	932a      	str	r3, [sp, #168]	; 0xa8
  4018e2:	9b2a      	ldr	r3, [sp, #168]	; 0xa8
  4018e4:	632b      	str	r3, [r5, #48]	; 0x30
  4018e6:	922b      	str	r2, [sp, #172]	; 0xac
  4018e8:	9b2b      	ldr	r3, [sp, #172]	; 0xac
  4018ea:	2b13      	cmp	r3, #19
  4018ec:	d804      	bhi.n	4018f8 <UDP_Handler+0x6cc>
  4018ee:	bf00      	nop
  4018f0:	9b2b      	ldr	r3, [sp, #172]	; 0xac
  4018f2:	3301      	adds	r3, #1
  4018f4:	932b      	str	r3, [sp, #172]	; 0xac
  4018f6:	e7f7      	b.n	4018e8 <UDP_Handler+0x6bc>
  4018f8:	6b2b      	ldr	r3, [r5, #48]	; 0x30
  4018fa:	f403 63e0 	and.w	r3, r3, #1792	; 0x700
  4018fe:	f5b3 7f80 	cmp.w	r3, #256	; 0x100
  401902:	f000 80b1 	beq.w	401a68 <UDP_Handler+0x83c>
  401906:	6b2b      	ldr	r3, [r5, #48]	; 0x30
  401908:	e0ae      	b.n	401a68 <UDP_Handler+0x83c>
  40190a:	3301      	adds	r3, #1
  40190c:	2b04      	cmp	r3, #4
  40190e:	f47f ae61 	bne.w	4015d4 <UDP_Handler+0x3a8>
  401912:	4b41      	ldr	r3, [pc, #260]	; (401a18 <UDP_Handler+0x7ec>)
  401914:	699a      	ldr	r2, [r3, #24]
  401916:	0492      	lsls	r2, r2, #18
  401918:	d502      	bpl.n	401920 <UDP_Handler+0x6f4>
  40191a:	69da      	ldr	r2, [r3, #28]
  40191c:	0492      	lsls	r2, r2, #18
  40191e:	d40d      	bmi.n	40193c <UDP_Handler+0x710>
  401920:	699b      	ldr	r3, [r3, #24]
  401922:	059b      	lsls	r3, r3, #22
  401924:	d503      	bpl.n	40192e <UDP_Handler+0x702>
  401926:	4b3c      	ldr	r3, [pc, #240]	; (401a18 <UDP_Handler+0x7ec>)
  401928:	69db      	ldr	r3, [r3, #28]
  40192a:	059f      	lsls	r7, r3, #22
  40192c:	d406      	bmi.n	40193c <UDP_Handler+0x710>
  40192e:	4a3a      	ldr	r2, [pc, #232]	; (401a18 <UDP_Handler+0x7ec>)
  401930:	6993      	ldr	r3, [r2, #24]
  401932:	055e      	lsls	r6, r3, #21
  401934:	d510      	bpl.n	401958 <UDP_Handler+0x72c>
  401936:	69d3      	ldr	r3, [r2, #28]
  401938:	055d      	lsls	r5, r3, #21
  40193a:	d50d      	bpl.n	401958 <UDP_Handler+0x72c>
  40193c:	4c36      	ldr	r4, [pc, #216]	; (401a18 <UDP_Handler+0x7ec>)
  40193e:	f44f 5318 	mov.w	r3, #9728	; 0x2600
  401942:	6223      	str	r3, [r4, #32]
  401944:	2001      	movs	r0, #1
  401946:	6163      	str	r3, [r4, #20]
  401948:	f7ff fb74 	bl	401034 <udd_sleep_mode>
  40194c:	f001 fa10 	bl	402d70 <main_resume_action>
  401950:	f44f 7380 	mov.w	r3, #256	; 0x100
  401954:	6223      	str	r3, [r4, #32]
  401956:	e083      	b.n	401a60 <UDP_Handler+0x834>
  401958:	6992      	ldr	r2, [r2, #24]
  40195a:	4b2f      	ldr	r3, [pc, #188]	; (401a18 <UDP_Handler+0x7ec>)
  40195c:	05d4      	lsls	r4, r2, #23
  40195e:	d518      	bpl.n	401992 <UDP_Handler+0x766>
  401960:	69da      	ldr	r2, [r3, #28]
  401962:	05d0      	lsls	r0, r2, #23
  401964:	d515      	bpl.n	401992 <UDP_Handler+0x766>
  401966:	f44f 7280 	mov.w	r2, #256	; 0x100
  40196a:	621a      	str	r2, [r3, #32]
  40196c:	615a      	str	r2, [r3, #20]
  40196e:	f44f 5200 	mov.w	r2, #8192	; 0x2000
  401972:	611a      	str	r2, [r3, #16]
  401974:	f44f 7200 	mov.w	r2, #512	; 0x200
  401978:	611a      	str	r2, [r3, #16]
  40197a:	f44f 6280 	mov.w	r2, #1024	; 0x400
  40197e:	611a      	str	r2, [r3, #16]
  401980:	2022      	movs	r0, #34	; 0x22
  401982:	f001 f88d 	bl	402aa0 <pmc_disable_periph_clk>
  401986:	2000      	movs	r0, #0
  401988:	f7ff fb54 	bl	401034 <udd_sleep_mode>
  40198c:	f001 f9ee 	bl	402d6c <main_suspend_action>
  401990:	e06a      	b.n	401a68 <UDP_Handler+0x83c>
  401992:	4b21      	ldr	r3, [pc, #132]	; (401a18 <UDP_Handler+0x7ec>)
  401994:	69da      	ldr	r2, [r3, #28]
  401996:	04d1      	lsls	r1, r2, #19
  401998:	d566      	bpl.n	401a68 <UDP_Handler+0x83c>
  40199a:	f44f 5280 	mov.w	r2, #4096	; 0x1000
  40199e:	621a      	str	r2, [r3, #32]
  4019a0:	2300      	movs	r3, #0
  4019a2:	4a1e      	ldr	r2, [pc, #120]	; (401a1c <UDP_Handler+0x7f0>)
  4019a4:	1c5c      	adds	r4, r3, #1
  4019a6:	2014      	movs	r0, #20
  4019a8:	fb00 2003 	mla	r0, r0, r3, r2
  4019ac:	2101      	movs	r1, #1
  4019ae:	b2e2      	uxtb	r2, r4
  4019b0:	f7ff fc20 	bl	4011f4 <udd_ep_finish_job>
  4019b4:	2c03      	cmp	r4, #3
  4019b6:	4623      	mov	r3, r4
  4019b8:	d1f3      	bne.n	4019a2 <UDP_Handler+0x776>
  4019ba:	f7fe ff3d 	bl	400838 <udc_reset>
  4019be:	4b16      	ldr	r3, [pc, #88]	; (401a18 <UDP_Handler+0x7ec>)
  4019c0:	685a      	ldr	r2, [r3, #4]
  4019c2:	f022 0201 	bic.w	r2, r2, #1
  4019c6:	605a      	str	r2, [r3, #4]
  4019c8:	685a      	ldr	r2, [r3, #4]
  4019ca:	f022 0202 	bic.w	r2, r2, #2
  4019ce:	605a      	str	r2, [r3, #4]
  4019d0:	689a      	ldr	r2, [r3, #8]
  4019d2:	f442 7280 	orr.w	r2, r2, #256	; 0x100
  4019d6:	609a      	str	r2, [r3, #8]
  4019d8:	689a      	ldr	r2, [r3, #8]
  4019da:	f022 027f 	bic.w	r2, r2, #127	; 0x7f
  4019de:	609a      	str	r2, [r3, #8]
  4019e0:	6b1a      	ldr	r2, [r3, #48]	; 0x30
  4019e2:	922c      	str	r2, [sp, #176]	; 0xb0
  4019e4:	9a2c      	ldr	r2, [sp, #176]	; 0xb0
  4019e6:	f042 024f 	orr.w	r2, r2, #79	; 0x4f
  4019ea:	922c      	str	r2, [sp, #176]	; 0xb0
  4019ec:	9a2c      	ldr	r2, [sp, #176]	; 0xb0
  4019ee:	f422 4207 	bic.w	r2, r2, #34560	; 0x8700
  4019f2:	f022 0280 	bic.w	r2, r2, #128	; 0x80
  4019f6:	922c      	str	r2, [sp, #176]	; 0xb0
  4019f8:	9a2c      	ldr	r2, [sp, #176]	; 0xb0
  4019fa:	f442 4200 	orr.w	r2, r2, #32768	; 0x8000
  4019fe:	922c      	str	r2, [sp, #176]	; 0xb0
  401a00:	9a2c      	ldr	r2, [sp, #176]	; 0xb0
  401a02:	631a      	str	r2, [r3, #48]	; 0x30
  401a04:	2200      	movs	r2, #0
  401a06:	922d      	str	r2, [sp, #180]	; 0xb4
  401a08:	9a2d      	ldr	r2, [sp, #180]	; 0xb4
  401a0a:	2a13      	cmp	r2, #19
  401a0c:	d808      	bhi.n	401a20 <UDP_Handler+0x7f4>
  401a0e:	bf00      	nop
  401a10:	9a2d      	ldr	r2, [sp, #180]	; 0xb4
  401a12:	3201      	adds	r2, #1
  401a14:	e7f7      	b.n	401a06 <UDP_Handler+0x7da>
  401a16:	bf00      	nop
  401a18:	40034000 	.word	0x40034000
  401a1c:	200013c0 	.word	0x200013c0
  401a20:	6b1a      	ldr	r2, [r3, #48]	; 0x30
  401a22:	922e      	str	r2, [sp, #184]	; 0xb8
  401a24:	9a2e      	ldr	r2, [sp, #184]	; 0xb8
  401a26:	f042 024f 	orr.w	r2, r2, #79	; 0x4f
  401a2a:	922e      	str	r2, [sp, #184]	; 0xb8
  401a2c:	9a2e      	ldr	r2, [sp, #184]	; 0xb8
  401a2e:	f442 4200 	orr.w	r2, r2, #32768	; 0x8000
  401a32:	922e      	str	r2, [sp, #184]	; 0xb8
  401a34:	9a2e      	ldr	r2, [sp, #184]	; 0xb8
  401a36:	631a      	str	r2, [r3, #48]	; 0x30
  401a38:	2300      	movs	r3, #0
  401a3a:	932f      	str	r3, [sp, #188]	; 0xbc
  401a3c:	9b2f      	ldr	r3, [sp, #188]	; 0xbc
  401a3e:	2b13      	cmp	r3, #19
  401a40:	d803      	bhi.n	401a4a <UDP_Handler+0x81e>
  401a42:	bf00      	nop
  401a44:	9b2f      	ldr	r3, [sp, #188]	; 0xbc
  401a46:	3301      	adds	r3, #1
  401a48:	e7f7      	b.n	401a3a <UDP_Handler+0x80e>
  401a4a:	4c09      	ldr	r4, [pc, #36]	; (401a70 <UDP_Handler+0x844>)
  401a4c:	f7ff f962 	bl	400d14 <cpu_irq_save>
  401a50:	2301      	movs	r3, #1
  401a52:	6123      	str	r3, [r4, #16]
  401a54:	f7ff fac0 	bl	400fd8 <cpu_irq_restore>
  401a58:	f7ff f96a 	bl	400d30 <udd_ctrl_init>
  401a5c:	f44f 7380 	mov.w	r3, #256	; 0x100
  401a60:	6123      	str	r3, [r4, #16]
  401a62:	f44f 6300 	mov.w	r3, #2048	; 0x800
  401a66:	6123      	str	r3, [r4, #16]
  401a68:	b030      	add	sp, #192	; 0xc0
  401a6a:	e8bd 87f0 	ldmia.w	sp!, {r4, r5, r6, r7, r8, r9, sl, pc}
  401a6e:	bf00      	nop
  401a70:	40034000 	.word	0x40034000

00401a74 <udd_attach>:
  401a74:	b510      	push	{r4, lr}
  401a76:	f7ff f94d 	bl	400d14 <cpu_irq_save>
  401a7a:	4604      	mov	r4, r0
  401a7c:	2001      	movs	r0, #1
  401a7e:	f7ff fad9 	bl	401034 <udd_sleep_mode>
  401a82:	2022      	movs	r0, #34	; 0x22
  401a84:	f000 ffea 	bl	402a5c <pmc_enable_periph_clk>
  401a88:	4b0e      	ldr	r3, [pc, #56]	; (401ac4 <udd_attach+0x50>)
  401a8a:	6f5a      	ldr	r2, [r3, #116]	; 0x74
  401a8c:	f422 7280 	bic.w	r2, r2, #256	; 0x100
  401a90:	675a      	str	r2, [r3, #116]	; 0x74
  401a92:	6f5a      	ldr	r2, [r3, #116]	; 0x74
  401a94:	f442 7200 	orr.w	r2, r2, #512	; 0x200
  401a98:	675a      	str	r2, [r3, #116]	; 0x74
  401a9a:	f44f 7280 	mov.w	r2, #256	; 0x100
  401a9e:	611a      	str	r2, [r3, #16]
  401aa0:	f44f 5200 	mov.w	r2, #8192	; 0x2000
  401aa4:	611a      	str	r2, [r3, #16]
  401aa6:	f44f 7200 	mov.w	r2, #512	; 0x200
  401aaa:	611a      	str	r2, [r3, #16]
  401aac:	f44f 6280 	mov.w	r2, #1024	; 0x400
  401ab0:	611a      	str	r2, [r3, #16]
  401ab2:	f44f 6200 	mov.w	r2, #2048	; 0x800
  401ab6:	611a      	str	r2, [r3, #16]
  401ab8:	4620      	mov	r0, r4
  401aba:	e8bd 4010 	ldmia.w	sp!, {r4, lr}
  401abe:	f7ff ba8b 	b.w	400fd8 <cpu_irq_restore>
  401ac2:	bf00      	nop
  401ac4:	40034000 	.word	0x40034000

00401ac8 <udd_enable>:
  401ac8:	b510      	push	{r4, lr}
  401aca:	f7ff f923 	bl	400d14 <cpu_irq_save>
  401ace:	4604      	mov	r4, r0
  401ad0:	2022      	movs	r0, #34	; 0x22
  401ad2:	f000 ffc3 	bl	402a5c <pmc_enable_periph_clk>
  401ad6:	f000 fc8d 	bl	4023f4 <sysclk_enable_usb>
  401ada:	4b12      	ldr	r3, [pc, #72]	; (401b24 <udd_enable+0x5c>)
  401adc:	2250      	movs	r2, #80	; 0x50
  401ade:	f883 2322 	strb.w	r2, [r3, #802]	; 0x322
  401ae2:	2204      	movs	r2, #4
  401ae4:	605a      	str	r2, [r3, #4]
  401ae6:	2300      	movs	r3, #0
  401ae8:	4a0f      	ldr	r2, [pc, #60]	; (401b28 <udd_enable+0x60>)
  401aea:	2114      	movs	r1, #20
  401aec:	fb01 2203 	mla	r2, r1, r3, r2
  401af0:	3301      	adds	r3, #1
  401af2:	7c51      	ldrb	r1, [r2, #17]
  401af4:	f001 0183 	and.w	r1, r1, #131	; 0x83
  401af8:	f36f 11c7 	bfc	r1, #7, #1
  401afc:	2b03      	cmp	r3, #3
  401afe:	7451      	strb	r1, [r2, #17]
  401b00:	d1f2      	bne.n	401ae8 <udd_enable+0x20>
  401b02:	f44f 2080 	mov.w	r0, #262144	; 0x40000
  401b06:	f000 fffb 	bl	402b00 <pmc_set_fast_startup_input>
  401b0a:	4a08      	ldr	r2, [pc, #32]	; (401b2c <udd_enable+0x64>)
  401b0c:	2000      	movs	r0, #0
  401b0e:	7010      	strb	r0, [r2, #0]
  401b10:	f7ff fa6c 	bl	400fec <sleepmgr_lock_mode>
  401b14:	f7ff ffae 	bl	401a74 <udd_attach>
  401b18:	4620      	mov	r0, r4
  401b1a:	e8bd 4010 	ldmia.w	sp!, {r4, lr}
  401b1e:	f7ff ba5b 	b.w	400fd8 <cpu_irq_restore>
  401b22:	bf00      	nop
  401b24:	e000e100 	.word	0xe000e100
  401b28:	200013c0 	.word	0x200013c0
  401b2c:	200013fc 	.word	0x200013fc

00401b30 <udd_is_high_speed>:
  401b30:	2000      	movs	r0, #0
  401b32:	4770      	bx	lr

00401b34 <udd_set_address>:
  401b34:	4b0c      	ldr	r3, [pc, #48]	; (401b68 <udd_set_address+0x34>)
  401b36:	685a      	ldr	r2, [r3, #4]
  401b38:	f022 0201 	bic.w	r2, r2, #1
  401b3c:	605a      	str	r2, [r3, #4]
  401b3e:	689a      	ldr	r2, [r3, #8]
  401b40:	f422 7280 	bic.w	r2, r2, #256	; 0x100
  401b44:	609a      	str	r2, [r3, #8]
  401b46:	b170      	cbz	r0, 401b66 <udd_set_address+0x32>
  401b48:	689a      	ldr	r2, [r3, #8]
  401b4a:	f000 007f 	and.w	r0, r0, #127	; 0x7f
  401b4e:	f022 027f 	bic.w	r2, r2, #127	; 0x7f
  401b52:	4310      	orrs	r0, r2
  401b54:	6098      	str	r0, [r3, #8]
  401b56:	689a      	ldr	r2, [r3, #8]
  401b58:	f442 7280 	orr.w	r2, r2, #256	; 0x100
  401b5c:	609a      	str	r2, [r3, #8]
  401b5e:	685a      	ldr	r2, [r3, #4]
  401b60:	f042 0201 	orr.w	r2, r2, #1
  401b64:	605a      	str	r2, [r3, #4]
  401b66:	4770      	bx	lr
  401b68:	40034000 	.word	0x40034000

00401b6c <udd_getaddress>:
  401b6c:	4b04      	ldr	r3, [pc, #16]	; (401b80 <udd_getaddress+0x14>)
  401b6e:	6858      	ldr	r0, [r3, #4]
  401b70:	f010 0001 	ands.w	r0, r0, #1
  401b74:	bf1c      	itt	ne
  401b76:	6898      	ldrne	r0, [r3, #8]
  401b78:	f000 007f 	andne.w	r0, r0, #127	; 0x7f
  401b7c:	4770      	bx	lr
  401b7e:	bf00      	nop
  401b80:	40034000 	.word	0x40034000

00401b84 <udd_get_frame_number>:
  401b84:	4b02      	ldr	r3, [pc, #8]	; (401b90 <udd_get_frame_number+0xc>)
  401b86:	6818      	ldr	r0, [r3, #0]
  401b88:	f3c0 000a 	ubfx	r0, r0, #0, #11
  401b8c:	4770      	bx	lr
  401b8e:	bf00      	nop
  401b90:	40034000 	.word	0x40034000

00401b94 <udd_get_micro_frame_number>:
  401b94:	2000      	movs	r0, #0
  401b96:	4770      	bx	lr

00401b98 <udd_set_setup_payload>:
  401b98:	4b01      	ldr	r3, [pc, #4]	; (401ba0 <udd_set_setup_payload+0x8>)
  401b9a:	6098      	str	r0, [r3, #8]
  401b9c:	8199      	strh	r1, [r3, #12]
  401b9e:	4770      	bx	lr
  401ba0:	20001490 	.word	0x20001490

00401ba4 <udd_ep_alloc>:
  401ba4:	f000 030f 	and.w	r3, r0, #15
  401ba8:	2b03      	cmp	r3, #3
  401baa:	b5f7      	push	{r0, r1, r2, r4, r5, r6, r7, lr}
  401bac:	d856      	bhi.n	401c5c <udd_ep_alloc+0xb8>
  401bae:	009d      	lsls	r5, r3, #2
  401bb0:	f105 2540 	add.w	r5, r5, #1073758208	; 0x40004000
  401bb4:	f505 3540 	add.w	r5, r5, #196608	; 0x30000
  401bb8:	6b2c      	ldr	r4, [r5, #48]	; 0x30
  401bba:	f414 4400 	ands.w	r4, r4, #32768	; 0x8000
  401bbe:	d14d      	bne.n	401c5c <udd_ep_alloc+0xb8>
  401bc0:	f001 0603 	and.w	r6, r1, #3
  401bc4:	2e01      	cmp	r6, #1
  401bc6:	d103      	bne.n	401bd0 <udd_ep_alloc+0x2c>
  401bc8:	2b00      	cmp	r3, #0
  401bca:	d047      	beq.n	401c5c <udd_ep_alloc+0xb8>
  401bcc:	2b03      	cmp	r3, #3
  401bce:	d045      	beq.n	401c5c <udd_ep_alloc+0xb8>
  401bd0:	2a40      	cmp	r2, #64	; 0x40
  401bd2:	dc43      	bgt.n	401c5c <udd_ep_alloc+0xb8>
  401bd4:	4e23      	ldr	r6, [pc, #140]	; (401c64 <udd_ep_alloc+0xc0>)
  401bd6:	1e5c      	subs	r4, r3, #1
  401bd8:	2714      	movs	r7, #20
  401bda:	fb07 6404 	mla	r4, r7, r4, r6
  401bde:	09c0      	lsrs	r0, r0, #7
  401be0:	8a26      	ldrh	r6, [r4, #16]
  401be2:	f362 0609 	bfi	r6, r2, #0, #10
  401be6:	8226      	strh	r6, [r4, #16]
  401be8:	7c62      	ldrb	r2, [r4, #17]
  401bea:	f002 027f 	and.w	r2, r2, #127	; 0x7f
  401bee:	f36f 1245 	bfc	r2, #5, #1
  401bf2:	7462      	strb	r2, [r4, #17]
  401bf4:	d003      	beq.n	401bfe <udd_ep_alloc+0x5a>
  401bf6:	b2d2      	uxtb	r2, r2
  401bf8:	f36f 0283 	bfc	r2, #2, #2
  401bfc:	7462      	strb	r2, [r4, #17]
  401bfe:	4a1a      	ldr	r2, [pc, #104]	; (401c68 <udd_ep_alloc+0xc4>)
  401c00:	2601      	movs	r6, #1
  401c02:	6a94      	ldr	r4, [r2, #40]	; 0x28
  401c04:	fa06 f303 	lsl.w	r3, r6, r3
  401c08:	431c      	orrs	r4, r3
  401c0a:	6294      	str	r4, [r2, #40]	; 0x28
  401c0c:	6a94      	ldr	r4, [r2, #40]	; 0x28
  401c0e:	ea24 0303 	bic.w	r3, r4, r3
  401c12:	6293      	str	r3, [r2, #40]	; 0x28
  401c14:	6b2b      	ldr	r3, [r5, #48]	; 0x30
  401c16:	9300      	str	r3, [sp, #0]
  401c18:	9b00      	ldr	r3, [sp, #0]
  401c1a:	f043 034f 	orr.w	r3, r3, #79	; 0x4f
  401c1e:	9300      	str	r3, [sp, #0]
  401c20:	9b00      	ldr	r3, [sp, #0]
  401c22:	f423 4307 	bic.w	r3, r3, #34560	; 0x8700
  401c26:	f023 0380 	bic.w	r3, r3, #128	; 0x80
  401c2a:	9300      	str	r3, [sp, #0]
  401c2c:	9b00      	ldr	r3, [sp, #0]
  401c2e:	b108      	cbz	r0, 401c34 <udd_ep_alloc+0x90>
  401c30:	f041 0104 	orr.w	r1, r1, #4
  401c34:	0209      	lsls	r1, r1, #8
  401c36:	f401 61e0 	and.w	r1, r1, #1792	; 0x700
  401c3a:	f441 4100 	orr.w	r1, r1, #32768	; 0x8000
  401c3e:	4319      	orrs	r1, r3
  401c40:	9100      	str	r1, [sp, #0]
  401c42:	9b00      	ldr	r3, [sp, #0]
  401c44:	632b      	str	r3, [r5, #48]	; 0x30
  401c46:	2300      	movs	r3, #0
  401c48:	9301      	str	r3, [sp, #4]
  401c4a:	9b01      	ldr	r3, [sp, #4]
  401c4c:	2b13      	cmp	r3, #19
  401c4e:	d803      	bhi.n	401c58 <udd_ep_alloc+0xb4>
  401c50:	bf00      	nop
  401c52:	9b01      	ldr	r3, [sp, #4]
  401c54:	3301      	adds	r3, #1
  401c56:	e7f7      	b.n	401c48 <udd_ep_alloc+0xa4>
  401c58:	2001      	movs	r0, #1
  401c5a:	e000      	b.n	401c5e <udd_ep_alloc+0xba>
  401c5c:	2000      	movs	r0, #0
  401c5e:	b003      	add	sp, #12
  401c60:	bdf0      	pop	{r4, r5, r6, r7, pc}
  401c62:	bf00      	nop
  401c64:	200013c0 	.word	0x200013c0
  401c68:	40034000 	.word	0x40034000

00401c6c <udd_ep_free>:
  401c6c:	b507      	push	{r0, r1, r2, lr}
  401c6e:	f000 020f 	and.w	r2, r0, #15
  401c72:	2a03      	cmp	r2, #3
  401c74:	d821      	bhi.n	401cba <udd_ep_free+0x4e>
  401c76:	0093      	lsls	r3, r2, #2
  401c78:	f103 2340 	add.w	r3, r3, #1073758208	; 0x40004000
  401c7c:	f503 3340 	add.w	r3, r3, #196608	; 0x30000
  401c80:	6b19      	ldr	r1, [r3, #48]	; 0x30
  401c82:	9100      	str	r1, [sp, #0]
  401c84:	9900      	ldr	r1, [sp, #0]
  401c86:	f041 014f 	orr.w	r1, r1, #79	; 0x4f
  401c8a:	9100      	str	r1, [sp, #0]
  401c8c:	9900      	ldr	r1, [sp, #0]
  401c8e:	f421 4100 	bic.w	r1, r1, #32768	; 0x8000
  401c92:	9100      	str	r1, [sp, #0]
  401c94:	9900      	ldr	r1, [sp, #0]
  401c96:	6319      	str	r1, [r3, #48]	; 0x30
  401c98:	2300      	movs	r3, #0
  401c9a:	9301      	str	r3, [sp, #4]
  401c9c:	9b01      	ldr	r3, [sp, #4]
  401c9e:	2b13      	cmp	r3, #19
  401ca0:	d803      	bhi.n	401caa <udd_ep_free+0x3e>
  401ca2:	bf00      	nop
  401ca4:	9b01      	ldr	r3, [sp, #4]
  401ca6:	3301      	adds	r3, #1
  401ca8:	e7f7      	b.n	401c9a <udd_ep_free+0x2e>
  401caa:	4b05      	ldr	r3, [pc, #20]	; (401cc0 <udd_ep_free+0x54>)
  401cac:	1e51      	subs	r1, r2, #1
  401cae:	2014      	movs	r0, #20
  401cb0:	fb00 3001 	mla	r0, r0, r1, r3
  401cb4:	2101      	movs	r1, #1
  401cb6:	f7ff fa9d 	bl	4011f4 <udd_ep_finish_job>
  401cba:	b003      	add	sp, #12
  401cbc:	f85d fb04 	ldr.w	pc, [sp], #4
  401cc0:	200013c0 	.word	0x200013c0

00401cc4 <udd_ep_is_halted>:
  401cc4:	f000 000f 	and.w	r0, r0, #15
  401cc8:	2803      	cmp	r0, #3
  401cca:	d813      	bhi.n	401cf4 <udd_ep_is_halted+0x30>
  401ccc:	4a0a      	ldr	r2, [pc, #40]	; (401cf8 <udd_ep_is_halted+0x34>)
  401cce:	1e43      	subs	r3, r0, #1
  401cd0:	2114      	movs	r1, #20
  401cd2:	fb01 2303 	mla	r3, r1, r3, r2
  401cd6:	7c5b      	ldrb	r3, [r3, #17]
  401cd8:	069b      	lsls	r3, r3, #26
  401cda:	d409      	bmi.n	401cf0 <udd_ep_is_halted+0x2c>
  401cdc:	300c      	adds	r0, #12
  401cde:	4b07      	ldr	r3, [pc, #28]	; (401cfc <udd_ep_is_halted+0x38>)
  401ce0:	f853 3020 	ldr.w	r3, [r3, r0, lsl #2]
  401ce4:	f013 0f28 	tst.w	r3, #40	; 0x28
  401ce8:	bf0c      	ite	eq
  401cea:	2000      	moveq	r0, #0
  401cec:	2001      	movne	r0, #1
  401cee:	4770      	bx	lr
  401cf0:	2001      	movs	r0, #1
  401cf2:	4770      	bx	lr
  401cf4:	2000      	movs	r0, #0
  401cf6:	4770      	bx	lr
  401cf8:	200013c0 	.word	0x200013c0
  401cfc:	40034000 	.word	0x40034000

00401d00 <udd_ep_set_halt>:
  401d00:	b537      	push	{r0, r1, r2, r4, r5, lr}
  401d02:	f000 040f 	and.w	r4, r0, #15
  401d06:	2c03      	cmp	r4, #3
  401d08:	4605      	mov	r5, r0
  401d0a:	d83c      	bhi.n	401d86 <udd_ep_set_halt+0x86>
  401d0c:	f7ff f802 	bl	400d14 <cpu_irq_save>
  401d10:	0629      	lsls	r1, r5, #24
  401d12:	d515      	bpl.n	401d40 <udd_ep_set_halt+0x40>
  401d14:	4a1d      	ldr	r2, [pc, #116]	; (401d8c <udd_ep_set_halt+0x8c>)
  401d16:	2114      	movs	r1, #20
  401d18:	1e63      	subs	r3, r4, #1
  401d1a:	fb01 2303 	mla	r3, r1, r3, r2
  401d1e:	f104 010c 	add.w	r1, r4, #12
  401d22:	4a1b      	ldr	r2, [pc, #108]	; (401d90 <udd_ep_set_halt+0x90>)
  401d24:	f852 2021 	ldr.w	r2, [r2, r1, lsl #2]
  401d28:	06d2      	lsls	r2, r2, #27
  401d2a:	d404      	bmi.n	401d36 <udd_ep_set_halt+0x36>
  401d2c:	7c5a      	ldrb	r2, [r3, #17]
  401d2e:	f3c2 0281 	ubfx	r2, r2, #2, #2
  401d32:	2a01      	cmp	r2, #1
  401d34:	dd04      	ble.n	401d40 <udd_ep_set_halt+0x40>
  401d36:	7c5a      	ldrb	r2, [r3, #17]
  401d38:	f042 0220 	orr.w	r2, r2, #32
  401d3c:	745a      	strb	r2, [r3, #17]
  401d3e:	e019      	b.n	401d74 <udd_ep_set_halt+0x74>
  401d40:	00a3      	lsls	r3, r4, #2
  401d42:	f103 2340 	add.w	r3, r3, #1073758208	; 0x40004000
  401d46:	f503 3340 	add.w	r3, r3, #196608	; 0x30000
  401d4a:	6b1a      	ldr	r2, [r3, #48]	; 0x30
  401d4c:	9200      	str	r2, [sp, #0]
  401d4e:	9a00      	ldr	r2, [sp, #0]
  401d50:	f042 024f 	orr.w	r2, r2, #79	; 0x4f
  401d54:	9200      	str	r2, [sp, #0]
  401d56:	9a00      	ldr	r2, [sp, #0]
  401d58:	f042 0220 	orr.w	r2, r2, #32
  401d5c:	9200      	str	r2, [sp, #0]
  401d5e:	9a00      	ldr	r2, [sp, #0]
  401d60:	631a      	str	r2, [r3, #48]	; 0x30
  401d62:	2300      	movs	r3, #0
  401d64:	9301      	str	r3, [sp, #4]
  401d66:	9b01      	ldr	r3, [sp, #4]
  401d68:	2b13      	cmp	r3, #19
  401d6a:	d803      	bhi.n	401d74 <udd_ep_set_halt+0x74>
  401d6c:	bf00      	nop
  401d6e:	9b01      	ldr	r3, [sp, #4]
  401d70:	3301      	adds	r3, #1
  401d72:	e7f7      	b.n	401d64 <udd_ep_set_halt+0x64>
  401d74:	2501      	movs	r5, #1
  401d76:	4b06      	ldr	r3, [pc, #24]	; (401d90 <udd_ep_set_halt+0x90>)
  401d78:	fa05 f404 	lsl.w	r4, r5, r4
  401d7c:	611c      	str	r4, [r3, #16]
  401d7e:	f7ff f92b 	bl	400fd8 <cpu_irq_restore>
  401d82:	4628      	mov	r0, r5
  401d84:	e000      	b.n	401d88 <udd_ep_set_halt+0x88>
  401d86:	2000      	movs	r0, #0
  401d88:	b003      	add	sp, #12
  401d8a:	bd30      	pop	{r4, r5, pc}
  401d8c:	200013c0 	.word	0x200013c0
  401d90:	40034000 	.word	0x40034000

00401d94 <udd_ep_clear_halt>:
  401d94:	b5f0      	push	{r4, r5, r6, r7, lr}
  401d96:	f000 000f 	and.w	r0, r0, #15
  401d9a:	2803      	cmp	r0, #3
  401d9c:	b085      	sub	sp, #20
  401d9e:	d852      	bhi.n	401e46 <udd_ep_clear_halt+0xb2>
  401da0:	1e43      	subs	r3, r0, #1
  401da2:	4e2a      	ldr	r6, [pc, #168]	; (401e4c <udd_ep_clear_halt+0xb8>)
  401da4:	2514      	movs	r5, #20
  401da6:	435d      	muls	r5, r3
  401da8:	1972      	adds	r2, r6, r5
  401daa:	7c53      	ldrb	r3, [r2, #17]
  401dac:	f36f 1345 	bfc	r3, #5, #1
  401db0:	7453      	strb	r3, [r2, #17]
  401db2:	0083      	lsls	r3, r0, #2
  401db4:	f103 2340 	add.w	r3, r3, #1073758208	; 0x40004000
  401db8:	f503 3340 	add.w	r3, r3, #196608	; 0x30000
  401dbc:	6b19      	ldr	r1, [r3, #48]	; 0x30
  401dbe:	0689      	lsls	r1, r1, #26
  401dc0:	d401      	bmi.n	401dc6 <udd_ep_clear_halt+0x32>
  401dc2:	2001      	movs	r0, #1
  401dc4:	e040      	b.n	401e48 <udd_ep_clear_halt+0xb4>
  401dc6:	6b19      	ldr	r1, [r3, #48]	; 0x30
  401dc8:	9100      	str	r1, [sp, #0]
  401dca:	9900      	ldr	r1, [sp, #0]
  401dcc:	f041 014f 	orr.w	r1, r1, #79	; 0x4f
  401dd0:	9100      	str	r1, [sp, #0]
  401dd2:	9900      	ldr	r1, [sp, #0]
  401dd4:	f021 0120 	bic.w	r1, r1, #32
  401dd8:	9100      	str	r1, [sp, #0]
  401dda:	9900      	ldr	r1, [sp, #0]
  401ddc:	6319      	str	r1, [r3, #48]	; 0x30
  401dde:	2100      	movs	r1, #0
  401de0:	9101      	str	r1, [sp, #4]
  401de2:	9901      	ldr	r1, [sp, #4]
  401de4:	2913      	cmp	r1, #19
  401de6:	d803      	bhi.n	401df0 <udd_ep_clear_halt+0x5c>
  401de8:	bf00      	nop
  401dea:	9901      	ldr	r1, [sp, #4]
  401dec:	3101      	adds	r1, #1
  401dee:	e7f7      	b.n	401de0 <udd_ep_clear_halt+0x4c>
  401df0:	4917      	ldr	r1, [pc, #92]	; (401e50 <udd_ep_clear_halt+0xbc>)
  401df2:	2701      	movs	r7, #1
  401df4:	6a8c      	ldr	r4, [r1, #40]	; 0x28
  401df6:	fa07 f000 	lsl.w	r0, r7, r0
  401dfa:	4304      	orrs	r4, r0
  401dfc:	628c      	str	r4, [r1, #40]	; 0x28
  401dfe:	6a8c      	ldr	r4, [r1, #40]	; 0x28
  401e00:	ea24 0000 	bic.w	r0, r4, r0
  401e04:	6288      	str	r0, [r1, #40]	; 0x28
  401e06:	6b19      	ldr	r1, [r3, #48]	; 0x30
  401e08:	9102      	str	r1, [sp, #8]
  401e0a:	9902      	ldr	r1, [sp, #8]
  401e0c:	f041 014f 	orr.w	r1, r1, #79	; 0x4f
  401e10:	9102      	str	r1, [sp, #8]
  401e12:	9902      	ldr	r1, [sp, #8]
  401e14:	f021 0108 	bic.w	r1, r1, #8
  401e18:	9102      	str	r1, [sp, #8]
  401e1a:	9902      	ldr	r1, [sp, #8]
  401e1c:	6319      	str	r1, [r3, #48]	; 0x30
  401e1e:	2300      	movs	r3, #0
  401e20:	9303      	str	r3, [sp, #12]
  401e22:	9b03      	ldr	r3, [sp, #12]
  401e24:	2b13      	cmp	r3, #19
  401e26:	d803      	bhi.n	401e30 <udd_ep_clear_halt+0x9c>
  401e28:	bf00      	nop
  401e2a:	9b03      	ldr	r3, [sp, #12]
  401e2c:	3301      	adds	r3, #1
  401e2e:	e7f7      	b.n	401e20 <udd_ep_clear_halt+0x8c>
  401e30:	7c53      	ldrb	r3, [r2, #17]
  401e32:	f3c3 1400 	ubfx	r4, r3, #4, #1
  401e36:	2c00      	cmp	r4, #0
  401e38:	d0c3      	beq.n	401dc2 <udd_ep_clear_halt+0x2e>
  401e3a:	f36f 1304 	bfc	r3, #4, #1
  401e3e:	7453      	strb	r3, [r2, #17]
  401e40:	5973      	ldr	r3, [r6, r5]
  401e42:	4798      	blx	r3
  401e44:	e7bd      	b.n	401dc2 <udd_ep_clear_halt+0x2e>
  401e46:	2000      	movs	r0, #0
  401e48:	b005      	add	sp, #20
  401e4a:	bdf0      	pop	{r4, r5, r6, r7, pc}
  401e4c:	200013c0 	.word	0x200013c0
  401e50:	40034000 	.word	0x40034000

00401e54 <udd_ep_run>:
  401e54:	e92d 4ff7 	stmdb	sp!, {r0, r1, r2, r4, r5, r6, r7, r8, r9, sl, fp, lr}
  401e58:	f000 040f 	and.w	r4, r0, #15
  401e5c:	2c03      	cmp	r4, #3
  401e5e:	e88d 0003 	stmia.w	sp, {r0, r1}
  401e62:	4693      	mov	fp, r2
  401e64:	461e      	mov	r6, r3
  401e66:	d85b      	bhi.n	401f20 <udd_ep_run+0xcc>
  401e68:	00a2      	lsls	r2, r4, #2
  401e6a:	f102 2a40 	add.w	sl, r2, #1073758208	; 0x40004000
  401e6e:	f50a 3a40 	add.w	sl, sl, #196608	; 0x30000
  401e72:	f8da 0030 	ldr.w	r0, [sl, #48]	; 0x30
  401e76:	f410 4000 	ands.w	r0, r0, #32768	; 0x8000
  401e7a:	d052      	beq.n	401f22 <udd_ep_run+0xce>
  401e7c:	f8df 80ac 	ldr.w	r8, [pc, #172]	; 401f2c <udd_ep_run+0xd8>
  401e80:	1e63      	subs	r3, r4, #1
  401e82:	2714      	movs	r7, #20
  401e84:	435f      	muls	r7, r3
  401e86:	eb08 0507 	add.w	r5, r8, r7
  401e8a:	7c68      	ldrb	r0, [r5, #17]
  401e8c:	f3c0 1040 	ubfx	r0, r0, #5, #1
  401e90:	2800      	cmp	r0, #0
  401e92:	d145      	bne.n	401f20 <udd_ep_run+0xcc>
  401e94:	f8da 1030 	ldr.w	r1, [sl, #48]	; 0x30
  401e98:	f011 0920 	ands.w	r9, r1, #32
  401e9c:	d141      	bne.n	401f22 <udd_ep_run+0xce>
  401e9e:	f7fe ff39 	bl	400d14 <cpu_irq_save>
  401ea2:	7c69      	ldrb	r1, [r5, #17]
  401ea4:	06cb      	lsls	r3, r1, #27
  401ea6:	d502      	bpl.n	401eae <udd_ep_run+0x5a>
  401ea8:	f7ff f896 	bl	400fd8 <cpu_irq_restore>
  401eac:	e038      	b.n	401f20 <udd_ep_run+0xcc>
  401eae:	f041 0110 	orr.w	r1, r1, #16
  401eb2:	7469      	strb	r1, [r5, #17]
  401eb4:	f7ff f890 	bl	400fd8 <cpu_irq_restore>
  401eb8:	9a01      	ldr	r2, [sp, #4]
  401eba:	990c      	ldr	r1, [sp, #48]	; 0x30
  401ebc:	f8c5 b004 	str.w	fp, [r5, #4]
  401ec0:	60ae      	str	r6, [r5, #8]
  401ec2:	f8c5 900c 	str.w	r9, [r5, #12]
  401ec6:	f848 1007 	str.w	r1, [r8, r7]
  401eca:	b922      	cbnz	r2, 401ed6 <udd_ep_run+0x82>
  401ecc:	f1d6 0601 	rsbs	r6, r6, #1
  401ed0:	bf38      	it	cc
  401ed2:	2600      	movcc	r6, #0
  401ed4:	e000      	b.n	401ed8 <udd_ep_run+0x84>
  401ed6:	2601      	movs	r6, #1
  401ed8:	7c69      	ldrb	r1, [r5, #17]
  401eda:	f366 1186 	bfi	r1, r6, #6, #1
  401ede:	f36f 11c7 	bfc	r1, #7, #1
  401ee2:	7469      	strb	r1, [r5, #17]
  401ee4:	f7fe ff16 	bl	400d14 <cpu_irq_save>
  401ee8:	2301      	movs	r3, #1
  401eea:	490f      	ldr	r1, [pc, #60]	; (401f28 <udd_ep_run+0xd4>)
  401eec:	4606      	mov	r6, r0
  401eee:	fa03 f004 	lsl.w	r0, r3, r4
  401ef2:	6108      	str	r0, [r1, #16]
  401ef4:	9a00      	ldr	r2, [sp, #0]
  401ef6:	0612      	lsls	r2, r2, #24
  401ef8:	d50d      	bpl.n	401f16 <udd_ep_run+0xc2>
  401efa:	f8da 1030 	ldr.w	r1, [sl, #48]	; 0x30
  401efe:	f011 0511 	ands.w	r5, r1, #17
  401f02:	d108      	bne.n	401f16 <udd_ep_run+0xc2>
  401f04:	4620      	mov	r0, r4
  401f06:	4619      	mov	r1, r3
  401f08:	f7fe ffc0 	bl	400e8c <udd_ep_in_sent>
  401f0c:	b118      	cbz	r0, 401f16 <udd_ep_run+0xc2>
  401f0e:	4620      	mov	r0, r4
  401f10:	4629      	mov	r1, r5
  401f12:	f7fe ffbb 	bl	400e8c <udd_ep_in_sent>
  401f16:	4630      	mov	r0, r6
  401f18:	f7ff f85e 	bl	400fd8 <cpu_irq_restore>
  401f1c:	2001      	movs	r0, #1
  401f1e:	e000      	b.n	401f22 <udd_ep_run+0xce>
  401f20:	2000      	movs	r0, #0
  401f22:	b003      	add	sp, #12
  401f24:	e8bd 8ff0 	ldmia.w	sp!, {r4, r5, r6, r7, r8, r9, sl, fp, pc}
  401f28:	40034000 	.word	0x40034000
  401f2c:	200013c0 	.word	0x200013c0

00401f30 <udd_ep_abort>:
  401f30:	b570      	push	{r4, r5, r6, lr}
  401f32:	f000 040f 	and.w	r4, r0, #15
  401f36:	2c03      	cmp	r4, #3
  401f38:	b088      	sub	sp, #32
  401f3a:	4606      	mov	r6, r0
  401f3c:	f200 8099 	bhi.w	402072 <udd_ep_abort+0x142>
  401f40:	f7fe fee8 	bl	400d14 <cpu_irq_save>
  401f44:	2501      	movs	r5, #1
  401f46:	4b4c      	ldr	r3, [pc, #304]	; (402078 <udd_ep_abort+0x148>)
  401f48:	40a5      	lsls	r5, r4
  401f4a:	615d      	str	r5, [r3, #20]
  401f4c:	f7ff f844 	bl	400fd8 <cpu_irq_restore>
  401f50:	0630      	lsls	r0, r6, #24
  401f52:	d571      	bpl.n	402038 <udd_ep_abort+0x108>
  401f54:	00a3      	lsls	r3, r4, #2
  401f56:	f103 2340 	add.w	r3, r3, #1073758208	; 0x40004000
  401f5a:	f503 3340 	add.w	r3, r3, #196608	; 0x30000
  401f5e:	6b1a      	ldr	r2, [r3, #48]	; 0x30
  401f60:	06d1      	lsls	r1, r2, #27
  401f62:	d40d      	bmi.n	401f80 <udd_ep_abort+0x50>
  401f64:	6b1a      	ldr	r2, [r3, #48]	; 0x30
  401f66:	9206      	str	r2, [sp, #24]
  401f68:	9a06      	ldr	r2, [sp, #24]
  401f6a:	f042 024f 	orr.w	r2, r2, #79	; 0x4f
  401f6e:	9206      	str	r2, [sp, #24]
  401f70:	9a06      	ldr	r2, [sp, #24]
  401f72:	f022 0201 	bic.w	r2, r2, #1
  401f76:	9206      	str	r2, [sp, #24]
  401f78:	9a06      	ldr	r2, [sp, #24]
  401f7a:	631a      	str	r2, [r3, #48]	; 0x30
  401f7c:	2300      	movs	r3, #0
  401f7e:	e049      	b.n	402014 <udd_ep_abort+0xe4>
  401f80:	b96c      	cbnz	r4, 401f9e <udd_ep_abort+0x6e>
  401f82:	6b1a      	ldr	r2, [r3, #48]	; 0x30
  401f84:	9204      	str	r2, [sp, #16]
  401f86:	9a04      	ldr	r2, [sp, #16]
  401f88:	f042 024f 	orr.w	r2, r2, #79	; 0x4f
  401f8c:	9204      	str	r2, [sp, #16]
  401f8e:	9a04      	ldr	r2, [sp, #16]
  401f90:	f022 0210 	bic.w	r2, r2, #16
  401f94:	9204      	str	r2, [sp, #16]
  401f96:	9a04      	ldr	r2, [sp, #16]
  401f98:	631a      	str	r2, [r3, #48]	; 0x30
  401f9a:	2200      	movs	r2, #0
  401f9c:	e032      	b.n	402004 <udd_ep_abort+0xd4>
  401f9e:	2c03      	cmp	r4, #3
  401fa0:	d0ef      	beq.n	401f82 <udd_ep_abort+0x52>
  401fa2:	6b1a      	ldr	r2, [r3, #48]	; 0x30
  401fa4:	9200      	str	r2, [sp, #0]
  401fa6:	9a00      	ldr	r2, [sp, #0]
  401fa8:	f042 024f 	orr.w	r2, r2, #79	; 0x4f
  401fac:	9200      	str	r2, [sp, #0]
  401fae:	9a00      	ldr	r2, [sp, #0]
  401fb0:	f022 0210 	bic.w	r2, r2, #16
  401fb4:	9200      	str	r2, [sp, #0]
  401fb6:	9a00      	ldr	r2, [sp, #0]
  401fb8:	631a      	str	r2, [r3, #48]	; 0x30
  401fba:	2200      	movs	r2, #0
  401fbc:	9201      	str	r2, [sp, #4]
  401fbe:	9a01      	ldr	r2, [sp, #4]
  401fc0:	2a13      	cmp	r2, #19
  401fc2:	d803      	bhi.n	401fcc <udd_ep_abort+0x9c>
  401fc4:	bf00      	nop
  401fc6:	9a01      	ldr	r2, [sp, #4]
  401fc8:	3201      	adds	r2, #1
  401fca:	e7f7      	b.n	401fbc <udd_ep_abort+0x8c>
  401fcc:	6b1a      	ldr	r2, [r3, #48]	; 0x30
  401fce:	f012 0210 	ands.w	r2, r2, #16
  401fd2:	d1fb      	bne.n	401fcc <udd_ep_abort+0x9c>
  401fd4:	6b19      	ldr	r1, [r3, #48]	; 0x30
  401fd6:	9102      	str	r1, [sp, #8]
  401fd8:	9902      	ldr	r1, [sp, #8]
  401fda:	f041 014f 	orr.w	r1, r1, #79	; 0x4f
  401fde:	9102      	str	r1, [sp, #8]
  401fe0:	9902      	ldr	r1, [sp, #8]
  401fe2:	f041 0110 	orr.w	r1, r1, #16
  401fe6:	9102      	str	r1, [sp, #8]
  401fe8:	9902      	ldr	r1, [sp, #8]
  401fea:	6319      	str	r1, [r3, #48]	; 0x30
  401fec:	9203      	str	r2, [sp, #12]
  401fee:	9a03      	ldr	r2, [sp, #12]
  401ff0:	2a13      	cmp	r2, #19
  401ff2:	d803      	bhi.n	401ffc <udd_ep_abort+0xcc>
  401ff4:	bf00      	nop
  401ff6:	9a03      	ldr	r2, [sp, #12]
  401ff8:	3201      	adds	r2, #1
  401ffa:	e7f7      	b.n	401fec <udd_ep_abort+0xbc>
  401ffc:	6b1a      	ldr	r2, [r3, #48]	; 0x30
  401ffe:	06d2      	lsls	r2, r2, #27
  402000:	d5fc      	bpl.n	401ffc <udd_ep_abort+0xcc>
  402002:	e7be      	b.n	401f82 <udd_ep_abort+0x52>
  402004:	9205      	str	r2, [sp, #20]
  402006:	9a05      	ldr	r2, [sp, #20]
  402008:	2a13      	cmp	r2, #19
  40200a:	d8ab      	bhi.n	401f64 <udd_ep_abort+0x34>
  40200c:	bf00      	nop
  40200e:	9a05      	ldr	r2, [sp, #20]
  402010:	3201      	adds	r2, #1
  402012:	e7f7      	b.n	402004 <udd_ep_abort+0xd4>
  402014:	9307      	str	r3, [sp, #28]
  402016:	9b07      	ldr	r3, [sp, #28]
  402018:	2b13      	cmp	r3, #19
  40201a:	d803      	bhi.n	402024 <udd_ep_abort+0xf4>
  40201c:	bf00      	nop
  40201e:	9b07      	ldr	r3, [sp, #28]
  402020:	3301      	adds	r3, #1
  402022:	e7f7      	b.n	402014 <udd_ep_abort+0xe4>
  402024:	4a15      	ldr	r2, [pc, #84]	; (40207c <udd_ep_abort+0x14c>)
  402026:	1e63      	subs	r3, r4, #1
  402028:	2114      	movs	r1, #20
  40202a:	fb01 2303 	mla	r3, r1, r3, r2
  40202e:	7c5a      	ldrb	r2, [r3, #17]
  402030:	f36f 0283 	bfc	r2, #2, #2
  402034:	745a      	strb	r2, [r3, #17]
  402036:	e00b      	b.n	402050 <udd_ep_abort+0x120>
  402038:	f104 020c 	add.w	r2, r4, #12
  40203c:	4b0e      	ldr	r3, [pc, #56]	; (402078 <udd_ep_abort+0x148>)
  40203e:	f853 3022 	ldr.w	r3, [r3, r2, lsl #2]
  402042:	f013 0f42 	tst.w	r3, #66	; 0x42
  402046:	d003      	beq.n	402050 <udd_ep_abort+0x120>
  402048:	4620      	mov	r0, r4
  40204a:	f7fe fec5 	bl	400dd8 <udd_ep_ack_out_received>
  40204e:	e7f3      	b.n	402038 <udd_ep_abort+0x108>
  402050:	4b09      	ldr	r3, [pc, #36]	; (402078 <udd_ep_abort+0x148>)
  402052:	6a9a      	ldr	r2, [r3, #40]	; 0x28
  402054:	432a      	orrs	r2, r5
  402056:	629a      	str	r2, [r3, #40]	; 0x28
  402058:	6a9a      	ldr	r2, [r3, #40]	; 0x28
  40205a:	ea22 0505 	bic.w	r5, r2, r5
  40205e:	629d      	str	r5, [r3, #40]	; 0x28
  402060:	4b06      	ldr	r3, [pc, #24]	; (40207c <udd_ep_abort+0x14c>)
  402062:	1e62      	subs	r2, r4, #1
  402064:	2014      	movs	r0, #20
  402066:	fb00 3002 	mla	r0, r0, r2, r3
  40206a:	2101      	movs	r1, #1
  40206c:	4622      	mov	r2, r4
  40206e:	f7ff f8c1 	bl	4011f4 <udd_ep_finish_job>
  402072:	b008      	add	sp, #32
  402074:	bd70      	pop	{r4, r5, r6, pc}
  402076:	bf00      	nop
  402078:	40034000 	.word	0x40034000
  40207c:	200013c0 	.word	0x200013c0

00402080 <usb_data_recieved>:
  402080:	b508      	push	{r3, lr}
  402082:	f7fe fa47 	bl	400514 <udi_cdc_is_rx_ready>
  402086:	b118      	cbz	r0, 402090 <usb_data_recieved+0x10>
  402088:	e8bd 4008 	ldmia.w	sp!, {r3, lr}
  40208c:	f7fe ba88 	b.w	4005a0 <udi_cdc_getc>
  402090:	bd08      	pop	{r3, pc}

00402092 <usb_write_line>:
  402092:	b538      	push	{r3, r4, r5, lr}
  402094:	4604      	mov	r4, r0
  402096:	f7fe fab8 	bl	40060a <udi_cdc_is_tx_ready>
  40209a:	b178      	cbz	r0, 4020bc <usb_write_line+0x2a>
  40209c:	4620      	mov	r0, r4
  40209e:	f000 ff95 	bl	402fcc <strlen>
  4020a2:	4605      	mov	r5, r0
  4020a4:	4629      	mov	r1, r5
  4020a6:	4620      	mov	r0, r4
  4020a8:	f7fe fb2e 	bl	400708 <udi_cdc_write_buf>
  4020ac:	200a      	movs	r0, #10
  4020ae:	f7fe fae5 	bl	40067c <udi_cdc_putc>
  4020b2:	200d      	movs	r0, #13
  4020b4:	f7fe fae2 	bl	40067c <udi_cdc_putc>
  4020b8:	1ca8      	adds	r0, r5, #2
  4020ba:	bd38      	pop	{r3, r4, r5, pc}
  4020bc:	f04f 30ff 	mov.w	r0, #4294967295
  4020c0:	bd38      	pop	{r3, r4, r5, pc}
	...

004020c4 <ADC_Handler>:
  4020c4:	e92d 41f0 	stmdb	sp!, {r4, r5, r6, r7, r8, lr}
  4020c8:	4b39      	ldr	r3, [pc, #228]	; (4021b0 <ADC_Handler+0xec>)
  4020ca:	4c3a      	ldr	r4, [pc, #232]	; (4021b4 <ADC_Handler+0xf0>)
  4020cc:	781b      	ldrb	r3, [r3, #0]
  4020ce:	2b00      	cmp	r3, #0
  4020d0:	d03a      	beq.n	402148 <ADC_Handler+0x84>
  4020d2:	4620      	mov	r0, r4
  4020d4:	f7fe fe15 	bl	400d02 <adc_get_status>
  4020d8:	00c2      	lsls	r2, r0, #3
  4020da:	d566      	bpl.n	4021aa <ADC_Handler+0xe6>
  4020dc:	4b36      	ldr	r3, [pc, #216]	; (4021b8 <ADC_Handler+0xf4>)
  4020de:	4937      	ldr	r1, [pc, #220]	; (4021bc <ADC_Handler+0xf8>)
  4020e0:	2203      	movs	r2, #3
  4020e2:	80da      	strh	r2, [r3, #6]
  4020e4:	780b      	ldrb	r3, [r1, #0]
  4020e6:	4a36      	ldr	r2, [pc, #216]	; (4021c0 <ADC_Handler+0xfc>)
  4020e8:	f8d4 7104 	ldr.w	r7, [r4, #260]	; 0x104
  4020ec:	0098      	lsls	r0, r3, #2
  4020ee:	1885      	adds	r5, r0, r2
  4020f0:	460e      	mov	r6, r1
  4020f2:	b95f      	cbnz	r7, 40210c <ADC_Handler+0x48>
  4020f4:	f8d4 1114 	ldr.w	r1, [r4, #276]	; 0x114
  4020f8:	b941      	cbnz	r1, 40210c <ADC_Handler+0x48>
  4020fa:	2102      	movs	r1, #2
  4020fc:	f8c4 5100 	str.w	r5, [r4, #256]	; 0x100
  402100:	f8c4 1104 	str.w	r1, [r4, #260]	; 0x104
  402104:	2101      	movs	r1, #1
  402106:	f8c4 1120 	str.w	r1, [r4, #288]	; 0x120
  40210a:	e008      	b.n	40211e <ADC_Handler+0x5a>
  40210c:	4929      	ldr	r1, [pc, #164]	; (4021b4 <ADC_Handler+0xf0>)
  40210e:	f8d1 4114 	ldr.w	r4, [r1, #276]	; 0x114
  402112:	b924      	cbnz	r4, 40211e <ADC_Handler+0x5a>
  402114:	2402      	movs	r4, #2
  402116:	f8c1 5110 	str.w	r5, [r1, #272]	; 0x110
  40211a:	f8c1 4114 	str.w	r4, [r1, #276]	; 0x114
  40211e:	f832 1023 	ldrh.w	r1, [r2, r3, lsl #2]
  402122:	f3c1 010b 	ubfx	r1, r1, #0, #12
  402126:	f822 1023 	strh.w	r1, [r2, r3, lsl #2]
  40212a:	4402      	add	r2, r0
  40212c:	3301      	adds	r3, #1
  40212e:	8851      	ldrh	r1, [r2, #2]
  402130:	b2db      	uxtb	r3, r3
  402132:	f3c1 010b 	ubfx	r1, r1, #0, #12
  402136:	2b20      	cmp	r3, #32
  402138:	8051      	strh	r1, [r2, #2]
  40213a:	7033      	strb	r3, [r6, #0]
  40213c:	d935      	bls.n	4021aa <ADC_Handler+0xe6>
  40213e:	4b21      	ldr	r3, [pc, #132]	; (4021c4 <ADC_Handler+0x100>)
  402140:	2201      	movs	r2, #1
  402142:	701a      	strb	r2, [r3, #0]
  402144:	e8bd 81f0 	ldmia.w	sp!, {r4, r5, r6, r7, r8, pc}
  402148:	6b23      	ldr	r3, [r4, #48]	; 0x30
  40214a:	01db      	lsls	r3, r3, #7
  40214c:	d52d      	bpl.n	4021aa <ADC_Handler+0xe6>
  40214e:	4620      	mov	r0, r4
  402150:	f7fe fdae 	bl	400cb0 <adc_get_latest_value>
  402154:	4c18      	ldr	r4, [pc, #96]	; (4021b8 <ADC_Handler+0xf4>)
  402156:	4f19      	ldr	r7, [pc, #100]	; (4021bc <ADC_Handler+0xf8>)
  402158:	f894 c000 	ldrb.w	ip, [r4]
  40215c:	4e19      	ldr	r6, [pc, #100]	; (4021c4 <ADC_Handler+0x100>)
  40215e:	7865      	ldrb	r5, [r4, #1]
  402160:	783b      	ldrb	r3, [r7, #0]
  402162:	7832      	ldrb	r2, [r6, #0]
  402164:	f3c0 3103 	ubfx	r1, r0, #12, #4
  402168:	458c      	cmp	ip, r1
  40216a:	d105      	bne.n	402178 <ADC_Handler+0xb4>
  40216c:	f8df c050 	ldr.w	ip, [pc, #80]	; 4021c0 <ADC_Handler+0xfc>
  402170:	f3c0 080b 	ubfx	r8, r0, #0, #12
  402174:	f82c 8023 	strh.w	r8, [ip, r3, lsl #2]
  402178:	42a9      	cmp	r1, r5
  40217a:	d104      	bne.n	402186 <ADC_Handler+0xc2>
  40217c:	3301      	adds	r3, #1
  40217e:	b2db      	uxtb	r3, r3
  402180:	2b20      	cmp	r3, #32
  402182:	bf88      	it	hi
  402184:	2201      	movhi	r2, #1
  402186:	7864      	ldrb	r4, [r4, #1]
  402188:	428c      	cmp	r4, r1
  40218a:	d105      	bne.n	402198 <ADC_Handler+0xd4>
  40218c:	4c0c      	ldr	r4, [pc, #48]	; (4021c0 <ADC_Handler+0xfc>)
  40218e:	eb04 0483 	add.w	r4, r4, r3, lsl #2
  402192:	f3c0 000b 	ubfx	r0, r0, #0, #12
  402196:	8060      	strh	r0, [r4, #2]
  402198:	42a9      	cmp	r1, r5
  40219a:	d104      	bne.n	4021a6 <ADC_Handler+0xe2>
  40219c:	3301      	adds	r3, #1
  40219e:	b2db      	uxtb	r3, r3
  4021a0:	2b21      	cmp	r3, #33	; 0x21
  4021a2:	bf28      	it	cs
  4021a4:	2201      	movcs	r2, #1
  4021a6:	703b      	strb	r3, [r7, #0]
  4021a8:	7032      	strb	r2, [r6, #0]
  4021aa:	e8bd 81f0 	ldmia.w	sp!, {r4, r5, r6, r7, r8, pc}
  4021ae:	bf00      	nop
  4021b0:	20001402 	.word	0x20001402
  4021b4:	40038000 	.word	0x40038000
  4021b8:	20001528 	.word	0x20001528
  4021bc:	20001404 	.word	0x20001404
  4021c0:	200014a8 	.word	0x200014a8
  4021c4:	20001403 	.word	0x20001403

004021c8 <sensors_init>:
  4021c8:	b570      	push	{r4, r5, r6, lr}
  4021ca:	4d42      	ldr	r5, [pc, #264]	; (4022d4 <sensors_init+0x10c>)
  4021cc:	4b42      	ldr	r3, [pc, #264]	; (4022d8 <sensors_init+0x110>)
  4021ce:	7028      	strb	r0, [r5, #0]
  4021d0:	2400      	movs	r4, #0
  4021d2:	201d      	movs	r0, #29
  4021d4:	701c      	strb	r4, [r3, #0]
  4021d6:	f000 fc41 	bl	402a5c <pmc_enable_periph_clk>
  4021da:	f44f 2380 	mov.w	r3, #262144	; 0x40000
  4021de:	493f      	ldr	r1, [pc, #252]	; (4022dc <sensors_init+0x114>)
  4021e0:	4a3f      	ldr	r2, [pc, #252]	; (4022e0 <sensors_init+0x118>)
  4021e2:	4840      	ldr	r0, [pc, #256]	; (4022e4 <sensors_init+0x11c>)
  4021e4:	f7fe fd22 	bl	400c2c <adc_init>
  4021e8:	4621      	mov	r1, r4
  4021ea:	2208      	movs	r2, #8
  4021ec:	483e      	ldr	r0, [pc, #248]	; (4022e8 <sensors_init+0x120>)
  4021ee:	f000 fea3 	bl	402f38 <memset>
  4021f2:	2101      	movs	r1, #1
  4021f4:	f44f 1240 	mov.w	r2, #3145728	; 0x300000
  4021f8:	460b      	mov	r3, r1
  4021fa:	483a      	ldr	r0, [pc, #232]	; (4022e4 <sensors_init+0x11c>)
  4021fc:	f7fe fd41 	bl	400c82 <adc_configure_timing>
  402200:	4838      	ldr	r0, [pc, #224]	; (4022e4 <sensors_init+0x11c>)
  402202:	f7fe fd57 	bl	400cb4 <adc_enable_tag>
  402206:	4837      	ldr	r0, [pc, #220]	; (4022e4 <sensors_init+0x11c>)
  402208:	f7fe fd59 	bl	400cbe <adc_stop_sequencer>
  40220c:	462e      	mov	r6, r5
  40220e:	4d37      	ldr	r5, [pc, #220]	; (4022ec <sensors_init+0x124>)
  402210:	4834      	ldr	r0, [pc, #208]	; (4022e4 <sensors_init+0x11c>)
  402212:	5d29      	ldrb	r1, [r5, r4]
  402214:	f7fe fd47 	bl	400ca6 <adc_enable_channel>
  402218:	4b33      	ldr	r3, [pc, #204]	; (4022e8 <sensors_init+0x120>)
  40221a:	5d62      	ldrb	r2, [r4, r5]
  40221c:	54e2      	strb	r2, [r4, r3]
  40221e:	3401      	adds	r4, #1
  402220:	2c05      	cmp	r4, #5
  402222:	d1f4      	bne.n	40220e <sensors_init+0x46>
  402224:	482f      	ldr	r0, [pc, #188]	; (4022e4 <sensors_init+0x11c>)
  402226:	f7fe fd6e 	bl	400d06 <adc_enable_ts>
  40222a:	482e      	ldr	r0, [pc, #184]	; (4022e4 <sensors_init+0x11c>)
  40222c:	f7fe fd36 	bl	400c9c <adc_disable_anch>
  402230:	1e6c      	subs	r4, r5, #1
  402232:	3504      	adds	r5, #4
  402234:	482b      	ldr	r0, [pc, #172]	; (4022e4 <sensors_init+0x11c>)
  402236:	7861      	ldrb	r1, [r4, #1]
  402238:	2200      	movs	r2, #0
  40223a:	f7fe fd52 	bl	400ce2 <adc_set_channel_input_gain>
  40223e:	f814 1f01 	ldrb.w	r1, [r4, #1]!
  402242:	4828      	ldr	r0, [pc, #160]	; (4022e4 <sensors_init+0x11c>)
  402244:	f7fe fd40 	bl	400cc8 <adc_disable_channel_input_offset>
  402248:	42ac      	cmp	r4, r5
  40224a:	d1f3      	bne.n	402234 <sensors_init+0x6c>
  40224c:	4b28      	ldr	r3, [pc, #160]	; (4022f0 <sensors_init+0x128>)
  40224e:	781b      	ldrb	r3, [r3, #0]
  402250:	b94b      	cbnz	r3, 402266 <sensors_init+0x9e>
  402252:	4c24      	ldr	r4, [pc, #144]	; (4022e4 <sensors_init+0x11c>)
  402254:	2100      	movs	r1, #0
  402256:	460a      	mov	r2, r1
  402258:	4620      	mov	r0, r4
  40225a:	f7fe fd07 	bl	400c6c <adc_configure_power_save>
  40225e:	7833      	ldrb	r3, [r6, #0]
  402260:	4622      	mov	r2, r4
  402262:	b33b      	cbz	r3, 4022b4 <sensors_init+0xec>
  402264:	e008      	b.n	402278 <sensors_init+0xb0>
  402266:	481f      	ldr	r0, [pc, #124]	; (4022e4 <sensors_init+0x11c>)
  402268:	f7fe fd44 	bl	400cf4 <adc_set_calibmode>
  40226c:	481d      	ldr	r0, [pc, #116]	; (4022e4 <sensors_init+0x11c>)
  40226e:	f7fe fd48 	bl	400d02 <adc_get_status>
  402272:	0203      	lsls	r3, r0, #8
  402274:	d5fa      	bpl.n	40226c <sensors_init+0xa4>
  402276:	e7ec      	b.n	402252 <sensors_init+0x8a>
  402278:	f8d4 3104 	ldr.w	r3, [r4, #260]	; 0x104
  40227c:	b963      	cbnz	r3, 402298 <sensors_init+0xd0>
  40227e:	f8d4 3114 	ldr.w	r3, [r4, #276]	; 0x114
  402282:	b94b      	cbnz	r3, 402298 <sensors_init+0xd0>
  402284:	4b1b      	ldr	r3, [pc, #108]	; (4022f4 <sensors_init+0x12c>)
  402286:	f8c4 3100 	str.w	r3, [r4, #256]	; 0x100
  40228a:	2302      	movs	r3, #2
  40228c:	f8c4 3104 	str.w	r3, [r4, #260]	; 0x104
  402290:	2301      	movs	r3, #1
  402292:	f8c4 3120 	str.w	r3, [r4, #288]	; 0x120
  402296:	e009      	b.n	4022ac <sensors_init+0xe4>
  402298:	f8d2 2114 	ldr.w	r2, [r2, #276]	; 0x114
  40229c:	4b11      	ldr	r3, [pc, #68]	; (4022e4 <sensors_init+0x11c>)
  40229e:	b92a      	cbnz	r2, 4022ac <sensors_init+0xe4>
  4022a0:	4a14      	ldr	r2, [pc, #80]	; (4022f4 <sensors_init+0x12c>)
  4022a2:	f8c3 2110 	str.w	r2, [r3, #272]	; 0x110
  4022a6:	2202      	movs	r2, #2
  4022a8:	f8c3 2114 	str.w	r2, [r3, #276]	; 0x114
  4022ac:	480d      	ldr	r0, [pc, #52]	; (4022e4 <sensors_init+0x11c>)
  4022ae:	f04f 5180 	mov.w	r1, #268435456	; 0x10000000
  4022b2:	e002      	b.n	4022ba <sensors_init+0xf2>
  4022b4:	4620      	mov	r0, r4
  4022b6:	f04f 7180 	mov.w	r1, #16777216	; 0x1000000
  4022ba:	f7fe fd20 	bl	400cfe <adc_enable_interrupt>
  4022be:	4b0e      	ldr	r3, [pc, #56]	; (4022f8 <sensors_init+0x130>)
  4022c0:	4808      	ldr	r0, [pc, #32]	; (4022e4 <sensors_init+0x11c>)
  4022c2:	f04f 5200 	mov.w	r2, #536870912	; 0x20000000
  4022c6:	601a      	str	r2, [r3, #0]
  4022c8:	2100      	movs	r1, #0
  4022ca:	460a      	mov	r2, r1
  4022cc:	e8bd 4070 	ldmia.w	sp!, {r4, r5, r6, lr}
  4022d0:	f7fe bcc5 	b.w	400c5e <adc_configure_trigger>
  4022d4:	20001402 	.word	0x20001402
  4022d8:	20001404 	.word	0x20001404
  4022dc:	07270e00 	.word	0x07270e00
  4022e0:	001e8480 	.word	0x001e8480
  4022e4:	40038000 	.word	0x40038000
  4022e8:	20001528 	.word	0x20001528
  4022ec:	200000c9 	.word	0x200000c9
  4022f0:	200000c8 	.word	0x200000c8
  4022f4:	2000152a 	.word	0x2000152a
  4022f8:	e000e100 	.word	0xe000e100

004022fc <button_handler>:
  4022fc:	280b      	cmp	r0, #11
  4022fe:	d104      	bne.n	40230a <button_handler+0xe>
  402300:	2920      	cmp	r1, #32
  402302:	d102      	bne.n	40230a <button_handler+0xe>
  402304:	4b01      	ldr	r3, [pc, #4]	; (40230c <button_handler+0x10>)
  402306:	2201      	movs	r2, #1
  402308:	701a      	strb	r2, [r3, #0]
  40230a:	4770      	bx	lr
  40230c:	20001405 	.word	0x20001405

00402310 <ui_init>:
  402310:	b513      	push	{r0, r1, r4, lr}
  402312:	4c11      	ldr	r4, [pc, #68]	; (402358 <ui_init+0x48>)
  402314:	200b      	movs	r0, #11
  402316:	f000 fba1 	bl	402a5c <pmc_enable_periph_clk>
  40231a:	4620      	mov	r0, r4
  40231c:	2120      	movs	r1, #32
  40231e:	220a      	movs	r2, #10
  402320:	f000 f95a 	bl	4025d8 <pio_set_debounce_filter>
  402324:	4b0d      	ldr	r3, [pc, #52]	; (40235c <ui_init+0x4c>)
  402326:	9300      	str	r3, [sp, #0]
  402328:	4620      	mov	r0, r4
  40232a:	210b      	movs	r1, #11
  40232c:	2220      	movs	r2, #32
  40232e:	2379      	movs	r3, #121	; 0x79
  402330:	f000 fac2 	bl	4028b8 <pio_handler_set>
  402334:	4b0a      	ldr	r3, [pc, #40]	; (402360 <ui_init+0x50>)
  402336:	f44f 6200 	mov.w	r2, #2048	; 0x800
  40233a:	601a      	str	r2, [r3, #0]
  40233c:	4620      	mov	r0, r4
  40233e:	2120      	movs	r1, #32
  402340:	f000 f9d1 	bl	4026e6 <pio_enable_interrupt>
  402344:	204a      	movs	r0, #74	; 0x4a
  402346:	f000 f940 	bl	4025ca <LED_On>
  40234a:	2051      	movs	r0, #81	; 0x51
  40234c:	b002      	add	sp, #8
  40234e:	e8bd 4010 	ldmia.w	sp!, {r4, lr}
  402352:	f000 b933 	b.w	4025bc <LED_Off>
  402356:	bf00      	nop
  402358:	400e0e00 	.word	0x400e0e00
  40235c:	004022fd 	.word	0x004022fd
  402360:	e000e100 	.word	0xe000e100

00402364 <ui_powerdown>:
  402364:	b508      	push	{r3, lr}
  402366:	204a      	movs	r0, #74	; 0x4a
  402368:	f000 f928 	bl	4025bc <LED_Off>
  40236c:	2051      	movs	r0, #81	; 0x51
  40236e:	e8bd 4008 	ldmia.w	sp!, {r3, lr}
  402372:	f000 b923 	b.w	4025bc <LED_Off>

00402376 <ui_wakeup>:
  402376:	204a      	movs	r0, #74	; 0x4a
  402378:	f000 b927 	b.w	4025ca <LED_On>

0040237c <ui_com_open>:
  40237c:	2051      	movs	r0, #81	; 0x51
  40237e:	f000 b924 	b.w	4025ca <LED_On>

00402382 <ui_com_close>:
  402382:	2051      	movs	r0, #81	; 0x51
  402384:	f000 b91a 	b.w	4025bc <LED_Off>

00402388 <ui_process>:
  402388:	b910      	cbnz	r0, 402390 <ui_process+0x8>
  40238a:	204a      	movs	r0, #74	; 0x4a
  40238c:	f000 b91d 	b.w	4025ca <LED_On>
  402390:	f5b0 7f7a 	cmp.w	r0, #1000	; 0x3e8
  402394:	d102      	bne.n	40239c <ui_process+0x14>
  402396:	204a      	movs	r0, #74	; 0x4a
  402398:	f000 b910 	b.w	4025bc <LED_Off>
  40239c:	4770      	bx	lr
	...

004023a0 <ui_get_btn>:
  4023a0:	4b02      	ldr	r3, [pc, #8]	; (4023ac <ui_get_btn+0xc>)
  4023a2:	2200      	movs	r2, #0
  4023a4:	7818      	ldrb	r0, [r3, #0]
  4023a6:	701a      	strb	r2, [r3, #0]
  4023a8:	4770      	bx	lr
  4023aa:	bf00      	nop
  4023ac:	20001405 	.word	0x20001405

004023b0 <osc_enable>:
  4023b0:	3801      	subs	r0, #1
  4023b2:	2806      	cmp	r0, #6
  4023b4:	d817      	bhi.n	4023e6 <osc_enable+0x36>
  4023b6:	e8df f000 	tbb	[pc, r0]
  4023ba:	0604      	.short	0x0604
  4023bc:	100e0b09 	.word	0x100e0b09
  4023c0:	12          	.byte	0x12
  4023c1:	00          	.byte	0x00
  4023c2:	2000      	movs	r0, #0
  4023c4:	e000      	b.n	4023c8 <osc_enable+0x18>
  4023c6:	2001      	movs	r0, #1
  4023c8:	f000 bac8 	b.w	40295c <pmc_switch_sclk_to_32kxtal>
  4023cc:	2000      	movs	r0, #0
  4023ce:	e000      	b.n	4023d2 <osc_enable+0x22>
  4023d0:	2010      	movs	r0, #16
  4023d2:	f000 bad3 	b.w	40297c <pmc_switch_mainck_to_fastrc>
  4023d6:	2020      	movs	r0, #32
  4023d8:	e7fb      	b.n	4023d2 <osc_enable+0x22>
  4023da:	2000      	movs	r0, #0
  4023dc:	e000      	b.n	4023e0 <osc_enable+0x30>
  4023de:	2001      	movs	r0, #1
  4023e0:	213e      	movs	r1, #62	; 0x3e
  4023e2:	f000 baef 	b.w	4029c4 <pmc_switch_mainck_to_xtal>
  4023e6:	4770      	bx	lr

004023e8 <osc_wait_ready.constprop.5>:
  4023e8:	b508      	push	{r3, lr}
  4023ea:	f000 fb11 	bl	402a10 <pmc_osc_is_ready_mainck>
  4023ee:	2800      	cmp	r0, #0
  4023f0:	d0fb      	beq.n	4023ea <osc_wait_ready.constprop.5+0x2>
  4023f2:	bd08      	pop	{r3, pc}

004023f4 <sysclk_enable_usb>:
  4023f4:	b508      	push	{r3, lr}
  4023f6:	2006      	movs	r0, #6
  4023f8:	f7ff ffda 	bl	4023b0 <osc_enable>
  4023fc:	f7ff fff4 	bl	4023e8 <osc_wait_ready.constprop.5>
  402400:	f000 fb1e 	bl	402a40 <pmc_disable_pllbck>
  402404:	4b06      	ldr	r3, [pc, #24]	; (402420 <sysclk_enable_usb+0x2c>)
  402406:	4a07      	ldr	r2, [pc, #28]	; (402424 <sysclk_enable_usb+0x30>)
  402408:	62da      	str	r2, [r3, #44]	; 0x2c
  40240a:	f000 fb1f 	bl	402a4c <pmc_is_locked_pllbck>
  40240e:	2800      	cmp	r0, #0
  402410:	d0fb      	beq.n	40240a <sysclk_enable_usb+0x16>
  402412:	2001      	movs	r0, #1
  402414:	f000 fb64 	bl	402ae0 <pmc_switch_udpck_to_pllbck>
  402418:	e8bd 4008 	ldmia.w	sp!, {r3, lr}
  40241c:	f000 bb6a 	b.w	402af4 <pmc_enable_udpck>
  402420:	400e0400 	.word	0x400e0400
  402424:	000f3f02 	.word	0x000f3f02

00402428 <sysclk_init>:
  402428:	b508      	push	{r3, lr}
  40242a:	480d      	ldr	r0, [pc, #52]	; (402460 <sysclk_init+0x38>)
  40242c:	f000 fc22 	bl	402c74 <system_init_flash>
  402430:	2006      	movs	r0, #6
  402432:	f7ff ffbd 	bl	4023b0 <osc_enable>
  402436:	f7ff ffd7 	bl	4023e8 <osc_wait_ready.constprop.5>
  40243a:	f000 faf1 	bl	402a20 <pmc_disable_pllack>
  40243e:	4b09      	ldr	r3, [pc, #36]	; (402464 <sysclk_init+0x3c>)
  402440:	4a09      	ldr	r2, [pc, #36]	; (402468 <sysclk_init+0x40>)
  402442:	629a      	str	r2, [r3, #40]	; 0x28
  402444:	f000 faf4 	bl	402a30 <pmc_is_locked_pllack>
  402448:	2800      	cmp	r0, #0
  40244a:	d0fb      	beq.n	402444 <sysclk_init+0x1c>
  40244c:	2000      	movs	r0, #0
  40244e:	f000 fa63 	bl	402918 <pmc_switch_mck_to_pllack>
  402452:	f000 fba9 	bl	402ba8 <SystemCoreClockUpdate>
  402456:	4802      	ldr	r0, [pc, #8]	; (402460 <sysclk_init+0x38>)
  402458:	e8bd 4008 	ldmia.w	sp!, {r3, lr}
  40245c:	f000 bc0a 	b.w	402c74 <system_init_flash>
  402460:	07270e00 	.word	0x07270e00
  402464:	400e0400 	.word	0x400e0400
  402468:	20133f02 	.word	0x20133f02

0040246c <board_init>:
  40246c:	4b4f      	ldr	r3, [pc, #316]	; (4025ac <board_init+0x140>)
  40246e:	f44f 4200 	mov.w	r2, #32768	; 0x8000
  402472:	b510      	push	{r4, lr}
  402474:	200b      	movs	r0, #11
  402476:	605a      	str	r2, [r3, #4]
  402478:	f000 faf0 	bl	402a5c <pmc_enable_periph_clk>
  40247c:	200c      	movs	r0, #12
  40247e:	f000 faed 	bl	402a5c <pmc_enable_periph_clk>
  402482:	200d      	movs	r0, #13
  402484:	f000 faea 	bl	402a5c <pmc_enable_periph_clk>
  402488:	f04f 5160 	mov.w	r1, #939524096	; 0x38000000
  40248c:	204a      	movs	r0, #74	; 0x4a
  40248e:	f000 f94b 	bl	402728 <pio_configure_pin>
  402492:	f04f 5160 	mov.w	r1, #939524096	; 0x38000000
  402496:	2051      	movs	r0, #81	; 0x51
  402498:	4c45      	ldr	r4, [pc, #276]	; (4025b0 <board_init+0x144>)
  40249a:	f000 f945 	bl	402728 <pio_configure_pin>
  40249e:	4945      	ldr	r1, [pc, #276]	; (4025b4 <board_init+0x148>)
  4024a0:	2005      	movs	r0, #5
  4024a2:	f000 f941 	bl	402728 <pio_configure_pin>
  4024a6:	f04f 6200 	mov.w	r2, #134217728	; 0x8000000
  4024aa:	f44f 61c0 	mov.w	r1, #1536	; 0x600
  4024ae:	4842      	ldr	r0, [pc, #264]	; (4025b8 <board_init+0x14c>)
  4024b0:	f000 f98d 	bl	4027ce <pio_configure_pin_group>
  4024b4:	4621      	mov	r1, r4
  4024b6:	204e      	movs	r0, #78	; 0x4e
  4024b8:	f000 f936 	bl	402728 <pio_configure_pin>
  4024bc:	4621      	mov	r1, r4
  4024be:	204b      	movs	r0, #75	; 0x4b
  4024c0:	f000 f932 	bl	402728 <pio_configure_pin>
  4024c4:	4621      	mov	r1, r4
  4024c6:	2048      	movs	r0, #72	; 0x48
  4024c8:	f000 f92e 	bl	402728 <pio_configure_pin>
  4024cc:	4621      	mov	r1, r4
  4024ce:	2040      	movs	r0, #64	; 0x40
  4024d0:	f000 f92a 	bl	402728 <pio_configure_pin>
  4024d4:	4621      	mov	r1, r4
  4024d6:	2041      	movs	r0, #65	; 0x41
  4024d8:	f000 f926 	bl	402728 <pio_configure_pin>
  4024dc:	4621      	mov	r1, r4
  4024de:	2042      	movs	r0, #66	; 0x42
  4024e0:	f000 f922 	bl	402728 <pio_configure_pin>
  4024e4:	4621      	mov	r1, r4
  4024e6:	2043      	movs	r0, #67	; 0x43
  4024e8:	f000 f91e 	bl	402728 <pio_configure_pin>
  4024ec:	4621      	mov	r1, r4
  4024ee:	2044      	movs	r0, #68	; 0x44
  4024f0:	f000 f91a 	bl	402728 <pio_configure_pin>
  4024f4:	4621      	mov	r1, r4
  4024f6:	2045      	movs	r0, #69	; 0x45
  4024f8:	f000 f916 	bl	402728 <pio_configure_pin>
  4024fc:	4621      	mov	r1, r4
  4024fe:	2046      	movs	r0, #70	; 0x46
  402500:	f000 f912 	bl	402728 <pio_configure_pin>
  402504:	4621      	mov	r1, r4
  402506:	2047      	movs	r0, #71	; 0x47
  402508:	f000 f90e 	bl	402728 <pio_configure_pin>
  40250c:	4621      	mov	r1, r4
  40250e:	2052      	movs	r0, #82	; 0x52
  402510:	f000 f90a 	bl	402728 <pio_configure_pin>
  402514:	4621      	mov	r1, r4
  402516:	2053      	movs	r0, #83	; 0x53
  402518:	f000 f906 	bl	402728 <pio_configure_pin>
  40251c:	4621      	mov	r1, r4
  40251e:	2054      	movs	r0, #84	; 0x54
  402520:	f000 f902 	bl	402728 <pio_configure_pin>
  402524:	4621      	mov	r1, r4
  402526:	2055      	movs	r0, #85	; 0x55
  402528:	f000 f8fe 	bl	402728 <pio_configure_pin>
  40252c:	4621      	mov	r1, r4
  40252e:	2056      	movs	r0, #86	; 0x56
  402530:	f000 f8fa 	bl	402728 <pio_configure_pin>
  402534:	4621      	mov	r1, r4
  402536:	2057      	movs	r0, #87	; 0x57
  402538:	f000 f8f6 	bl	402728 <pio_configure_pin>
  40253c:	4621      	mov	r1, r4
  40253e:	2058      	movs	r0, #88	; 0x58
  402540:	f000 f8f2 	bl	402728 <pio_configure_pin>
  402544:	4621      	mov	r1, r4
  402546:	2059      	movs	r0, #89	; 0x59
  402548:	f000 f8ee 	bl	402728 <pio_configure_pin>
  40254c:	4621      	mov	r1, r4
  40254e:	205a      	movs	r0, #90	; 0x5a
  402550:	f000 f8ea 	bl	402728 <pio_configure_pin>
  402554:	4621      	mov	r1, r4
  402556:	205b      	movs	r0, #91	; 0x5b
  402558:	f000 f8e6 	bl	402728 <pio_configure_pin>
  40255c:	4621      	mov	r1, r4
  40255e:	205c      	movs	r0, #92	; 0x5c
  402560:	f000 f8e2 	bl	402728 <pio_configure_pin>
  402564:	4621      	mov	r1, r4
  402566:	205d      	movs	r0, #93	; 0x5d
  402568:	f000 f8de 	bl	402728 <pio_configure_pin>
  40256c:	4621      	mov	r1, r4
  40256e:	205e      	movs	r0, #94	; 0x5e
  402570:	f000 f8da 	bl	402728 <pio_configure_pin>
  402574:	4621      	mov	r1, r4
  402576:	205f      	movs	r0, #95	; 0x5f
  402578:	f104 5480 	add.w	r4, r4, #268435456	; 0x10000000
  40257c:	f000 f8d4 	bl	402728 <pio_configure_pin>
  402580:	4621      	mov	r1, r4
  402582:	2012      	movs	r0, #18
  402584:	f000 f8d0 	bl	402728 <pio_configure_pin>
  402588:	4621      	mov	r1, r4
  40258a:	2013      	movs	r0, #19
  40258c:	f000 f8cc 	bl	402728 <pio_configure_pin>
  402590:	4621      	mov	r1, r4
  402592:	2014      	movs	r0, #20
  402594:	f000 f8c8 	bl	402728 <pio_configure_pin>
  402598:	4621      	mov	r1, r4
  40259a:	2000      	movs	r0, #0
  40259c:	f000 f8c4 	bl	402728 <pio_configure_pin>
  4025a0:	4621      	mov	r1, r4
  4025a2:	2001      	movs	r0, #1
  4025a4:	e8bd 4010 	ldmia.w	sp!, {r4, lr}
  4025a8:	f000 b8be 	b.w	402728 <pio_configure_pin>
  4025ac:	400e1450 	.word	0x400e1450
  4025b0:	08000001 	.word	0x08000001
  4025b4:	28000079 	.word	0x28000079
  4025b8:	400e0e00 	.word	0x400e0e00

004025bc <LED_Off>:
  4025bc:	284a      	cmp	r0, #74	; 0x4a
  4025be:	d001      	beq.n	4025c4 <LED_Off+0x8>
  4025c0:	2851      	cmp	r0, #81	; 0x51
  4025c2:	d101      	bne.n	4025c8 <LED_Off+0xc>
  4025c4:	f000 b896 	b.w	4026f4 <pio_set_pin_high>
  4025c8:	4770      	bx	lr

004025ca <LED_On>:
  4025ca:	284a      	cmp	r0, #74	; 0x4a
  4025cc:	d001      	beq.n	4025d2 <LED_On+0x8>
  4025ce:	2851      	cmp	r0, #81	; 0x51
  4025d0:	d101      	bne.n	4025d6 <LED_On+0xc>
  4025d2:	f000 b89c 	b.w	40270e <pio_set_pin_low>
  4025d6:	4770      	bx	lr

004025d8 <pio_set_debounce_filter>:
  4025d8:	0052      	lsls	r2, r2, #1
  4025da:	f44f 4300 	mov.w	r3, #32768	; 0x8000
  4025de:	fbb3 f3f2 	udiv	r3, r3, r2
  4025e2:	3b01      	subs	r3, #1
  4025e4:	f3c3 030d 	ubfx	r3, r3, #0, #14
  4025e8:	f8c0 1084 	str.w	r1, [r0, #132]	; 0x84
  4025ec:	f8c0 308c 	str.w	r3, [r0, #140]	; 0x8c
  4025f0:	4770      	bx	lr

004025f2 <pio_set_peripheral>:
  4025f2:	f1b1 5fc0 	cmp.w	r1, #402653184	; 0x18000000
  4025f6:	b510      	push	{r4, lr}
  4025f8:	6442      	str	r2, [r0, #68]	; 0x44
  4025fa:	d02d      	beq.n	402658 <pio_set_peripheral+0x66>
  4025fc:	d807      	bhi.n	40260e <pio_set_peripheral+0x1c>
  4025fe:	f1b1 6f00 	cmp.w	r1, #134217728	; 0x8000000
  402602:	d015      	beq.n	402630 <pio_set_peripheral+0x3e>
  402604:	f1b1 5f80 	cmp.w	r1, #268435456	; 0x10000000
  402608:	d01d      	beq.n	402646 <pio_set_peripheral+0x54>
  40260a:	bb71      	cbnz	r1, 40266a <pio_set_peripheral+0x78>
  40260c:	bd10      	pop	{r4, pc}
  40260e:	f1b1 5f20 	cmp.w	r1, #671088640	; 0x28000000
  402612:	d02b      	beq.n	40266c <pio_set_peripheral+0x7a>
  402614:	d805      	bhi.n	402622 <pio_set_peripheral+0x30>
  402616:	f1b1 5f00 	cmp.w	r1, #536870912	; 0x20000000
  40261a:	d126      	bne.n	40266a <pio_set_peripheral+0x78>
  40261c:	6f03      	ldr	r3, [r0, #112]	; 0x70
  40261e:	4313      	orrs	r3, r2
  402620:	e01f      	b.n	402662 <pio_set_peripheral+0x70>
  402622:	f1b1 5f40 	cmp.w	r1, #805306368	; 0x30000000
  402626:	d021      	beq.n	40266c <pio_set_peripheral+0x7a>
  402628:	f1b1 5f60 	cmp.w	r1, #939524096	; 0x38000000
  40262c:	d01e      	beq.n	40266c <pio_set_peripheral+0x7a>
  40262e:	e01c      	b.n	40266a <pio_set_peripheral+0x78>
  402630:	6f01      	ldr	r1, [r0, #112]	; 0x70
  402632:	6f04      	ldr	r4, [r0, #112]	; 0x70
  402634:	43d3      	mvns	r3, r2
  402636:	4021      	ands	r1, r4
  402638:	4019      	ands	r1, r3
  40263a:	6701      	str	r1, [r0, #112]	; 0x70
  40263c:	6f41      	ldr	r1, [r0, #116]	; 0x74
  40263e:	6f44      	ldr	r4, [r0, #116]	; 0x74
  402640:	4021      	ands	r1, r4
  402642:	400b      	ands	r3, r1
  402644:	e010      	b.n	402668 <pio_set_peripheral+0x76>
  402646:	6f03      	ldr	r3, [r0, #112]	; 0x70
  402648:	4313      	orrs	r3, r2
  40264a:	6703      	str	r3, [r0, #112]	; 0x70
  40264c:	6f43      	ldr	r3, [r0, #116]	; 0x74
  40264e:	6f41      	ldr	r1, [r0, #116]	; 0x74
  402650:	400b      	ands	r3, r1
  402652:	ea23 0302 	bic.w	r3, r3, r2
  402656:	e007      	b.n	402668 <pio_set_peripheral+0x76>
  402658:	6f03      	ldr	r3, [r0, #112]	; 0x70
  40265a:	6f01      	ldr	r1, [r0, #112]	; 0x70
  40265c:	400b      	ands	r3, r1
  40265e:	ea23 0302 	bic.w	r3, r3, r2
  402662:	6703      	str	r3, [r0, #112]	; 0x70
  402664:	6f43      	ldr	r3, [r0, #116]	; 0x74
  402666:	4313      	orrs	r3, r2
  402668:	6743      	str	r3, [r0, #116]	; 0x74
  40266a:	6042      	str	r2, [r0, #4]
  40266c:	bd10      	pop	{r4, pc}

0040266e <pio_set_input>:
  40266e:	07d3      	lsls	r3, r2, #31
  402670:	6441      	str	r1, [r0, #68]	; 0x44
  402672:	bf4c      	ite	mi
  402674:	6641      	strmi	r1, [r0, #100]	; 0x64
  402676:	6601      	strpl	r1, [r0, #96]	; 0x60
  402678:	f012 0f0a 	tst.w	r2, #10
  40267c:	bf14      	ite	ne
  40267e:	6201      	strne	r1, [r0, #32]
  402680:	6241      	streq	r1, [r0, #36]	; 0x24
  402682:	0793      	lsls	r3, r2, #30
  402684:	d502      	bpl.n	40268c <pio_set_input+0x1e>
  402686:	f8c0 1080 	str.w	r1, [r0, #128]	; 0x80
  40268a:	e003      	b.n	402694 <pio_set_input+0x26>
  40268c:	0713      	lsls	r3, r2, #28
  40268e:	bf48      	it	mi
  402690:	f8c0 1084 	strmi.w	r1, [r0, #132]	; 0x84
  402694:	6141      	str	r1, [r0, #20]
  402696:	6001      	str	r1, [r0, #0]
  402698:	4770      	bx	lr

0040269a <pio_set_output>:
  40269a:	b510      	push	{r4, lr}
  40269c:	9c02      	ldr	r4, [sp, #8]
  40269e:	6441      	str	r1, [r0, #68]	; 0x44
  4026a0:	b10c      	cbz	r4, 4026a6 <pio_set_output+0xc>
  4026a2:	6641      	str	r1, [r0, #100]	; 0x64
  4026a4:	e000      	b.n	4026a8 <pio_set_output+0xe>
  4026a6:	6601      	str	r1, [r0, #96]	; 0x60
  4026a8:	b10b      	cbz	r3, 4026ae <pio_set_output+0x14>
  4026aa:	6501      	str	r1, [r0, #80]	; 0x50
  4026ac:	e000      	b.n	4026b0 <pio_set_output+0x16>
  4026ae:	6541      	str	r1, [r0, #84]	; 0x54
  4026b0:	b10a      	cbz	r2, 4026b6 <pio_set_output+0x1c>
  4026b2:	6301      	str	r1, [r0, #48]	; 0x30
  4026b4:	e000      	b.n	4026b8 <pio_set_output+0x1e>
  4026b6:	6341      	str	r1, [r0, #52]	; 0x34
  4026b8:	6101      	str	r1, [r0, #16]
  4026ba:	6001      	str	r1, [r0, #0]
  4026bc:	bd10      	pop	{r4, pc}

004026be <pio_configure_interrupt>:
  4026be:	06d3      	lsls	r3, r2, #27
  4026c0:	d50e      	bpl.n	4026e0 <pio_configure_interrupt+0x22>
  4026c2:	0693      	lsls	r3, r2, #26
  4026c4:	f8c0 10b0 	str.w	r1, [r0, #176]	; 0xb0
  4026c8:	bf4c      	ite	mi
  4026ca:	f8c0 10d4 	strmi.w	r1, [r0, #212]	; 0xd4
  4026ce:	f8c0 10d0 	strpl.w	r1, [r0, #208]	; 0xd0
  4026d2:	0653      	lsls	r3, r2, #25
  4026d4:	bf4c      	ite	mi
  4026d6:	f8c0 10c0 	strmi.w	r1, [r0, #192]	; 0xc0
  4026da:	f8c0 10c4 	strpl.w	r1, [r0, #196]	; 0xc4
  4026de:	4770      	bx	lr
  4026e0:	f8c0 10b4 	str.w	r1, [r0, #180]	; 0xb4
  4026e4:	4770      	bx	lr

004026e6 <pio_enable_interrupt>:
  4026e6:	6cc3      	ldr	r3, [r0, #76]	; 0x4c
  4026e8:	6401      	str	r1, [r0, #64]	; 0x40
  4026ea:	4770      	bx	lr

004026ec <pio_get_interrupt_status>:
  4026ec:	6cc0      	ldr	r0, [r0, #76]	; 0x4c
  4026ee:	4770      	bx	lr

004026f0 <pio_get_interrupt_mask>:
  4026f0:	6c80      	ldr	r0, [r0, #72]	; 0x48
  4026f2:	4770      	bx	lr

004026f4 <pio_set_pin_high>:
  4026f4:	0943      	lsrs	r3, r0, #5
  4026f6:	f503 1300 	add.w	r3, r3, #2097152	; 0x200000
  4026fa:	f203 7307 	addw	r3, r3, #1799	; 0x707
  4026fe:	025b      	lsls	r3, r3, #9
  402700:	f000 001f 	and.w	r0, r0, #31
  402704:	2201      	movs	r2, #1
  402706:	fa02 f000 	lsl.w	r0, r2, r0
  40270a:	6318      	str	r0, [r3, #48]	; 0x30
  40270c:	4770      	bx	lr

0040270e <pio_set_pin_low>:
  40270e:	0943      	lsrs	r3, r0, #5
  402710:	f503 1300 	add.w	r3, r3, #2097152	; 0x200000
  402714:	f203 7307 	addw	r3, r3, #1799	; 0x707
  402718:	025b      	lsls	r3, r3, #9
  40271a:	f000 001f 	and.w	r0, r0, #31
  40271e:	2201      	movs	r2, #1
  402720:	fa02 f000 	lsl.w	r0, r2, r0
  402724:	6358      	str	r0, [r3, #52]	; 0x34
  402726:	4770      	bx	lr

00402728 <pio_configure_pin>:
  402728:	b5f7      	push	{r0, r1, r2, r4, r5, r6, r7, lr}
  40272a:	0944      	lsrs	r4, r0, #5
  40272c:	460d      	mov	r5, r1
  40272e:	f504 1400 	add.w	r4, r4, #2097152	; 0x200000
  402732:	f001 41f0 	and.w	r1, r1, #2013265920	; 0x78000000
  402736:	f204 7407 	addw	r4, r4, #1799	; 0x707
  40273a:	f1b1 5f00 	cmp.w	r1, #536870912	; 0x20000000
  40273e:	ea4f 2444 	mov.w	r4, r4, lsl #9
  402742:	d01e      	beq.n	402782 <pio_configure_pin+0x5a>
  402744:	d809      	bhi.n	40275a <pio_configure_pin+0x32>
  402746:	f1b1 5f80 	cmp.w	r1, #268435456	; 0x10000000
  40274a:	d01a      	beq.n	402782 <pio_configure_pin+0x5a>
  40274c:	f1b1 5fc0 	cmp.w	r1, #402653184	; 0x18000000
  402750:	d017      	beq.n	402782 <pio_configure_pin+0x5a>
  402752:	f1b1 6f00 	cmp.w	r1, #134217728	; 0x8000000
  402756:	d137      	bne.n	4027c8 <pio_configure_pin+0xa0>
  402758:	e013      	b.n	402782 <pio_configure_pin+0x5a>
  40275a:	f1b1 5f40 	cmp.w	r1, #805306368	; 0x30000000
  40275e:	d01f      	beq.n	4027a0 <pio_configure_pin+0x78>
  402760:	f1b1 5f60 	cmp.w	r1, #939524096	; 0x38000000
  402764:	d01c      	beq.n	4027a0 <pio_configure_pin+0x78>
  402766:	f1b1 5f20 	cmp.w	r1, #671088640	; 0x28000000
  40276a:	d12d      	bne.n	4027c8 <pio_configure_pin+0xa0>
  40276c:	f000 011f 	and.w	r1, r0, #31
  402770:	2601      	movs	r6, #1
  402772:	4620      	mov	r0, r4
  402774:	fa06 f101 	lsl.w	r1, r6, r1
  402778:	462a      	mov	r2, r5
  40277a:	f7ff ff78 	bl	40266e <pio_set_input>
  40277e:	4630      	mov	r0, r6
  402780:	e023      	b.n	4027ca <pio_configure_pin+0xa2>
  402782:	f000 001f 	and.w	r0, r0, #31
  402786:	2601      	movs	r6, #1
  402788:	fa06 f700 	lsl.w	r7, r6, r0
  40278c:	463a      	mov	r2, r7
  40278e:	4620      	mov	r0, r4
  402790:	f7ff ff2f 	bl	4025f2 <pio_set_peripheral>
  402794:	07ea      	lsls	r2, r5, #31
  402796:	d401      	bmi.n	40279c <pio_configure_pin+0x74>
  402798:	6627      	str	r7, [r4, #96]	; 0x60
  40279a:	e7f0      	b.n	40277e <pio_configure_pin+0x56>
  40279c:	6667      	str	r7, [r4, #100]	; 0x64
  40279e:	e7ee      	b.n	40277e <pio_configure_pin+0x56>
  4027a0:	2601      	movs	r6, #1
  4027a2:	f005 5260 	and.w	r2, r5, #939524096	; 0x38000000
  4027a6:	ea05 0306 	and.w	r3, r5, r6
  4027aa:	9300      	str	r3, [sp, #0]
  4027ac:	f1b2 5360 	subs.w	r3, r2, #939524096	; 0x38000000
  4027b0:	425a      	negs	r2, r3
  4027b2:	f000 011f 	and.w	r1, r0, #31
  4027b6:	415a      	adcs	r2, r3
  4027b8:	4620      	mov	r0, r4
  4027ba:	fa06 f101 	lsl.w	r1, r6, r1
  4027be:	f3c5 0380 	ubfx	r3, r5, #2, #1
  4027c2:	f7ff ff6a 	bl	40269a <pio_set_output>
  4027c6:	e7da      	b.n	40277e <pio_configure_pin+0x56>
  4027c8:	2000      	movs	r0, #0
  4027ca:	b003      	add	sp, #12
  4027cc:	bdf0      	pop	{r4, r5, r6, r7, pc}

004027ce <pio_configure_pin_group>:
  4027ce:	b5f7      	push	{r0, r1, r2, r4, r5, r6, r7, lr}
  4027d0:	f002 45f0 	and.w	r5, r2, #2013265920	; 0x78000000
  4027d4:	f1b5 5f00 	cmp.w	r5, #536870912	; 0x20000000
  4027d8:	4606      	mov	r6, r0
  4027da:	460c      	mov	r4, r1
  4027dc:	4617      	mov	r7, r2
  4027de:	d017      	beq.n	402810 <pio_configure_pin_group+0x42>
  4027e0:	d809      	bhi.n	4027f6 <pio_configure_pin_group+0x28>
  4027e2:	f1b5 5f80 	cmp.w	r5, #268435456	; 0x10000000
  4027e6:	d013      	beq.n	402810 <pio_configure_pin_group+0x42>
  4027e8:	f1b5 5fc0 	cmp.w	r5, #402653184	; 0x18000000
  4027ec:	d010      	beq.n	402810 <pio_configure_pin_group+0x42>
  4027ee:	f1b5 6f00 	cmp.w	r5, #134217728	; 0x8000000
  4027f2:	d127      	bne.n	402844 <pio_configure_pin_group+0x76>
  4027f4:	e00c      	b.n	402810 <pio_configure_pin_group+0x42>
  4027f6:	f1b5 5f40 	cmp.w	r5, #805306368	; 0x30000000
  4027fa:	d013      	beq.n	402824 <pio_configure_pin_group+0x56>
  4027fc:	f1b5 5f60 	cmp.w	r5, #939524096	; 0x38000000
  402800:	d010      	beq.n	402824 <pio_configure_pin_group+0x56>
  402802:	f1b5 5f20 	cmp.w	r5, #671088640	; 0x28000000
  402806:	d11d      	bne.n	402844 <pio_configure_pin_group+0x76>
  402808:	f7ff ff31 	bl	40266e <pio_set_input>
  40280c:	2001      	movs	r0, #1
  40280e:	e01a      	b.n	402846 <pio_configure_pin_group+0x78>
  402810:	4622      	mov	r2, r4
  402812:	4629      	mov	r1, r5
  402814:	f7ff feed 	bl	4025f2 <pio_set_peripheral>
  402818:	07fa      	lsls	r2, r7, #31
  40281a:	d401      	bmi.n	402820 <pio_configure_pin_group+0x52>
  40281c:	6634      	str	r4, [r6, #96]	; 0x60
  40281e:	e7f5      	b.n	40280c <pio_configure_pin_group+0x3e>
  402820:	6674      	str	r4, [r6, #100]	; 0x64
  402822:	e7f3      	b.n	40280c <pio_configure_pin_group+0x3e>
  402824:	f007 5260 	and.w	r2, r7, #939524096	; 0x38000000
  402828:	f007 0301 	and.w	r3, r7, #1
  40282c:	9300      	str	r3, [sp, #0]
  40282e:	f1b2 5360 	subs.w	r3, r2, #939524096	; 0x38000000
  402832:	425a      	negs	r2, r3
  402834:	415a      	adcs	r2, r3
  402836:	4630      	mov	r0, r6
  402838:	4621      	mov	r1, r4
  40283a:	f3c7 0380 	ubfx	r3, r7, #2, #1
  40283e:	f7ff ff2c 	bl	40269a <pio_set_output>
  402842:	e7e3      	b.n	40280c <pio_configure_pin_group+0x3e>
  402844:	2000      	movs	r0, #0
  402846:	b003      	add	sp, #12
  402848:	bdf0      	pop	{r4, r5, r6, r7, pc}
	...

0040284c <pio_handler_process>:
  40284c:	e92d 41f0 	stmdb	sp!, {r4, r5, r6, r7, r8, lr}
  402850:	4606      	mov	r6, r0
  402852:	460f      	mov	r7, r1
  402854:	f7ff ff4a 	bl	4026ec <pio_get_interrupt_status>
  402858:	4605      	mov	r5, r0
  40285a:	4630      	mov	r0, r6
  40285c:	f7ff ff48 	bl	4026f0 <pio_get_interrupt_mask>
  402860:	4005      	ands	r5, r0
  402862:	d104      	bne.n	40286e <pio_handler_process+0x22>
  402864:	4b11      	ldr	r3, [pc, #68]	; (4028ac <pio_handler_process+0x60>)
  402866:	681b      	ldr	r3, [r3, #0]
  402868:	b9cb      	cbnz	r3, 40289e <pio_handler_process+0x52>
  40286a:	e8bd 81f0 	ldmia.w	sp!, {r4, r5, r6, r7, r8, pc}
  40286e:	4c10      	ldr	r4, [pc, #64]	; (4028b0 <pio_handler_process+0x64>)
  402870:	f104 0860 	add.w	r8, r4, #96	; 0x60
  402874:	f854 3c0c 	ldr.w	r3, [r4, #-12]
  402878:	42bb      	cmp	r3, r7
  40287a:	d10a      	bne.n	402892 <pio_handler_process+0x46>
  40287c:	f854 1c08 	ldr.w	r1, [r4, #-8]
  402880:	4229      	tst	r1, r5
  402882:	d006      	beq.n	402892 <pio_handler_process+0x46>
  402884:	6823      	ldr	r3, [r4, #0]
  402886:	4638      	mov	r0, r7
  402888:	4798      	blx	r3
  40288a:	f854 3c08 	ldr.w	r3, [r4, #-8]
  40288e:	ea25 0503 	bic.w	r5, r5, r3
  402892:	4544      	cmp	r4, r8
  402894:	d0e6      	beq.n	402864 <pio_handler_process+0x18>
  402896:	3410      	adds	r4, #16
  402898:	2d00      	cmp	r5, #0
  40289a:	d1eb      	bne.n	402874 <pio_handler_process+0x28>
  40289c:	e7e2      	b.n	402864 <pio_handler_process+0x18>
  40289e:	4b05      	ldr	r3, [pc, #20]	; (4028b4 <pio_handler_process+0x68>)
  4028a0:	681b      	ldr	r3, [r3, #0]
  4028a2:	b10b      	cbz	r3, 4028a8 <pio_handler_process+0x5c>
  4028a4:	4630      	mov	r0, r6
  4028a6:	4798      	blx	r3
  4028a8:	e8bd 81f0 	ldmia.w	sp!, {r4, r5, r6, r7, r8, pc}
  4028ac:	20001530 	.word	0x20001530
  4028b0:	2000141c 	.word	0x2000141c
  4028b4:	2000140c 	.word	0x2000140c

004028b8 <pio_handler_set>:
  4028b8:	b5f8      	push	{r3, r4, r5, r6, r7, lr}
  4028ba:	4e0c      	ldr	r6, [pc, #48]	; (4028ec <pio_handler_set+0x34>)
  4028bc:	6834      	ldr	r4, [r6, #0]
  4028be:	2c06      	cmp	r4, #6
  4028c0:	d812      	bhi.n	4028e8 <pio_handler_set+0x30>
  4028c2:	f8df e02c 	ldr.w	lr, [pc, #44]	; 4028f0 <pio_handler_set+0x38>
  4028c6:	0127      	lsls	r7, r4, #4
  4028c8:	eb0e 0507 	add.w	r5, lr, r7
  4028cc:	f84e 1007 	str.w	r1, [lr, r7]
  4028d0:	9906      	ldr	r1, [sp, #24]
  4028d2:	606a      	str	r2, [r5, #4]
  4028d4:	60e9      	str	r1, [r5, #12]
  4028d6:	60ab      	str	r3, [r5, #8]
  4028d8:	4611      	mov	r1, r2
  4028da:	3401      	adds	r4, #1
  4028dc:	461a      	mov	r2, r3
  4028de:	6034      	str	r4, [r6, #0]
  4028e0:	f7ff feed 	bl	4026be <pio_configure_interrupt>
  4028e4:	2000      	movs	r0, #0
  4028e6:	bdf8      	pop	{r3, r4, r5, r6, r7, pc}
  4028e8:	2001      	movs	r0, #1
  4028ea:	bdf8      	pop	{r3, r4, r5, r6, r7, pc}
  4028ec:	20001408 	.word	0x20001408
  4028f0:	20001410 	.word	0x20001410

004028f4 <PIOA_Handler>:
  4028f4:	4801      	ldr	r0, [pc, #4]	; (4028fc <PIOA_Handler+0x8>)
  4028f6:	210b      	movs	r1, #11
  4028f8:	f7ff bfa8 	b.w	40284c <pio_handler_process>
  4028fc:	400e0e00 	.word	0x400e0e00

00402900 <PIOB_Handler>:
  402900:	4801      	ldr	r0, [pc, #4]	; (402908 <PIOB_Handler+0x8>)
  402902:	210c      	movs	r1, #12
  402904:	f7ff bfa2 	b.w	40284c <pio_handler_process>
  402908:	400e1000 	.word	0x400e1000

0040290c <PIOC_Handler>:
  40290c:	4801      	ldr	r0, [pc, #4]	; (402914 <PIOC_Handler+0x8>)
  40290e:	210d      	movs	r1, #13
  402910:	f7ff bf9c 	b.w	40284c <pio_handler_process>
  402914:	400e1200 	.word	0x400e1200

00402918 <pmc_switch_mck_to_pllack>:
  402918:	4b0f      	ldr	r3, [pc, #60]	; (402958 <pmc_switch_mck_to_pllack+0x40>)
  40291a:	6b1a      	ldr	r2, [r3, #48]	; 0x30
  40291c:	f022 0270 	bic.w	r2, r2, #112	; 0x70
  402920:	4310      	orrs	r0, r2
  402922:	6318      	str	r0, [r3, #48]	; 0x30
  402924:	f640 0201 	movw	r2, #2049	; 0x801
  402928:	6e98      	ldr	r0, [r3, #104]	; 0x68
  40292a:	490b      	ldr	r1, [pc, #44]	; (402958 <pmc_switch_mck_to_pllack+0x40>)
  40292c:	0700      	lsls	r0, r0, #28
  40292e:	d403      	bmi.n	402938 <pmc_switch_mck_to_pllack+0x20>
  402930:	3a01      	subs	r2, #1
  402932:	d1f9      	bne.n	402928 <pmc_switch_mck_to_pllack+0x10>
  402934:	2001      	movs	r0, #1
  402936:	4770      	bx	lr
  402938:	6b0a      	ldr	r2, [r1, #48]	; 0x30
  40293a:	f022 0203 	bic.w	r2, r2, #3
  40293e:	f042 0202 	orr.w	r2, r2, #2
  402942:	630a      	str	r2, [r1, #48]	; 0x30
  402944:	f640 0201 	movw	r2, #2049	; 0x801
  402948:	6e99      	ldr	r1, [r3, #104]	; 0x68
  40294a:	0709      	lsls	r1, r1, #28
  40294c:	d402      	bmi.n	402954 <pmc_switch_mck_to_pllack+0x3c>
  40294e:	3a01      	subs	r2, #1
  402950:	d1fa      	bne.n	402948 <pmc_switch_mck_to_pllack+0x30>
  402952:	e7ef      	b.n	402934 <pmc_switch_mck_to_pllack+0x1c>
  402954:	2000      	movs	r0, #0
  402956:	4770      	bx	lr
  402958:	400e0400 	.word	0x400e0400

0040295c <pmc_switch_sclk_to_32kxtal>:
  40295c:	2801      	cmp	r0, #1
  40295e:	4b05      	ldr	r3, [pc, #20]	; (402974 <pmc_switch_sclk_to_32kxtal+0x18>)
  402960:	d105      	bne.n	40296e <pmc_switch_sclk_to_32kxtal+0x12>
  402962:	689a      	ldr	r2, [r3, #8]
  402964:	f042 4225 	orr.w	r2, r2, #2768240640	; 0xa5000000
  402968:	f442 1280 	orr.w	r2, r2, #1048576	; 0x100000
  40296c:	609a      	str	r2, [r3, #8]
  40296e:	4a02      	ldr	r2, [pc, #8]	; (402978 <pmc_switch_sclk_to_32kxtal+0x1c>)
  402970:	601a      	str	r2, [r3, #0]
  402972:	4770      	bx	lr
  402974:	400e1410 	.word	0x400e1410
  402978:	a5000008 	.word	0xa5000008

0040297c <pmc_switch_mainck_to_fastrc>:
  40297c:	4a10      	ldr	r2, [pc, #64]	; (4029c0 <pmc_switch_mainck_to_fastrc+0x44>)
  40297e:	6a11      	ldr	r1, [r2, #32]
  402980:	f441 115c 	orr.w	r1, r1, #3604480	; 0x370000
  402984:	f041 0108 	orr.w	r1, r1, #8
  402988:	6211      	str	r1, [r2, #32]
  40298a:	6e93      	ldr	r3, [r2, #104]	; 0x68
  40298c:	490c      	ldr	r1, [pc, #48]	; (4029c0 <pmc_switch_mainck_to_fastrc+0x44>)
  40298e:	039b      	lsls	r3, r3, #14
  402990:	d5fb      	bpl.n	40298a <pmc_switch_mainck_to_fastrc+0xe>
  402992:	6a0b      	ldr	r3, [r1, #32]
  402994:	f423 135c 	bic.w	r3, r3, #3604480	; 0x370000
  402998:	f023 0370 	bic.w	r3, r3, #112	; 0x70
  40299c:	f443 135c 	orr.w	r3, r3, #3604480	; 0x370000
  4029a0:	4303      	orrs	r3, r0
  4029a2:	620b      	str	r3, [r1, #32]
  4029a4:	6e93      	ldr	r3, [r2, #104]	; 0x68
  4029a6:	4906      	ldr	r1, [pc, #24]	; (4029c0 <pmc_switch_mainck_to_fastrc+0x44>)
  4029a8:	039b      	lsls	r3, r3, #14
  4029aa:	d5fb      	bpl.n	4029a4 <pmc_switch_mainck_to_fastrc+0x28>
  4029ac:	6a0b      	ldr	r3, [r1, #32]
  4029ae:	f023 739b 	bic.w	r3, r3, #20316160	; 0x1360000
  4029b2:	f423 3380 	bic.w	r3, r3, #65536	; 0x10000
  4029b6:	f443 135c 	orr.w	r3, r3, #3604480	; 0x370000
  4029ba:	620b      	str	r3, [r1, #32]
  4029bc:	4770      	bx	lr
  4029be:	bf00      	nop
  4029c0:	400e0400 	.word	0x400e0400

004029c4 <pmc_switch_mainck_to_xtal>:
  4029c4:	4b0f      	ldr	r3, [pc, #60]	; (402a04 <pmc_switch_mainck_to_xtal+0x40>)
  4029c6:	6a1a      	ldr	r2, [r3, #32]
  4029c8:	b128      	cbz	r0, 4029d6 <pmc_switch_mainck_to_xtal+0x12>
  4029ca:	490f      	ldr	r1, [pc, #60]	; (402a08 <pmc_switch_mainck_to_xtal+0x44>)
  4029cc:	4011      	ands	r1, r2
  4029ce:	4a0f      	ldr	r2, [pc, #60]	; (402a0c <pmc_switch_mainck_to_xtal+0x48>)
  4029d0:	430a      	orrs	r2, r1
  4029d2:	621a      	str	r2, [r3, #32]
  4029d4:	4770      	bx	lr
  4029d6:	f422 125c 	bic.w	r2, r2, #3604480	; 0x370000
  4029da:	f022 0203 	bic.w	r2, r2, #3
  4029de:	f442 125c 	orr.w	r2, r2, #3604480	; 0x370000
  4029e2:	0209      	lsls	r1, r1, #8
  4029e4:	f042 0201 	orr.w	r2, r2, #1
  4029e8:	b289      	uxth	r1, r1
  4029ea:	430a      	orrs	r2, r1
  4029ec:	621a      	str	r2, [r3, #32]
  4029ee:	6e99      	ldr	r1, [r3, #104]	; 0x68
  4029f0:	4a04      	ldr	r2, [pc, #16]	; (402a04 <pmc_switch_mainck_to_xtal+0x40>)
  4029f2:	07c9      	lsls	r1, r1, #31
  4029f4:	d5fb      	bpl.n	4029ee <pmc_switch_mainck_to_xtal+0x2a>
  4029f6:	6a13      	ldr	r3, [r2, #32]
  4029f8:	f043 739b 	orr.w	r3, r3, #20316160	; 0x1360000
  4029fc:	f443 3380 	orr.w	r3, r3, #65536	; 0x10000
  402a00:	6213      	str	r3, [r2, #32]
  402a02:	4770      	bx	lr
  402a04:	400e0400 	.word	0x400e0400
  402a08:	fec8fffc 	.word	0xfec8fffc
  402a0c:	01370002 	.word	0x01370002

00402a10 <pmc_osc_is_ready_mainck>:
  402a10:	4b02      	ldr	r3, [pc, #8]	; (402a1c <pmc_osc_is_ready_mainck+0xc>)
  402a12:	6e98      	ldr	r0, [r3, #104]	; 0x68
  402a14:	f400 3080 	and.w	r0, r0, #65536	; 0x10000
  402a18:	4770      	bx	lr
  402a1a:	bf00      	nop
  402a1c:	400e0400 	.word	0x400e0400

00402a20 <pmc_disable_pllack>:
  402a20:	4b02      	ldr	r3, [pc, #8]	; (402a2c <pmc_disable_pllack+0xc>)
  402a22:	f04f 5200 	mov.w	r2, #536870912	; 0x20000000
  402a26:	629a      	str	r2, [r3, #40]	; 0x28
  402a28:	4770      	bx	lr
  402a2a:	bf00      	nop
  402a2c:	400e0400 	.word	0x400e0400

00402a30 <pmc_is_locked_pllack>:
  402a30:	4b02      	ldr	r3, [pc, #8]	; (402a3c <pmc_is_locked_pllack+0xc>)
  402a32:	6e98      	ldr	r0, [r3, #104]	; 0x68
  402a34:	f000 0002 	and.w	r0, r0, #2
  402a38:	4770      	bx	lr
  402a3a:	bf00      	nop
  402a3c:	400e0400 	.word	0x400e0400

00402a40 <pmc_disable_pllbck>:
  402a40:	4b01      	ldr	r3, [pc, #4]	; (402a48 <pmc_disable_pllbck+0x8>)
  402a42:	2200      	movs	r2, #0
  402a44:	62da      	str	r2, [r3, #44]	; 0x2c
  402a46:	4770      	bx	lr
  402a48:	400e0400 	.word	0x400e0400

00402a4c <pmc_is_locked_pllbck>:
  402a4c:	4b02      	ldr	r3, [pc, #8]	; (402a58 <pmc_is_locked_pllbck+0xc>)
  402a4e:	6e98      	ldr	r0, [r3, #104]	; 0x68
  402a50:	f000 0004 	and.w	r0, r0, #4
  402a54:	4770      	bx	lr
  402a56:	bf00      	nop
  402a58:	400e0400 	.word	0x400e0400

00402a5c <pmc_enable_periph_clk>:
  402a5c:	2822      	cmp	r0, #34	; 0x22
  402a5e:	d819      	bhi.n	402a94 <pmc_enable_periph_clk+0x38>
  402a60:	281f      	cmp	r0, #31
  402a62:	4b0e      	ldr	r3, [pc, #56]	; (402a9c <pmc_enable_periph_clk+0x40>)
  402a64:	f04f 0201 	mov.w	r2, #1
  402a68:	d808      	bhi.n	402a7c <pmc_enable_periph_clk+0x20>
  402a6a:	6999      	ldr	r1, [r3, #24]
  402a6c:	fa02 f000 	lsl.w	r0, r2, r0
  402a70:	ea00 0201 	and.w	r2, r0, r1
  402a74:	4282      	cmp	r2, r0
  402a76:	d00f      	beq.n	402a98 <pmc_enable_periph_clk+0x3c>
  402a78:	6118      	str	r0, [r3, #16]
  402a7a:	e00d      	b.n	402a98 <pmc_enable_periph_clk+0x3c>
  402a7c:	f8d3 1108 	ldr.w	r1, [r3, #264]	; 0x108
  402a80:	3820      	subs	r0, #32
  402a82:	fa02 f000 	lsl.w	r0, r2, r0
  402a86:	ea00 0201 	and.w	r2, r0, r1
  402a8a:	4282      	cmp	r2, r0
  402a8c:	d004      	beq.n	402a98 <pmc_enable_periph_clk+0x3c>
  402a8e:	f8c3 0100 	str.w	r0, [r3, #256]	; 0x100
  402a92:	e001      	b.n	402a98 <pmc_enable_periph_clk+0x3c>
  402a94:	2001      	movs	r0, #1
  402a96:	4770      	bx	lr
  402a98:	2000      	movs	r0, #0
  402a9a:	4770      	bx	lr
  402a9c:	400e0400 	.word	0x400e0400

00402aa0 <pmc_disable_periph_clk>:
  402aa0:	2822      	cmp	r0, #34	; 0x22
  402aa2:	d817      	bhi.n	402ad4 <pmc_disable_periph_clk+0x34>
  402aa4:	281f      	cmp	r0, #31
  402aa6:	4b0d      	ldr	r3, [pc, #52]	; (402adc <pmc_disable_periph_clk+0x3c>)
  402aa8:	f04f 0101 	mov.w	r1, #1
  402aac:	d807      	bhi.n	402abe <pmc_disable_periph_clk+0x1e>
  402aae:	699a      	ldr	r2, [r3, #24]
  402ab0:	fa01 f000 	lsl.w	r0, r1, r0
  402ab4:	4002      	ands	r2, r0
  402ab6:	4282      	cmp	r2, r0
  402ab8:	d10e      	bne.n	402ad8 <pmc_disable_periph_clk+0x38>
  402aba:	615a      	str	r2, [r3, #20]
  402abc:	e00c      	b.n	402ad8 <pmc_disable_periph_clk+0x38>
  402abe:	f8d3 2108 	ldr.w	r2, [r3, #264]	; 0x108
  402ac2:	3820      	subs	r0, #32
  402ac4:	fa01 f000 	lsl.w	r0, r1, r0
  402ac8:	4002      	ands	r2, r0
  402aca:	4282      	cmp	r2, r0
  402acc:	d104      	bne.n	402ad8 <pmc_disable_periph_clk+0x38>
  402ace:	f8c3 2104 	str.w	r2, [r3, #260]	; 0x104
  402ad2:	e001      	b.n	402ad8 <pmc_disable_periph_clk+0x38>
  402ad4:	2001      	movs	r0, #1
  402ad6:	4770      	bx	lr
  402ad8:	2000      	movs	r0, #0
  402ada:	4770      	bx	lr
  402adc:	400e0400 	.word	0x400e0400

00402ae0 <pmc_switch_udpck_to_pllbck>:
  402ae0:	0200      	lsls	r0, r0, #8
  402ae2:	f400 6270 	and.w	r2, r0, #3840	; 0xf00
  402ae6:	4b02      	ldr	r3, [pc, #8]	; (402af0 <pmc_switch_udpck_to_pllbck+0x10>)
  402ae8:	f042 0201 	orr.w	r2, r2, #1
  402aec:	639a      	str	r2, [r3, #56]	; 0x38
  402aee:	4770      	bx	lr
  402af0:	400e0400 	.word	0x400e0400

00402af4 <pmc_enable_udpck>:
  402af4:	4b01      	ldr	r3, [pc, #4]	; (402afc <pmc_enable_udpck+0x8>)
  402af6:	2280      	movs	r2, #128	; 0x80
  402af8:	601a      	str	r2, [r3, #0]
  402afa:	4770      	bx	lr
  402afc:	400e0400 	.word	0x400e0400

00402b00 <pmc_set_fast_startup_input>:
  402b00:	4b03      	ldr	r3, [pc, #12]	; (402b10 <pmc_set_fast_startup_input+0x10>)
  402b02:	6f1a      	ldr	r2, [r3, #112]	; 0x70
  402b04:	f3c0 0012 	ubfx	r0, r0, #0, #19
  402b08:	4302      	orrs	r2, r0
  402b0a:	671a      	str	r2, [r3, #112]	; 0x70
  402b0c:	4770      	bx	lr
  402b0e:	bf00      	nop
  402b10:	400e0400 	.word	0x400e0400

00402b14 <pmc_is_wakeup_clocks_restored>:
  402b14:	4b02      	ldr	r3, [pc, #8]	; (402b20 <pmc_is_wakeup_clocks_restored+0xc>)
  402b16:	7818      	ldrb	r0, [r3, #0]
  402b18:	f080 0001 	eor.w	r0, r0, #1
  402b1c:	4770      	bx	lr
  402b1e:	bf00      	nop
  402b20:	20001480 	.word	0x20001480

00402b24 <Dummy_Handler>:
  402b24:	e7fe      	b.n	402b24 <Dummy_Handler>
	...

00402b28 <Reset_Handler>:
  402b28:	b538      	push	{r3, r4, r5, lr}
  402b2a:	4a18      	ldr	r2, [pc, #96]	; (402b8c <Reset_Handler+0x64>)
  402b2c:	4b18      	ldr	r3, [pc, #96]	; (402b90 <Reset_Handler+0x68>)
  402b2e:	429a      	cmp	r2, r3
  402b30:	4614      	mov	r4, r2
  402b32:	4619      	mov	r1, r3
  402b34:	d90b      	bls.n	402b4e <Reset_Handler+0x26>
  402b36:	2300      	movs	r3, #0
  402b38:	4a16      	ldr	r2, [pc, #88]	; (402b94 <Reset_Handler+0x6c>)
  402b3a:	18c8      	adds	r0, r1, r3
  402b3c:	4290      	cmp	r0, r2
  402b3e:	d203      	bcs.n	402b48 <Reset_Handler+0x20>
  402b40:	58e2      	ldr	r2, [r4, r3]
  402b42:	50ca      	str	r2, [r1, r3]
  402b44:	3304      	adds	r3, #4
  402b46:	e7f7      	b.n	402b38 <Reset_Handler+0x10>
  402b48:	bf00      	nop
  402b4a:	4b13      	ldr	r3, [pc, #76]	; (402b98 <Reset_Handler+0x70>)
  402b4c:	e00e      	b.n	402b6c <Reset_Handler+0x44>
  402b4e:	d2fb      	bcs.n	402b48 <Reset_Handler+0x20>
  402b50:	4810      	ldr	r0, [pc, #64]	; (402b94 <Reset_Handler+0x6c>)
  402b52:	3a04      	subs	r2, #4
  402b54:	1ac3      	subs	r3, r0, r3
  402b56:	18d1      	adds	r1, r2, r3
  402b58:	460b      	mov	r3, r1
  402b5a:	4293      	cmp	r3, r2
  402b5c:	f1c1 0400 	rsb	r4, r1, #0
  402b60:	d0f2      	beq.n	402b48 <Reset_Handler+0x20>
  402b62:	4404      	add	r4, r0
  402b64:	f853 5904 	ldr.w	r5, [r3], #-4
  402b68:	511d      	str	r5, [r3, r4]
  402b6a:	e7f6      	b.n	402b5a <Reset_Handler+0x32>
  402b6c:	4a0b      	ldr	r2, [pc, #44]	; (402b9c <Reset_Handler+0x74>)
  402b6e:	4293      	cmp	r3, r2
  402b70:	d203      	bcs.n	402b7a <Reset_Handler+0x52>
  402b72:	2200      	movs	r2, #0
  402b74:	f843 2b04 	str.w	r2, [r3], #4
  402b78:	e7f8      	b.n	402b6c <Reset_Handler+0x44>
  402b7a:	4b09      	ldr	r3, [pc, #36]	; (402ba0 <Reset_Handler+0x78>)
  402b7c:	4a09      	ldr	r2, [pc, #36]	; (402ba4 <Reset_Handler+0x7c>)
  402b7e:	609a      	str	r2, [r3, #8]
  402b80:	f000 f918 	bl	402db4 <__libc_init_array>
  402b84:	f000 f8b0 	bl	402ce8 <main>
  402b88:	e7fe      	b.n	402b88 <Reset_Handler+0x60>
  402b8a:	bf00      	nop
  402b8c:	00403168 	.word	0x00403168
  402b90:	20000000 	.word	0x20000000
  402b94:	20000578 	.word	0x20000578
  402b98:	20000578 	.word	0x20000578
  402b9c:	20001534 	.word	0x20001534
  402ba0:	e000ed00 	.word	0xe000ed00
  402ba4:	00400000 	.word	0x00400000

00402ba8 <SystemCoreClockUpdate>:
  402ba8:	b510      	push	{r4, lr}
  402baa:	4a2c      	ldr	r2, [pc, #176]	; (402c5c <SystemCoreClockUpdate+0xb4>)
  402bac:	6b13      	ldr	r3, [r2, #48]	; 0x30
  402bae:	f003 0303 	and.w	r3, r3, #3
  402bb2:	2b01      	cmp	r3, #1
  402bb4:	4b2a      	ldr	r3, [pc, #168]	; (402c60 <SystemCoreClockUpdate+0xb8>)
  402bb6:	d00d      	beq.n	402bd4 <SystemCoreClockUpdate+0x2c>
  402bb8:	d303      	bcc.n	402bc2 <SystemCoreClockUpdate+0x1a>
  402bba:	6a11      	ldr	r1, [r2, #32]
  402bbc:	01cc      	lsls	r4, r1, #7
  402bbe:	d51a      	bpl.n	402bf6 <SystemCoreClockUpdate+0x4e>
