S01B00004472756D546162626572436F6C6C6563746F722E737265637A
S2144000002841002089594000515A4000515A40002A
S214400010515A4000515A4000515A400000000000DA
S214400020000000000000000000000000515A4000A0
S214400030515A400000000000515A4000015E400006
S214400040515A4000515A4000515A4000515A4000BF
S214400050515A4000515A4000515A4000000000009A
S214400060515A4000515A400000000000415540009F
S2144000705955400071554000515A4000515A400071
S2144000800000000000000000515A4000515A400055
S214400090515A4000515A4000515A4000515A40006F
S2144000A0515A4000515A4000515A4000515A40005F
S2144000B0515A40001D434000515A4000515A40009A
S2144000C0515A4000515A40009D20400010B5054C02
S2144000D0237833B9044B13B10448AFF300800123AF
S2144000E0237010BD4C010020000000005C62400000
S2144000F008B5064B1BB106480649AFF300800648D4
S214400100036813B1054B03B1984708BD00000000D3
S2144001105C624000500100205C624000000000002D
S21440012080B483B000AFEFF310833B603B68002B96
S21440013014BF00230123DBB27B6072B6BFF35F8F30
S214400140044B00221A707B6818460C37BD465DF893
S214400150047B70474401002080B483B000AF7860D1
S2144001607B68002B0CBF00230123DBB218460C37FC
S214400170BD465DF8047B704780B582B000AF7860BE
S2144001807868074B98470346002B05D0054B01225D
S2144001901A70BFF35F8F62B60837BD4680BD00BF9A
S2144001A0590140004401002080B582B000AF0023D2
S2144001B0BB71444B00221A70BA79434B002123F896
S2144001C01210BA79414913469B0013445B000B4416
S2144001D0A1221A70BA793D4913469B0013445B002E
S2144001E00B4420225A70BA79384913469B00134470
S2144001F05B000B4400225A80BB79002B02D10023BF
S214400200FB7102E00023FB7100BFBA79FB7999B21B
S2144002102E4813469B0013445B0003440A469A80CC
S214400220BA792A4913469B0013445B000B440222CA
S214400230DA80BA79254913469B0013445B000B4489
S214400240083300221A80BA7921491346DB009B1AEC
S2144002500B4400221A70002262F03D025A700022BF
S21440026042F001029A700022DA70BA7918491346B1
S214400270DB009B1A0B4400221A71BA7914491346C4
S214400280DB009B1A0B4400225A71BA791049134678
S214400290DB009B1A0B4408229A71BB7918460D4B1B
S2144002A098470346002B01D1002307E0054B1B78F7
S2144002B0DBB20133DAB2034B1A7001231846083713
S2144002C0BD4680BD800100207001002074010020E2
S2144002D068010020D15F400080B582B000AF0023A7
S2144002E0FB712A4B00221A70FB79294A0021D1540F
S2144002F0FB79284A0021D154FB79274A0021D15462
S214400300FA79264B002123F82210FB79234A9B00DA
S214400310134400225A80FA79214B002123F8121008
S214400320FB7918461F4B9847FB791F4A0021D1544A
S214400330FB791E4A0021D154FA791D4B002123F83F
S2144003402210FA791B4B002123F81210FB7918462D
S214400350194B9847034683F00103DBB2002B01D0CC
S21440036000230FE0094B1B78DBB20133DAB2074BB0
S2144003701A70064B1B78DBB2012B02D10F4B0122C1
S2144003801A70012318460837BD4680BD81010020FB
S214400390A0060020A4060020980600209406002010
S2144003A09C060020C50740001004002008040020DA
S2144003B0040400200C040020810540008201002037
S2144003C080B400AF054B1B78DBB2013BDAB2034B7F
S2144003D01A70BD465DF8047B704700BF8001002060
S2144003E080B582B000AF0A4B1B78DBB2013BDAB275
S2144003F0074B1A70064B1B78FB71FB791846054B6A
S2144004009847054B00221A700837BD4680BD00BF8E
S21440041081010020F55F40008201002080B582B057
S21440042000AF324B98470346FB71314B1B78DBB22B
S2144004305BB2002B1CDA2E4B1B7803F06003202B9C
S21440044016D12B4B5B78212B12D1294BDB88072BFF
S21440045001D0002346E0FA791346DB009B1A254A72
S2144004601A44234B9A60224B07229A81012339E093
S2144004701F4B1B78DBB25BB2002B32DB1C4B1B786E
S21440048003F06003202B2CD1194B5B78202B02D035
S214400490222B16D025E0164BDB88072B01D00023F5
S2144004A020E0134B144A1A61FA791346DB009B1A74
S2144004B0104A1A440E4B9A600D4B07229A8101232C
S2144004C010E00B4B5B8803F00103002B0CBF0023AE
S2144004D00123DBB2FA7910461946084B98470123A8
S2144004E000E0002318460837BD4680BD3905400069
S2144004F0801000206801002069054000156040001B
S21440050080B400AF00231846BD465DF8047B7047B4
S21440051080B400AF00231846BD465DF8047B7047A4
S21440052080B500AF024B1B781846024B984780BDFB
S214400530A8060020C507400080B483B000AF094B32
S2144005409B88DBB2002B02D10023FB7102E0002324
S214400550FB7100BFFB7918460C37BD465DF8047B3F
S214400560704700BF8010002080B582B000AF034BBC
S21440057098470346FB710837BD4680BD39054000A5
S21440058090B589B002AF0346FB710023BB75334B71
S21440059098473861BB7D324AD35CFB73BB7D314A9A
S2144005A0D35CDBB2002B0DD1BA7D2F4B33F8123023
S2144005B09AB2B87DF97B2D4B4000014433F8113098
S2144005C09A4204D238692A4B9847002342E0BA7DC3
S2144005D0254B002123F81210BB7DFA7B002A14BF5E
S2144005E000220122D2B211461D4AD154BB7D1D4A7B
S2144005F00121D15438691E4B9847BB7D18461D4B88
S21440060098470346002B03D0BB7D18461A4B9847A5
S214400610BB7D002B02D10223FB7502E00223FB7553
S21440062000BFB97DFB7B1A4692001A4493011A46D6
S2144006300B469B000B44DB011A44104B1344FA7DD7
S2144006400F490091104601211A464FF4A0730D4CF5
S214400650A047034618461C37BD4690BD21014000C2
S21440066008040020100400200C040020040400208D
S21440067079014000110A40000940400084010020F2
S21440068089064000CD28400090B587B002AF39605B
S21440069013460246FA71BB71BB79022B02D1002386
S2144006A0FB7302E00023FB7300BFFB79002B00D0F6
S2144006B036E0FB7B1C4AD35CDBB2002B14BF002326
S2144006C00123DBB2BB733B68002B18D1F97BBB7BA5
S2144006D01A4692001A4493011A460B469B000B4456
S2144006E0DB011A44114B1344BA7911490091104664
S2144006F001211A464FF4A0730E4CA04710E0F87B39
S214400700BA7B3B6899B20C4B4000024423F8121067
S214400710FB7B0A4A0021D154FB7B1846084B98477E
S2144007201437BD4690BD00BF080400208401002059
S21440073089064000CD284000040400201004002014
S2144007408105400080B584B000AF3960134602464C
S214400750FA71BB71BB79812B02D10023FB7302E097
S2144007600023FB7300BFFB79002B00D01CE0F97B15
S214400770FB7B0F4AD35CDBB2002B14BF0023012364
S214400780DBB21A460B4B49000A44002123F81210EC
S214400790FB7B094A0021D154FB7B084A0021D154F7
S2144007A0FB7B1846064B98471037BD4680BD00BFBA
S2144007B09806002094060020A4060020A0060020EC
S2144007C0C507400090B589B002AF0346FB710023D1
S2144007D07B757B7D634AD35CDBB2002B00D0BDE0EB
S2144007E0614B98470346002B09D07A7D5F4B33F820
S2144007F012405F4B984703469C420AD1AEE07A7D52
S2144008005A4B33F812405B4B984703469C4200D104
S214400810A4E0594B984738617B7D584AD35CFB75BA
S214400820797DFA7D564B49000A4433F81230002B46
S2144008301FD1544B1B8801339AB2524B1A804A4BF5
S2144008409847034683F00103DBB2002B03D04D4BA1
S2144008501B88632B09D9444B98470346002B08D086
S214400860484B1B88B3F5487F03D23869464B9847B8
S21440087074E0444B00221A807B7D444AD35CDBB252
S21440088083F00103DBB2002B0AD07B7DFA7D002A81
S21440089014BF00220122D2B21146384AD15406E093
S2144008A0FB7D002B14BF00230123DBB2FB757B7D51
S2144008B02C4A0121D1543869334B9847797DFA7DCB
S2144008C02F4B49000A4433F81230B3F5A07F0CBFD3
S2144008D000230123FB73FB7B002B16D0224B98474B
S2144008E00346002B08D07C7D214B984703461A468A
S2144008F01E4B23F814200DE07C7D1E4B9847034684
S2144009001A461A4B23F8142004E07A7D174B002130
S21440091023F812107B7D002B02D18123BB7502E0A9
S2144009208123BB7500BF797DFB7D1A4692001A4431
S21440093093011A460B469B000B44DB011A44144BAA
S2144009401A44787DF97D0E4B4000014433F811304F
S214400950B87DF97B0F4C00940F4CA0471C37BD4622
S21440096090BD00BFA0060020652340009C060020E6
S2144009702924400009244000210140009806002018
S21440098094060020AA06002079014000A406002014
S2144009901404002045074000CD28400080B586B0AE
S2144009A000AF0346FB710023FB750F4B9847386139
S2144009B0FA7D0E4B33F81230FB81F97DFB7D0C4AF5
S2144009C0D35CDBB21A460B4B49000A4433F812306C
S2144009D01A46FB89D31ABB603869074B9847BB68F1
S2144009E018461837BD4680BD210140000C04002043
S2144009F008040020040400207901400080B500AFC0
S214400A000020024B98470346184680BD9D0940008B
S214400A1080B582B000AF0346FB71FB791846064BA3
S214400A2098470346002B0CBF00230123DBB2184631
S214400A300837BD4680BD00BF9D09400080B500AF69
S214400A400020024B98470346184680BD110A4000D6
S214400A5080B58AB000AF0346B9607A60FB73BB6866
S214400A607B620023FB77364B9847B861FA7F354B5D
S214400A7033F81230FB82FB7F334AD35C7B75B86910
S214400A80324B984700BFF97F7A7D314B49000A4484
S214400A9033F81230FA8A9A420AD32E4B1B78DBB2CE
S214400AA083F00103DBB2002B01D07B6844E0DAE739
S214400AB0F97F7A7D264B49000A4433F812301A46AD
S214400AC0FB8AD31A3B623A6A7B689A4201D97B68B2
S214400AD03B62F97F7B7DF88A1A4692001A4493015E
S214400AE01A460B469B000B44DB0113441A181A4B5C
S214400AF01344786A19463A6A184B9847FA7FF97F42
S214400B00104B33F8113099B23B6A9BB20B4499B202
S214400B100C4B23F812107A6A3B6A13447B627A685D
S214400B203B6AD31A7B60FB7F18460D4B98477B6821
S214400B30002B00D097E7002318462837BD4680BDD7
S214400B40210140000C0400200804002079014000E8
S214400B500404002082010020840100202961400016
S214400B608105400080B582B000AF786039600020D3
S214400B7079683A68034B9847034618460837BD4697
S214400B8080BD00BF510A400080B588B000AF034624
S214400B90FB710023FB76294B98477861FB7E284AF9
S214400BA0D35CFB74F97EFA7C264B49000A4433F842
S214400BB01230FB61F97EFB7C002B14BF002301231F
S214400BC0DBB21A461F4B49000A4433F81230FB602A
S214400BD0FB69B3F5A07F24D1FB7E1B4AD35CDBB216
S214400BE083F00103DBB2002B1BD0FB7E174AD35C9D
S214400BF0DBB283F00103DBB2002B12D0FB7E134A3C
S214400C000121D154FB7EFA7C002A14BF0022012227
S214400C10D2B211460A4AD1540023FB614FF4A07366
S214400C20FB60FB69C3F5A073BB607869084B9847C7
S214400C30BB6818462037BD4680BD00BF2101400036
S214400C409806002094060020A0060020A406002057
S214400C507901400080B582B000AF0346FB71FB7956
S214400C601846064B98470346002B0CBF002301232B
S214400C70DBB218460837BD4680BD00BF890B400032
S214400C8080B500AF0020024B98470346184680BD0B
S214400C90550C4000F0B587B000AF03463960FB7195
S214400CA00023BB75BA7D2D491346DB009B1A0B44C7
S214400CB09B79092B14BF00230123FB75BB7D184687
S214400CC0274B9847034683F00103DBB2002B0AD03C
S214400CD0244B1B78DBB283F00103DBB2002B01D040
S214400CE0002337E0EAE7204B98473861BB7D1F4A30
S214400CF0D35CFB73B97DFB7BBC7DF87B1C4A6500EF
S214400D00054432F81520551CAEB2194D64002044F7
S214400D10344625F8104014463A68D0B2154D1A4667
S214400D2092001A4493011A460B469B000B44DB0183
S214400D3013442B44234402461A7038690E4B984796
S214400D40FB7D002B05D00023FB753B681B123B60E8
S214400D50B4E7012318461C37BD46F0BD68010020A5
S214400D60550C4000820100202101400098060020DA
S214400D7094060020140400207901400080B582B01B
S214400D8000AF786000207968034B984703461846C2
S214400D900837BD4680BD00BF950C400080B58AB080
S214400DA000AF0346B9607A60FB73BB683B620023C2
S214400DB0FB77FA7F36491346DB009B1A0B449B7938
S214400DC0092B02D17B685B007B60FB7F1846314B6A
S214400DD09847034683F00103DBB2002B0AD02E4B24
S214400DE01B78DBB283F00103DBB2002B01D07B68BB
S214400DF04AE0EAE7294B9847B861FB7F284AD35C2C
S214400E00FB75F97FFA7D274B49000A4433F81230C8
S214400E10BB82BB8AC3F5A0737B627A6A7B689A42C0
S214400E2001D97B687B62F97FFB7DB88A1A469200BF
S214400E301A4493011A460B469B000B44DB011344AD
S214400E401A18194B13441846396A7A6A174B98474A
S214400E50F87FFA7D7B6A99B2BB8A0B4499B2114BF4
S214400E604000024423F81210B869114B98473A6A7A
S214400E707B6A13443B627A687B6AD31A7B607B68E2
S214400E80002B00D0A1E7002318462837BD4680BD7A
S214400E9068010020550C40008201002021014000DE
S214400EA09806002094060020140400202961400083
S214400EB07901400080B582B000AF7860396000208C
S214400EC079683A68034B9847034618460837BD4644
S214400ED080BD00BF9D0D400080B400AF064B1B6830
S214400EE01A68054B1B681B685B889BB21344184600
S214400EF0BD465DF8047B7047B806002080B584B0D8
S214400F0000AF78600B46FB70114B9847F8607B68E3
S214400F101B787A6813447B6010E07B685B78042B10
S214400F2000D10FE07B685B78FA789A4201D17B6803
S214400F3009E07B681B787A6813447B60FA687B68B4
S214400F409A42EAD8002318461037BD4680BD00BFF7
S214400F50D90E400080B584B000AF02460B46FA7109
S214400F60BB711E4B1B78002B01D1002332E01C4B7B
S214400F701B681B681B79FA799A4201D3002329E043
S214400F80174B1B681A68174B1A60174B9847F86040
S214400F901AE0144B1B685B78042B0DD1114B1B6871
S214400FA09B78FA799A4207D10E4B1B68DB78BA7960
S214400FB09A4201D101230DE00A4B1A68094B1B687F
S214400FC01B781A44074B1A60064B1B68FA689A420D
S214400FD0DFD8002318461037BD4680BDB406002033
S214400FE0B8060020BC060020D90E400080B584B06C
S214400FF000AF0346FB71FB79184600211E4B98470D
S214401000034683F00103DBB2002B01D000232FE020
S2144010101A4B1B685A68FB799B0013441B68BB60DD
S214401020BB68DB6898470346FA7910461946124B68
S2144010309847034683F00103DBB2002B01D0002320
S21440104016E00F4B1B68FB60F86805210D4B984770
S214401050F860FB68002B05D100BFBB685B6898470B
S214401060012305E0FB689B781846074B9847EBE75B
S21440107018461037BD4680BD550F4000B8060020C4
S214401080BC060020FD0E4000E125400080B584B03F
S21440109000AF02460B46FA71BB71FA79BB7910462F
S2144010A019461D4B9847034683F00103DBB2002BDD
S2144010B001D000232BE0194B1B68FB60F868052124
S2144010C0174B9847F860FB68002B0BD100BF154BB9
S2144010D01B685A68FB799B0013441B681B6898473B
S2144010E0034614E0FB689978FB68DA78FB689B88CF
S2144010F09BB2084611461A460B4B9847034683F068
S2144011000103DBB2002B01D0002300E0D6E71846EF
S2144011101037BD4680BD00BF550F4000BC060020BE
S214401120FD0E4000B80600206124400080B500AFA8
S214401130014B984780BD00BF7522400080B582B005
S21440114000AF0F4B1B78002B10D00023FB7106E03E
S214401150FB7918460B4B9847FB790133FB710A4BDA
S2144011601B681B681B79FA799A42F1D3044B00221C
S2144011701A70064B00221A800837BD4680BD00BF55
S214401180B4060020ED0F4000B8060020AC06002054
S21440119080B582B000AF134B1B78002B1FD00023C6
S2144011A0FB7115E0104B1B685A68FB799B00134493
S2144011B01B681B69002B08D00B4B1B685A68FB79D1
S2144011C09B0013441B681B699847FB790133FB71EE
S2144011D0054B1B681B681B79FA799A42E2D308379D
S2144011E0BD4680BDB4060020B806002080B500AFDE
S2144011F0064BDB88022B01D0002304E00448022182
S214401200044B98470123184680BD00BF801000203D
S214401210AC0600203924400080B500AF0B4BDB887D
S214401220022B01D000230EE0084B9B88DBB2184609
S214401230074B984703461A46064B1A800548022134
S214401240054B98470123184680BD00BF80100020FC
S2144012504D264000C00600203924400080B400AF30
S2144012600C4BDB88002B01D000230DE0094B5B883C
S214401270012B08D1084B1B8823F002039AB2064B79
S2144012801A80012300E000231846BD465DF8047B23
S214401290704700BF80100020AC06002080B500AF2D
S2144012A00A4BDB88002B01D000230CE0074B5B8801
S2144012B0002B07D1054B9B88DBB21846044B98475A
S2144012C0034600E00023184680BD00BF8010002083
S2144012D0B527400080B400AF094BDB88002B01D017
S2144012E0002307E0064B5B88012B02D000BF00239B
S2144012F000E000231846BD465DF8047B704700BFFB
S2144013008010002080B500AF0D4BDB88002B01D04D
S214401310002312E00A4B5B88002B0DD1084B9B88BC
S214401320DBB21846074B9847054B9B88DBB21846FE
S214401330054B9847034600E00023184680BD00BF93
S21440134080100020252A4000C126400080B500AF0E
S214401350044B5B88DBB203F07F03DBB21846024BDC
S214401360984780BD801000207523400080B400AFB1
S214401370074BDB88002B01D0002303E0044B054AD3
S2144013801A6101231846BD465DF8047B704700BFCE
S214401390801000204D13400080B584B000AF00237D
S2144013A0FB71214B5B88DBB2012B08D0022B0BD0A4
S2144013B0002B0ED11D4804211D4B98470BE00D23F2
S2144013C0FB711C4BBB6006E00A23FB711A4BBB60EB
S2144013D001E0002323E0FB79002B1FD00023FB73A2
S2144013E00BE0FB7BFA7BB9680A44127813495B0032
S2144013F00B445A80FB7B0133FB73FA7BFB799A42A2
S214401400EFD3FB790133DBB25B00DAB20B4B1A70D9
S2144014100A4B1B7809481946054B9847012318463E
S2144014201037BD4680BD00BF801000202800002039
S214401430392440002C0000203C00002048000020BA
S21440144080B582B000AF414B5B88FB713F4B5B88F9
S2144014501B0A9BB2DBB2013B0E2B66D801A252F8A8
S21440146023F000BFA1144000B514400015154000FD
S2144014702B1540002B1540002B1540002B15400027
S2144014802B1540002B1540002B1540002B15400017
S2144014902B1540002B1540002B154000F314400040
S2144014A02B4B1A682A4B1B681B7810461946294B4B
S2144014B098473CE0264B1B685B7CFA799A4201D3FE
S2144014C000233FE0224B5A68FB79DB0013441A683E
S2144014D01F4B5968FB79DB000B441B685B889BB24B
S2144014E0104619461B4B9847184B9B6802225A7069
S2144014F01DE0174B9B68002B01D1002322E0144BC4
S2144015009A68134B9B685B889BB210461946114BF2
S21440151098470CE0104B9847034683F00103DBB234
S214401520002B01D000230DE001E000230AE0074B2A
S214401530DA88064B9B899A4203D2044BDA88034BDF
S2144015409A81012318460837BD4680BD801000208A
S21440155038010020392440009913400080B500AF80
S214401560064BDB88012B01D0002304E00448012110
S214401570044B98470123184680BD00BF80100020CA
S214401580B40600203924400080B582B000AF274B17
S214401590DB88002B01D0002343E0254B98470346C9
S2144015A0002B01D100233CE0204B5B88DAB2214B74
S2144015B01B685B7C9A4201DD002332E01E4B984755
S2144015C01A4B5B88DAB21D4B1A701C4B1B78002BEB
S2144015D001D1012325E0174B5A68184B1B7803F1BD
S2144015E00053013BDB001A44154B1A600023FB7185
S2144015F00FE0FB7918460021124B9847034683F0CC
S2144016000103DBB2002B01D000230AE0FB79013353
S214401610FB710B4B1B681B681B79FA799A42E8D31F
S214401620012318460837BD4680BD00BF8010002005
S214401630D9234000380100203D114000B406002068
S214401640B80600208D10400080B582B000AF1E4B1B
S214401650DB88012B01D0002332E01C4B1B78002B8B
S21440166001D100232CE0184B9B88FB71184B1B685C
S2144016701B681B79FA799A4201D3002320E0FB7954
S21440168018460021134B9847034683F00103DBB20C
S214401690002B01D0002313E00D4B1B685A68FB79E2
S2144016A09B0013441B683B603B68DB6898470346D7
S2144016B01A46094B1A7008480121084B98470123DF
S2144016C018460837BD4680BD80100020B40600206E
S2144016D0B8060020550F4000B006002039244000D0
S2144016E080B582B000AF144BDB88002B01D00023BE
S2144016F01EE0124B1B78002B01D1002318E00E4B46
S2144017009B88FB710C4B5B88BB71FB7918460C4B76
S2144017109847034683F00103DBB2002B01D0002339
S21440172006E0FA79BB7910461946064B98470346B9
S21440173018460837BD4680BD80100020B4060020FD
S214401740ED0F40008D10400080B500AF4E4B1B782B
S214401750DBB25BB2002B3FDA4B4BDB88002B01D170
S21440176000238FE0484B1B7803F01F03002B14D157
S214401770454B5B78062B08D0082B0AD0002B00D0B0
S2144017800BE0424B984703467CE0414B9847034664
S21440179078E0404B9847034674E03B4B1B7803F099
S2144017A01F03012B08D1384B5B780A2B00D003E08F
S2144017B0394B9847034665E0334B1B7803F01F03CD
S2144017C0022B5ED1304B5B78002B01D000BF58E037
S2144017D0324B9847034655E02B4B1B7803F01F03CC
S2144017E0002B2AD1284B5B78013B082B24D801A23A
S2144017F052F823F0211840003918400029184000BC
S214401800391840001918400039184000391840006F
S2144018103918400031184000214B9847034631E0C4
S214401820204B984703462DE01F4B9847034629E038
S2144018301E4B9847034625E000BF134B1B7803F02A
S2144018401F03012B08D1104B5B780B2B00D003E015
S214401850174B9847034615E00B4B1B7803F01F03C6
S214401860022B0ED1084B5B78012B02D0032B04D001
S21440187007E0104B9847034604E00F4B9847034653
S21440188000E00023184680BD80100020ED11400087
S214401890411440005D1540004916400019124000B2
S2144018A06D1340005D124000D5124000891540007F
S2144018B0E11640009D1240000513400080B582B0FE
S2144018C000AF204B1B78002B01D1002335E01E4B88
S2144018D09B88FB711D4B1B681B681B79FA799A42E3
S2144018E001D3002329E0FB7918460021184B98477E
S2144018F0034683F00103DBB2002B01D000231CE03B
S214401900124B1B685A68FB799B0013441B683B606C
S2144019103B68DB6898470346FA79104619460C4BF5
S2144019209847034683F00103DBB2002B01D0002327
S21440193003E03B689B689847034618460837BD4611
S21440194080BD00BFB406002080100020B8060020EE
S214401950550F400080B582B000AF1E4B1B78002B61
S21440196001D1002331E01C4B9B88FB710023FB71A7
S21440197023E01A4B1B685A68FB799B0013441B688C
S2144019803B603B68DB6898470346FA791046194641
S214401990134B9847034683F00103DBB2002B01D07C
S2144019A0002312E03B689B6898470346002B01D013
S2144019B001230AE0FB790133FB71084B1B681B6867
S2144019C01B79FA799A42D4D3002318460837BD4685
S2144019D080BD00BFB406002080100020B80600205E
S2144019E0550F400080B500AF1F4B00229A811E4B1A
S2144019F000221A611C4B00225A611B4B1B78DBB23B
S214401A005BB2002B05DA184BDB88002B01D1002394
S214401A1027E0154B1B7803F06003002B06D1134BD1
S214401A2098470346002B01D001231AE00E4B1B7843
S214401A3003F01F03012B06D10D4B98470346002B9E
S214401A4001D001230DE0084B1B7803F01F03022B47
S214401A5006D1084B98470346002B01D0012300E0EF
S214401A600023184680BD00BF801000204917400064
S214401A70BD1840005519400080B483B000AF2B4BD2
S214401A803B600023FB7148E0FA79294913465B0026
S214401A901344DB000B4408333A681A60FA79244949
S214401AA013465B001344DB000B441968FA79204860
S214401AB013465B001344DB0003445B6803FB01F3FF
S214401AC03A6813443B60FA79194913465B0013445D
S214401AD0DB000B4408333A685A60FA79F9791448BF
S214401AE00B465B000B44DB0003445B68D9B21048EE
S214401AF013465B001344DB00034410330A461A7156
S214401B00FA790B4913465B001344DB000B44103351
S214401B1000221A60FB790133FB71FB79032BB3D9A2
S214401B200C37BD465DF8047B704700BFC4060020F6
S214401B306400002080B483B000AF78607B684FF4C8
S214401B4000425A600C37BD465DF8047B704700BFC4
S214401B5080B489B000AFF860B9607A607B68012BCA
S214401B6002DD7B68242B04DDBB6800221A70BB684C
S214401B703BE0BB68FB61BB68BB61FB687B61FA68A6
S214401B807B6892FBF3F3FB60FB695A1CFA61FA68C8
S214401B90796801FB02F279698A1A233216498A5C0F
S214401BA01A70FB68002BE8D17B69002B04DAFB69CE
S214401BB05A1CFA612D221A70FB695A1EFA610022DD
S214401BC01A700DE0FB691B78FB74FB695A1EFA61BC
S214401BD0BA6912781A70BB695A1CBA61FA7C1A70D4
S214401BE0BA69FB699A42EDD3BB6818462437BD46AE
S214401BF05DF8047B704700BF7061400080B582B0DE
S214401C0000AF786039603B68184679680A22034B13
S214401C109847034618460837BD4680BD511B4000CE
S214401C2080B487B000AFF860B9607A603B60FB680C
S214401C3001221A60FB6800225A60FB6840F20222CA
S214401C40C3F82021FB680022C3F80421FB68002269
S214401C50C3F814217B685B00BA68B2FBF3F3013B20
S214401C607B61FB685A687B691B0299B23B680B43F1
S214401C701A43FB685A60002318461C37BD465DF879
S214401C80047B704780B483B000AF786013460A4642
S214401C90FA70BB707B685A68F978BB78DB01DBB2B8
S214401CA00B431A437B685A600C37BD465DF8047B8D
S214401CB0704700BF80B483B000AF786013460A46D2
S214401CC0FA70BB707B685A68FB785B0103F02001B2
S214401CD0BB789B0103F040030B431A437B685A6072
S214401CE00C37BD465DF8047B704700BF80B485B0B6
S214401CF000AFF8607A600A46FA72BB72FB685A68B0
S214401D00BB7A1B0703F040517B681943FB7A1B06DE
S214401D1003F070630B431A43FB685A601437BD46A2
S214401D205DF8047B704700BF80B483B000AF786036
S214401D307B685B6823F400027B685A600C37BD46BC
S214401D405DF8047B704700BF80B483B000AF786016
S214401D500B46FB70FB78012202FA03F31A467B68B7
S214401D601A610C37BD465DF8047B704780B483B07B
S214401D7000AF78607B681B6A18460C37BD465DF836
S214401D80047B704780B483B000AF78607B681B6C80
S214401D9043F080727B681A640C37BD465DF8047B5E
S214401DA0704700BF80B483B000AF78607B685B68E4
S214401DB023F000427B685A600C37BD465DF8047BD2
S214401DC0704700BF80B485B000AF78600B46FB70AC
S214401DD07B68DB6CFB607B68DA6CFB786FF001013C
S214401DE001FA03F31A407B68DA647B68DA6CFB68B6
S214401DF01A437B68DA641437BD465DF8047B704747
S214401E0080B483B000AF786013460A46FA70BB7061
S214401E107B689A6CFB785B0003219940B878FB7826
S214401E205B0000FA03F30B401A437B689A640C3756
S214401E30BD465DF8047B704780B483B000AF7860E1
S214401E407B681B6843F008027B681A600C37BD4607
S214401E505DF8047B704700BF80B483B000AF786005
S214401E6039607B683A685A620C37BD465DF8047B39
S214401E70704700BF80B483B000AF78607B681B6B50
S214401E8018460C37BD465DF8047B704780B483B077
S214401E9000AF78607B68D3F8943043F010027B68DC
S214401EA0C3F894200C37BD465DF8047B704700BFEE
S214401EB080B483B000AF0346FB71084B97F9072008
S214401EC05209F97901F01F01012000FA01F143F8A7
S214401ED022100C37BD465DF8047B704700E100E0F9
S214401EE080B483B000AF03463960FB7197F9073082
S214401EF0002B0BDA0D49FB7903F00F03043B3A68DD
S214401F00D2B21201D2B20B441A7609E0084997F9C8
S214401F1007303A68D2B21201D2B20B4483F800239B
S214401F200C37BD465DF8047B704700BF00ED00E00F
S214401F3000E100E080B483B000AFEFF310833B6075
S214401F403B68002B14BF00230123DBB27B6072B6D4
S214401F50BFF35F8F044B00221A707B6818460C371D
S214401F60BD465DF8047B70474401002080B483B0D2
S214401F7000AF78607B68002B0CBF00230123DBB2E8
S214401F8018460C37BD465DF8047B704780B582B076
S214401F9000AF78607868074B98470346002B05D01B
S214401FA0054B01221A70BFF35F8F62B60837BD46F5
S214401FB080BD00BF6D1F40004401002080B584B046
S214401FC000AF0346FB71FB790A4AD35CFF2B00D176
S214401FD0FEE7094B9847F860FB79064AD25C013227
S214401FE0D1B2044AD154F868044B98471037BD46DE
S214401FF080BD00BF78100020351F40008D1F400078
S21440200080B584B000AF0346FB71FB790A4AD35CC7
S214402010002B00D1FEE7094B9847F860FB79064A4B
S214402020D25C013AD1B2044AD154F868044B98477E
S2144020301037BD4680BD00BF78100020351F4000D9
S2144020408D1F400080B582B000AF0346FB71FB7920
S21440205083F00103DBB2002B06D00D4B1B78002B20
S21440206002D002200B4B9847FB79002B09D0084B37
S2144020701B7883F00103DBB2002B02D00220064B14
S2144020809847034BFA791A700837BD4680BD00BFA3
S214402090A40F002001204000BD1F400080B500AFC7
S2144020A0644B9847034683F00103DBB2002B0CD009
S2144020B0614BDB6903F48073002B06D172B6BFF325
S2144020C05F8F5E4B00221A70B2E022205C4B98472E
S2144020D0594B9B6903F40063002B0ED0564BDB69CB
S2144020E003F40063002B08D0534B4FF400621A628F
S2144020F0544B9847544B984799E0544B984703465F
S214402100002B00D093E0524B98470346002B00D05C
S2144021108DE0494B9B6903F40053002B05D0464B9A
S214402120DB6903F40053002B17D1434B9B6903F440
S2144021300073002B05D0404BDB6903F40073002B83
S2144021400BD13D4B9B6903F48063002B1FD03A4B69
S214402150DB6903F48063002B19D0374B4FF41852D9
S2144021601A62354B4FF418525A610120394B984742
S214402170394B9847304B4FF480721A622E4B4FF4CF
S21440218080721A612C4B4FF400621A614FE02A4B62
S2144021909B6903F48073002B22D0274BDB6903F442
S2144021A08073002B1CD0244B4FF480721A62224B53
S2144021B04FF480725A61204B4FF400521A611E4B06
S2144021C04FF400721A611C4B4FF480621A61222051
S2144021D0224B984700201F4B9847214B984726E0B4
S2144021E0154BDB6903F48053002B20D0124B4FF481
S2144021F080521A621B4B98471B4B98470E4B0E4A11
S214402200526822F001025A600B4B0B4A526822F089
S21440221002025A60154B9847154B9847064B4FF4A9
S21440222080721A61044B4FF400621A6100BF00BF0F
S21440223080BD00BF59594000004003404401002083
S214402240E557400091114000A15F400069344000CE
S214402250493B400045204000915F4000695840009F
S214402260815F4000BD3540003D114000312C4000AC
S214402270E12C400080B582B000AF114B98477860A3
S2144022802220104B9847104B9847222005210F4B91
S214402290984722200E4B98470E4B98474FF4802085
S2144022A00D4B98470D4B00221A7000200C4B984758
S2144022B00C4B984778680C4B98470837BD4680BD0E
S2144022C0351F4000E5574000914A4000E11E40005F
S2144022D0B11E4000153540002D594000A40F002087
S2144022E0BD1F4000ED2240008D1F400080B582B0EB
S2144022F000AF174B984778600120164B984722202E
S214402300154B9847154B154A526F22F480725A6700
S214402310124B124A526F42F400725A670F4B4FF4F8
S21440232080721A610D4B4FF400521A610B4B4FF4FA
S21440233000721A61094B4FF480621A61074B4FF4E2
S21440234000621A617868064B98470837BD4680BDDC
S214402350351F400045204000E55740000040034000
S2144023608D1F400080B400AF00231846BD465DF880
S214402370047B704780B483B000AF0346FB71154BB7
S214402380144A526822F001025A60124B114A92686F
S21440239022F480729A60FB79002B15D00D4B0D4AC3
S2144023A0926822F07F01FA7902F07F020A439A602F
S2144023B0084B084A926842F480729A60054B054A78
S2144023C0526842F001025A600C37BD465DF8047B05
S2144023D0704700BF0040034080B400AF094B5B68C5
S2144023E003F00103002B06D0064B9B68DBB203F0DC
S2144023F07F03DBB200E000231846BD465DF8047B51
S214402400704700BF0040034080B400AF054B1B68D8
S2144024109BB2C3F30A039BB21846BD465DF8047BE5
S214402420704700BF0040034080B400AF002318460A
S214402430BD465DF8047B704780B483B000AF7860DB
S2144024400B467B80054B7A689A60044B7A889A8163
S2144024500C37BD465DF8047B704700BF80100020F7
S21440246080B487B000AF13460246FA710A46BA7186
S214402470BB80FB7903F08003002B0CBF00230123B5
S214402480FB75BB7903F00303012B14BF0023012324
S214402490BB75FB7903F00F03FB71FB79032B01D966
S2144024A0002392E04C4BFA790C3253F8223003F476
S2144024B00043002B01D0002387E0BB7D002B07D0D4
S2144024C0FB79002B02D0FB79032B01D100237CE063
S2144024D0BA88FB79042B02D0FB79052B02D14FF446
S2144024E0007300E040239A4201DD00236DE0FB7953
S2144024F05A1E13469B0013449B00384A13443B61C4
S214402500BB88C3F3090399B23A69138A61F3090396
S21440251013823A69537C6FF3C71353743A69537CFA
S2144025206FF345135374FB7D002B04D03A69537CFC
S2144025306FF383035374284B274A916AFA79012034
S21440254000FA02F20A439A62234B234A916AFA79C6
S214402550012000FA02F2D2430A409A621E4BFA79F0
S2144025600C3253F82230FB60FB6843F04F03FB60AD
S214402570FB6823F4074323F08003FB60FB7D002BBE
S21440258009D0BB7943F00403DBB21B0203F4E063DB
S21440259043F4004305E0BB791B0203F4E06343F4D5
S2144025A00043FA681343FB600B4BFA79F9680C3228
S2144025B043F822100023BB6003E000BFBB68013332
S2144025C0BB60BB68132BF8D9012318461C37BD46A1
S2144025D05DF8047B704700BF00400340AC0F00200E
S2144025E080B586B000AF0346FB71FB7903F00F035E
S2144025F0FB75FB7D032B00D921E0124BFA7D0C3294
S21440260053F822303B613B6943F04F033B613B69E3
S21440261023F400433B610B4BFA7D39690C3243F897
S21440262022100023FB6003E000BFFB680133FB6021
S214402630FB68132BF8D9FB791846034B9847183795
S214402640BD4680BD004003400136400080B485B0A2
S21440265000AF0346FB71FB7903F00F03FB73FB7B74
S2144026605A1E13469B0013449B00134A1344BB60F8
S214402670FB7B032B01D9002317E0BB685B7CC3F3CD
S2144026804013DBB2002B0AD10C4BFA7902F00F0252
S2144026900C3253F8223003F02803002B01D00123DC
S2144026A000E0002303F00103DBB218461437BD46B2
S2144026B05DF8047B704700BFAC0F0020004003402D
S2144026C080B588B000AF0346FB71FB7903F080030A
S2144026D0002B0CBF00230123FB77FB7903F00F038D
S2144026E0BB77BB7F5A1E13469B0013449B002D4A64
S2144026F01344BB61BB7F032B01D900234DE02A4B1B
S21440270098477861FB7F002B1FD0284BBA7F0C324E
S21440271053F8223003F01003002B06D1BB695B7CD4
S214402720C3F38103DBB2012B0FDDBA69537C43F060
S214402730200353741D4BBA7F012101FA02F21A613D
S21440274078691B4B9847012327E0184BBA7F0C3219
S21440275053F822303B613B6943F04F033B613B6992
S21440276043F020033B61114BBA7F39690C3243F882
S21440277022100023FB6003E000BFFB680133FB60D0
S214402780FB68132BF8D9094BBA7F012101FA02F2F4
S2144027901A617869064B9847012318462037BD468C
S2144027A080BD00BFAC0F0020351F400000400340F6
S2144027B08D1F400080B588B000AF0346FB71FB79A3
S2144027C003F00F03FB71FB79032B01D9002375E05F
S2144027D0FB795A1E13469B0013449B00394A134408
S2144027E0FB61FA69537C6FF345135374364BFA79A1
S2144027F00C3253F8223003F02003002B5DD0324BCE
S214402800FA790C3253F82230BB61BB6943F04F0370
S214402810BB61BB6923F02003BB612B4BFA79B969D6
S2144028200C3243F8221000237B6103E000BF7B6933
S21440283001337B617B69132BF8D9234B224A916A7B
S214402840FA79012000FA02F20A439A621E4B1E4AA7
S214402850916AFA79012000FA02F2D2430A409A625B
S214402860194BFA790C3253F822303B613B6943F0FE
S2144028704F033B613B6923F008033B61124BFA79F7
S21440288039690C3243F822100023FB6003E000BF96
S214402890FB680133FB60FB68132BF8D9FB695B7C54
S2144028A0C3F30013DBB2012B07D1FA69537C6FF3F5
S2144028B004135374FB691B68984701231846203756
S2144028C0BD4680BDAC0F00200040034080B588B0B8
S2144028D000AFBA607B600346FB730B46BB73FB7B63
S2144028E003F08003002B0CBF00230123FB77FB7B08
S2144028F003F00F03FB73FB7B032B01D9002383E01C
S214402900FB7B5A1E13469B0013449B00404A1344CD
S214402910BB61404BFA7B0C3253F8223003F4004341
S214402920002B0FD0BB695B7CC3F34013DBB2002B9C
S21440293008D1384BFA7B0C3253F8223003F0200390
S214402940002B01D000235FE0334B98477861BB698A
S2144029505B7CC3F30013DBB2012B04D178692F4BA9
S2144029609847002350E0BA69537C43F010035374F1
S21440297078692A4B9847BB69BA685A60BB697A68D7
S2144029809A60BB690022DA60BB69BA6A1A60BB7B90
S214402990002B02D17B68002B01D1012300E00023ED
S2144029A0DBB203F00103D9B2BA69537C61F38613F4
S2144029B05374BA69537C6FF3C7135374164B9847D6
S2144029C07861144BFA7B012101FA02F21A61FB7F0F
S2144029D0002B15D00F4BFA7B0C3253F8223003F005
S2144029E01103002B0CD1FB7B184601210C4B98475A
S2144029F00346002B04D0FB7B18460021084B984723
S214402A007869064B9847012318462037BD4680BD57
S214402A10AC0F002000400340351F40008D1F400093
S214402A203539400080B58CB000AF0346FB71FB796A
S214402A3003F08003002B0CBF0023012387F82F30C0
S214402A40FB7903F00F03FB71FB79032B00D9DFE022
S214402A50714B9847B862714BFA79012101FA02F23C
S214402A605A61B86A6E4B984797F82F30002B00F0A3
S214402A70AA806A4BFA790C3253F8223003F01003DE
S214402A80002B73D0FB79002B52D0FB79032B4FD011
S214402A90624BFA790C3253F822307B627B6A43F001
S214402AA04F037B627B6A23F010037B625B4BFA79B1
S214402AB0796A0C3243F8221000233B6203E000BFE1
S214402AC03B6A01333B623B6A132BF8D900BF534B3A
S214402AD0FA790C3253F8223003F01003002BF6D16B
S214402AE04E4BFA790C3253F82230FB61FB6943F0C7
S214402AF04F03FB61FB6943F01003FB61474BFA79D8
S214402B00F9690C3243F822100023BB6103E000BF92
S214402B10BB690133BB61BB69132BF8D900BF3F4B80
S214402B20FA790C3253F8223003F01003002BF6D01B
S214402B303A4BFA790C3253F822307B617B6943F08A
S214402B404F037B617B6923F010037B61334BFA793B
S214402B5079690C3243F8221000233B6103E000BF42
S214402B603B6901333B613B69132BF8D92B4BFA7910
S214402B700C3253F82230FB60FB6843F04F03FB6097
S214402B80FB6823F00103FB60244BFA79F9680C32AA
S214402B9043F822100023BB6003E000BFBB6801334C
S214402BA0BB60BB68132BF8D9FB795A1E1D491346E8
S214402BB09B0013449B000B4403F1100253786FF3C1
S214402BC0830353700DE003E0FB791846164B984795
S214402BD0124BFA790C3253F8223003F04203002BA2
S214402BE0F2D10E4B0D4A916AFA79012000FA02F2B0
S214402BF00A439A62094B094A916AFA79012000FA17
S214402C0002F2D2430A409A62FB791846074B98472D
S214402C103037BD4680BD00BF351F400000400340F2
S214402C208D1F4000AC0F0020AD36400001364000FE
S214402C3080B586B000AF274B264A926842F4807231
S214402C409A60244B234A926822F07F029A60214B76
S214402C501B6B3B613B6943F04F033B613B6923F48D
S214402C60074323F080033B613B6943F400433B61E9
S214402C70184B3A691A630023FB6003E000BFFB6809
S214402C800133FB60FB68132BF8D9124B1B6BBB6000
S214402C90BB6843F04F03BB60BB6843F40043BB6074
S214402CA00C4BBA681A6300237B6003E000BF7B6866
S214402CB001337B607B68132BF8D9074B98477861C4
S214402CC0044B01221A617869044B98471837BD4671
S214402CD080BD00BF00400340351F40008D1F4000B0
S214402CE080B400AF074B00221A61064B00225A619F
S214402CF0044B00229A81044B00221A70BD465DF8B0
S214402D00047B704780100020A50F002080B58CB053
S214402D1000AF6D4B1B78002B03D06C4B98476C4B29
S214402D2098476C4B1A6B6C4B13401B0C082B1AD0F5
S214402D30684B1B6BBB62BB6A43F04F03BB62BB6A0C
S214402D4023F00403BB62634BBA6A1A6300237B62B8
S214402D5003E000BF7B6A01337B627B6A132BF8D9A2
S214402D605E4B9847ADE0002387F82F300CE097F88D
S214402D702F205B4B1344574A126DD2B21A7097F805
S214402D802F30013387F82F3097F82F30072BEED9A6
S214402D90534B5A88524B5A80514B9A88504B9A8084
S214402DA04F4BDA884E4BDA804E4B9847034683F0BB
S214402DB00103DBB2002B1AD0464B1B6B3B623B6ACF
S214402DC043F04F033B623B6A23F004033B62414BB4
S214402DD03A6A1A630023FB6103E000BFFB690133D4
S214402DE0FB61FB69132BF8D93C4B984769E03C4B99
S214402DF01B78DBB25BB2002B3BDA364B1B6BBB61FE
S214402E00BB6943F04F03BB61BB6943F08003BB61C2
S214402E10304BBA691A6300237B6103E000BF7B69CD
S214402E2001337B617B69132BF8D92A4B1B6B3B61C3
S214402E303B6943F04F033B613B6923F004033B612E
S214402E40244B3A691A630023FB6003E000BFFB682B
S214402E500133FB60FB68132BF8D9234B00221A8002
S214402E60224B00221A80184B02221A70204B984799
S214402E7027E0184B1B6BBB60BB6843F04F03BB603F
S214402E80BB6823F00403BB60124BBA681A63002386
S214402E907B6003E000BF7B6801337B607B68132B5D
S214402EA0F8D90F4BDB88002B02D1124B984708E02D
S214402EB00D4B00221A800D4B00221A80024B012235
S214402EC01A703037BD4680BDA50F002051344000F3
S214402ED0E12C4000004003400000FF0799334000CB
S214402EE080100020E5194000A60F0020A80F002003
S214402EF0F92E4000E933400080B58EB000AF7B4BE2
S214402F001B78032B1CD17A4B1B6BBB62BB6A43F00E
S214402F104F03BB62BB6A23F00103BB62744BBA6AC1
S214402F201A6300237B6203E000BF7B6A01337B6247
S214402F307B6A132BF8D96F4B98476F4B9847D1E075
S214402F406E4B9A896E4B1B88D31AFB86FB8E002BE2
S214402F503FD16C4B1A886A4B1B8813449AB2694B14
S214402F601A80664BDA88674B1B889A4203D0664BBA
S214402F701B78002B1AD0654B98475D4B1B6B3B620A
S214402F803B6A43F04F033B623B6A23F001033B62DC
S214402F90574B3A6A1A630023FB6103E000BFFB69A4
S214402FA00133FB61FB69132BF8D99BE0534B5B69FC
S214402FB0002B0ED0514B5B699847034683F00103C4
S214402FC0DBB2002B05D14E4B00221A804B4B9B891F
S214402FD0FB86FB8E3F2B05D94023FB864A4B0022BF
S214402FE01A7002E0484B01221A70444B9A68444BD0
S214402FF01B8813443B63464B9847F8623C4B1B6B1D
S21440300003F00203002B1ED0F86A424B9847374B1A
S21440301004221A70364B1B6BBB61BB6943F04F03EF
S214403020BB61BB6923F00103BB61314BBA691A63CC
S21440303000237B6103E000BF7B6901337B617B69D2
S214403040132BF8D94EE0002387F835300AE0284A9B
S2144030503B6B591C39631B78136597F83530013341
S21440306087F8353097F835309BB2FA8E9A42EED8CC
S214403070234B1A88FB8E13449AB2214B1A801C4B62
S2144030801B6B3B613B6943F04F033B613B6943F03D
S21440309010033B61164B3A691A630023FB6003E05A
S2144030A000BFFB680133FB60FB68132BF8D9104B5D
S2144030B01B6BBB60BB6843F04F03BB60BB6823F031
S2144030C00103BB600A4BBA681A6300237B6003E0C7
S2144030D000BF7B6801337B607B68132BF8D9F86AA6
S2144030E00C4B98473837BD4680BD00BFA50F002023
S2144030F00040034051344000E12C40008010002046
S214403100A80F0020A60F0020E80F0020393440000A
S214403110351F40008D1F400080B58EB000AF8F4BEE
S2144031201B78012B27D08D4B1B78022B03D08B4B63
S2144031301B78042B02D18A4B984701E0894B98476D
S214403140894B1B6BFB62FB6A43F04F03FB62FB6AD7
S21440315023F00203FB62844BFA6A1A630023BB62C5
S21440316003E000BFBB6A0133BB62BB6A132BF8D9CE
S2144031707E4B98470DE17C4B1A6B7D4B13401B0CE6
S214403180BB867C4B9B891A467B4B1B881946BB8E5D
S2144031900B449A4205DA774B9A89774B1B88D31AA9
S2144031A0BB86744B9A68744B1B8813443B6300235E
S2144031B087F837300BE03B6B5A1C3A636A4A126D0D
S2144031C0D2B21A7097F83730013387F8373097F80D
S2144031D037309BB2BA8E9A42EDD8674B1A88BB8E70
S2144031E013449AB2644B1A80BB8E402B0AD1614B73
S2144031F0DB881A46614B1B8819465F4B1B880B447D
S2144032009A4246DC5C4B1A885A4B9A81594B5B690A
S214403210002B23D0574B5B699847034683F0010346
S214403220DBB2002B1AD04F4B98474F4B1B6B7B6241
S2144032307B6A43F04F037B627B6A23F002037B6228
S214403240494B7A6A1A6300233B6203E000BF3B6A3D
S21440325001333B623B6A132BF8D99AE0424B1B6B17
S214403260FB61FB6943F04F03FB61FB6923F00203FC
S214403270FB613D4BFA691A630023BB6103E000BF64
S214403280BB690133BB61BB69132BF8D93C4B9847EC
S2144032907FE0384B9A89384B1B889A424DD1354B44
S2144032A05B69002B1AD12F4B98472F4B1B6B7B61CA
S2144032B07B6943F04F037B617B6923F002037B61AC
S2144032C0294B7A691A6300233B6103E000BF3B69E0
S2144032D001333B613B69132BF8D95AE0254B5B69B8
S2144032E09847034683F00103DBB2002B1AD01D4BF0
S2144032F098471D4B1B6BFB60FB6843F04F03FB601E
S214403300FB6823F00203FB60174BFA681A6300233E
S214403310BB6003E000BFBB680133BB60BB68132BD8
S214403320F8D936E0154B1A88134B1B8813449AB2CB
S214403330124B1A80104B00221A800B4B1B6B7B6083
S2144033407B6843F04F037B607B6823F002037B601F
S214403350054B7A681A6300233B6017E0A50F0020F0
S214403360513440009933400000400340E12C400077
S2144033700000FF0780100020A80F0020A60F0020A6
S214403380E933400000BF3B6801333B603B68132B8A
S214403390F8D93837BD4680BD80B483B000AF104BF7
S2144033A005221A700F4B1B6B7B607B6843F04F0304
S2144033B07B607B6843F020037B600A4B7A681A6325
S2144033C000233B6003E000BF3B6801333B603B6843
S2144033D0132BF8D90C37BD465DF8047B704700BF09
S2144033E0A50F00200040034080B483B000AF104BD0
S2144033F003221A700F4B1B6B7B607B6843F04F03B6
S2144034007B607B6843F010037B600A4B7A681A63E4
S21440341000233B6003E000BF3B6801333B603B68F2
S214403420132BF8D90C37BD465DF8047B704700BFB8
S214403430A50F00200040034080B400AF034B042299
S2144034401A70BD465DF8047B704700BFA50F00208C
S21440345080B500AF034B1B69002B02D0014B1B69A4
S214403460984780BD8010002080B582B000AF254BC5
S214403470DB6903F00103002B01D100233EE0214B22
S2144034801B6B03F00403002B03D01F4B984701230C
S21440349034E01C4B1B6B03F00103002B03D01B4B8B
S2144034A0984701232AE0174B1B6B03F00203002BBF
S2144034B003D0174B9847012320E0124B1B6B03F0B9
S2144034C00803002B19D00F4B1B6B7B607B6843F0C7
S2144034D04F037B607B6823F008037B60094B7A6868
S2144034E01A6300233B6003E000BF3B6801333B6048
S2144034F03B68132BF8D9012300E000231846083711
S214403500BD4680BD004003400D2D4000F92E4000D2
S2144035101931400080B483B000AF0023FB7143E014
S214403520FA79254913469B0013449B000B4403F14C
S214403530100253786FF383035370FA791E4913468B
S2144035409B0013449B000B4403F1100253786FF327
S21440355004135370FA79184913469B0013449B0092
S2144035600B4403F1100253786FF345135370FA7906
S214403570114913469B0013449B000B4403F1100271
S21440358053786FF386135370FA790B4913469B00B2
S21440359013449B000B4403F1100253786FF3C71398
S2144035A05370FB790133FB71FB79022BB8D90C378A
S2144035B0BD465DF8047B7047AC0F002080B582B0F6
S2144035C000AF0023FB7111E0FA7913469B001344C9
S2144035D09B00094A1A44FB790133DBB210460121AD
S2144035E01A46064B9847FB790133FB71FB79022B51
S2144035F0EAD90837BD4680BDAC0F00203D364000B6
S21440360080B582B000AF0346FB71FB7903F00F0331
S214403610FB71FB795A1E13469B0013449B00054AD8
S2144036201A44FB79104601211A46034B984708373F
S214403630BD4680BDAC0F00203D36400080B584B00E
S21440364000AFF860B9601346FB71FB685B7CC3F360
S2144036500013DBB2002B00D123E0FA68537C6FF3F3
S21440366004135374FB681B68002B00D119E00E4B03
S214403670FA790C3253F8223003F48063002B03D0DF
S214403680FB7963F07F03FB71FB681B68BA68012A0D
S21440369014BF00220122D2B21046FA689168FA7925
S2144036A098471037BD4680BD0040034080B489B07F
S2144036B000AF0346FB71FB795A1E13469B0013442A
S2144036C09B003D4A1344FB613C4BFA790C3253F85D
S2144036D0223003F04203422B14D0384BFA790C3296
S2144036E053F8223003F00203002B05D0FA69537CCE
S2144036F06FF38303537405E0FA69537C012161F349
S21440370083035374FB695B7CC3F38103DBB2002BFA
S2144037102AD12A4BFA790C3253F82230BB61BB6966
S21440372043F04F03BB61BB6923F00203BB61234BED
S214403730FA79B9690C3243F8221000237B6103E022
S21440374000BF7B6901337B617B69132BF8D9FB791A
S214403750002B2CD0FB79032B29D0FA69537C01210E
S21440376061F38303537422E0144BFA790C3253F816
S21440377022303B613B6943F04F033B613B6923F09A
S21440378040033B610D4BFA7939690C3243F82210FD
S2144037900023FB6003E000BFFB680133FB60FB686F
S2144037A0132BF8D9FA69537C6FF383035374243789
S2144037B0BD465DF8047B7047AC0F002000400340D8
S2144037C080B489B000AF0346FB71FB795A1E13469E
S2144037D09B0013449B00554A13443B613B695A681F
S2144037E03B69DB681344FB613B699A683B69DB686D
S2144037F0D31AFB603B691B8AC3F309039BB2BB61C8
S2144038000023FB75FA68BB699A4203D2FB68BB612A
S2144038100123FB753B69DA68BB691A443B69DA6089
S2144038205AE0434AF879FB69591CF9611B781946F6
S21440383000F1140342F823103D4AF879FB69591CFD
S214403840F9611B78194600F1140342F82310384AF0
S214403850F879FB69591CF9611B78194600F1140385
S21440386042F82310324AF879FB69591CF9611B78F3
S214403870194600F1140342F823102D4AF879FB69E3
S214403880591CF9611B78194600F1140342F82310BD
S214403890274AF879FB69591CF9611B78194600F1EB
S2144038A0140342F82310224AF879FB69591CF9613F
S2144038B01B78194600F1140342F823101C4AF87985
S2144038C0FB69591CF9611B78194600F1140342F84C
S2144038D02310BB69083BBB61BB69072BA1D80DE031
S2144038E0134AF879FB69591CF9611B78194600F1AF
S2144038F0140342F82310BB69013BBB61BB69002B34
S214403900EED13B695B7CC3F38103DBB2013303F04A
S2144039100303D9B23A69537C61F383035374FB7D46
S21440392018462437BD465DF8047B7047AC0F002030
S2144039300040034080B586B000AF02460B46FA71A1
S214403940BB71FB795A1E13469B0013449B00364AB4
S21440395013447B617B695B7CC3F38103DBB21A460D
S214403960FB79002B02D0FB79032B01D1012300E029
S21440397002239A4201DB012352E07B69DA687B69C5
S2144039809B689A4208D37B695B7CC3F38013DBB2A7
S214403990002B01D1002343E0FB791846234B984780
S2144039A00346FB74BB79002B1DD0214BFA790C32B1
S2144039B053F82230FB60FB6843F04F03FB60FB6824
S2144039C043F01003FB601A4BFA79F9680C3243F85F
S2144039D022100023BB6003E000BFBB680133BB601E
S2144039E0BB68132BF8D9FB7C002B04D07A69537C38
S2144039F06FF3861353747B69DA687B699B689A42D7
S214403A000DD37B695B7CC3F38013DBB2002B06D1FE
S214403A107A69537C43F080035374002300E001230B
S214403A2018461837BD4680BDAC0F0020C137400051
S214403A300040034080B58AB000AF0346FB71FB7977
S214403A405A1E13469B0013449B003A4A13447B611C
S214403A5000237B627B699A687B69DB68D31A3B618B
S214403A607B691B8AC3F309039BB2FB607B695A6878
S214403A707B69DB681344FB610023FB762E4BFA79A7
S214403A800C3253F822202D4B13401B0C7B627A6A73
S214403A90FB689A422CBF00230123FB727B6A002BF3
S214403AA021D07A6A3B699A4203D33B697B62012301
S214403AB0FB767B69DA687B6A1A447B69DA600023A6
S214403AC03B620CE0FB695A1CFA611B4AF9791431D7
S214403AD052F82120D2B21A703B6A01333B623A6AEE
S214403AE07B6A9A42EED3FB791846154B9847FB7E85
S214403AF0002B02D1FB7A002B18D00F4BFA790C32F0
S214403B0053F8223003F02003002B0FD10A4BFA79EA
S214403B10012101FA02F25A617B69DA687B699A6090
S214403B20FB79786900211A46064B98472837BD46E8
S214403B3080BD00BFAC0F0020004003400000FF07E0
S214403B40AD3640003D36400080B598B000AF01230A
S214403B5087F85F3047E2AC4B9A6997F85F300121AF
S214403B6001FA03F31340002B00D137E297F85F3099
S214403B705A1E13469B0013449B00A44A1344BB653D
S214403B80A14B97F85F200C3253F8223003F04203E3
S214403B90002B06D097F85F3018469D4B9847012378
S214403BA027E2994B97F85F200C3253F8223003F007
S214403BB00103002B00F0D581BB6D5B7CC3F3810312
S214403BC0DBB2033303F00303D9B2BA6D537C61F31F
S214403BD083035374BB6D5B7CC3F34013DBB2002B93
S214403BE000F08F80BB6D5B7CC3F38103DBB2002BA0
S214403BF040D0854B97F85F200C3253F822303B6517
S214403C003B6D43F04F033B653B6D43F010033B6514
S214403C107D4B97F85F20396D0C3243F82210002315
S214403C20FB6403E000BFFB6C0133FB64FB6C132BAF
S214403C30F8D9754B97F85F200C3253F82230BB64A6
S214403C40BB6C43F04F03BB64BB6C23F00103BB6407
S214403C506D4B97F85F20B96C0C3243F82210002366
S214403C607B6403E000BF7B6C01337B647B6C132B6F
S214403C70F8D944E0644B97F85F200C3253F8223072
S214403C803B643B6C43F04F033B643B6C23F00103C7
S214403C903B645D4B97F85F20396C0C3243F822103A
S214403CA00023FB6303E000BFFB6B0133FB63FB6B4E
S214403CB0132BF8D9544B97F85F200C3253F8223028
S214403CC0BB63BB6B43F04F03BB63BB6B43F020034C
S214403CD0BB634D4B97F85F20B96B0C3243F822100C
S214403CE000237B6303E000BF7B6B01337B637B6B0E
S214403CF0132BF8D9BA6D537C6FF3451353740123D5
S214403D0077E1BB6D5B7CC3F3C013DBB2002B0FD0F7
S214403D10BA6D537C6FF3C7135374BB6DDA68BB6DD3
S214403D209A6097F85F30B86D00211A46394B98472D
S214403D30BB6DDA68BB6D9B689A423CD3BB6D5B7CBF
S214403D40C3F38013DBB2002B35D1BB6D5B7CC3F372
S214403D508103DBB2002B2ED12F4B984778652A4B38
S214403D6097F85F20012101FA02F25A61786D2B4BD9
S214403D709847254B97F85F200C3253F822303B6328
S214403D803B6B43F04F033B633B6B23F001033B63CA
S214403D901D4B97F85F20396B0C3243F822100023F6
S214403DA0FB6203E000BFFB6A0133FB62FB6A132B36
S214403DB0F8D901231DE197F85F30002B5ED097F8C5
S214403DC05F30032B5AD0BB6D5B7CC3F38103DBB201
S214403DD0002B53DD0C4B97F85F200C3253F8223003
S214403DE0BB62BB6A43F04F03BB62BB6A43F010033F
S214403DF0BB62054B97F85F20B96A0C3243F8221035
S214403E0000237B6210E000BF00400340AC0F002060
S214403E10353A40003D364000351F40008D1F40007B
S214403E2000BF7B6A01337B627B6A132BF8D9734BE6
S214403E3097F85F200C3253F822303B623B6A43F0DF
S214403E404F033B623B6A23F001033B626B4B97F8A0
S214403E505F20396A0C3243F822100023FB6103E0EE
S214403E6000BFFB690133FB61FB69132BF8D997F858
S214403E705F3018460021624B984770E097F85F30F5
S214403E80002B46D097F85F30032B42D097F85F3030
S214403E90184601215A4B9847034683F00103DBB28C
S214403EA0002B0FD0BA6D537C6FF3C7135374BB6DA2
S214403EB0DA68BB6D9A6097F85F30B86D00211A4695
S214403EC0504B98474D4B97F85F200C3253F82230B2
S214403ED0BB61BB6943F04F03BB61BB6923F0010381
S214403EE0BB61464B97F85F20B9690C3243F8221005
S214403EF000237B6103E000BF7B6901337B617B6904
S214403F00132BF8D997F85F30184600213C4B98475A
S214403F1025E097F85F3018460121394B9847374BD4
S214403F2097F85F200C3253F822303B613B6943F0F0
S214403F304F033B613B6923F001033B612F4B97F8EE
S214403F405F2039690C3243F822100023FB6003E0FF
S214403F5000BFFB680133FB60FB68132BF8D90123D5
S214403F6047E0264B97F85F200C3253F8223003F098
S214403F700803002B32D0214B97F85F200C3253F8C1
S214403F802230BB60BB6843F04F03BB60BB6823F086
S214403F900803BB60194B97F85F20B9680C3243F8AA
S214403FA0221000237B6003E000BF7B6801337B6008
S214403FB07B68132BF8D9114B97F85F200C3253F8D7
S214403FC0223003F4E063B3F5807F05D00B4B97F8BF
S214403FD05F200C3253F8223001230AE097F85F3016
S214403FE0013387F85F3097F85F30032B7FF6B3AD29
S214403FF0002318466037BD4680BD00BF00400340E2
S214404000353940003D36400080B596B000AF034697
S214404010FB71284B98470346002B47D007F10C020C
S2144040204023104600211A46234B9847234B984777
S21440403003467B657B6D07F10C0210461946204B04
S214404040984703463B6512E01C4B98470346FB6483
S21440405007F10C027B6D1A44FB6C10461946184B50
S214404060984703463B657A6DFB6C13447B653B6D16
S214404070002BE9D11348002140220F4B98477B6D17
S21440408007F10C020F4811461A460F4B98470F4B44
S21440409001221A700E4B7A6D1A600E4B98470346F3
S2144040A0002B03D00C4808210C4B98475837BD4688
S2144040B080BD00BF3D0A40003B614000FD09400016
S2144040C0650B40009810002029614000F00F00204A
S2144040D0EC0F0020810C4000B8614000B50E400057
S2144040E080B584B000AF78600D4B98470346002BF0
S2144040F00FD078680B4B98470346FB60FB687868A0
S2144041001946094B98470D20084B9847FB680133E2
S21440411001E04FF0FF3318461037BD4680BD00BF64
S214404120810C40005F614000B50E40007D0D4000B0
S21440413080B582B000AF78600A4B98470346002BA4
S21440414009D07868084B9847034678681946074B65
S2144041509847034601E04FF0FF3318460837BD4600
S21440416080BD00BF810C40005F614000B50E40003E
S21440417080B400AF034B1B781846BD465DF8047B01
S214404180704700BFF00F002080B582B000AF786067
S21440419039603B68786800211A460B4B98470B4BB2
S2144041A01A683B689A42B8BF1346786808491A4668
S2144041B0084B9847084B00221A70044B1B68184659
S2144041C00837BD4680BD00BF3B614000EC0F002075
S2144041D09810002029614000F00F002080B483B082
S2144041E000AF0346FB71084B97F907205209F9794F
S2144041F001F01F01012000FA01F143F822100C37AC
S214404200BD465DF8047B704700E100E080B483B0B3
S21440421000AF78607B68072B25D801A252F823F0C0
S21440422041424000474240004D4240005342400019
S214404230574240005B4240005F42400063424000BD
S2144042404FF4FA4310E04FF400430DE04FF40043C0
S2144042500AE0084B08E0084B06E0084B04E0074B32
S21440426002E0064B00E0002318460C37BD465DF8DA
S214404270047B704700093D0000127A00001BB7001F
S21440428080B500AF0620054B9847024613469B0074
S21440429013449B005B08184680BD00BF0D4240009B
S2144042A080B500AF024B98470346184680BD00BF16
S2144042B08142400080B485B000AFF860B9607A6053
S2144042C0FB68D3F80431002B12D1FB68D3F81431C5
S2144042D0002B0DD1BA68FB68C3F80021FB687A68EA
S2144042E0C3F80421FB680122C3F8202101230FE014
S2144042F0FB68D3F81431002B09D1BA68FB68C3F8C1
S2144043001021FB687A68C3F81421012300E00023DB
S21440431018461437BD465DF8047B704780B584B0B8
S21440432000AF444B1B78DBB2002B40D04248434B97
S2144043309847034603F08053002B77D0404B032228
S214404340DA80404B1B789A003F4B13443A48194654
S21440435002223E4B98470023FB6017E0394B1B7800
S2144043601A46384B1B781946374B4800F9680144C3
S21440437033F81130C3F30B0399B2334B5000FA684D
S214404380024423F81210FB680133FB60FB68012BE4
S214404390E4D92C4B1B780133DAB22A4B1A70294BDE
S2144043A01B78202B42D92A4B01221A703EE0224B22
S2144043B01B6B03F08073002B38D01F48254B984763
S2144043C0B8600023FB602EE0BB6803F470431B0B11
S2144043D0FB711B4AFB6813441B78FA799A420DD14D
S2144043E0184B1B781A46BB689BB2C3F30B0399B2B3
S2144043F0154B5000FA68024423F81210104B5B78B5
S214404400FA799A420CD10F4B1B780133DAB20D4B36
S2144044101A700C4B1B78202B02D90D4B01221A70B8
S214404420FB680133FB60FB68012BCDD91037BD46D6
S21440443080BD00BFF10F002000800340751E400085
S21440444018110020F20F002098100020B5424000BE
S214404450F30F00206D1D400090B585B000AF0346B9
S214404460FB714A4BFA791A70494B00221A701D208C
S214404470484B9847484B9847034648481946484A49
S2144044804FF48023474CA047474800210822474B1B
S2144044909847424801214FF440120123444CA0471C
S2144044A03E48444B98473D48434B98470023FB6063
S2144044B012E0424AFB6813441B7838481946404B82
S2144044C098473E4AFB6813441A783749FB680B44C2
S2144044D01A70FB680133FB60FB68042BE9DD2F484C
S2144044E0384B98472D48384B98470023BB6013E01D
S2144044F0324ABB6813441B78284819460022334B7F
S21440450098472E4ABB6813441B7824481946304BBC
S2144045109847BB680133BB60BB68042BE8DD2D4B76
S2144045201B78DBB2002B0CD01C482B4B98471B4803
S2144045302A4B9847034603F40003002B00D000E0C4
S214404540F5E7164800210022254B98470F4B1B786D
S214404550DBB2002B0AD0114822490222224B984750
S2144045600E484FF08051214B984704E00B484FF0DF
S21440457080711E4B98471D201D4B984707480021C9
S21440458000221C4B98471437BD4690BDF10F0020C3
S214404590F20F0020E5574000A14240000080034053
S2144045A080841E00211C4000181100203B61400002
S2144045B0ED1C4000851D4000A51D4000C8000020A1
S2144045C0491D40008D1E4000291D4000011E400030
S2144045D0C51D4000C4000020391E4000751E400026
S2144045E0B51C40001A110020B5424000591E40003C
S2144045F0DD414000851C400080B483B000AF0346D8
S214404600FB71084B97F907205209F97901F01F0111
S214404610012000FA01F143F822100C37BD465DF840
S214404620047B704700E100E080B483B000AF786060
S21440463039607B680B2B05D13B68202B02D1044B9D
S21440464001221A700C37BD465DF8047B704700BFE8
S214404650F40F002090B583B002AF0B200F4B984765
S2144046600F4820210A220F4B98470F4B00930C48C7
S2144046700B21202279230D4CA0470B200C4B98474A
S214404680074820210B4B98474A200B4B9847512010
S2144046900A4B98470437BD4690BD00BFE5574000DB
S2144046A0000E0E40B14D400029464000D95440000F
S2144046B0F9454000455040002D4D4000D54C400047
S2144046C080B500AF4A20034B98475120014B98478E
S2144046D080BD00BFD54C400080B500AF4A20014B9E
S2144046E0984780BD2D4D400080B582B000AF034650
S2144046F0FB715120024B98470837BD4680BD00BF2E
S2144047002D4D400080B582B000AF0346FB7151206E
S214404710024B98470837BD4680BD00BFD54C400089
S21440472080B582B000AF0346FB80FB88002B02D1E9
S2144047304A20064B9847FB88B3F57A7F02D14A2039
S214404740034B98470837BD4680BD00BF2D4D4000FF
S214404750D54C400080B582B000AF0346FB71FB7974
S214404760002B06D04A20074B98475120054B9847C8
S21440477005E04A20044B98475120034B984708379A
S214404780BD4680BD2D4D4000D54C400080B483B022
S21440479000AF064B1B78FB71044B00221A70FB7966
S2144047A018460C37BD465DF8047B7047F40F002072
S2144047B080B582B000AF78607B68072B30D801A206
S2144047C052F823F021484000E5474000ED474000BE
S2144047D0F5474000FD474000054840000D48400072
S2144047E0174840000020104B984719E001200E4B18
S2144047F0984715E000200D4B984711E010200B4BD2
S21440480098470DE02020094B984709E000203E21BC
S214404810074B984704E001203E21054B984700BFD0
S2144048200837BD4680BD00BF0D5640007956400053
S214404830E956400080B582B000AF78607B68072BB1
S21440484026D801A252F823F0694840006D4840003F
S2144048506D4840007F4840007F4840007F48400009
S2144048607F4840007F484000012312E00B4B9847AA
S2144048700346002B0CBF00230123DBB209E0084BA4
S21440488098470346002B0CBF00230123DBB200E011
S214404890002318460837BD4680BD00BF4556400039
S2144048A06157400080B483B000AF78607B68072BC8
S2144048B025D801A252F823F0D9484000DF484000EE
S2144048C0E5484000EB484000EF484000F3484000D1
S2144048D0F7484000FB4840004FF4FA4310E04FF4DE
S2144048E000430DE04FF400430AE0084B08E0084B55
S2144048F006E0084B04E0074B02E0064B00E00023CE
S21440490018460C37BD465DF8047B704700093D00ED
S21440491000127A00001BB70080B582B000AF034695
S214404920FB7100BFFB791846054B9847034683F05A
S2144049300103DBB2002BF5D10837BD4680BD00BF72
S2144049403548400080B586B000AFF8607A603B607E
S2144049500B46FB72FB7A18460D4B984702467B681F
S214404960B2FBF3F37B617B693A6802FB03F37B613E
S2144049703B68013B1A04074B13407A68D2B2134394
S21440498043F47C52FB681A601837BD4680BD00BFB2
S214404990A54840000000FF0780B582B000AF7860B1
S2144049A039603B68002B08D1084B9847084B7A681B
S2144049B0126842F000529A6205E0064B9847044B54
S2144049C07A681268DA620837BD4680BD7D57400077
S2144049D000040E40B157400080B582B000AF78600A
S2144049E07B68002B03D1054B9847034602E0044BF7
S2144049F09847034618460837BD4680BD9557400041
S214404A00C957400080B582B000AF0346FB71FB79C2
S214404A10033B042B08D8FB791846054B9847FB798F
S214404A201846044B984700E000BF0837BD4680BD97
S214404A30B14740001949400080B582B000AF786069
S214404A4000BF7868044B98470346002BF9D00023F4
S214404A5018460837BD4680BDD949400080B500AFEE
S214404A600620054B9847024613469B0013449B007E
S214404A705B08184680BD00BFA548400080B500AF23
S214404A80024B98470346184680BD00BF5D4A40002B
S214404A9090B583B000AF06200C4B98473B4618466F
S214404AA00621022210230A4CA0473B461846012105
S214404AB0084B98470120084B98470120074B9847DA
S214404AC0074B984700BF0C37BD4690BD054A40008F
S214404AD04549400099494000394A4000ED58400059
S214404AE01559400090B583B000AF1148114B984718
S214404AF00620114B98473B1D1846062102221423D8
S214404B000E4CA0473B1D184600210D4B98470020F1
S214404B100C4B984700200C4B98470C4B98470C4B37
S214404B20984703461846034B98470C37BD4690BDFA
S214404B30000E2707F55B4000054A40004549400007
S214404B4099494000394A400089554000595A40002A
S214404B507D4A400080B582B000AF78607868024BEE
S214404B6098470837BD4680BDE557400080B500AF42
S214404B700B20044B98470C20024B98470D20014BC6
S214404B80984780BD554B400080B500AF494B4FF429
S214404B9000425A60484B98474A204FF06051474B76
S214404BA0984751204FF06051444B98470520444960
S214404BB0424B984743484FF4C0614FF00062424B27
S214404BC098474E2041493D4B98474B203F493B4BE9
S214404BD0984748203D49394B984740203B49374BFA
S214404BE0984741203949354B984742203749334BFF
S214404BF0984743203549314B9847442033492F4BFB
S214404C009847452031492D4B984746202F492B4BF6
S214404C10984747202D49294B984752202B49274BE8
S214404C20984753202949254B984754202749234BDA
S214404C30984755202549214B9847562023491F4BD6
S214404C409847572021491D4B984758201F491B4BD2
S214404C50984759201D49194B98475A201B49174BCE
S214404C6098475B201949154B98475C201749134BCA
S214404C7098475D201549114B98475E2013490F4BC6
S214404C8098475F2011490D4B9847122010490B4B0F
S214404C90984713200E49094B984714200C49074B58
S214404CA0984700200A49054B984701200849034B7E
S214404CB0984780BD50140E406D4B4000095140004F
S214404CC079000028000E0E40BD524000010000084A
S214404CD00100001880B584B000AF78600023FB6008
S214404CE017E00F4BFA6853F832207B689A420DD192
S214404CF00B4AFB68DB0013445B68012B03D17868E2
S214404D00084B984702E07868074B9847FB680133A2
S214404D10FB60FB68012BE4D91037BD4680BD00BF61
S214404D20CC614000DD504000B150400080B584B0BA
S214404D3000AF78600023FB6017E00F4BFA6853F82B
S214404D4032207B689A420DD10B4AFB68DB00134445
S214404D505B68012B03D17868084B984702E0786877
S214404D60074B9847FB680133FB60FB68012BE4D98F
S214404D701037BD4680BD00BFCC614000B1504000FA
S214404D80DD50400080B485B000AFF860B9607A600E
S214404D907B68002B03D0FB68BA685A6602E0FB6863
S214404DA0BA681A661437BD465DF8047B704700BF84
S214404DB080B485B000AFF860B9607A60FB68BA68C6
S214404DC0C3F884207B685B004FF40042B2FBF3F3E9
S214404DD0013BC3F30D02FB68C3F88C201437BD4675
S214404DE05DF8047B704700BF80B487B000AFF860C2
S214404DF0B9607A60FB687A685A64BB68B3F1C05F92
S214404E004AD0B3F1C05F08D8B3F1006F16D0B3F103
S214404E10805F2CD0002B69D064E0B3F1205F65D072
S214404E20B3F1205F03D8B3F1005F4AD05AE0B3F144
S214404E30405F5BD0B3F1605F58D053E0FB681B6FB8
S214404E407B61FB681A6F7B68D9437B690B401A40CD
S214404E50FB681A67FB685B6F7B61FB685A6F7B6811
S214404E60D9437B690B401A40FB685A673AE0FB68B7
S214404E701B6F7B617A687B691A43FB681A67FB681D
S214404E805B6F7B61FB685A6F7B68D9437B690B40DD
S214404E901A40FB685A6725E0FB681B6F7B61FB681E
S214404EA01A6F7B68D9437B690B401A40FB681A67C8
S214404EB0FB685B6F7B617A687B691A43FB685A675D
S214404EC010E0FB681B6F7B617A687B691A43FB685E
S214404ED01A67FB685B6F7B617A687B691A43FB687D
S214404EE05A6700BFFB687A685A6000E000BF1C370C
S214404EF0BD465DF8047B704780B584B000AFF8606F
S214404F00B9607A60F868B968184B98477B6803F0D0
S214404F100103F868B9681A46154B98477B6803F052
S214404F200A03002B03D0FB68BA681A6202E0FB68EB
S214404F30BA685A627B6803F00203002B04D0FB6811
S214404F40BA68C3F8802008E07B6803F00803002BAB
S214404F5003D0FB68BA68C3F88420FB68BA685A6115
S214404F60FB68BA681A601037BD4680BD6550400081
S214404F70854D400080B584B000AFF860B9607A6077
S214404F803B60F868B968124B9847F868B968BA69E0
S214404F90104B98473B68002B03D0FB68BA681A65ED
S214404FA002E0FB68BA685A657B68002B03D0FB6852
S214404FB0BA681A6302E0FB68BA685A63FB68BA6864
S214404FC01A61FB68BA681A601037BD4680BD00BFDC
S214404FD065504000854D400080B485B000AFF86015
S214404FE0B9607A607B6803F01003002B20D0FB6822
S214404FF0BA68C3F8B0207B6803F02003002B04D0C7
S214405000FB68BA68C3F8D42003E0FB68BA68C3F804
S214405010D0207B6803F04003002B04D0FB68BA68BE
S214405020C3F8C02008E0FB68BA68C3F8C42003E0B1
S214405030FB68BA68C3F8B4201437BD465DF8047BF5
S214405040704700BF80B483B000AF786039607B683B
S214405050DB6C7B683A681A640C37BD465DF8047BA7
S214405060704700BF80B483B000AF786039607B681B
S2144050703A685A640C37BD465DF8047B704700BFFB
S21440508080B483B000AF78607B68DB6C18460C3722
S214405090BD465DF8047B704780B483B000AF78604F
S2144050A07B689B6C18460C37BD465DF8047B7047A2
S2144050B080B584B000AF78607868074B9847F86052
S2144050C07B6803F01F03012202FA03F31A46FB68CB
S2144050D01A631037BD4680BDE553400080B584B0A6
S2144050E000AF78607868074B9847F8607B6803F0B5
S2144050F01F03012202FA03F31A46FB685A6310376D
S214405100BD4680BDE553400090B587B002AF78609D
S21440511039607868644B9847F8603B6803F0F04322
S214405120B3F1005F6BD0B3F1005F09D8B3F1805F95
S2144051302DD0B3F1C05F46D0B3F1006F0BD0ACE0DA
S214405140B3F1405F00F08380B3F1605F7FD0B3F18E
S214405150205F70D0A1E07B6803F01F03012202FAB3
S21440516003F3F8684FF000611A46504B98477B6847
S21440517003F01F03012202FA03F31A463B6803F0CA
S2144051800103F86811461A46494B984787E07B6802
S21440519003F01F03012202FA03F3F8684FF0805130
S2144051A01A46424B98477B6803F01F03012202FAD7
S2144051B003F31A463B6803F00103F86811461A46A3
S2144051C03B4B98476BE07B6803F01F03012202FAD3
S2144051D003F3F8684FF0C0511A46344B98477B6843
S2144051E003F01F03012202FA03F31A463B6803F05A
S2144051F00103F86811461A462D4B98474FE07B68E6
S21440520003F01F03012202FA03F3F8684FF000513F
S2144052101A46264B98477B6803F01F03012202FA82
S21440522003F31A463B6803F00103F86811461A4632
S2144052301F4B984733E07B6803F01F03012202FAB6
S21440524003F3F86819463A681A4B984727E07B6894
S21440525003F01F03012202FA03F319463B6803F0EA
S2144052606053B3F1605F14BF00230123DBB21A46DC
S2144052703B6803F00403002B0CBF00230123DBB282
S214405280386800F0010000280CBF00200120C0B2A2
S2144052900090F868084CA04701E0002300E0012396
S2144052A018461437BD4690BDE5534000E94D4000D2
S2144052B0854D4000F94E4000754F400090B587B090
S2144052C002AFF860B9607A607B6803F0F043B3F1F0
S2144052D0005F43D0B3F1005F09D8B3F1805F1FD0C1
S2144052E0B3F1C05F2BD0B3F1006F0AD06BE0B3F1DF
S2144052F0405F48D0B3F1605F45D0B3F1205F3CD00B
S21440530061E0F8684FF00061BA68324B98477B68B6
S21440531003F00103F868B9681A462F4B984754E0E3
S214405320F8684FF08051BA682A4B98477B6803F07C
S2144053300103F868B9681A46274B984745E0F8686D
S2144053404FF0C051BA68234B98477B6803F001037F
S214405350F868B9681A46204B984736E0F8684FF028
S2144053600051BA681B4B98477B6803F00103F86806
S214405370B9681A46184B984727E0F868B9687A68BB
S214405380164B984721E07B6803F06053B3F1605FAB
S21440539014BF00230123DBB21A467B6803F00403E4
S2144053A0002B0CBF00230123DBB2796801F001011A
S2144053B000290CBF00210121C9B20091F868B968E4
S2144053C0074CA04701E0002300E0012318461437AD
S2144053D0BD4690BDE94D4000854D4000F94E400029
S2144053E0754F400080B485B000AF78607B685B093D
S2144053F003F5001303F207735B02FB60FB68184675
S2144054001437BD465DF8047B704700BF80B584B056
S21440541000AF7860396078682A4B9847F8607868BB
S214405420294B98470346FA681340FB60FB68002BFD
S21440543039D00023BB6033E0244ABB681B011344C9
S2144054401A683B689A4224D1204ABB681B01134421
S2144054505A68FB681340002B1BD01C4ABB681B01D4
S214405460134408335B681949BA6812010A44116844
S2144054701648BA68120102445268084611469847D0
S214405480124ABB681B0113445B68DB43FA6813404F
S214405490FB60BB680133BB60BB68062B00D902E0EB
S2144054A0FB68002BC8D10A4B1B68002B07D0094B62
S2144054B01B68002B03D0074B1B687868984710374B
S2144054C0BD4680BD8150400099504000F80F0020F6
S2144054D0201100206C10002080B586B000AFF86028
S2144054E0B9607A603B60134B1B68062B01D90123D9
S2144054F01CE0104B1B681A010F4B13447B617B6901
S214405500BA681A607B697A685A607B693A689A60BA
S2144055107B693A6ADA60074B1B685A1C054B1A606F
S214405520F86879683A68054B984700231846183754
S214405530BD4680BD68100020F80F0020D94F4000BF
S21440554080B500AF02480B21024B984780BD00BF94
S214405550000E0E400D54400080B500AF02480C21AE
S214405560024B984780BD00BF00100E400D544000CF
S21440557080B500AF02480D21024B984780BD00BF62
S21440558000120E400D54400080B485B000AF7860E5
S2144055901D4B1D4A126B22F070017A680A431A634B
S2144055A04FF40063FB6007E0FB68002B01D101234A
S2144055B023E0FB68013BFB60134B9B6E03F0080344
S2144055C0002BF1D0104B104A126B22F0030242F02F
S2144055D002021A634FF40063FB6007E0FB68002B8F
S2144055E001D1012309E0FB68013BFB60064B9B6E43
S2144055F003F00803002BF1D0002318461437BD46AD
S2144056005DF8047B704700BF00040E4080B483B052
S21440561000AF78607B68012B07D1084A074B9B6830
S21440562043F0254343F480139360044B044A1A60C6
S2144056300C37BD465DF8047B704700BF10140E4023
S214405640080000A580B400AF094B5B6903F08003F7
S214405650002B07D0074B9B6E03F08003002B01D036
S214405660012300E000231846BD465DF8047B7047E2
S21440567010140E4000040E4080B483B000AF786033
S214405680184A184B1B6A43F45C1343F00803136232
S21440569000BF144B9B6E03F40033002BF9D0114A25
S2144056A0104B1B6A23F45C1323F0700379680B439A
S2144056B043F45C13136200BF0A4B9B6E03F4003343
S2144056C0002BF9D0074A074B1B6A23F09B7323F441
S2144056D0803343F45C1313620C37BD465DF8047B9D
S2144056E0704700BF00040E4080B483B000AF7860BF
S2144056F039607B68002B08D01649164B1B6A164A41
S2144057001A40164B13430B621EE0124A114B1B6A9B
S21440571023F45C1323F003033968090289B20B4370
S21440572043F45C1343F00103136200BF094B9B6EC6
S21440573003F00103002BF9D0064A064B1B6A43F0E0
S2144057409B7343F4803313620C37BD465DF8047B8D
S214405750704700BF00040E40FCFFC8FE0200370141
S21440576080B400AF044B9B6E03F480331846BD46AE
S2144057705DF8047B704700BF00040E4080B400AF65
S214405780034B4FF000529A62BD465DF8047B70476B
S21440579000040E4080B400AF044B9B6E03F002033F
S2144057A01846BD465DF8047B704700BF00040E40B7
S2144057B080B400AF034B0022DA62BD465DF8047B3E
S2144057C0704700BF00040E4080B400AF044B9B6E91
S2144057D003F004031846BD465DF8047B704700BFDF
S2144057E000040E4080B483B000AF78607B68222B04
S2144057F001D901232FE07B681F2B13D8194B9A69D8
S2144058007B68012101FA03F31A407B68012101FA03
S21440581003F39A421ED0134B7A68012101FA02F232
S2144058201A6117E07B68203B7B600E4BD3F808215B
S2144058307B68012101FA03F31A407B68012101FAD3
S21440584003F39A4206D0074B7A68012101FA02F226
S214405850C3F80021002318460C37BD465DF8047B8C
S214405860704700BF00040E4080B483B000AF78603D
S2144058707B68222B01D901232FE07B681F2B13D88E
S214405880194B9A697B68012101FA03F31A407B6839
S214405890012101FA03F39A421ED1134B7A68012183
S2144058A001FA02F25A6117E07B68203B7B600E4BA0
S2144058B0D3F808217B68012101FA03F31A407B687C
S2144058C0012101FA03F39A4206D1074B7A68012177
S2144058D001FA02F2C3F80421002318460C37BD46ED
S2144058E05DF8047B704700BF00040E4080B483B070
S2144058F000AF7860064B7A68120202F4706242F09B
S21440590001029A630C37BD465DF8047B704700BFC2
S21440591000040E4080B400AF034B80221A60BD46A0
S2144059205DF8047B704700BF00040E4080B483B02F
S21440593000AF78607B68C3F312037B60054B054A73
S214405940116F7A680A431A670C37BD465DF8047BC8
S214405950704700BF00040E4080B400AF094B1B7870
S214405960DBB2002B0CBF00230123DBB283F0010324
S214405970DBB203F00103DBB21846BD465DF8047B9C
S214405980704700BF7010002080B584B000AF274B32
S214405990FB60274BBB60FA68BB689A420DD907E0AC
S2144059A0BB681A1DBA60FA68111DF96012681A6061
S2144059B0BA68204B9A42F3D320E0FA68BB689A4212
S2144059C01CD21C4A1A4BD31A7B60FA687B68134475
S2144059D0043BFB60BA687B681344043BBB600AE048
S2144059E0BB681A1FBA60FA68111FF96012681A601D
S2144059F07B68043B7B607B68002BF1D100BF0E4B7D
S214405A00BB6004E0BB681A1DBA6000221A60BA6820
S214405A100A4B9A42F6D30A4BFB600A4BFA689A60E6
S214405A20094B9847094B9847FEE700BF5C62400029
S214405A30000000204C0100204C01002024110020D2
S214405A400000400000ED00E0DD6040001D5E4000CC
S214405A5080B400AFFEE700BF80B400AF5D4B1B6B69
S214405A6003F00303032B00F2968001A151F823F0C4
S214405A70815A4000A15A4000EB5A4000EB5A400081
S214405A80554B5B6903F08003002B04D0534B4FF417
S214405A9000421A6080E0514B4FF4FA421A607BE0B5
S214405AA04C4B1B6A03F08073002B03D04B4B4C4A85
S214405AB01A6019E0494B4B4A1A60464B1B6A03F082
S214405AC07003102B08D0202B0AD0002B00D00BE000
S214405AD0424B444A1A6007E0404B434A1A6003E090
S214405AE03E4B3F4A1A6000BF56E03A4B1B6A03F0F3
S214405AF08073002B03D0394B394A1A6019E0374B74
S214405B00384A1A60334B1B6A03F07003102B08D0D8
S214405B10202B0AD0002B00D00BE0304B314A1A60C5
S214405B2007E02E4B304A1A6003E02C4B2C4A1A6092
S214405B3000BF284B1B6B03F00303022B15D1254BEC
S214405B409A6A2A4B13401B0C0133244A126802FB04
S214405B5003F2224B1A60214B1A681E4B9B6ADBB23B
S214405B60B2FBF3F21D4B1A6016E01A4BDA6A1F4B73
S214405B7013401B0C0133194A126802FB03F2174B01
S214405B801A60164B1A68134BDB6ADBB2B2FBF3F2B1
S214405B90124B1A6000E000BF0E4B1B6B03F0700305
S214405BA0702B08D10D4B1A68114BA3FB02135A08F1
S214405BB00A4B1A6009E0094B1A68064B1B6B03F048
S214405BC070031B09DA40054B1A60BD465DF8047B3E
S214405BD0704700BF00040E4010140E4048010020DD
S214405BE0001BB70000093D0000127A000000FF07C6
S214405BF0ABAAAAAA80B483B000AF78607A68184B84
S214405C009A4204D8174B4FF080621A6023E07A68B5
S214405C10154B9A4203D8134B144A1A601BE07A6815
S214405C20134B9A4203D80F4B124A1A6013E07A6815
S214405C30114B9A4203D80B4B104A1A600BE07A6815
S214405C400F4B9A4204D8074B4FF004221A6002E0EA
S214405C50044B0C4A1A600C37BD465DF8047B70470F
S214405C60FF2C3101000A0E40FF5962020001000479
S214405C70FF86930300020004FFB3C404000300043D
S214405C80FFE0F5050005000480B483B000AF03468E
S214405C903960FB7197F90730002B0BDA0D49FB7919
S214405CA003F00F03043B3A68D2B21201D2B20B445F
S214405CB01A7609E0084997F907303A68D2B21201D5
S214405CC0D2B20B4483F800230C37BD465DF8047B04
S214405CD0704700BF00ED00E000E100E080B582B014
S214405CE000AF78607B68013BB3F1807F01D301232E
S214405CF00FE00A4B7A68013A5A604FF0FF300F21A6
S214405D00074B9847054B00229A60044B07221A60BF
S214405D10002318460837BD4680BD00BF10E000E0AF
S214405D20895C400080B483B000AF78607B68072B06
S214405D3025D801A252F823F0595D40005F5D40002F
S214405D40655D40006B5D40006F5D4000735D4000E8
S214405D50775D40007B5D40004FF4FA4310E04FF41F
S214405D6000430DE04FF400430AE0084B08E0084BC0
S214405D7006E0084B04E0074B02E0064B00E0002339
S214405D8018460C37BD465DF8047B704700093D0059
S214405D9000127A00001BB70080B500AF0620054B06
S214405DA09847024613469B0013449B005B081846E0
S214405DB080BD00BF255D400080B500AF024B9847D0
S214405DC00346184680BD00BF995D400080B483B04E
S214405DD000AF0023FB7106E0FB79084A0021D1544E
S214405DE0FB790133FB71FB79042BF5D9034B012278
S214405DF05A710C37BD465DF8047B7047781000201A
S214405E0080B400AF044B1B685A1C034B1A60BD4657
S214405E105DF8047B704700BF7410002080B59AB0D0
S214405E2000AF3B483B4B98473B4B01221A70BFF3B1
S214405E305F8F62B6394B9847394B9847394B9847EE
S214405E40394B98470120394B9847394B9847394B3F
S214405E509847394B9847002387F86730374B984721
S214405E600246374BA3FB02139B091846354B98470F
S214405E700346002B05D00020334B9847012387F874
S214405E806730324B98470346002B2ED097F8673042
S214405E90002B05D02E482F4B9847002387F86730B5
S214405EA007F140031846002120222B4B98472B4BE6
S214405EB01B6807F1400210461946294B984707F1E0
S214405EC040031846274B9847034607F140021344C1
S214405ED0254A1188927819809A702448244B98470E
S214405EE007F1400318461B4B9847224B98470346FA
S214405EF0002B0BD03B46184640211F4B9847386630
S214405F003B461846396E1D4B9847BAE7B9E700BF7F
S214405F1050140E40351B400044010020CD5D40002B
S214405F20E54A4000894B4000791A400059444000F9
S214405F302D11400055464000C1464000B95D400026
S214405F40D34D6210DD5C4000554740008D47400011
S214405F50DC614000E14040003B614000741000209E
S214405F60FD1B40005F614000F4614000F861400066
S214405F703141400071414000894140004960400045
S214405F8080B500AF014B984780BD00BFC14640007A
S214405F9080B500AF014B984780BD00BFD946400052
S214405FA080B500AF074B1B78DBB283F00103DBB252
S214405FB0002B00D005E0044B984703461846034B99
S214405FC0984780BD711000200924400021474000BA
S214405FD080B483B000AF0346FB71054B01221A70B4
S214405FE0012318460C37BD465DF8047B704700BF5A
S214405FF07110002080B483B000AF0346FB71044BA1
S21440600000221A700C37BD465DF8047B704700BF0F
S2144060107110002080B582B000AF02460B46FA7180
S214406020BB71BB79002B04D0FB791846044B9847CC
S21440603003E0FB791846034B98470837BD4680BDBA
S214406040E94640000547400080B586B000AF78601E
S214406050396000237B6102E07B6901337B617B69A9
S2144060607A6813441B780D2B03D07A693B689A42B2
S214406070F2DB00233B6102E03B6901333B613B6955
S2144060807A6813441B782C2B03D03A693B689A42B3
S214406090F2DB0023BB600023FB603B6907F108028C
S2144060A0104679681A46084B984707F10803184681
S2144060B00649074B98470346002B02D10548064B36
S2144060C098471837BD4680BD296140001862400099
S2144060D04B61400020624000E140400070B50E4BEE
S2144060E00E4DED1AAD1000241E46AC4204D056F8B4
S2144060F0242090470134F8E700F0A0F8084D094BFB
S214406100ED1AAD1000241E46AC4204D056F82420AA
S21440611090470134F8E770BD48624000486240004E
S2144061204C6240004862400010B50023934203D0C2
S214406130CC5CC4540133F9E710BD02440346934295
S21440614002D003F8011BFAE7704710F8012B11F84C
S214406150013B012A28BF9A42F7D0D01A704703461F
S21440616013F8012B002AFBD1181A0138704700009B
S2144061707A797877767574737271706F6E6D6C6BB2
S2144061806A6968676665646362613938373635348C
S21440619033323130313233343536373839616263F1
S2144061A06465666768696A6B6C6D6E6F70717273F2
S2144061B07475767778797A005445524D2C4F4B0D4E
S2144061C0000000002C0000000D0000004A00000007
S2144061D00000000051000000000000005379735496
S2144061E069636B205365747570204661696C65649D
S2144061F02E2E2E006D7300005445524D2C50757354
S214406200682D427574746F6E205072657373656442
S2144062102E2E2E20000000005445524D0000000057
S2144062205445524D2C5465726D696E616C20436FB7
S2144062306D6D616E642E2E2E00000000F8B500BF16
S214406240F8BC08BC9E467047F1004000F8B500BF59
S210406250F8BC08BC9E467047CD004000DD
S21440625CA9014000C10340001D0440001105400048
S21440626C00000000D9024000E10340000105400058
S21440627C1105400021054000040309045065617275
S21440628C6365466C656D696E670000004472756D9B
S21440629C546162626572000000030000000000005A
S2144062AC000000000000000000000000000000009D
S2144062BC0000000010000000060000000000000077
S2144062CC000000000000000000000000400000003D
S2144062DC0600000000000000000000000000000067
S2144062EC00000000800000000600000000000000D7
S2144062FC000000000000000000000000000100004C
S21440630C0400000000000000000000000000000038
S21440631C000000000100000000080A0B0F000000FF
S21440632C1201000202000040EB03042400010102AB
S21440633C00010000090243000201008032090400FB
S21440634C000102020100052400100104240202058B
S21440635C24060001052401030107058303400010B1
S21440636C09040100020A00000007058102400000F3
S21440637C0705020240000000000000201400002028
S21440638CE400002028010020D0000020300100202E
S21040639C000000000100000000093D0069
S804405989D9
